:020000040800F2
:10000000A8130024AD020008C1E1000871CA00086D
:10001000B9E10008090600086907010800000000AE
:1000200000000000000000000000000061E6000881
:10003000B11000080000000039E20008C1E7000824
:10004000CB020008CB020008CB020008CB0200085C
:10005000CB020008CB020008CB020008CB0200084C
:10006000CB020008CB020008CB020008CB0200083C
:10007000CB020008CB020008CB020008CB0200082C
:10008000CB020008CB020008CB020008CB0200081C
:10009000CB020008CB020008CB020008CB0200080C
:1000A000CB020008CB020008CB020008CB020008FC
:1000B000CB020008CB020008CB020008CB020008EC
:1000C000CB020008CB020008CB020008CB020008DC
:1000D000CB02000849050108CB020008CB0200084A
:1000E000CB020008CB02000800000000CB02000891
:1000F000CB020008CB020008CB020008CB020008AC
:10010000CB020008CB020008CB020008CB0200089B
:10011000CB020008CB020008CB020008CB0200088B
:10012000CB020008CB02000811060008CB02000831
:10013000CB020008CB020008CB020008CB0200086B
:1001400000000000000000000000000000000000AF
:10015000CB020008CB02000821060008590701085D
:10016000CB020008CB020008CB020008CB0200083B
:10017000CB020008CB020008CB0200080000000000
:10018000CB020008CB020008CB020008CB0200081B
:10019000CB020008CB020008CB020008CB0200080B
:1001A000CB020008CB020008CB020008CB020008FB
:1001B000CB020008CB020008CB020008CB020008EB
:1001C000CB020008CB020008CB020008CB020008DB
:1001D000CB020008CB020008CB020008CB020008CB
:1001E000CB020008CB020008CB020008CB020008BB
:1001F000CB020008CB020008CB020008CB020008AB
:10020000CB020008CB020008CB020008CB0200089A
:10021000CB020008CB020008CB020008CB0200088A
:10022000CB020008CB020008CB020008000000004F
:10023000CB020008CB02000800000000CB0200083F
:10024000CB020008CB020008CB020008CB0200085A
:10025000CB020008CB020008CB020008CB0200084A
:10026000CB020008CB020008CB020008CB0200083A
:10027000CB020008CB020008CB02000800000000FF
:10028000CB020008CB020008CB02000800000000EF
:1002900000000000CB020008DFF80CD000F090F85E
:1002A0000048004739080108A81300240748804780
:1002B0000748804707480047FEE7FEE7FEE7FEE7FE
:1002C000FEE7FEE7FEE7FEE7FEE7FEE7C9100008EF
:1002D000B1E80008990200082DE9F05F054600200A
:1002E00092469B4688460646814640241BE02846A7
:1002F00041464746224600F053F853465A46C01A34
:10030000914110D311461846224600F03AF82D1AB2
:1003100067EB01084F4622460120002100F031F82A
:1003200017EB00094E41201EA4F10104DFDC484612
:1003300031462A464346BDE8F09F40EA01039B0749
:1003400003D009E008C9121F08C0042AFAD203E04A
:1003500011F8013B00F8013B521EF9D27047D2B2AE
:1003600001E000F8012B491EFBD270470022F6E79E
:1003700010B513460A4604461946FFF7F0FF20461B
:1003800010BD202A04DB203A00FA02F10020704759
:100390009140C2F1200320FA03F3194390407047C3
:1003A000202A04DB203A21FA02F00021704721FACA
:1003B00002F3D040C2F12002914008431946704731
:1003C0001CB509480090094801900546009C06E0CC
:1003D000E06840F0010394E8070098471034AC420D
:1003E000F6D3FFF75DFF0000F4090108140A0108C5
:1003F00080B584B003900398006842F20001C4F213
:100400000201884209D0FFE70398006842F2001118
:10041000C4F20201884209D1FFE742F20830C4F277
:100420000200006810F4403F09D129E046F208308C
:10043000C5F60200006810F4403F21D0FFE709F044
:10044000F3F80290039840680190B0F5803F0AD01D
:10045000FFE70198B0F5003F05D0FFE70198B0F540
:10046000403F07D00AE00398C1880298B0FBF1F042
:10047000029004E002988008029000E0FFE75FE04D
:100480004FF40020002107F00BF802900398406819
:100490000090B0F5802F32D0FFE70098B0F5002F24
:1004A0002DD0FFE70098B0F5402F28D0FFE7009847
:1004B000B0F5801F23D0FFE70098B0F5A01F1ED035
:1004C000FFE70098B0F5C01F19D0FFE70098B0F51E
:1004D000E01F1FD0FFE70098B0F5001F1ED0FFE718
:1004E0000098B0F5101F1DD0FFE70098B0F5201F51
:1004F0001CD0FFE70098B0F5301F1BD01EE003981A
:1005000041686FF0010000EA51410298B0FBF1F040
:10051000029014E002980009029010E0029840094D
:1005200002900CE002988009029008E00298C0094D
:10053000029004E00298000A029000E0FFE7FFE763
:1005400005F076FF41F20301884217D8FFE70298D1
:1005500042F60151C0F23111884207D3FFE70398F8
:100560000168886840F48070886006E0039801683C
:10057000886820F480708860FFE743E002984008B4
:100580000290029845F61061C0F25F01884209D8D6
:10059000FFE703980068806820F4407003990968B9
:1005A00088602EE002984BF62041C0F2BE018842DE
:1005B0000AD8FFE7039800688068012161F30920E9
:1005C0000399096888601BE0029847F64001C0F271
:1005D0007D1188420AD8FFE70398006880680221ED
:1005E00061F3092003990968886008E003980068AE
:1005F000806840F44070039909688860FFE7FFE76E
:10060000FFE7FFE704B080BDFFE7FEE70000000062
:1006100080B540F2F000C2F2004003F029F980BD3D
:1006200080B540F26810C2F2004003F021F980BDAD
:1006300083B002900298016801201022C4F20202E5
:100640009142009000F0A380FFE70298016801202A
:100650002822C4F202029142009000F09880FFE745
:100660000298016801204022C4F2020291420090E7
:1006700000F08D80FFE70298016801205822C4F243
:1006800002029142009000F08280FFE70298016828
:1006900001207022C4F202029142009077D0FFE75D
:1006A0000298016801208822C4F20202914200905F
:1006B0006DD0FFE7029801680120A022C4F2020277
:1006C0009142009063D0FFE7029801680120B822B0
:1006D000C4F202029142009059D0FFE702980168EB
:1006E000012040F21042C4F20202914200904ED02A
:1006F000FFE702980168012040F22842C4F202029A
:100700009142009043D0FFE702980168012040F237
:100710004042C4F202029142009038D0FFE70298B2
:100720000168012040F25842C4F202029142009056
:100730002DD0FFE702980168012040F27042C4F218
:1007400002029142009022D0FFE702980168012046
:1007500040F28842C4F202029142009017D0FFE7B3
:1007600002980168012040F2A042C4F202029142C4
:1007700000900CD0FFE7029800684FF64831CBF6A6
:10078000FD710844B0FA80F040090090FFE700983E
:10079000C00740B3FFE70298007810384AF6AB2153
:1007A000CAF6AA21A0FB011000090190019800F0EF
:1007B000070140F6C410C0F60100405C0299C8650C
:1007C0000198042807D3FFE702990868042262F31E
:1007D0000900886506E00299086840F2FF329043FC
:1007E0008865FFE705E00299086820F0FF0088654A
:1007F000FFE70298806D03B0704700000000000022
:1008000084B0039003980068019003980168012068
:1008100045F20842C5F60202914200904ED0FFE731
:1008200003980168012045F21C42C5F6020291427C
:10083000009043D0FFE703980168012045F2304261
:10084000C5F602029142009038D0FFE70398016894
:10085000012045F24442C5F60202914200902DD09B
:10086000FFE703980168012045F25842C5F60202ED
:100870009142009022D0FFE703980168012045F2E1
:100880006C42C5F602029142009017D0FFE7039830
:100890000168012045F28042C5F6020291420090B3
:1008A0000CD0FFE7039800684AF66C31CAF2FD717C
:1008B0000844B0FA80F040090090FFE70098C007B4
:1008C00010B3FFE70398007808384CF6CD41CCF61A
:1008D000CC41A0FB011000090290029945F60000EE
:1008E000C5F6020000EB810003990866039945F6FE
:1008F0008000C5F602004866029800F01F01012042
:1009000088400399886635E00398007810384AF6E5
:10091000AB21CAF6AA21A0FB0110000902900198A0
:1009200040F2B841C4F2020188420CD8FFE70198B6
:1009300040F21041C4F20201884204D3FFE702985A
:1009400008300290FFE7029940F60000C4F202006E
:1009500000EB810003990866039940F68000C4F219
:1009600002004866029800F01F01012088400399A8
:100970008866FFE704B0704783B002900298007960
:1009800001900198002800F08A80FFE7019808286C
:1009900000F28580FFE702980168012045F20842D5
:1009A000C5F60202914200904ED0FFE7029801681E
:1009B000012045F21C42C5F602029142009043D04C
:1009C000FFE702980168012045F23042C5F60202B5
:1009D0009142009038D0FFE702980168012045F26B
:1009E0004442C5F60202914200902DD0FFE70298E2
:1009F0000168012045F25842C5F60202914200907A
:100A000022D0FFE702980168012045F26C42C5F64A
:100A100002029142009017D0FFE70298016801207E
:100A200045F28042C5F60202914200900CD0FFE7E9
:100A3000029800684AF66C31CAF2FD710844B0FAB7
:100A400080F040090090FFE70098C00780B1FFE701
:100A5000019945F6FC00C5F6020000EB8100029901
:100A6000C866029945F64010C5F6020008670FE017
:100A7000019940F6FC00C4F2020000EB81000299EB
:100A8000C866029940F64010C4F202000867FFE70A
:100A90000198411E0120884002994867FFE703B092
:100AA000704700000000000085B0049000208DF821
:100AB0000F000498806918BBFFE70498806A0290D1
:100AC00003281BD80299DFE801F0020D02180498F0
:100AD00090F82F00C00720B1FFE701208DF80F002C
:100AE000FFE70CE00498C06AB0F1C07F04D1FFE7D3
:100AF00001208DF80F00FFE701E000E0FFE747E08D
:100B000004988069B0F5005F26D1FFE70498806AF9
:100B1000019003281ED80199DFE801F002060211B6
:100B200001208DF80F0016E0049890F82F00C00700
:100B300020B1FFE701208DF80F00FFE70BE00498DC
:100B4000C06AB0F1C07F04D1FFE701208DF80F002B
:100B5000FFE700E0FFE71AE00498806A00900328AE
:100B600004D3FFE70098032804D00EE001208DF89D
:100B70000F000BE0049890F82F00C00720B1FFE7AA
:100B800001208DF80F00FFE700E0FFE7FFE7FFE738
:100B90009DF80F0005B0704789B008900791069244
:100BA00005930898806D04900898806D03900898CC
:100BB000016801201022C4F202029142029000F06A
:100BC0000381FFE70898016801202822C4F202028D
:100BD0009142029000F0F880FFE708980168012038
:100BE0004022C4F202029142029000F0ED80FFE741
:100BF0000898016801205822C4F202029142029032
:100C000000F0E280FFE70898016801207022C4F23A
:100C100002029142029000F0D780FFE70898016835
:100C200001208822C4F202029142029000F0CC809E
:100C3000FFE7089801680120A022C4F20202914255
:100C4000029000F0C180FFE7089801680120B822F7
:100C5000C4F202029142029000F0B680FFE70898C9
:100C60000168012040F21042C4F202029142029057
:100C700000F0AA80FFE708980168012040F22842AE
:100C8000C4F202029142029000F09E80FFE70898B1
:100C90000168012040F24042C4F2020291420290F7
:100CA00000F09280FFE708980168012040F2584266
:100CB000C4F202029142029000F08680FFE7089899
:100CC0000168012040F27042C4F202029142029097
:100CD0007AD0FFE708980168012040F28842C4F208
:100CE0000202914202906FD0FFE70898016801204C
:100CF00040F2A042C4F202029142029064D0FFE7A7
:100D000008980168012040F2B842C4F20202914200
:100D1000029059D0FFE708980168012045F2084287
:100D2000C5F60202914202904ED0FFE70898016892
:100D3000012045F21C42C5F602029142029043D0C6
:100D4000FFE708980168012045F23042C5F602022B
:100D50009142029038D0FFE708980168012045F2DF
:100D60004442C5F60202914202902DD0FFE7089856
:100D70000168012045F25842C5F6020291420290F4
:100D800022D0FFE708980168012045F26C42C5F6C1
:100D900002029142029017D0FFE7089801680120F3
:100DA00045F28042C5F60202914202900CD0FFE764
:100DB000089800684AF66C31CAF2FD710844B0FA2E
:100DC00080F040090290FFE70298C00770B1FFE78A
:100DD0000898416E806E48600898C06E28B1FFE7A1
:100DE0000898016F406F4860FFE7FFE708980168C7
:100DF00001201022C4F202029142019000F0A3806F
:100E0000FFE70898016801202822C4F202029142FB
:100E1000019000F09880FFE70898016801204022C7
:100E2000C4F202029142019000F08D80FFE7089821
:100E3000016801205822C4F202029142019000F0A0
:100E40008280FFE70898016801207022C4F2020244
:100E50009142019077D0FFE708980168012088222D
:100E6000C4F20202914201906DD0FFE70898016838
:100E70000120A022C4F202029142019063D0FFE758
:100E8000089801680120B822C4F202029142019040
:100E900059D0FFE708980168012040F21042C4F2DF
:100EA0000202914201904ED0FFE7089801680120AC
:100EB00040F22842C4F202029142019043D0FFE77F
:100EC00008980168012040F24042C4F202029142B7
:100ED000019038D0FFE708980168012040F258429D
:100EE000C4F20202914201902DD0FFE708980168F8
:100EF000012040F27042C4F202029142019022D0DD
:100F0000FFE708980168012040F28842C4F202021B
:100F10009142019017D0FFE708980168012040F244
:100F2000A042C4F20202914201900CD0FFE708985F
:100F300000684FF64831CBF6FD710844B0FA80F0F6
:100F400040090190FFE70198C00750B3FFE70898F8
:100F5000C06D00F01F013F20884004998860089808
:100F60000168086820F480200860059808990968DD
:100F7000486008988068402809D1FFE706980899DA
:100F800009688860079808990968C86008E00798A8
:100F9000089909688860069808990968C860FFE799
:100FA00082E008980168012045F20842C5F6020275
:100FB000914200904ED0FFE708980168012045F269
:100FC0001C42C5F602029142009043D0FFE7089808
:100FD0000168012045F23042C5F6020291420090BC
:100FE00038D0FFE708980168012045F24442C5F671
:100FF0000202914200902DD0FFE70898016801207D
:1010000045F25842C5F602029142009022D0FFE715
:1010100008980168012045F26C42C5F6020291422F
:10102000009017D0FFE708980168012045F2804240
:10103000C5F60202914200900CD0FFE708980068C4
:101040004AF66C31CAF2FD710844B0FA80F04009EA
:101050000090FFE70098C00720B3FFE70898C06D35
:1010600000F01F0101208840039948600598089905
:101070000968486008988068402809D1FFE7069809
:10108000089909688860079808990968C86008E0A5
:101090000798089909688860069808990968C860DF
:1010A000FFE700E0FFE7FFE709B07047000000003E
:1010B000704700000000000081B0EFF3108072B6AE
:1010C0000090FFE7FEE7000044F60C01C5F60201C0
:1010D000086840F002000860FFE744F60400C5F627
:1010E000020000688004002801D4FFE7F5E770479C
:1010F00084B002900298406B009002980068D0F88B
:1011000084004FF6FC718843009940EA81000299FF
:101110000968C1F8840002980068D0F8840020F4BF
:101120007F00029A1168926B40EA0240C1F8840085
:101130000298816B00980844009002980068D0F8EB
:1011400088006FF38F00009940EA810002990968D6
:10115000C1F8880002980068D0F8880020F4FE00EA
:10116000029A1168D26B40EA0240C1F888000298E6
:10117000C16B009800EB4100009002980068D0F825
:10118000A0006FF38F00009940EA8100029909687E
:10119000C1F8A00002980068D0F8A00020F4FE007A
:1011A000029A1168126C40EA0240C1F8A00002994C
:1011B000086C496C009A00FB0120009002980068BE
:1011C000D0F8B0006FF38F00009940EA81000299D7
:1011D0000968C1F8B00002980068D0F8B00020F4A7
:1011E000FE00029A1168926C40EA0240C1F8B00019
:1011F0000299886CC96C009A00FB0120009002984B
:101200000068D0F8AC006FF38F00009940EA8100CD
:1012100002990968C1F8AC000299086D496D009AFD
:1012200000FB0120009002980068D0F8F0006FF3F6
:101230008F00009940EA810002990968C1F8F00026
:1012400002980068D0F8F00020F47C10029A11682F
:10125000926D40EA0240C1F8F0000298816D00985A
:1012600000EB4100009002980068D0F8C0006FF3D6
:101270008F00009940EA810002990968C1F8C00016
:1012800002980068D0F8C00020F47C10029A11681F
:10129000D26D40EA0240C1F8C00002980068D0F860
:1012A000C00020F07C50029A1168126E40EA026081
:1012B000C1F8C00002994A6B4AF60040C4F200002F
:1012C00000EB8200C86602998A6BC86E00EB820050
:1012D00008670299CA6B086F00EBC2004867029961
:1012E0000A6C4B6C486F5A4300EB82008867029986
:1012F0008A6CCB6C886F5A4300EB8200C8670299F6
:101300000A6D4B6DC86F5A4300EB8200C1F8800034
:1013100002998A6DD1F8800000EBC200C1F8840008
:101320000299CA6D8B6ED1F884005A4300EB82009B
:10133000C1F8880002990A6E8B6ED1F888005A4372
:1013400000EB8200C1F890000298D0F890004DF2B6
:10135000FD31C4F2000188420FD3FFE70299D1F8B2
:101360009C0040F02000C1F89C000299032081F805
:10137000980001208DF80F0017E00298C06E0190D0
:10138000FFE701980299D1F89010884208D2FFE750
:10139000019900200860FFE7019804300190F0E710
:1013A000FFE700208DF80F00FFE79DF80F0004B065
:1013B000704700000000000080B5A6B02490239183
:1013C00000208DF88B002398006808B1FFE7FFE745
:1013D000FFE7249890F85000012804D1FFE702208D
:1013E0008DF897002DE12499012081F85000FFE746
:1013F000FFE700201D901E902498006842F2000133
:10140000C4F20201884206D1FFE742F20010C4F2A2
:101410000200089002E000200890FFE7089878B9E1
:10142000FFE72499486D40F020004865FFE72499C4
:10143000002081F85000FFE701208DF8970000E1BF
:1014400008980BF06DFB0790249800680BF068FB80
:10145000002840F0E280FFE70798002840F0DD8098
:10146000FFE724980168012042F20002C4F2020260
:10147000914206900CD0FFE7249800684DF6007169
:10148000CBF6FD710844B0FA80F040090690FFE702
:101490000698C10746F20030C5F6020000291CBFBD
:1014A00042F20030C4F20200219023980068002824
:1014B0005ED0FFE72198806820F440402399496876
:1014C00008432199886024980168012042F20002B3
:1014D000C4F20202914205900CD0FFE72498006804
:1014E0004DF60071CBF6FD710844B0FA80F040096A
:1014F0000590FFE70598C10746F20030C5F60200E7
:1015000000291CBF42F20030C4F2020042F2003156
:10151000C4F20201884212D1FFE742F20000C4F295
:1015200002000BF0E5FA039042F20010C4F2020050
:101530000BF0DEFA014603980843049007E046F2F8
:101540000000C5F602000BF0D3FA0490FFE7049800
:1015500068B9FFE72198806840F61F718843239A95
:10156000116892681143084321998860FFE753E0AE
:101570002199886820F440408860249801680120FF
:1015800042F20002C4F20202914202900CD0FFE744
:10159000249800684DF60071CBF6FD710844B0FA4E
:1015A00080F040090290FFE70298C10746F2003040
:1015B000C5F6020000291CBF42F20030C4F202004E
:1015C00042F20031C4F20201884212D1FFE742F236
:1015D0000000C4F202000BF08BFA009042F20010FF
:1015E000C4F202000BF084FA01460098084301900F
:1015F00007E046F20000C5F602000BF079FA019010
:10160000FFE7019838B9FFE72199886840F61F7213
:1016100090438860FFE7FFE708E02499486D40F0B9
:101620002000486501208DF88B00FFE7FFE7249933
:10163000002081F85000FFE79DF88B008DF897009F
:10164000FFE79DF8970026B080BD00000000000075
:1016500080B5AAB02690259100208DF893002190A6
:10166000269890F83800012801D1FFE700E0FFE755
:101670002598C0680021C4F2FF71884201D0FFE7BD
:101680001EE02698006842F20001C4F2020188427E
:1016900001D1FFE7FFE72698006842F20011C4F28B
:1016A0000201884201D1FFE7FFE72698006846F271
:1016B0000001C5F60201884201D1FFE7FFE7FFE71D
:1016C000FFE7269890F85000012804D1FFE7022098
:1016D0008DF89F00F1E32699012081F85000FFE783
:1016E000FFE7269800680BF013FA002840F0D1833A
:1016F000FFE72598C078000600282DD4FFE725983D
:101700000068000330B9FFE725980068C0F38460E3
:101710001E9015E02598006890FAA0F0289028986F
:1017200020B9FFE720208DF8A70005E02898B0FA3F
:1017300080F08DF8A700FFE79DF8A7001E90FFE757
:101740001E9800F01F01012000FA01F2269801689E
:10175000C8691043C861FFE72698006825990A68A0
:1017600049680BF0E5F9269800680BF0D1F9209054
:10177000269800680BF0A4F91F902098002840F0EC
:10178000B580FFE71F98002840F0B080FFE726985B
:101790000068259A116892680BF01AFA41F200006D
:1017A000C5F60040006800F07040B0F1805F0BD1DA
:1017B000FFE72598406926990968C96801F01C016E
:1017C000490888401D901FE026980068C068C00640
:1017D00000280BD4FFE72598406926990968C96855
:1017E00001F01C01490888401C900AE025984069D6
:1017F00026990968C96801F01001490888401C90C1
:10180000FFE71C981D90FFE71D982390259800691D
:10181000042821D0FFE72698006825990A680969FD
:10182000239B0BF041FA26980068259A1169527E95
:10183000013AB2FA82F25209D2070BF051FA269815
:101840000068259A1169127E013AB2FA82F25209B1
:10185000D2020BF015FA48E026980068006E00F0FE
:10186000F84025990968B0EB816F07D1FFE726980A
:101870000168086E20F000400866FFE726980068BF
:10188000406E00F0F84025990968B0EB816F07D1F0
:10189000FFE726980168486E20F000404866FFE7A1
:1018A00026980068806E00F0F84025990968B0EB32
:1018B000816F07D1FFE726980168886E20F000400D
:1018C0008866FFE726980068C06E00F0F84025990A
:1018D0000968B0EB816F07D1FFE726980168C86EF1
:1018E00020F00040C866FFE7FFE7FFE726980068A2
:1018F0000BF0F6F8002840F0CB82FFE7269800684E
:10190000259A1168D2680BF07FF92598C0680021EC
:10191000C4F2FF71884240F05781FFE726980068C3
:101920001B9042F20001C4F20201884240F0A48000
:10193000FFE7259800680221C0F23041884203D1B8
:10194000FFE701201A9094E0259800680421C0F672
:101950006001884205D1FFE74020C1F620101990B0
:1019600084E0259800680821C0F69041884205D19E
:10197000FFE78020C1F65050189074E02598006869
:101980001021C1F2C001884206D1FFE740F20010E9
:10199000C2F28010179063E0259800682021C1F200
:1019A000F041884206D1FFE740F20020C2F2B05079
:1019B000169052E02598006840F20041C2F60021DE
:1019C000884206D1FFE740F60000C2F6306015906D
:1019D00040E02598006840F60001C2F63061884278
:1019E00006D1FFE741F20000C3F2602014902EE020
:1019F0002598006841F20001C3F26021884206D1B7
:101A0000FFE742F20000C3F2906013901CE02598BB
:101A100000680021C4F22131884205D1FFE700208F
:101A2000C4F2527012900CE0259801680022C4F6AE
:101A300084320020914204BF0020C4F6B870129096
:101A4000FFE712981390FFE713981490FFE714989C
:101A50001590FFE715981690FFE716981790FFE787
:101A600017981890FFE718981990FFE719981A909F
:101A7000FFE71A981190A2E02698006842F2001140
:101A8000C4F20201884240F09480FFE72598006884
:101A90000221C0F23041884203D1FFE701201090BB
:101AA00084E0259800680421C0F66001884205D1D1
:101AB000FFE74020C1F620100F9074E025980068E1
:101AC0000821C0F69041884205D1FFE78020C1F689
:101AD00050500E9064E0259800681021C1F2C001BA
:101AE000884206D1FFE740F20010C2F280100D904C
:101AF00053E0259800682021C1F2F041884206D1C8
:101B0000FFE740F20020C2F2B0500C9042E025986E
:101B1000006840F20041C2F60021884206D1FFE78A
:101B200040F60000C2F630600B9030E02598006867
:101B300040F60001C2F63061884206D1FFE741F26B
:101B40000000C3F260200A901EE02598006841F270
:101B50000001C3F26021884206D1FFE742F2000093
:101B6000C3F2906009900CE0259801680022C4F649
:101B700084320020914204BF0020C4F6B87009905E
:101B8000FFE709980A90FFE70A980B90FFE70B9888
:101B90000C90FFE70C980D90FFE70D980E90FFE773
:101BA0000E980F90FFE70F981090FFE7109808909D
:101BB00002E000200890FFE708981190FFE71B98CB
:101BC00011990AF0D5FFFFE72598C0780006002894
:101BD00040F15D81FFE726980168012042F2000292
:101BE000C4F20202914207900CD0FFE726980068E9
:101BF0004DF60071CBF6FD710844B0FA80F0400953
:101C00000790FFE70798C10746F20030C5F60200CB
:101C100000291CBF42F20030C4F202000AF048FF63
:101C20002290269801684FF0010042F20002C4F2AF
:101C30000202914206900CD0FFE7269800684DF60C
:101C40000071CBF6FD710844B0FA80F040090690AF
:101C5000FFE70698C10746F20030C5F602000029EA
:101C60001CBF42F20030C4F2020042F20031C4F262
:101C70000201884212D1FFE742F20000C4F20200E2
:101C80000AF02EFF049042F20010C4F202000AF0A3
:101C900027FF014604980843059007E046F200003C
:101CA000C5F602000AF01CFF0590FFE70598002822
:101CB00040F0E380FFE7259800680021CCF68431EE
:101CC000884255D1FFE79DF88A00000600284FD4CE
:101CD000FFE72698006846F20001C5F60201884237
:101CE00045D1FFE726980168012042F20002C4F2C4
:101CF0000202914203900CD0FFE7269800684DF64F
:101D00000071CBF6FD710844B0FA80F040090390F1
:101D1000FFE70398C10746F20030C5F6020000292C
:101D20001CBF42F20030C4F20200229941F40001CB
:101D30000AF096FF40F20000C2F2004000684FEA4D
:101D4000901042F66351C0F23E51A0FB01104FEAE1
:101D500090114FF0020000EB41002190FFE7219825
:101D600020B1FFE7219801382190F8E7FFE783E0F1
:101D7000259800680021CCF25271884238D1FFE7E3
:101D80009DF88B00C00798BBFFE72698006846F2D5
:101D90000001C5F60201884229D1FFE726980168B3
:101DA000012042F20002C4F20202914202900CD0E1
:101DB000FFE7269800684DF60071CBF6FD710844E8
:101DC000B0FA80F040090290FFE70298C10746F29E
:101DD0000030C5F6020000291CBF42F20030C4F2F8
:101DE0000200229941F080710AF03AFFFFE742E0D9
:101DF000259800680021CCF6B871884239D1FFE7F8
:101E00009DF88A004006002833D4FFE72698006832
:101E100046F20001C5F60201884229D1FFE7269863
:101E20000168012042F20002C4F2020291420190D4
:101E30000CD0FFE7269800684DF60071CBF6FD71D7
:101E40000844B0FA80F040090190FFE70198C1070B
:101E500046F20030C5F6020000291CBF42F20030F5
:101E6000C4F20200229941F480010AF0F9FEFFE772
:101E700000E0FFE7FFE7FFE708E02699486D40F044
:101E80002000486501208DF89300FFE7FFE7FFE79A
:101E900008E02699486D40F02000486501208DF843
:101EA0009300FFE7FFE72699002081F85000FFE745
:101EB0009DF893008DF89F00FFE79DF89F002AB0E2
:101EC00080BD00000000000010B58CB00A9000201A
:101ED0008DF8270006900A9820B9FFE701208DF8B9
:101EE0002F00D1E10A98C06838B1FFE70A98007F57
:101EF000012801D1FFE7FFE7FFE70A98406D50B9DD
:101F0000FFE70A9800F0C4F90A99002088650A9949
:101F100081F85000FFE70A9800680AF0D9FD28B15F
:101F2000FFE70A9800680AF0A7FDFFE70A98006833
:101F30000AF0E6FDE8B9FFE70A9800680AF0A8FD94
:101F400040F20000C2F200400068800942F663518E
:101F5000C0F23E51A0FB0101012000EB9110069060
:101F6000FFE7069820B1FFE7069801380690F8E7EA
:101F7000FFE70A9800680AF0C3FD70B9FFE70A9905
:101F8000486D40F0100048650A99886D40F00100E6
:101F9000886501208DF82700FFE70A9800680AF09D
:101FA000B7FD07900A98406DC006002800F15E81D9
:101FB000FFE70798002840F05981FFE70A98406D35
:101FC00040F0020020F480700A9948650A98006881
:101FD0000AF086FD002870D1FFE70A980168012009
:101FE00042F20002C4F20202914203900CD0FFE7D9
:101FF0000A9800684DF60071CBF6FD710844B0FAFE
:1020000080F040090390FFE70398C10746F20030D3
:10201000C5F6020000291CBF42F20030C4F20200E3
:1020200042F20031C4F20201884212D1FFE742F2CB
:102030000000C4F202000AF053FD019042F20010C9
:10204000C4F202000AF04CFD0146019808430290D8
:1020500007E046F20000C5F602000AF041FD0290DA
:10206000FFE7029840BBFFE70A980168012042F2AF
:102070000002C4F20202914200900CD0FFE70A98DD
:1020800000684DF60071CBF6FD710844B0FA80F09F
:1020900040090090FFE70098C10746F20030C5F6FE
:1020A000020000291CBF42F20030C4F202000A996B
:1020B00049680AF0C5FDFFE7FFE704F0B9F941F20E
:1020C0000401884213D3FFE70A98806810280ED1D4
:1020D000FFE70A994A7D086B40EA42308A6810435C
:1020E000097F40EA014040F00C0008900BE00A999B
:1020F0004A7D086B40EA42308A681043097F40EA13
:1021000001400890FFE70A98007F01280BD1FFE704
:102110000A98016A0020CFF6FE7000EB4141089852
:1021200008430890FFE70A98406A50B1FFE70A9910
:10213000486A896A00F47870014308980843089057
:10214000FFE70A980068C0684CF20301CFF6F0710F
:102150000840089908430A990968C8600A98006805
:102160000AF0D6FC05900A9800680AF0A9FC0490D1
:102170000598002859D1FFE70498002855D1FFE7BA
:102180000A98017DC06A40EA813008900A98006888
:10219000C06844F203018843089908430A99096812
:1021A000C8600A9890F83800012829D1FFE70A98FA
:1021B000406A20B1FFE70A98806A08B9FFE7FFE7A5
:1021C0000A98006800694FF61E01CFF6004100EA48
:1021D00001020A9B1968DC6BD3F840E0D3F844C0D5
:1021E0000020CFF6FF7000EB044040EA0E0040EA0A
:1021F0000C009B6C1843104340F00100086106E09E
:102200000A980168086920F001000861FFE70A9850
:102210000068006920F070400A9A1168526B104300
:1022200008610A98FEF7E4F8FFE70A98C0680128F9
:102230000CD1FFE70A980068006B20F00F000A9AA3
:1022400011689269013A1043086306E00A98016830
:10225000086B20F00F000863FFE70A98406D40F01C
:10226000010020F002000A99486508E00A99486DCB
:1022700040F01000486501208DF82700FFE79DF829
:1022800027008DF82F00FFE79DF82F000CB010BD40
:1022900080B596B015900020149013901290119074
:1022A00010901598006842F20001C4F202018842C1
:1022B00040F08480FFE7FFE744F2D840C5F6020013
:1022C000016841F020010160006800F020000F90DB
:1022D0000F98FFE7FFE744F2E040C5F6020001680F
:1022E00041F001010160006800F001000E900E98BD
:1022F000FFE7FFE744F2E040C5F60200016841F065
:1023000004010160006800F004000D900D98FFE7E3
:10231000FFE744F2E040C5F60200016841F0020127
:102320000160006800F002000C900C98FFE7FFE7E6
:1023300044F2E040C5F60200016841F0200101606E
:10234000006800F020000B900B98FFE7C020109071
:102350000320049011900020059012900020C5F6F3
:10236000020010A9069103F067FE049A05980699E9
:10237000102310931192129040F60000C5F602004F
:1023800003F05AFE049A05980699022310931192BD
:10239000129040F20040C5F6020003F04DFE049A90
:1023A000059806994FF4C05310931192129041F280
:1023B0000040C5F6020003F03FFE70E0159800688B
:1023C00046F20001C5F60201884267D1FFE7FFE748
:1023D00044F2E040C5F60200016841F080710160FE
:1023E000006800F080700A900A98FFE7FFE744F267
:1023F000E040C5F60200016841F02001016000687C
:1024000000F0200009900998FFE7FFE744F2E04060
:10241000C5F60200016841F004010160006800F0A7
:10242000040008900898FFE7FFE744F2E040C5F693
:102430000200016841F080010160006800F0800046
:1024400007900798FFE74FF48A60109003200190EF
:10245000119000200290129041F20040C5F6020057
:1024600010A9039103F0E8FD019A029803991092D4
:102470001192129040F60000C5F6020003F0DCFD58
:10248000019A02980399042310931192129041F635
:102490000040C5F6020003F0CFFDFFE7FFE716B0EE
:1024A00080BD00000000000080B58AB00890079150
:1024B000069200208DF81700089818B1FFE70798DA
:1024C00020B9FFE701208DF8270049E1079800694E
:1024D000012801D1FFE7FFE707980068042801D130
:1024E000FFE706E007988068022801D1FFE7FFE7D1
:1024F000FFE7FFE708984079012804D1FFE70220B1
:102500008DF827002CE1089901204871FFE7FFE7CB
:102510000899022008710798006804287ED1FFE717
:1025200003F08EFF0290069878BBFFE7FFE708985C
:102530000068406B48F20001C2F2000108421ED060
:10254000FFE703F07DFF0299401A022816D3FFE748
:1025500008980068406B48F20001C2F2000108428E
:102560000BD0FFE70899086940F008000861089956
:10257000032008718DF82700F2E0FFE7D7E70798FE
:10258000806908990968086426E0FFE708980068F0
:10259000406BC00FD0B1FFE703F052FF0299401A21
:1025A000022812D3FFE708980068406BC00F58B1AB
:1025B000FFE70899086940F00800086108990320BE
:1025C00008718DF82700CBE0FFE7DFE70798806907
:1025D000089909684864FFE708980068806C0699C4
:1025E00001F0100240F2FF31914088430799C96918
:1025F0009140084308990968886408980068C06C8D
:10260000069901F01002FF21914088430799096A59
:102610009140084308990968C864FFE70798006972
:1026200001281ED1FFE708980068806B0490069887
:1026300000F010011F2000FA01F104988843049073
:102640000798406903900398069901F0100100FA79
:1026500001F1049808430490049808990968886374
:10266000FFE708980068C06B0490069800F010011E
:10267000072000FA01F10498884304900798C06885
:10268000012803D1FFE70020019013E00798C068FC
:10269000022803D1FFE7012001900AE00798806833
:1026A00018B9FFE70120019002E000200190FFE748
:1026B000FFE7FFE70799086889680843019908431D
:1026C00003900398069901F0100100FA01F10498B3
:1026D00008430490049808990968C863069800F0B4
:1026E00010014FF4804000FA01F208980168086870
:1026F000904308600898006800680490069800F00D
:10270000100140F6FE7000FA01F10498884304902D
:102710000798406803900398069901F0100100FAA9
:1027200001F1049808430490049808990968086026
:10273000069800F01001C02000FA01F20898016824
:10274000086890430860089901200871FFE708991C
:1027500000204871FFE79DF817008DF82700FFE77C
:102760009DF827000AB080BD80B582B00090009827
:1027700020B9FFE701208DF8070016E000980079E6
:1027800038B9FFE7009900204871009800F014F86C
:10279000FFE7009902200871009900200861009A63
:1027A000012111718DF80700FFE79DF8070002B0C5
:1027B00080BD00000000000080B588B007900020B8
:1027C000069005900490039002900798006847F2E5
:1027D0000041C4F2000188422BD1FFE7FFE744F239
:1027E000E840C5F60200016841F000510160006850
:1027F00000F0005001900198FFE7FFE744F2E0404D
:10280000C5F60200016841F001010160006800F0B6
:10281000010000900098FFE7302002900320039011
:10282000002004900020C5F6020002A903F004FC79
:10283000FFE708B080BD000080B58AB0089003F0C3
:10284000FFFD0490089828B9FFE701208DF82700C4
:1028500000F0AABC089890F8350002280ED0FFE7D7
:10286000089980204865FFE70899002081F8340026
:10287000FFE701208DF8270000F096BC089801685A
:1028800001201022C4F202029142039000F0A380C2
:10289000FFE70898016801202822C4F20202914251
:1028A000039000F09880FFE708980168012040221B
:1028B000C4F202029142039000F08D80FFE7089875
:1028C000016801205822C4F202029142039000F0F4
:1028D0008280FFE70898016801207022C4F202029A
:1028E0009142039077D0FFE7089801680120882281
:1028F000C4F20202914203906DD0FFE7089801688C
:102900000120A022C4F202029142039063D0FFE7AB
:10291000089801680120B822C4F202029142039093
:1029200059D0FFE708980168012040F21042C4F234
:102930000202914203904ED0FFE7089801680120FF
:1029400040F22842C4F202029142039043D0FFE7D2
:1029500008980168012040F24042C4F2020291420C
:10296000039038D0FFE708980168012040F25842F0
:10297000C4F20202914203902DD0FFE7089801684B
:10298000012040F27042C4F202029142039022D030
:10299000FFE708980168012040F28842C4F2020271
:1029A0009142039017D0FFE708980168012040F298
:1029B000A042C4F20202914203900CD0FFE70898B3
:1029C00000684FF64831CBF6FD710844B0FA80F04C
:1029D00040090390FFE70398C00780B1FFE708981C
:1029E0000168086820F01E000860089801684869BE
:1029F00020F08000486108980068059009E0089878
:102A00000168086820F00E000860089800680590CA
:102A1000FFE70898016801201022C4F202029142E7
:102A2000029000F00381FFE7089801680120282246
:102A3000C4F202029142029000F0F880FFE7089889
:102A4000016801204022C4F202029142029000F08B
:102A5000ED80FFE70898016801205822C4F20202C5
:102A60009142029000F0E280FFE70898016801209F
:102A70007022C4F202029142029000F0D780FFE778
:102A80000898016801208822C4F202029142029053
:102A900000F0CC80FFE7089801680120A022C4F272
:102AA00002029142029000F0C180FFE7089801689D
:102AB0000120B822C4F202029142029000F0B680D6
:102AC000FFE708980168012040F21042C4F20202B8
:102AD0009142029000F0AA80FFE708980168012067
:102AE00040F22842C4F202029142029000F09E801D
:102AF000FFE708980168012040F24042C4F2020258
:102B00009142029000F09280FFE70898016801204E
:102B100040F25842C4F202029142029000F08680D4
:102B2000FFE708980168012040F27042C4F20202F7
:102B3000914202907AD0FFE708980168012040F2A4
:102B40008842C4F20202914202906FD0FFE70898D7
:102B50000168012040F2A042C4F2020291420290B8
:102B600064D0FFE708980168012040F2B842C4F23F
:102B700002029142029059D0FFE7089801680120B3
:102B800045F20842C5F60202914202904ED0FFE79C
:102B900008980168012045F21C42C5F602029142E4
:102BA000029043D0FFE708980168012045F23042C7
:102BB000C5F602029142029038D0FFE708980168FA
:102BC000012045F24442C5F60202914202902DD006
:102BD000FFE708980168012045F25842C5F6020255
:102BE0009142029022D0FFE708980168012045F247
:102BF0006C42C5F602029142029017D0FFE7089896
:102C00000168012045F28042C5F60202914202901D
:102C10000CD0FFE7089800684AF66C31CAF2FD71E3
:102C20000844B0FA80F040090290FFE70298C0071C
:102C300038B1FFE70898016E086820F480700860DA
:102C4000FFE7089800681021C4F20201884200F0F2
:102C50008180FFE7089800682821C4F202018842B9
:102C600078D0FFE7089800684021C4F2020188424A
:102C700070D0FFE7089800685821C4F2020188422A
:102C800068D0FFE7089800687021C4F2020188420A
:102C900060D0FFE7089800688821C4F202018842EA
:102CA00058D0FFE708980068A021C4F202018842CA
:102CB00050D0FFE708980068B821C4F202018842AA
:102CC00048D0FFE70898006840F21041C4F20201C2
:102CD00088423FD0FFE70898006840F22841C4F2DC
:102CE0000201884236D0FFE70898006840F2404170
:102CF000C4F2020188422DD0FFE70898006840F234
:102D00005841C4F20201884224D0FFE708980068C5
:102D100040F27041C4F2020188421BD0FFE70898DC
:102D2000006840F28841C4F20201884212D0FFE7F5
:102D30000898006840F2A041C4F20201884209D01C
:102D4000FFE70898006840F2B841C4F202018842E7
:102D500007D1FFE708980168086820F001000860C3
:102D600006E008980168086820F001000860FFE7A5
:102D7000FFE705980068C007C8B1FFE703F060FBF4
:102D80000499401A062811D3FFE7089920204865C6
:102D90000899032081F83500FFE70899002081F8A1
:102DA0003400FFE701208DF82700FDE1E1E70898F6
:102DB000016801201022C4F202029142019000F049
:102DC000A380FFE70898016801202822C4F20202CC
:102DD0009142019000F09880FFE708980168012077
:102DE0004022C4F202029142019000F08D80FFE780
:102DF0000898016801205822C4F202029142019011
:102E000000F08280FFE70898016801207022C4F278
:102E100002029142019077D0FFE7089801680120F3
:102E20008822C4F20202914201906DD0FFE7089817
:102E300001680120A022C4F202029142019063D0F5
:102E4000FFE7089801680120B822C4F2020291420B
:102E5000019059D0FFE708980168012040F2104224
:102E6000C4F20202914201904ED0FFE70898016837
:102E7000012040F22842C4F202029142019043D064
:102E8000FFE708980168012040F24042C4F20202C4
:102E90009142019038D0FFE708980168012040F284
:102EA0005842C4F20202914201902DD0FFE70898E7
:102EB0000168012040F27042C4F202029142019086
:102EC00022D0FFE708980168012040F28842C4F24E
:102ED00002029142019017D0FFE708980168012093
:102EE00040F2A042C4F20202914201900CD0FFE7EE
:102EF000089800684FF64831CBF6FD710844B0FAE7
:102F000080F040090190FFE70198C00760B1FFE73A
:102F10000898806D07900898C06D00F01F013F2051
:102F20008840079988600BE00898806D06900898A3
:102F3000C06D00F01F010120884006994860FFE73E
:102F40000898016801201022C4F202029142009008
:102F500000F00381FFE70898016801202822C4F2ED
:102F600002029142009000F0F880FFE708980168A3
:102F700001204022C4F202029142009000F0ED8054
:102F8000FFE70898016801205822C4F2020291422A
:102F9000009000F0E280FFE70898016801207022AD
:102FA000C4F202029142009000F0D780FFE7089837
:102FB000016801208822C4F202029142009000F0D0
:102FC000CC80FFE7089801680120A022C4F2020229
:102FD0009142009000F0C180FFE70898016801204D
:102FE000B822C4F202029142009000F0B680FFE7DE
:102FF00008980168012040F21042C4F20202914296
:10300000009000F0AA80FFE708980168012040F2D4
:103010002842C4F202029142009000F09E80FFE735
:1030200008980168012040F24042C4F20202914235
:10303000009000F09280FFE708980168012040F2BC
:103040005842C4F202029142009000F08680FFE7ED
:1030500008980168012040F27042C4F202029142D5
:1030600000907AD0FFE708980168012040F288427A
:10307000C4F20202914200906FD0FFE70898016805
:10308000012040F2A042C4F202029142009064D0BA
:10309000FFE708980168012040F2B842C4F202023A
:1030A0009142009059D0FFE708980168012045F24D
:1030B0000842C5F60202914200904ED0FFE7089800
:1030C0000168012045F21C42C5F6020291420090BF
:1030D00043D0FFE708980168012045F23042C5F669
:1030E00002029142009038D0FFE708980168012061
:1030F00045F24442C5F60202914200902DD0FFE70E
:1031000008980168012045F25842C5F60202914232
:10311000009022D0FFE708980168012045F26C4238
:10312000C5F602029142009017D0FFE708980168A7
:10313000012045F28042C5F60202914200900CD077
:10314000FFE7089800684AF66C31CAF2FD7108443E
:10315000B0FA80F040090090FFE70098C007A0B1E6
:10316000FFE70898416E806E48600898C06E58B1BD
:10317000FFE70898C16E086820F48070086008981E
:10318000016F406F4860FFE7FFE70899012081F871
:103190003500FFE70899002081F83400FFE7FFE7DA
:1031A00000208DF82700FFE79DF827000AB080BDBA
:1031B00080B586B00490049820B9FFE701208DF80F
:1031C000170046E3049890F83500022807D0FFE77F
:1031D00004998020486501208DF8170039E3049890
:1031E000016801201022C4F202029142029000F014
:1031F000A380FFE70498016801202822C4F202029C
:103200009142029000F09880FFE704980168012045
:103210004022C4F202029142029000F08D80FFE74A
:103220000498016801205822C4F2020291420290DF
:1032300000F08280FFE70498016801207022C4F248
:1032400002029142029077D0FFE7049801680120C2
:103250008822C4F20202914202906DD0FFE70498E6
:1032600001680120A022C4F202029142029063D0C0
:10327000FFE7049801680120B822C4F202029142DB
:10328000029059D0FFE704980168012040F21042F3
:10329000C4F20202914202904ED0FFE70498016806
:1032A000012040F22842C4F202029142029043D02F
:1032B000FFE704980168012040F24042C4F2020294
:1032C0009142029038D0FFE704980168012040F253
:1032D0005842C4F20202914202902DD0FFE70498B6
:1032E0000168012040F27042C4F202029142029051
:1032F00022D0FFE704980168012040F28842C4F21E
:1033000002029142029017D0FFE704980168012061
:1033100040F2A042C4F20202914202900CD0FFE7B8
:10332000049800684FF64831CBF6FD710844B0FAB6
:1033300080F040090290FFE70298C007002800F0E3
:103340009D80FFE70499042081F835000498006807
:103350001021C4F20201884200F08180FFE7049846
:1033600000682821C4F20201884278D0FFE704985F
:1033700000684021C4F20201884270D0FFE704983F
:1033800000685821C4F20201884268D0FFE704981F
:1033900000687021C4F20201884260D0FFE70498FF
:1033A00000688821C4F20201884258D0FFE70498DF
:1033B0000068A021C4F20201884250D0FFE70498BF
:1033C0000068B821C4F20201884248D0FFE704989F
:1033D000006840F21041C4F2020188423FD0FFE78A
:1033E0000498006840F22841C4F20201884236D0B5
:1033F000FFE70498006840F24041C4F202018842AD
:103400002DD0FFE70498006840F25841C4F2020151
:10341000884224D0FFE70498006840F27041C4F26B
:10342000020188421BD0FFE70498006840F28841FF
:10343000C4F20201884212D0FFE70498006840F20B
:10344000A041C4F20201884209D0FFE70498006855
:1034500040F2B841C4F20201884207D1FFE7049864
:103460000168086820F00100086006E0049801681F
:10347000086820F001000860FFE7E5E104980168B2
:10348000086820F00E000860049800681021C4F25B
:103490000201884200F08180FFE70498006828213B
:1034A000C4F20201884278D0FFE704980068402106
:1034B000C4F20201884270D0FFE7049800685821E6
:1034C000C4F20201884268D0FFE7049800687021C6
:1034D000C4F20201884260D0FFE7049800688821A6
:1034E000C4F20201884258D0FFE704980068A02186
:1034F000C4F20201884250D0FFE704980068B82166
:10350000C4F20201884248D0FFE70498006840F204
:103510001041C4F2020188423FD0FFE704980068DE
:1035200040F22841C4F20201884236D0FFE70498F5
:10353000006840F24041C4F2020188422DD0FFE70A
:103540000498006840F25841C4F20201884224D035
:10355000FFE70498006840F27041C4F2020188421B
:103560001BD0FFE70498006840F28841C4F20201D2
:10357000884212D0FFE70498006840F2A041C4F2EC
:103580000201884209D0FFE70498006840F2B84180
:10359000C4F20201884207D1FFE704980168086875
:1035A00020F00100086006E004980168086820F037
:1035B00001000860FFE70498016801201022C4F2AE
:1035C00002029142019000F00381FFE70498016834
:1035D00001202822C4F202029142019000F0F880FA
:1035E000FFE70498016801204022C4F202029142E0
:1035F000019000F0ED80FFE7049801680120582257
:10360000C4F202029142019000F0E280FFE70498C8
:10361000016801207022C4F202029142019000F080
:10362000D780FFE70498016801208822C4F20202D3
:103630009142019000F0CC80FFE7049801680120DE
:10364000A022C4F202029142019000F0C180FFE783
:10365000049801680120B822C4F20202914201904C
:1036600000F0B680FFE704980168012040F21042A4
:10367000C4F202029142019000F0AA80FFE7049890
:103680000168012040F22842C4F2020291420190F6
:1036900000F09E80FFE704980168012040F240425C
:1036A000C4F202029142019000F09280FFE7049878
:1036B0000168012040F25842C4F202029142019096
:1036C00000F08680FFE704980168012040F2704214
:1036D000C4F20202914201907AD0FFE70498016897
:1036E000012040F28842C4F20202914201906FD060
:1036F000FFE704980168012040F2A042C4F20202F0
:103700009142019064D0FFE704980168012040F2E3
:10371000B842C4F202029142019059D0FFE70498E6
:103720000168012045F20842C5F60202914201906B
:103730004ED0FFE704980168012045F21C42C5F60F
:1037400002029142019043D0FFE7049801680120F2
:1037500045F23042C5F602029142019038D0FFE7AF
:1037600004980168012045F24442C5F602029142E4
:1037700001902DD0FFE704980168012045F25842DE
:10378000C5F602029142019022D0FFE70498016839
:10379000012045F26C42C5F602029142019017D019
:1037A000FFE704980168012045F28042C5F6020255
:1037B000914201900CD0FFE7049800684AF66C3102
:1037C000CAF2FD710844B0FA80F040090190FFE7A9
:1037D0000198C00728B3FFE70498016E086820F439
:1037E000807008600498806D03900498C06D00F0AC
:1037F0001F0101208840039948600498416E806E43
:1038000048600498C06E58B1FFE70498C16E08681C
:1038100020F4807008600498016F406F4860FFE7F3
:10382000FFE70499012081F83500FFE704990020A3
:1038300081F83400FFE70498006D20B1FFE7049899
:10384000016D8847FFE7FFE7FFE700208DF81700CD
:10385000FFE79DF8170006B080BD000000000000E3
:1038600081B000900098406D01B0704700000000EA
:1038700080B590B00F9000200B9040F20000C2F293
:103880000040006848F2B511C1F64E31A0FB0110AE
:10389000800A0A900F98806D09900F98806D0890AB
:1038A000099800680E90089800680D900F980168BC
:1038B00001201022C4F202029142079000F0A3807E
:1038C000FFE70F98016801202822C4F2020291420A
:1038D000079000F09880FFE70F98016801204022D0
:1038E000C4F202029142079000F08D80FFE70F982A
:1038F000016801205822C4F202029142079000F0B0
:103900008280FFE70F98016801207022C4F2020252
:103910009142079077D0FFE70F9801680120882235
:10392000C4F20202914207906DD0FFE70F98016840
:103930000120A022C4F202029142079063D0FFE767
:103940000F9801680120B822C4F202029142079048
:1039500059D0FFE70F980168012040F21042C4F2ED
:103960000202914207904ED0FFE70F9801680120B4
:1039700040F22842C4F202029142079043D0FFE78E
:103980000F980168012040F24042C4F202029142C5
:10399000079038D0FFE70F980168012040F25842A5
:1039A000C4F20202914207902DD0FFE70F98016800
:1039B000012040F27042C4F202029142079022D0EC
:1039C000FFE70F980168012040F28842C4F202022A
:1039D0009142079017D0FFE70F980168012040F24D
:1039E000A042C4F20202914207900CD0FFE70F9868
:1039F00000684FF64831CBF6FD710844B0FA80F00C
:103A000040090790FFE70798C007002800F01385DA
:103A1000FFE70E980F99C96D01F01F01C84000071C
:103A2000002840F1B080FFE70F9800681021C4F231
:103A30000201884200F08180FFE70F98006828218A
:103A4000C4F20201884278D0FFE70F980068402155
:103A5000C4F20201884270D0FFE70F980068582135
:103A6000C4F20201884268D0FFE70F980068702115
:103A7000C4F20201884260D0FFE70F9800688821F5
:103A8000C4F20201884258D0FFE70F980068A021D5
:103A9000C4F20201884250D0FFE70F980068B821B5
:103AA000C4F20201884248D0FFE70F98006840F254
:103AB0001041C4F2020188423FD0FFE70F9800682E
:103AC00040F22841C4F20201884236D0FFE70F9845
:103AD000006840F24041C4F2020188422DD0FFE765
:103AE0000F98006840F25841C4F20201884224D085
:103AF000FFE70F98006840F27041C4F2020188426B
:103B00001BD0FFE70F98006840F28841C4F2020121
:103B1000884212D0FFE70F98006840F2A041C4F23B
:103B20000201884209D0FFE70F98006840F2B841CF
:103B3000C4F20201884207D1FFE70F9800680068CD
:103B400000F00400069006E00F980068006800F09E
:103B500008000690FFE70698A0B1FFE70F980168FC
:103B6000086820F0040008600F98C06D00F01F0185
:103B700008208840099988600F99486D40F001003D
:103B80004865FFE7FFE70E980F99C96D01F01F0127
:103B9000C840C007002800F0A980FFE70F98006820
:103BA0001021C4F20201884200F08180FFE70F98E3
:103BB00000682821C4F20201884278D0FFE70F98FC
:103BC00000684021C4F20201884270D0FFE70F98DC
:103BD00000685821C4F20201884268D0FFE70F98BC
:103BE00000687021C4F20201884260D0FFE70F989C
:103BF00000688821C4F20201884258D0FFE70F987C
:103C00000068A021C4F20201884250D0FFE70F985B
:103C10000068B821C4F20201884248D0FFE70F983B
:103C2000006840F21041C4F2020188423FD0FFE731
:103C30000F98006840F22841C4F20201884236D051
:103C4000FFE70F98006840F24041C4F20201884249
:103C50002DD0FFE70F98006840F25841C4F20201EE
:103C6000884224D0FFE70F98006840F27041C4F208
:103C7000020188421BD0FFE70F98006840F288419C
:103C8000C4F20201884212D0FFE70F98006840F2A8
:103C9000A041C4F20201884209D0FFE70F980068F2
:103CA00040F2B841C4F20201884207D1FFE70F9801
:103CB0000068406900F08000059005E00F980068FA
:103CC000006800200590FFE7059870B1FFE70F98A6
:103CD000C06D00F01F0101208840099988600F998C
:103CE000486D40F002004865FFE7FFE70E980F9926
:103CF000C96D01F01F01C8404007002840F1A980AC
:103D0000FFE70F9800681021C4F20201884200F01A
:103D10008180FFE70F9800682821C4F202018842E1
:103D200078D0FFE70F9800684021C4F20201884272
:103D300070D0FFE70F9800685821C4F20201884252
:103D400068D0FFE70F9800687021C4F20201884232
:103D500060D0FFE70F9800688821C4F20201884212
:103D600058D0FFE70F980068A021C4F202018842F2
:103D700050D0FFE70F980068B821C4F202018842D2
:103D800048D0FFE70F98006840F21041C4F20201EA
:103D900088423FD0FFE70F98006840F22841C4F204
:103DA0000201884236D0FFE70F98006840F2404198
:103DB000C4F2020188422DD0FFE70F98006840F25C
:103DC0005841C4F20201884224D0FFE70F980068EE
:103DD00040F27041C4F2020188421BD0FFE70F9805
:103DE000006840F28841C4F20201884212D0FFE725
:103DF0000F98006840F2A041C4F20201884209D045
:103E0000FFE70F98006840F2B841C4F2020188420F
:103E100007D1FFE70F980068006800F002000490E7
:103E200005E00F980068006800200490FFE7049800
:103E300070B1FFE70F98C06D00F01F0104208840AB
:103E4000099988600F99486D40F004004865FFE7C4
:103E5000FFE70E980F99C96D01F01F01C840C00619
:103E6000002840F1DE80FFE70F9800681021C4F2BF
:103E70000201884200F08180FFE70F980068282146
:103E8000C4F20201884278D0FFE70F980068402111
:103E9000C4F20201884270D0FFE70F9800685821F1
:103EA000C4F20201884268D0FFE70F9800687021D1
:103EB000C4F20201884260D0FFE70F9800688821B1
:103EC000C4F20201884258D0FFE70F980068A02191
:103ED000C4F20201884250D0FFE70F980068B82171
:103EE000C4F20201884248D0FFE70F98006840F210
:103EF0001041C4F2020188423FD0FFE70F980068EA
:103F000040F22841C4F20201884236D0FFE70F9800
:103F1000006840F24041C4F2020188422DD0FFE720
:103F20000F98006840F25841C4F20201884224D040
:103F3000FFE70F98006840F27041C4F20201884226
:103F40001BD0FFE70F98006840F28841C4F20201DD
:103F5000884212D0FFE70F98006840F2A041C4F2F7
:103F60000201884209D0FFE70F98006840F2B8418B
:103F7000C4F20201884207D1FFE70F980068006889
:103F800000F00800039006E00F980068006800F059
:103F900004000390FFE70398002841D0FFE70F9843
:103FA000C06D00F01F0110208840099988600F98AB
:103FB00000680068400300281AD5FFE70F980068E2
:103FC00000680003002809D4FFE70F98006C20B1B7
:103FD000FFE70F98016C8847FFE708E00F98806CB7
:103FE00020B1FFE70F98816C8847FFE7FFE716E0F5
:103FF0000F9800680068C005002807D4FFE70F98F5
:104000000168086820F008000860FFE70F98006C5E
:1040100020B1FFE70F98016C8847FFE7FFE7FFE754
:10402000FFE70E980F99C96D01F01F01C840800687
:10403000002840F12681FFE70F9800681021C4F2A4
:104040000201884200F08180FFE70F980068282174
:10405000C4F20201884278D0FFE70F98006840213F
:10406000C4F20201884270D0FFE70F98006858211F
:10407000C4F20201884268D0FFE70F9800687021FF
:10408000C4F20201884260D0FFE70F9800688821DF
:10409000C4F20201884258D0FFE70F980068A021BF
:1040A000C4F20201884250D0FFE70F980068B8219F
:1040B000C4F20201884248D0FFE70F98006840F23E
:1040C0001041C4F2020188423FD0FFE70F98006818
:1040D00040F22841C4F20201884236D0FFE70F982F
:1040E000006840F24041C4F2020188422DD0FFE74F
:1040F0000F98006840F25841C4F20201884224D06F
:10410000FFE70F98006840F27041C4F20201884254
:104110001BD0FFE70F98006840F28841C4F202010B
:10412000884212D0FFE70F98006840F2A041C4F225
:104130000201884209D0FFE70F98006840F2B841B9
:10414000C4F20201884207D1FFE70F9800680068B7
:1041500000F01000029006E00F980068006800F080
:1041600002000290FFE70298002800F08980FFE734
:104170000F98C06D00F01F012020884009998860C9
:104180000F9890F83500042837D1FFE70F980168A1
:10419000086820F0160008600F980168486920F050
:1041A000800048610F98006C20B9FFE70F98806C81
:1041B00038B1FFE70F980168086820F00800086030
:1041C000FFE70F98C06D00F01F013F20884009995C
:1041D00088600F99012081F83500FFE70F990020D2
:1041E00081F83400FFE70F98006D20B1FFE70F98CA
:1041F000016D8847FFE700F019BC0F980068006860
:10420000400300281AD5FFE70F98006800680003F4
:10421000002809D4FFE70F98406C20B1FFE70F9802
:10422000416C8847FFE708E00F98C06B20B1FFE7BB
:104230000F98C16B8847FFE7FFE720E00F98006801
:104240000068C005002811D4FFE70F9801680868CE
:1042500020F0100008600F99012081F83500FFE779
:104260000F99002081F83400FFE7FFE70F98C06B3B
:1042700020B1FFE70F98C16B8847FFE7FFE7FFE733
:10428000FFE70F98406D002800F0D480FFE70F98FB
:10429000406DC007002800F0C480FFE70F9904209C
:1042A00081F835000F9800681021C4F2020188429D
:1042B00000F08180FFE70F9800682821C4F2020116
:1042C000884278D0FFE70F9800684021C4F20201CD
:1042D000884270D0FFE70F9800685821C4F20201AD
:1042E000884268D0FFE70F9800687021C4F202018D
:1042F000884260D0FFE70F9800688821C4F202016D
:10430000884258D0FFE70F980068A021C4F202014C
:10431000884250D0FFE70F980068B821C4F202012C
:10432000884248D0FFE70F98006840F21041C4F27D
:10433000020188423FD0FFE70F98006840F2284111
:10434000C4F20201884236D0FFE70F98006840F2BD
:104350004041C4F2020188422DD0FFE70F98006867
:1043600040F25841C4F20201884224D0FFE70F987E
:10437000006840F27041C4F2020188421BD0FFE79E
:104380000F98006840F28841C4F20201884212D0BE
:10439000FFE70F98006840F2A041C4F20201884292
:1043A00009D0FFE70F98006840F2B841C4F202015B
:1043B000884207D1FFE70F980168086820F00100E4
:1043C000086006E00F980168086820F001000860A6
:1043D000FFE7FFE70B9801300B900A99884201D95B
:1043E000FFE707E0FFE70F9800680068C0070028B4
:1043F000F0D1FFE70F9800680068C00728B1FFE719
:104400000F99032081F8350004E00F99012081F80D
:104410003500FFE7FFE70F99002081F83400FFE740
:10442000FFE70F98C06C20B1FFE70F98C16C884779
:10443000FFE7FFE7FAE20F980168012045F2084222
:10444000C5F60202914201904ED0FFE70F98016835
:10445000012045F21C42C5F602029142019043D070
:10446000FFE70F980168012045F23042C5F60202CD
:104470009142019038D0FFE70F980168012045F282
:104480004442C5F60202914201902DD0FFE70F98F9
:104490000168012045F25842C5F60202914201909E
:1044A00022D0FFE70F980168012045F26C42C5F663
:1044B00002029142019017D0FFE70F980168012096
:1044C00045F28042C5F60202914201900CD0FFE70E
:1044D0000F9800684AF66C31CAF2FD710844B0FAD0
:1044E00080F040090190FFE70198C007002800F024
:1044F0009B82FFE70F98006800680C900D980F9959
:10450000C96D01F01F01C8404007002840F1D78065
:10451000FFE79DF830004007002840F1D080FFE71A
:104520000F98C06D00F01F01042088400899486072
:104530009DF831000006002818D5FFE79DF83200ED
:10454000C00748B9FFE70F98806C20B1FFE70F98CC
:10455000816C8847FFE708E00F98006C20B1FFE707
:104560000F98016C8847FFE7FFE7A7E09DF8300050
:104570008006002800F19980FFE70F98006810215D
:10458000C4F20201884200F08180FFE70F980068C2
:104590002821C4F20201884278D0FFE70F98006812
:1045A0004021C4F20201884270D0FFE70F980068F2
:1045B0005821C4F20201884268D0FFE70F980068D2
:1045C0007021C4F20201884260D0FFE70F980068B2
:1045D0008821C4F20201884258D0FFE70F98006892
:1045E000A021C4F20201884250D0FFE70F98006872
:1045F000B821C4F20201884248D0FFE70F98006852
:1046000040F21041C4F2020188423FD0FFE70F9808
:10461000006840F22841C4F20201884236D0FFE728
:104620000F98006840F24041C4F2020188422DD048
:10463000FFE70F98006840F25841C4F20201884237
:1046400024D0FFE70F98006840F27041C4F20201E5
:1046500088421BD0FFE70F98006840F28841C4F2FF
:104660000201884212D0FFE70F98006840F2A04193
:10467000C4F20201884209D0FFE70F98006840F2B7
:10468000B841C4F20201884207D1FFE70F980168E0
:10469000086820F00800086006E00F9801680868C4
:1046A00020F004000860FFE7FFE70F98006C20B1DE
:1046B000FFE70F98016C8847FFE7FFE7B3E10D982C
:1046C0000F99C96D01F01F01C8408007002840F113
:1046D000E180FFE79DF830008007002840F1DA8094
:1046E000FFE70F98C06D00F01F0102208840089975
:1046F00048609DF831000006002818D5FFE79DF8B6
:104700003200C00748B9FFE70F98406C20B1FFE7BF
:104710000F98416C8847FFE708E00F98C06B20B105
:10472000FFE70F98C16B8847FFE7FFE7B1E09DF80F
:1047300030008006002800F1A380FFE70F98006892
:104740001021C4F20201884200F08180FFE70F9837
:1047500000682821C4F20201884278D0FFE70F9850
:1047600000684021C4F20201884270D0FFE70F9830
:1047700000685821C4F20201884268D0FFE70F9810
:1047800000687021C4F20201884260D0FFE70F98F0
:1047900000688821C4F20201884258D0FFE70F98D0
:1047A0000068A021C4F20201884250D0FFE70F98B0
:1047B0000068B821C4F20201884248D0FFE70F9890
:1047C000006840F21041C4F2020188423FD0FFE786
:1047D0000F98006840F22841C4F20201884236D0A6
:1047E000FFE70F98006840F24041C4F2020188429E
:1047F0002DD0FFE70F98006840F25841C4F2020143
:10480000884224D0FFE70F98006840F27041C4F25C
:10481000020188421BD0FFE70F98006840F28841F0
:10482000C4F20201884212D0FFE70F98006840F2FC
:10483000A041C4F20201884209D0FFE70F98006846
:1048400040F2B841C4F20201884207D1FFE70F9855
:104850000168086820F01400086006E00F980168FD
:10486000086820F00A000860FFE70F99012081F82E
:104870003500FFE70F99002081F83400FFE7FFE7DC
:104880000F98C06B20B1FFE70F98C16B8847FFE717
:10489000FFE7C7E00D980F99C96D01F01F01C840EF
:1048A0000007002840F1BC80FFE79DF830000007BA
:1048B000002840F1B580FFE70F9800681021C4F28E
:1048C0000201884200F08180FFE70F9800682821EC
:1048D000C4F20201884278D0FFE70F9800684021B7
:1048E000C4F20201884270D0FFE70F980068582197
:1048F000C4F20201884268D0FFE70F980068702177
:10490000C4F20201884260D0FFE70F980068882156
:10491000C4F20201884258D0FFE70F980068A02136
:10492000C4F20201884250D0FFE70F980068B82116
:10493000C4F20201884248D0FFE70F98006840F2B5
:104940001041C4F2020188423FD0FFE70F9800688F
:1049500040F22841C4F20201884236D0FFE70F98A6
:10496000006840F24041C4F2020188422DD0FFE7C6
:104970000F98006840F25841C4F20201884224D0E6
:10498000FFE70F98006840F27041C4F202018842CC
:104990001BD0FFE70F98006840F28841C4F2020183
:1049A000884212D0FFE70F98006840F2A041C4F29D
:1049B0000201884209D0FFE70F98006840F2B84131
:1049C000C4F20201884207D1FFE70F980168086826
:1049D00020F01C00086006E00F980168086820F0CD
:1049E0000E000860FFE70F98C06D00F01F01012066
:1049F00000FA01F1089A51600F9948650F9981F802
:104A00003500FFE70F99002081F83400FFE70F9889
:104A1000C06C20B1FFE70F98C16C8847FFE700E04A
:104A2000FFE7FFE7FFE700E0FFE7FFE710B080BD2B
:104A300010B58EB00C9001F003FD0A900C9828B9C7
:104A4000FFE701208DF8370000F09FBC0C9801684B
:104A500001201022C4F202029142079000F0A380CC
:104A6000FFE70C98016801202822C4F2020291425B
:104A7000079000F09880FFE70C9801680120402221
:104A8000C4F202029142079000F08D80FFE70C987B
:104A9000016801205822C4F202029142079000F0FE
:104AA0008280FFE70C98016801207022C4F20202A4
:104AB0009142079077D0FFE70C9801680120882287
:104AC000C4F20202914207906DD0FFE70C98016892
:104AD0000120A022C4F202029142079063D0FFE7B6
:104AE0000C9801680120B822C4F20202914207909A
:104AF00059D0FFE70C980168012040F21042C4F23F
:104B00000202914207904ED0FFE70C980168012005
:104B100040F22842C4F202029142079043D0FFE7DC
:104B20000C980168012040F24042C4F20202914216
:104B3000079038D0FFE70C980168012040F25842F6
:104B4000C4F20202914207902DD0FFE70C98016851
:104B5000012040F27042C4F202029142079022D03A
:104B6000FFE70C980168012040F28842C4F202027B
:104B70009142079017D0FFE70C980168012040F29E
:104B8000A042C4F20202914207900CD0FFE70C98B9
:104B900000684FF64831CBF6FD710844B0FA80F05A
:104BA00040090790FFE70798C007002800F07981C7
:104BB000FFE70C98406A08B1FFE7FFE70C99022075
:104BC00081F83500FFE70C99002081F83400FFE7F9
:104BD0000C9800681021C4F20201884200F0818024
:104BE000FFE70C9800682821C4F20201884278D0BF
:104BF000FFE70C9800684021C4F20201884270D09F
:104C0000FFE70C9800685821C4F20201884268D07E
:104C1000FFE70C9800687021C4F20201884260D05E
:104C2000FFE70C9800688821C4F20201884258D03E
:104C3000FFE70C980068A021C4F20201884250D01E
:104C4000FFE70C980068B821C4F20201884248D0FE
:104C5000FFE70C98006840F21041C4F2020188425C
:104C60003FD0FFE70C98006840F22841C4F20201EF
:104C7000884236D0FFE70C98006840F24041C4F209
:104C8000020188422DD0FFE70C98006840F258419D
:104C9000C4F20201884224D0FFE70C98006840F279
:104CA0007041C4F2020188421BD0FFE70C980068F3
:104CB00040F28841C4F20201884212D0FFE70C980A
:104CC000006840F2A041C4F20201884209D0FFE727
:104CD0000C98006840F2B841C4F20201884207D142
:104CE000FFE70C980168086820F00100086006E002
:104CF0000C980168086820F001000860FFE7FFE7F2
:104D00000C9800680068C00798B1FFE701F098FBB5
:104D10000A99401A06280BD3FFE70C992020486512
:104D20000C99032081F8350001208DF837002CE321
:104D3000E6E70C98006800680B900B9848F23F017A
:104D4000CFF6106108400B900C998868D1F80CC020
:104D50000B694A6940EA0C00184310438A69104302
:104D6000CA691043096A01430B9808430B900C98D9
:104D7000406A042808D1FFE70C99C86A096B01430F
:104D80000B9808430B90FFE741F20000C5F6004086
:104D900000684FF6FF718843B0F1005F40D3FFE732
:104DA0000C984068292807D3FFE70C984168012038
:104DB0002F2906902AD3FFE70C9840683F2807D395
:104DC000FFE70C9841680120432906901ED3FFE7B6
:104DD0000C984068472807D3FFE70C9841680120EA
:104DE0004929069012D3FFE70C98416800204F290B
:104DF000059008D3FFE70C9841680020532938BF7D
:104E000001200590FFE705980690FFE70698C00788
:104E100028B1FFE70B9840F480100B90FFE7FFE705
:104E20000B980C99096808600C98006840690B9011
:104E30000B9820F007000B900C98416A0B980843E0
:104E40000B900C98406A04281AD1FFE70C98816AED
:104E50000B9808430B900C98C06A80B1FFE70C9840
:104E6000FBF722FE50B1FFE70C99402048650C99F2
:104E7000012081F835008DF8370086E2FFE7FFE773
:104E80000B980C99096848610C98FBF7D1FB0990C5
:104E90000C98C06D00F01F013F2088400999886080
:104EA00026E10C980168012045F20842C5F602028D
:104EB000914204904ED0FFE70C980168012045F222
:104EC0001C42C5F602029142049043D0FFE70C98C1
:104ED0000168012045F23042C5F602029142049079
:104EE00038D0FFE70C980168012045F24442C5F62E
:104EF0000202914204902DD0FFE70C980168012036
:104F000045F25842C5F602029142049022D0FFE7D2
:104F10000C980168012045F26C42C5F602029142EC
:104F2000049017D0FFE70C980168012045F28042F9
:104F3000C5F60202914204900CD0FFE70C9800687D
:104F40004AF66C31CAF2FD710844B0FA80F04009AB
:104F50000490FFE70498C007002800F0BD80FFE739
:104F60000C980168012045F20842C5F60202914200
:104F700003904ED0FFE70C980168012045F21C42D7
:104F8000C5F602029142039043D0FFE70C980168F6
:104F9000012045F23042C5F602029142039038D01A
:104FA000FFE70C980168012045F24442C5F6020271
:104FB000914203902DD0FFE70C980168012045F243
:104FC0005842C5F602029142039022D0FFE70C98A6
:104FD0000168012045F26C42C5F60202914203903D
:104FE00017D0FFE70C980168012045F28042C5F612
:104FF0000202914203900CD0FFE70C9800684AF639
:105000006C31CAF2FD710844B0FA80F04009039097
:10501000FFE70398C00708B1FFE7FFE70C990220FC
:1050200081F83500FFE70C99002081F83400FFE794
:105030000C98006800680B900B986FF310100B90A1
:105040000C988068402803D1FFE71020029008E008
:105050000C9880688038B0FA80F040098003029094
:10506000FFE702980C99CA680B69D1F814C0D1F80F
:1050700018E0CC694EEA040E4CEA0E0C43EA0C032D
:105080001A4340EAD200096A40EA11110B9808431A
:105090000B900B980C99096808600C9908684AF6FF
:1050A000F832CAF2FD7210444CF6CD42CCF6CC4236
:1050B000A0FB02026FF0030000EA9200C8650C98A2
:1050C000FBF7B6FA08900C98C06D00F01F010120A4
:1050D0008840089948600AE00C99402048650C997E
:1050E000032081F8350001208DF837004DE1FFE7FE
:1050F0000C98016801201022C4F202029142019032
:1051000000F00381FFE70C98016801202822C4F217
:1051100002029142019000F0F880FFE70C980168CC
:1051200001204022C4F202029142019000F0ED8081
:10513000FFE70C98016801205822C4F20202914254
:10514000019000F0E280FFE70C98016801207022D6
:10515000C4F202029142019000F0D780FFE70C9860
:10516000016801208822C4F202029142019000F0FD
:10517000CC80FFE70C9801680120A022C4F2020253
:105180009142019000F0C180FFE70C980168012076
:10519000B822C4F202029142019000F0B680FFE70B
:1051A0000C980168012040F21042C4F202029142C0
:1051B000019000F0AA80FFE70C980168012040F2FE
:1051C0002842C4F202029142019000F09E80FFE763
:1051D0000C980168012040F24042C4F20202914260
:1051E000019000F09280FFE70C980168012040F2E6
:1051F0005842C4F202029142019000F08680FFE71B
:105200000C980168012040F27042C4F202029142FF
:1052100001907AD0FFE70C980168012040F28842A3
:10522000C4F20202914201906FD0FFE70C9801682E
:10523000012040F2A042C4F202029142019064D0E7
:10524000FFE70C980168012040F2B842C4F2020264
:105250009142019059D0FFE70C980168012045F276
:105260000842C5F60202914201904ED0FFE70C9829
:105270000168012045F21C42C5F6020291420190EC
:1052800043D0FFE70C980168012045F23042C5F693
:1052900002029142019038D0FFE70C98016801208A
:1052A00045F24442C5F60202914201902DD0FFE73B
:1052B0000C980168012045F25842C5F6020291425D
:1052C000019022D0FFE70C980168012045F26C4262
:1052D000C5F602029142019017D0FFE70C980168D1
:1052E000012045F28042C5F60202914201900CD0A5
:1052F000FFE70C9800684AF66C31CAF2FD71084469
:10530000B0FA80F040090190FFE70198C00790B320
:10531000FFE70C98FBF774FA0C988068802804D19A
:10532000FFE70C9900204860FFE70C990879096EA7
:1053300008600C98416E806E48600C98406888B197
:10534000FFE70C98406808280CD8FFE70C98FBF79B
:1053500013FB0C98C16E002008600C98016F406F21
:10536000486007E00C990020C8660C9908670C9902
:105370004867FFE7FFE70C99002048650C9A012178
:1053800082F835108DF83700FFE79DF837000EB032
:1053900010BD00000000000080B588B006900591A7
:1053A0000492039300208DF80B00069820B9FFE7C4
:1053B00001208DF81F006CE3FFE7069890F8340099
:1053C000012804D1FFE702208DF81F0061E3069950
:1053D000012081F83400FFE7FFE7069890F83500D8
:1053E000012840F04383FFE70699022081F8350049
:1053F000069900204865069800681021C4F2020151
:10540000884200F08180FFE7069800682821C4F2F6
:105410000201884278D0FFE7069800684021C4F274
:105420000201884270D0FFE7069800685821C4F254
:105430000201884268D0FFE7069800687021C4F234
:105440000201884260D0FFE7069800688821C4F214
:105450000201884258D0FFE706980068A021C4F2F4
:105460000201884250D0FFE706980068B821C4F2D4
:105470000201884248D0FFE70698006840F21041D8
:10548000C4F2020188423FD0FFE70698006840F26C
:105490002841C4F20201884236D0FFE7069800682E
:1054A00040F24041C4F2020188422DD0FFE7069845
:1054B000006840F25841C4F20201884224D0FFE75C
:1054C0000698006840F27041C4F2020188421BD085
:1054D000FFE70698006840F28841C4F20201884262
:1054E00012D0FFE70698006840F2A041C4F2020122
:1054F000884209D0FFE70698006840F2B841C4F23C
:105500000201884207D1FFE706980168086820F089
:105510000100086006E006980168086820F00100B4
:105520000860FFE706980599049A039BFBF734FB94
:105530000698016801201022C4F2020291420190F3
:1055400000F0A380FFE70698016801202822C4F23A
:1055500002029142019000F09880FFE706980168EE
:1055600001204022C4F202029142019000F08D809D
:10557000FFE70698016801205822C4F20202914216
:10558000019000F08280FFE70698016801207022F8
:10559000C4F202029142019077D0FFE706980168B9
:1055A00001208822C4F20202914201906DD0FFE7EF
:1055B000069801680120A022C4F2020291420190E3
:1055C00063D0FFE7069801680120B822C4F2020206
:1055D0009142019059D0FFE706980168012040F2FE
:1055E0001042C4F20202914201904ED0FFE70698A9
:1055F0000168012040F22842C4F202029142019067
:1056000043D0FFE706980168012040F24042C4F20F
:1056100002029142019038D0FFE70698016801200C
:1056200040F25842C4F20202914201902DD0FFE7AD
:1056300006980168012040F27042C4F202029142D1
:10564000019022D0FFE706980168012040F28842CD
:10565000C4F202029142019017D0FFE70698016858
:10566000012040F2A042C4F20202914201900CD00B
:10567000FFE7069800684FF64831CBF6FD71084405
:10568000B0FA80F040090190FFE70198C007A8B187
:10569000FFE70698006800680B2161F34400069953
:1056A000096808600698006C38B1FFE70698016841
:1056B000086840F008000860FFE714E006980068FA
:1056C0000068052161F3430006990968086006989F
:1056D000006C38B1FFE706980168086840F00400E4
:1056E0000860FFE7FFE70698016801201022C4F276
:1056F00002029142009000F00381FFE706980168E2
:1057000001202822C4F202029142009000F0F880A9
:10571000FFE70698016801204022C4F2020291428C
:10572000009000F0ED80FFE7069801680120582204
:10573000C4F202029142009000F0E280FFE7069876
:10574000016801207022C4F202029142009000F030
:10575000D780FFE70698016801208822C4F2020280
:105760009142009000F0CC80FFE70698016801208C
:10577000A022C4F202029142009000F0C180FFE733
:10578000069801680120B822C4F2020291420090FA
:1057900000F0B680FFE706980168012040F2104251
:1057A000C4F202029142009000F0AA80FFE706983E
:1057B0000168012040F22842C4F2020291420090A6
:1057C00000F09E80FFE706980168012040F2404209
:1057D000C4F202029142009000F09280FFE7069826
:1057E0000168012040F25842C4F202029142009046
:1057F00000F08680FFE706980168012040F27042C1
:10580000C4F20202914200907AD0FFE70698016844
:10581000012040F28842C4F20202914200906FD00F
:10582000FFE706980168012040F2A042C4F202029C
:105830009142009064D0FFE706980168012040F291
:10584000B842C4F202029142009059D0FFE7069894
:105850000168012045F20842C5F60202914200901B
:105860004ED0FFE706980168012045F21C42C5F6BC
:1058700002029142009043D0FFE7069801680120A0
:1058800045F23042C5F602029142009038D0FFE75F
:1058900006980168012045F24442C5F60202914291
:1058A00000902DD0FFE706980168012045F258428C
:1058B000C5F602029142009022D0FFE706980168E7
:1058C000012045F26C42C5F602029142009017D0C9
:1058D000FFE706980168012045F28042C5F6020202
:1058E000914200900CD0FFE7069800684AF66C31B0
:1058F000CAF2FD710844B0FA80F040090090FFE759
:105900000098C007D0B1FFE70698006E0068C0039A
:10591000002807D5FFE70698016E086840F48070FC
:105920000860FFE70698C06E38B1FFE70698C16EC1
:10593000086840F480700860FFE7FFE70698006899
:105940001021C4F20201884200F08180FFE706982E
:1059500000682821C4F20201884278D0FFE7069847
:1059600000684021C4F20201884270D0FFE7069827
:1059700000685821C4F20201884268D0FFE7069807
:1059800000687021C4F20201884260D0FFE70698E7
:1059900000688821C4F20201884258D0FFE70698C7
:1059A0000068A021C4F20201884250D0FFE70698A7
:1059B0000068B821C4F20201884248D0FFE7069887
:1059C000006840F21041C4F2020188423FD0FFE774
:1059D0000698006840F22841C4F20201884236D09D
:1059E000FFE70698006840F24041C4F20201884295
:1059F0002DD0FFE70698006840F25841C4F202013A
:105A0000884224D0FFE70698006840F27041C4F253
:105A1000020188421BD0FFE70698006840F28841E7
:105A2000C4F20201884212D0FFE70698006840F2F3
:105A3000A041C4F20201884209D0FFE7069800683D
:105A400040F2B841C4F20201884207D1FFE706984C
:105A50000168086840F00100086006E006980168E7
:105A6000086840F001000860FFE70DE006994FF478
:105A700000604865FFE70699002081F83400FFE7E1
:105A800001208DF80B00FFE79DF80B008DF81F003B
:105A9000FFE79DF81F0008B080BD00000000000077
:105AA00080B584B0039000F0CBFC02900398019085
:105AB0000198013048B1FFE740F20800C2F200400F
:105AC0000178019808440190FFE7FFE700F0B8FC77
:105AD0000299401A0199884201D2FFE7F6E704B023
