:020000040800F2
:10000000005A00209D010008BD5C00082145000841
:10001000B55C0008850D0008F96E000800000000BE
:10002000000000000000000000000000A1640008C3
:10003000C912000800000000015F000861650008A7
:10004000B7010008B7010008B7010008B7010008B0
:10005000B7010008B7010008B7010008B7010008A0
:10006000CD120008D5120008B70100089912000847
:10007000B7010008B7010008B7010008B701000880
:10008000A5120008B7010008B7010008B701000871
:10009000B7010008B7010008B7010008B701000860
:1000A000B7010008B7010008B7010008B701000850
:1000B000B7010008B7010008B7010008B701000840
:1000C000B7010008B7010008B7010008B701000830
:1000D000B7010008B7010008B7010008B701000820
:1000E000B7010008B7010008B7010008B701000810
:1000F000B7010008B7010008B7010008B701000800
:10010000B7010008B7010008B7010008B7010008EF
:1001100065670008B7010008B7010008B7010008CB
:10012000B7010008B1120008B7010008B7010008C4
:10013000B7010008B7010008B7010008B7010008BF
:10014000B7010008B7010008B7010008B7010008AF
:10015000B7010008BD120008B7010008056B0008D0
:10016000B7010008B7010008B7010008B70100088F
:10017000B7010008B7010008B7010008000000003F
:10018000B7010008B7010008DFF80CD000F032FC1E
:1001900000480047F9710008005A002006488047CF
:1001A00006480047FEE7FEE7FEE7FEE7FEE7FEE75C
:1001B000FEE7FEE7FEE7FEE7256600088901000886
:1001C0002DE9F05F0546002092469B46884606468C
:1001D000814640241BE0284641464746224600F01F
:1001E00011FB53465A46C01A914110D31146184686
:1001F000224600F0F8FA2D1A67EB01084F46224616
:100200000120002100F0EFFA17EB00094E41201EFB
:10021000A4F10104DFDC484631462A464346BDE8E6
:10022000F09FD2B201E000F8012B491EFBD27047CB
:100230000022F6E710B513460A4604461946FFF7B2
:10024000F0FF204610BD00000FB400B58DB010A91E
:1002500009900B9000914FF0FF300A9000200C9015
:1002600005480690054807906A4609A80F9900F0CE
:10027000FFFA0DB05DF814FB8D080008AB0800080C
:100280002DE9FF5F1D464FF0FF3BD5E90146914642
:100290005F464FF00008A9697F1C01988847296ACA
:1002A000824688470028F6D1BAF1FF3F0CD024F4EB
:1002B000C064002E19DD600614D5BAF12B0F09D0E9
:1002C000BAF12D0F0ED103E0584604B0BDE8F09FFF
:1002D00044F48064A9697F1C01988847761E824691
:1002E000002E02DDBAF1300F03D0B9F1000F26D095
:1002F00032E0A969761E44F400747F1C0198884797
:100300008246002E05DDBAF1780F06D0BAF1580FFB
:1003100003D0B9F1000F10D01EE0B9F1000F02D0E8
:10032000B9F1100F18D1A969761E24F400747F1C4E
:10033000019888478246102002E0082000E00A2049
:10034000814609E008FB0908A969761E44F4007497
:100350007F1C019888478246002E05DD494650469D
:1003600000F072FA0028EDDAE96901988847A005E3
:1003700002D46FF00100A8E7E00725D1600613D58D
:10038000600502D5C8F1000000E0404629680A1D5A
:100390002A600968220501D5087015E0220701D5F9
:1003A000088011E008600FE02868011D29600068DE
:1003B000210502D580F8008006E0210702D5A0F8CB
:1003C000008001E0C0F8008038467EE72DE9FE4F4E
:1003D000804681EA0300C00F0C46009021F00041E6
:1003E00023F00045B8EB0200A94105D24046214662
:1003F00090461C460B46024623F00040104347D06F
:10040000270DC7F30A00C3F30A510290401A019066
:1004100040286BDAC3F3130040F4801B0098924627
:1004200020B10023D2EB030A63EB0B0B0198594672
:10043000C0F14002504600F0D6F906460D4650463F
:100440005946019A00F0EEF910EB080061410024D2
:1004500087EA115284EAE7731A4340D0009A62B3E4
:10046000019A012A4FEA075215DC001B61EB0201D9
:100470004FF0004202EA0752CDE90042001C41F56C
:10048000801132462B4600F067FA03B0BDE8F08FCA
:1004900040462146F9E7001B61EB0201001C41F5D3
:1004A000801300185B412018A2F5001747EB0301E9
:1004B00040EAD570B6196D4111E06D084FEA360675
:1004C00045EAC0754FEA0752001B61EB0201001CB0
:1004D00041F5801149084FEA300000195141324678
:1004E0002B4603B0BDE8F04F00F027BA0098012278
:1004F00040000023D0EB020263EBE073009821463A
:100500004FEAE074B8EB000061EB0401E9E783F027
:1005100000435BE781F0004158E72DE9FE4F81EA97
:10052000030404F0004421F0004100944FF0000B5C
:1005300023F0004350EA01045ED052EA03045BD08A
:10054000C3F30A54C1F30A552C44A4F2F3340194C2
:10055000A0FB0254C1F3130141F48011C3F3130350
:1005600043F4801301FB024400FB034E840A970A04
:1005700044EA815447EA8357A4FB076802958D0A31
:1005800005FB07854FEA932C04FB0C542705029DBD
:100590004FEA065847EA1637B5EB08056EEB070C2D
:1005A000870E920E47EA811742EA8312A7FB0201E7
:1005B000B6EB0B0164EB00042B0D43EA0C335E1821
:1005C00044EB1C50DA465146E7FB0201C5F3130425
:1005D0004FEA0B3343EA14534FEA0432019C43EAD7
:1005E0000603A4F10C040294009CCDE900B400F0D1
:1005F000B3F903B0BDE8F08F00200146F9E72DE91B
:10060000F04D81EA030404F0004B21F0004514464C
:100610004FF0000A23F0004150EA050220D054EACE
:1006200001021DD0C5F30A570246C5F31303C1F3F7
:100630001300C1F30A5640F4801543F48013A7EB6E
:100640000608101BD64608F2FD3873EB050002D3EE
:1006500008F1010801E092185B41B8F1000F03DADC
:1006600000200146BDE8F08D00204FF480110646C1
:1006700084460EE0171B73EB050705D3121B63EBD3
:10068000050306434CEA010C49084FEA3000921872
:100690005B4150EA0107EDD152EA030012D082EA31
:1006A000040083EA0501084305D0101BAB4106D2C4
:1006B0000122002306E000224FF0004302E06FF029
:1006C000010253101AEB06004CEB085110EB0A0024
:1006D00041EB0B01BDE8F04D00F02FB90EB5C10F95
:1006E00080EAE0700844CA07002140F233438DE8F5
:1006F0000E000A460B4600F02FF903B000BD0EB500
:1007000040F2334102910021CDE900110A460B4627
:1007100000F022F903B000BD70B5C1F30A5201F038
:1007200000450024C1F3130140F2FF3341F480116E
:100730009A4201DA002070BD40F233439A42A2F29D
:10074000334203DC524200F05DF800E090402C435D
:10075000F1D0404270BDC1F30A5210B5C1F313018C
:1007600040F2FF3341F480119A4201DA002010BDBB
:1007700040F233439A42A2F2334203DC524200F089
:1007800041F810BD904010BD00F0004230F0004034
:100790000AD0C10D01F56071C0F3160042EA0151A3
:1007A000C20840071143704700200146704701F01E
:1007B000004330B421F0004150EA010206D00A0D96
:1007C000A2F56072C1F31301002A02DC30BC0020E4
:1007D0007047440F44EAC104C100E01830BC00EB8C
:1007E000C25000F073B8202A04DB203A00FA02F16C
:1007F000002070479140C2F1200320FA03F319430F
:1008000090407047202A04DB203A21FA02F00021B0
:10081000704721FA02F3D040C2F120029140084310
:1008200019467047202A06DBCB17203A41FA02F01E
:1008300043EAE07306E041FA02F3D040C2F120023D
:1008400091400843194670473A2800D2303820F0CA
:100850002002412A01D3A2F13700884201D34FF090
:10086000FF307047026811441378016018467047E2
:10087000D16004495161044911620021116111469E
:1008800000F0D6B865080008250A0008426842B1A1
:10089000016811F8013B23B1521EC0E9001218464D
:1008A00070470121C160881E704742685AB1C36811
:1008B000016843B983688B4205D0491E521CC0E9C8
:1008C0000012002070474FF0FF3070470029A8BF8A
:1008D0007047401C490008BF20F00100704710B469
:1008E000B0FA80FC00FA0CF050EA010404BF10BC1E
:1008F000704749B1CCF1200421FA04F411FA0CF14B
:1009000018BF012121430843A3EB0C01CB1D4FEA83
:1009100000614FEA102042BF002010BC704700EB7E
:10092000C35010440029A4BF10BC7047401C4900AC
:1009300008BF20F0010010BC704710B5141E73F101
:10094000000408DA401C41F1000192185B411A438F
:1009500001D120F0010010BD2DE9F04D92469B46DB
:1009600011B1B1FA81F202E0B0FA80F22032904681
:10097000FFF739FF04460F4640EA0A0041EA0B013F
:1009800053465A46084313D0114653EA010019D082
:10099000C8F140025046FFF735FF05460E46504667
:1009A00059464246FFF71FFF084305D0012004E0E7
:1009B00020463946BDE8F08D0020054346EAE07642
:1009C0002C4337430A986305E40AA0EB0800002291
:1009D000FD0A44EA47540A3002D500200146E9E7FF
:1009E000010510196941DDE9084500196941BDE8B3
:1009F000F04DA2E71CB50948009009480190054652
:100A0000009C06E0E06840F0010394E80700984786
:100A10001034AC42F6D3FFF7BBFB0000D4980008BB
:100A2000F4980008C0B24FF4F05100F097B90000FC
:100A30002DE9F34F8BB04FF0000801F10C000C468C
:100A40004FF0010B46460DF1080A01906269012141
:100A500001989047051E2DD0252D2CD0216A88475E
:100A6000C0B16269012101989047216A8847002836
:100A7000F7D1411E62690198904700E0761CA16998
:100A80000B988847216A88470028F7D1E1690B98BD
:100A90008847DBE7A1690B9888470746A84201D140
:100AA000761CD3E7E1690B9888477F1C02D1B8F127
:100AB000000F6FD046E1002762693D463946019834
:100AC00090472A2804D162690121019890470125A5
:100AD000DFF884926269012101989047A0F130010A
:100AE0000A290AD24F45E5DC07EB870100EB4107F5
:100AF000303FDFD445F01005ECE7E90601D46FF094
:100B000000476C280AD04C2814D0682815D06A28D1
:100B10000DD074281CD07A281AD01DE062690121FA
:100B2000019890476C2802D045F0040514E045F088
:100B300002050DE045F020050AE0626901210198F7
:100B40009047682802D045F0080505E045F40065A7
:100B50006269012101989047C4E9015765283DD099
:100B600019DC58287AD00CDC452837D004DC25283D
:100B700026D0412831D131E046282FD047282CD12A
:100B80002CE05B2877D0612828D063287CD06428AB
:100B900023D15AE0D0E06F2848D008DC66281DD069
:100BA00067281BD0692821D06E2816D127E070282D
:100BB00045D0732868D0752847D078280DD14DE0EE
:100BC000A1690B988847054625283FF469AFE1697C
:100BD0000B9888476D1C3FF46AAFB3E023466A4622
:100BE0006FF001000B99AFF300809EE045F04000EC
:100BF0006060A80723464FF0000236D43EE0E807C5
:100C00007FF447AF2068011D21600068290501D5E8
:100C100006701BE7290701D5068017E7A90703D54A
:100C2000F117C0E9006111E706600FE745F04000E9
:100C30006060A80723464FF0080216D41EE040F675
:100C40000E0125EA0100606016E045F0400060609A
:100C5000A80723464FF00A0207D40FE045F04000F2
:100C60006060A80708D5234610226FF001000B9999
:100C7000AFF3008059E007E0234610226FF0010037
:100C80000B99FFF7FDFA50E04FF000094F464B4635
:100C9000632802D05B2806D040E0E80601D401209A
:100CA000A06001273AE062690121019890475E281F
:100CB00005D14FF0010962694946019890472169C1
:100CC00039B900210A46534643F82120491C082916
:100CD000FADBB0B3216969B9C11700EBD1625311D6
:100CE0000AEB830122F01F02821A01200B68904058
:100CF00003430B6062690121019890475D28E8D1A8
:100D0000B9F1000F09D00020514651F82020D243FC
:100D100041F82020401C0828F7DB02AB2246009750
:100D20006FF001000B99AFF3008000280CDA401C33
:100D300008D1BBF1000F05D04FF0FF300DB0BDE87A
:100D4000F08FFFE74046F9E7E90701D108F1010814
:100D500006444FF0000B79E6CCCCCC0C7F2801D9AF
:100D6000002208E0064A02EB5002C007127800D1C8
:100D7000120902F00F020120904008407047000065
:100D800058980008FEE70000B0B52DED068B04462C
:100D9000002000BF51F8203044F8203001300428F2
:100DA000F8D141F2210046F6FD6141F261039FED69
:100DB000248A9FED249A9FED24AAC0F60000C0F675
:100DC0000001C0F600030025C4E96920C4E96B31C5
:100DD00004F15400032102220023B0EE480AF0EE91
:100DE000490AB0EE4A1A84F8505005F077F804F139
:100DF000C400032102220023B0EE480AF0EE490AA3
:100E0000B0EE4A1A05F06AF804F59A70032103223D
:100E10000023B0EE480AF0EE490AB0EE4A1A05F097
:100E20005DF804F1510005F04DFBC4E90455C4E937
:100E30000655C4E90855C4E90A55BDEC068BB0BD9A
:100E40003333333F0AD7233D0000000070B5D0F89C
:100E5000A4210D460446203002F1240103F0E0FDF8
:100E6000D4F8A40100F1240100F10C02284603F09B
:100E70007FFDD4F8A40100F10C01204600F066F8D3
:100E800094F85000C8BB04F15105D4F8A461284679
:100E900005F01CFB88BBD4F8A40196ED030A90ED85
:100EA000061A90ED0F2A30EE410AB0EEC00AB4EEF9
:100EB000420AF1EE10FA20DA96ED040A90ED071AD4
:100EC00090ED102A30EE410AB0EEC00AB4EE420AAC
:100ED000F1EE10FA11DA96ED050A90ED081A90ED90
:100EE000112A30EE410AB0EEC00AB4EE420AF1EE29
:100EF00010FA02DA284605F0EBFAD4F8A82104F13A
:100F000010012046BDE870401047000010B50446AF
:100F1000D0F8A401D1E900CE8968C0E906CE01620B
:100F2000D4F8A401D2E9001C9268C0E90F1C426405
:100F30001BB1D4F8A40103F06DFD002084F850002B
:100F40005134204605F0C8FA204610BD70B52DED8D
:100F5000048B84B0044690F85000022816D0002874
:100F600059D104F151000D4605F0B0FAD8B1012075
:100F700084F850000020D4F8A4210390CDE90100AA
:100F800004F1100101A803F0ABFD44E0D4F8A42162
:100F900004F1100102F1300004B0BDEC048BBDE897
:100FA000704003F09DBDD4F8A46195ED000AD6ED24
:100FB000060A04F1540006F025FBD4F8A401D6ED8E
:100FC000070A90ED0C1A04F1C40030EE018A95ED89
:100FD000010A06F017FBD4F8A401D6ED080A90ED3B
:100FE0000D1A04F59A7030EE019A95ED020A06F09A
:100FF00009FBD4F8A43104F1100193ED0E1A01A8F5
:1010000030EE010A2A468DED018A8DED029A8DEDB2
:10101000030A03F0E5FD04B0BDEC048B70BD0000D5
:10102000B0B50C460546002021582A580430102837
:101030005162F9D1286894ED000A06F06DFE6868E7
:1010400094ED010A06F068FEA86894ED020A06F025
:1010500063FEE86894ED030ABDE8B04006F05CBEAC
:1010600070B515460C460646002000BF2958325878
:1010700051622158043010289162F7D1306895ED03
:10108000000AD4ED000A06F0B7FD706895ED010A7C
:10109000D4ED010A06F0B0FDB06895ED020AD4ED7A
:1010A000020A06F0A9FDF06895ED030AD4ED030AE3
:1010B000BDE8704006F0A0BDD0F8A421002982ED63
:1010C0000C0AC2ED0D0A82ED0E1A1EBF022180F835
:1010D0005010704780B5D0F8A4214FF0010C02F1F8
:1010E0003003864600F1100118468EF850C0BDE866
:1010F000804003F0F5BC000090ED002AB0EE401AED
:101100009FED150AB4EE412AF1EE10FA23DC90EDC2
:10111000023AB4EE413AF1EE10FAB8BF704731EE40
:10112000420A90ED072A90ED061A90ED083A22EE59
:10113000002A90ED094A32EE011A20EE032A22EE2F
:10114000002A32EE011A20EE042A20EE022A22EEB4
:10115000000A30EE010A70470000000070B52DED66
:101160000C8BB0EE458AB0EE449AB0EE43AAB0EED6
:1011700042BAB0EE41CA044651EC100BF0EE658A5B
:10118000F0EE649AF0EE63AAF0EE62BAF0EE61CA95
:10119000FFF70DFB0DEE100A206051EC1C0BFFF762
:1011A00006FB05460CEE100A606051EC1B0BFFF7C6
:1011B000FEFA0BEE100AA06051EC1A0BFFF7F7FADB
:1011C0000AEE100AE06051EC190BFFF7F0FA064640
:1011D00009EE100A206151EC180BFFF7E8FA00EE57
:1011E000100A3BEE4D1A3AEE4C2AB0EE083A30EEB9
:1011F000004A22EE032A21EE013A34EE094A3CEE7F
:101200004A5A84EE014A35EE055A21EE031A39EEA8
:10121000000A82EE032A85EE011A80EE030A04F129
:10122000140161C132EE442A84ED082A30EE010A2D
:1012300084ED090ABDEC0C8B70BD000090ED002A16
:10124000B0EE401A9FED130AB4EE412AF1EE10FA07
:101250001FDC90ED023AB4EE413AF1EE10FAB8BF5D
:10126000704731EE420A90ED082A90ED071A32EEEF
:10127000022A90ED093A22EE002A32EE011AB0EE6F
:10128000082A23EE022A20EE022A22EE000A30EE7D
:10129000010A70470000000040F2BC30C2F20000BA
:1012A00000F006BB40F21C40C2F2000000F000BBA0
:1012B00040F27C40C2F2000000F0FABA40F2DC409A
:1012C000C2F2000000F0F4BA70470000042000F001
:1012D000B9BC0000082000F0B5BC000072B600BF29
:1012E000FEE70000B0B581B00022009290F83C20EB
:1012F000012A02D1022001B0B0BDD1F800E00122E4
:10130000BEF10A0F80F83C200ED31FFA8EF2520075
:10131000036812FA8EF21E3A4FF0070C53F80C5F76
:101320000CFA02F4A54308E003680EEB4E02072511
:1013300053F8104F954024EA05051D608D6805FAA5
:1013400002F21D682A431A604A68062A0ED802EB88
:1013500082014A1F01681F2351F8345F934025EA38
:1013600003030B601FFA8EF3934014E0016802EB55
:1013700082030C2A1FFA8EF203D851F8304F233B18
:1013800002E051F82C4F413B1F259D4024EA050502
:1013900002FA03F30D600A6842F2043C1A430A6041
:1013A000C4F2010C0168BEF1120FACF5417308BF25
:1013B000994205D1DCF8002042F48002CCF80020EC
:1013C0002EF00102102A08BF994205D0002180F8B2
:1013D0003C10002001B0B0BDDCF80010BEF1100FD1
:1013E00041F40001CCF80010F0D140F20801C2F243
:1013F000000109684DF68362C4F21B32A1FB0212A0
:10140000910C01EB81014900009100990029DDD088
:1014100000990139F8E70000002804BF0120704757
:1014200010B5016C39B9044600F0A0F8204600213F
:10143000616484F83C10016CC9063AD4016C41F235
:1014400002129143023142F204320164C4F20102F9
:10145000116821F440311160136890E812102343A1
:10146000D0F810E013604A68012422F480724A60C8
:101470004A68C0F6007442EA0E224A604A6822F0C6
:1014800040724A604A6842EA0C024A608A6822F462
:1014900000628A60C2688B681A438A60826A8B68BD
:1014A000A24223F070638B608B6804D123F040521A
:1014B0000AE0012152E01A438A608A6822F0405211
:1014C0008A60C26A8B681A438A608A6822F00202C4
:1014D0008A608A68037E90F8204042EA43028A606C
:1014E0004A6884B142F400624A604A684EF20003DE
:1014F00022F460424A60426ACFF6FF734C6803EB05
:101500004232224301E022F400624A60CA6A40F299
:10151000000C22F47002CA62C3694269CFF6F07C03
:10152000CC6A0CEB03532343CB628B6823F4007328
:101530008B6090F830308C6844EA43238B608B6872
:1015400023F480638B608B6843EA82228A600021E7
:101550004164026C012363F301020264002280F8FB
:101560003C20BDE8104008467047000080B586B0BA
:10157000006842F20012C4F2010200219042CDE95B
:101580000411CDE9021101911BD042F20001C4F215
:10159000010188423AD1002043F630010090C4F2A4
:1015A00002014A6942F480724A614A6902F4807217
:1015B0000092009A0090086840F0040008600868F3
:1015C00013E043F630000091C4F20200426942F495
:1015D00000724261426902F400720092009A009126
:1015E000016841F004010160006800F0040000900F
:1015F00000983F200190032002900020039040F6C5
:101600000000C4F2020001A900F028FB06B080BD72
:10161000002804BF01207047B0B5044690F82000B0
:1016200010B9204600F06EF82068016841F0010111
:10163000016000F0E3FB054620684168C90705D159
:1016400000F0DCFB401B0B28F6D310E0016821F012
:101650000201016000F0D2FB054600BF206841682E
:1016600089070DD500F0CAFB401B0B28F6D3606A32
:10167000052140F400306062012084F82010B0BDE4
:10168000217E0268012922F0800208BF80320260B8
:10169000617E0268012922F0400208BF40320260E8
:1016A000A17E0268012922F0200208BF20320260D8
:1016B000E17E0268012922F0100218BF1032026098
:1016C000217F0268012922F0080208BF0832026067
:1016D000617F0268012922F0040208BF043202601F
:1016E000D4E901C2D4E9033561691A432A4311439D
:1016F000ACF101021143C16100200121606284F854
:101700002010B0BD80B586B0006846F60002C4F275
:10171000000200219042CDE90411CDE902110191AE
:1017200032D046F20041C4F2000188426CD140F24E
:101730003C21C2F200010A6843F64000C4F20200F4
:10174000531C0B6052B900210091016841F00071F7
:101750000160016801F00071009100990021009181
:1017600050F8101C41F0080140F8101C50F8100C03
:10177000032100F008000090009840F20040C4F2FD
:10178000020000F5006033E043F64000C4F20200BE
:101790000091016841F080610160016801F08061A1
:1017A0000091009940F23C21C2F200010A68531CEA
:1017B0000B6052B900210091016841F00071016095
:1017C000016801F00071009100990021009150F82A
:1017D000101C41F0020140F8101C50F8100C602160
:1017E00000F002000090009840F20040C4F20200B5
:1017F0000191022102910021039103210491092109
:10180000059101A900F02AFA06B080BD70B5866D79
:10181000044600F0F3FA94F83510022925D1054664
:101820002068216C026822F016020260426922F0F0
:101830008002426109B9A16C19B1016821F0080167
:101840000160016821F00101016000BF20680068AB
:10185000C0070ED000F0D2FA401B0628F6D3202095
:101860006065032084F835000CE08020606501206D
:1018700008E0E06D3F2101FA00F0B060012084F83B
:1018800035000020002184F8341070BD90F8351028
:10189000022909D1052180F835100068016821F07E
:1018A00001010160002070478021416501207047DF
:1018B000F0B581B00021009140F20801C2F20001B0
:1018C0000B68D0E9166148F2B51537680822C1F6F1
:1018D0004E358A403A42A3FB05350CD003681C689C
:1018E000640708D51C6824F004041C60B260426DD3
:1018F00042F00102426501228A403A4208D0036860
:101900005B691B0604D5B260426D42F0020242657B
:1019100004228A403A4208D003681B689B0704D51A
:10192000B260426D42F00402426510228A403A429F
:1019300016D001680B681B0712D5B2600B680A68E5
:101940005B0306D4D20506D40A6822F008020A60B6
:1019500001E011033FD4016C11B1044688472046D1
:10196000C26D202101FA02F33B4241D001680F68A9
:10197000FF063DD5B36090F835700B68052F1AD17E
:1019800023F016030B604B6923F080034B61036C5B
:101990000BB9836C1BB10B6823F008030B603F216C
:1019A0009140B160012180F83510016D002280F86E
:1019B0003420D9BB3EE00A685B0310D4D20512D4B0
:1019C0000A6822F010020A60012180F83510002117
:1019D00080F8341007E0816C0029BED1C0E7110304
:1019E00001D4416C00E0C16B11B104468847204628
:1019F000416DF9B1416DC90716D0052180F8351048
:101A00000168AA0A0B6823F001030B60009B0133F5
:101A10009342009302D80B68DB07F7D1012180F8CD
:101A20003510002180F83410C16C19B101B0BDE847
:101A3000F040084701B0F0BD2DE9F041044600F048
:101A4000DDF9C4B10546022084F835000020216884
:101A500084F83400086820F00100086020680168FC
:101A6000C9070BD000F0CAF9401B0528F6D903219D
:101A7000202203207AE00120BDE8F081016848F2CD
:101A80003F02CFF21002D4E9013501EA020ED4E997
:101A9000032143EA0E032B43D4E9056C1A43D4E92E
:101AA00007781143314341EA0702616A42EA0802BA
:101AB000042942EA0C0303D1D4E90B273A43134328
:101AC00003604269042922F0070241EA02012DD194
:101AD000D4E90A5341EA050143B3BCF5005F08D0DD
:101AE000BCF1000F12D1022D16D0012D07D09DB1EF
:101AF00019E0032D17D8DFE805F00B0F0B02A3F157
:101B0000C072B2FA82F252094AB90FE0032D02D232
:101B1000012222B90AE006D1C3F3006232B10121E9
:101B20004022012022E00022002AF8D100F0F80231
:101B30004AF6AB23103ACAF6AA23A2FB033749F6AA
:101B4000B00341613909C0F60003595C40F2FF332C
:101B500098435F2A4FF03F0288BF0430C4E9160162
:101B600002FA01F18160002201210020626584F8FF
:101B70003510BDE8F081000090F834C0BCF1010FD1
:101B800004BF0220704770B54FF0010C80F834C0DC
:101B9000D0F858E090F835C0BCF1010F37D14FF0C4
:101BA000020C80F835C04FF0000CC0F854C0D0F8DB
:101BB00000C08468056CC06DDCF80060402C26F421
:101BC0008026CCF80060CCF804300B4604BF1346E6
:101BD0000A463F2101FA00F0CCF80830CCF80C207E
:101BE000CEF80800DCF8000040F01600CCF8000049
:101BF0002DB1DCF8000040F00800CCF80000DCF863
:101C0000000040F00100CCF80000002070BD002171
:101C100080F83410022070BDB0B5044600F0EEF834
:101C2000054640F24800C2F200000078611C18BF6F
:101C3000044400BF00F0E2F8401BA042FAD3B0BD5C
:101C40007047000043F61441C4F201010A680242E1
:101C500014BF08607047FFF7F3BF00002DE9F04F95
:101C600083B000F1200200F13E4741F600450092AA
:101C700007F1FF77C4F2020508224FEAB726A8420F
:101C800008BF0722072E38BF4FEAB72200274FF0C0
:101C9000000A4FF0000801920AE000BF08F10108B5
:101CA0000AF1020AB8F1100F07F1040700F09D8055
:101CB0000D68012202FA08FC15EA0C09EED04D6805
:101CC000032205F0030BABF10106012E02FA0AFE16
:101CD00010D88668CC6826EA0E0604FA0AF4344363
:101CE00084604468C5F3001524EA0C0605FA08F57B
:101CF0002E434660BBF1030F1BD0C6688D6826EAF1
:101D00000E0605FA0AF52E43BBF1020FC66010D18C
:101D10006FF00302009D02EA580655F806C007F06E
:101D20001C040F220B69A2402CEA0202A3401A43B2
:101D3000AA5102684B6822EA0E0203F0030606FA73
:101D40000AF6324313F4403F0260A7D0002243F664
:101D500044030292C4F202031A6843F6004442F4B8
:101D600080421A601A68C4F2010402F480420292AE
:101D7000029A28F003024FF6084C2244CFF6FF7C6B
:101D800052F80C3007F00C060F25B540AB43019D0F
:101D900005FA06F6334342F80C30A2684B6842EA73
:101DA000090643F60C4CDD0258BF22EA0906A6607C
:101DB000C4F2010CDCF800209D0242EA090658BF7B
:101DC00022EA0906CCF8006062689D0342EA09062F
:101DD00058BF22EA090666602268DB0342EA090668
:101DE00058BF22EA0906266058E703B0BDE8F08F25
:101DF000002A08BF090481617047000044F694502E
:101E0000C2F2000000687047002804BF012070473C
:101E1000F0B581B0044690F83D0028B9002084F860
:101E20003C00204600F024FC242084F83D0020687B
:101E3000016821F001010160016841F40041016085
:101E4000016821F40041016000F0E6FE636848F299
:101E5000A16CC0F2010C40F60011C0F23D016345D7
:101E60003CBF48F28041C0F21E01884202D20120EC
:101E700001B0F0BD4DF68361C4F21B31A0FB01122D
:101E80002168970CD1F804E04FF496762EF03F05C8
:101E900045EA92454D60774348F638160D6AC0F220
:101EA0004106A7FB067625F03F07634538BF960C31
:101EB000721C3A430A62CA6948F2A0664CF6FF7780
:101EC000C0F20106B34222EA070C0AD801385A00D0
:101ED000B0FBF2F001306FF31F30042898BF0420EC
:101EE00020E0A2681927002A08BF032701385F43B2
:101EF000B0FBF7F701373F0509D052B119225A4319
:101F0000B0FBF2F00422013062F31F3008E0012040
:101F100008E003EB4302B0FBF2F001306FF31F3037
:101F200040F4004040EA0C00C8610868D4E9072387
:101F300020F0C000104318430860886848F2FF3260
:101F400004F10C0790438CCF18431043A6698860B6
:101F5000C86820F0FF0038433043C860086840F08C
:101F60000100086000202021206484F83D102063D7
:101F700084F83E0001B0F0BD2DE9F04782B09946EB
:101F8000924688460446FFF739FF94F83D10202911
:101F900009D105462068806910F0020008D194F844
:101FA0003C00012828D10226304602B0BDE8F08767
:101FB000012686EA500706E02068806910F00200DA
:101FC00086EA5007EBD0FFF719FF401B1A28F3D31E
:101FD000206880698007EFD500202021206384F8E5
:101FE0003D1084F83E00216C41F020012164F90786
:101FF00084F83C00D3D1D6E70121206884F83C1056
:102000000168C90703D1016841F00101016001685D
:1020100021F400610160212184F83D10102184F831
:102020003E1000212164C4F824A0A4F82A90618DF8
:1020300021850021CFF6FF71E162E16A11F5803F51
:1020400018BF012924D1016841F480710160406901
:10205000DDF8289010F0010037D180F0010609F179
:1020600001070AE020684169C90717D02068406964
:1020700010F0010080F0010627D1002FF6D0FFF705
:10208000BDFEB9F1000FEDD0401B4845EED9E9E7A0
:102090000829D8D0216B1229D5D0D8E700212022D9
:1020A000216384F83D2084F83E10226C42F0200227
:1020B0002264F20784F83C1007D000680126C005AE
:1020C00044BF4FF4007020646EE72069B0F5804F84
:1020D00001D1FE2125E0062000EAD8112068F03168
:1020E0000161416909071BD4416949053BD409F1E4
:1020F000010600BF66B1FFF781FEB9F1000F02D003
:10210000401B484504D920684069000740F1D18050
:1021100020684169090703D441694905EAD522E0ED
:10212000FF21206801EA080101614169890730D473
:102130004169490517D409F1010600BF66B1FFF7EF
:102140005DFEB9F1000F02D0401B484504D920685C
:102150004069800740F1AD8020684169890718D443
:1021600041694905EAD5016841F4007101606FF4E5
:102170008061416100202021206384F83D1084F8B3
:102180003E00216C41F00401216484F83C000126EA
:102190000AE7002601962068416901918069019053
:1021A0000198208D002859D009F1010704E000BFF3
:1021B00020684069000663D5206850F8141F09069E
:1021C0000DD40168490556D4002FF5D0FFF716FE4F
:1021D000B9F1000FECD0401B4845EDD9E8E7D4F841
:1021E00024E02268704610F8013B13616062608D44
:1021F00001386085B4F828C01046ACF1010323858E
:1022000050F8141F49070DD519040BD09EF8011082
:1022100011610EF102016162618D01396185ACF1DC
:1022200002012185016806E020684069400727D542
:10223000206850F8141F49070DD4016849051AD4C5
:10224000002FF5D0FFF7DAFDB9F1000FECD0401BFD
:102250004845EDD9E8E7208D0028ADD12068016818
:1022600041F400710160202084F83D0084F83E6054
:1022700084F83C6098E66FF480610160042000E01F
:10228000202000212022216384F83D2084F83E1084
:10229000226C1043206484F83C10206C042806D182
:1022A00020680126016841F4007101607CE6012686
:1022B0007AE600202021206384F83D1084F83E0057
:1022C000216C41F020015FE72DE9F04F83B0984683
:1022D00092468B460446FFF791FD94F83D10202965
:1022E00009D105462068806910F0020007D194F8F2
:1022F0003C00012828D1022003B0BDE8F08F012660
:1023000086EA500707E000BF2068806910F00200ED
:1023100086EA5007EBD0FFF771FD401B1A28F3D374
:10232000206880698007EFD500202021206384F891
:102330003D1084F83E00216C41F020012164F90732
:1023400084F83C00D3D1D6E70121226884F83C1000
:102350001368DDE90D090C99DB0703D1136843F01D
:1023600001031360136823F400631360222284F8CE
:102370003D20402284F83E20002222646162608574
:10238000608D594620850020CFF6FF70E062204620
:1023900052464346CDE9009502F0C4F818B1012039
:1023A00003B0BDE8F08F208D022817D0012804D09B
:1023B00000BB00200290206806E02068016821F43C
:1023C000806101600021029141690291816902915D
:1023D0000299016841F40071016013E0206801680E
:1023E00021F480610160016841F400610160002115
:1023F000029102E000200290206841690291806908
:1024000002900298218D002900F00C814FF0010B01
:1024100009F101074FF000084FF0200A2068032956
:1024200050F8142F21D8022955D0012970D1510616
:102430000ED52068616A00690870E6E0206840698E
:10244000400640F10281206850F8141F4906F0D47C
:102450000168C90600F1ED80FFF7D0FCB9F1000F6B
:10246000ECD0401B4845EED9E8E7510626D5206858
:10247000616A00690870606A228D0130013A606209
:1024800022852168638D013B63854B695B0740F1C1
:10249000C58092B2032A03D10A6822F480620A60DE
:1024A00009690170B1E000BF20684069400640F151
:1024B000CC80206850F8141F4906D8D40168C9069A
:1024C00000F1B780FFF79AFCB9F1000FECD0401B88
:1024D0004845EED9E8E712F0040040F082808BEA2C
:1024E00090060AE02068406940076BD52068406983
:1024F00010F004008BEA900673D1002FF6D0FFF79E
:102500007DFCB9F1000FEDD0401B4845EED9E9E75D
:1025100012F0040027D18BEA90060AE02068406997
:10252000400711D52068406910F004008BEA90063E
:1025300019D1002FF6D0FFF761FCB9F1000FEDD0F3
:10254000401B4845EED9E9E7C4F8308084F83DA047
:1025500084F83E80206C40F020002064F00784F86E
:102560003C807FF41CAF2068616A026822F48062BC
:10257000026000690870606A216801306062208D25
:1025800001382085608D01386085486910F00400AD
:1025900027D18BEA90060AE020684069400711D5F0
:1025A0002068406910F004008BEA900619D1002FD2
:1025B000F6D0FFF723FCB9F1000FEDD0401B4845E2
:1025C000EED9E9E7C4F8308084F83DA084F83E8075
:1025D000206C40F020002064F00784F83C807FF4F9
:1025E000DEAE2068616A026842F40072026000692F
:1025F0000870606A2268411C6162218D0139218561
:10260000618D0139618511694170606A218D0130E8
:102610006062481E2085608D01386085218D00290B
:102620007FF4FCAE202084F83D00002084F83E00BA
:1026300017E06FF01001016000202021206384F872
:102640003D1084F83E00206C09E00020202120632A
:1026500084F83D1084F83E00206C40F02000206497
:102660000120002184F83C1003B0BDE8F08F000089
:102670002DE9F04786B0006845F60041C4F200013C
:1026800000258842CDE90455CDE9025501955ED07B
:1026900045F60001C4F2000188422FD045F2004106
:1026A000C4F20001884240F09980002443F63005CE
:1026B0000094C4F20205286801A940F002002860D5
:1026C000286800F00200009000984FF4C07001905C
:1026D0001220CDE90204032004900420059040F26A
:1026E0000040C4F20200FFF7B9FA0094286940F4F0
:1026F00000102861286900F400106DE0002443F602
:1027000030050094C4F20205286801A940F00200D7
:102710002860286800F00200009000984FF44060A4
:1027200001901220CDE902040320049004200590BA
:1027300040F20040C4F20200FFF790FA00942869CA
:1027400040F480002861286900F4800044E043F6EA
:1027500030060095C4F20206306840F2004740F0AF
:10276000040030603068C4F2020700F004000090FA
:1027700000980095306801AC40F00100306030688E
:102780004FF0120800F00100009000984FF4007024
:1027900001904FF003094FF0040A07F580602146CD
:1027A000CDE90285CDF81090CDF814A0FFF756FAC8
:1027B0004FF48070CDE9010803A880E82006A7F552
:1027C00080602146FFF74AFA0095306940F4000026
:1027D0003061306900F400000090009806B0BDE858
:1027E000F087000040F2480044F69451C2F2000025
:1027F000C2F2000100780A681044086070470000C7
:1028000080B543F60040C4F20200016841F4007153
:102810000160016841F480610160016841F48071E8
:102820000160032000F090F80F2000F005F800F0A0
:102830002BF8002080BD0000B0B540F24802C2F283
:10284000000240F208011278C2F200014FF47A73DC
:102850000968B3FBF2F20446B1FBF2F1084600F05E
:10286000E9FC0F2C4FF001050CD858B94FF0FF30A0
:1028700021460022002500F03BF840F24C00C2F255
:10288000000004602846B0BD82B0002043F640013D
:102890000190C4F202014A6842F480424A604A68E8
:1028A00002F480420192019A00900868002240F0F0
:1028B0008050086008680F2100F080500090009858
:1028C0006FF0010002B000F013B80000002848BF0C
:1028D000704700F01F01012202FA01F11C2202EAF6
:1028E000D0004EF20012CEF200028150704700007C
:1028F00010B54EF60C5CCEF2000CDCF80030C3F3E1
:10290000022E8EF00704042C28BF0424BEF103031A
:102910004FF0FF3E0EFA04F438BF0023A143994064
:102920000EFA03F39A43114300F1604200F00F03E3
:10293000090102F56442043B6344002848BF03F1E7
:102940000C02117010BD00004EF60C51CEF20001C9
:102950000A684FF6FF031A4060F30A2242F08060D3
:1029600040F0FD7008607047002804BF01207047E8
:10297000B0B582B00446056890F8950428B90020E7
:1029800084F89404204600F05BF80320B5F1A04FD2
:1029900084F8950404BF0020A071206804F072FA46
:1029A00094E80F00257C009504F0DCF8B8BB2068A3
:1029B000002104F06FFA90BB207948B300EBC0000F
:1029C000800000214FF0010C00230022E518243381
:1029D0002A75EA85984202F1010285F815C0297628
:1029E000C5E907116962F1D100210022002300BF6F
:1029F000A518243285F85432904203F1010385F87A
:102A0000551285F85812C5E99711C5F86412EFD12F
:102A100094E80F00257C009504F03EF928B10220CF
:102A200084F89504012002B0B0BD0020607401203C
:102A300084F89504206804F01FF9002002B0B0BDAE
:102A4000B0B586B000680024B0F1A04F0594CDE980
:102A500003440294019401D006B0B0BD43F63005A2
:102A60000094C4F20205286801A940F00100286022
:102A7000286800F00100009000984FF4C0500190C9
:102A80000220CDE90204032004900A2005900020D2
:102A9000C4F20200FFF7E2F8686840F08000686066
:102AA0000094686940F480406861686900F480407F
:102AB0000090009806B0B0BD002804BF0120704708
:102AC0002DE9F04143F60808C4F202080446D8F89C
:102AD000F8030D4600F00700884207D288F8F85343
:102AE000D8F8F80300F00700A84276D120688107E3
:102AF00017D5410705D5D8F8001041F4E051C8F8C2
:102B00000010010705D5D8F8001041F46041C8F85D
:102B10000010D8F80010A26821F0F0011143C8F8A5
:102B20000010C0073FD1D8F8F80300F00700A84212
:102B300007D988F8F853D8F8F80300F00700A8423E
:102B40004BD12068410707D5D8F80010E26821F47E
:102B5000E0511143C8F80010000708D5D8F800006C
:102B6000216920F4604040EAC100C8F8000000F08C
:102B70007BF8D8F8001049F69802C1F30311C0F6AB
:102B80000002515C40F2080220FA01F140F24C00D0
:102B9000C2F200000068C2F200021160FFF74CFEB2
:102BA0000020BDE8F0816068811E022907D258F834
:102BB000081C89015CBF0120BDE8F08110E00128FC
:102BC00007D158F8081C89035CBF0120BDE8F081DB
:102BD00006E058F8081C890702D40120BDE8F081FE
:102BE000D8F8001021F003010843C8F80000FFF7EF
:102BF00005F9064641F28837D8F80000616800F010
:102C00000C00B0EB810F8ED0FFF7F8F8801BB842B4
:102C1000F2D90320BDE8F08140F2080043F6080134
:102C2000C2F20000C4F202010068096849F6A80275
:102C3000C1F38221C0F60002515CC8407047000019
:102C400040F2080043F60801C2F20000C4F202019B
:102C50000068096849F6A802C1F34231C0F60002D3
:102C6000515CC8407047000010B543F60404C4F23C
:102C70000204606800F00C0008280AD0042819BF7C
:102C800042F20040C0F2F40043F20060C0F26E1065
:102C900010BD206821682368490243F20061C0F238
:102CA0006E1100F03F02C3F388105CBF42F2004196
:102CB000C0F2F401A1FB00010023FDF781FA2168B5
:102CC0000222C1F3014102EB4101B0FBF1F010BD62
:102CD000002804BF012070472DE9F04182B004466E
:102CE000007843F60006C007C4F2020649D0B06877
:102CF00000F00C00042809D13068800341D56068D9
:102D000000283ED1012002B0BDE8F081B06800F09B
:102D10000C00082802D170684002EDD46568306864
:102D2000B5F5A02F05D0B5F5803F09D140F480302E
:102D30000CE040F480203060306840F4803005E0E2
:102D400020F480303060306820F480203060FFF75D
:102D500055F8002D054611D03068800311D4FFF7D7
:102D60004DF8401B6428F7D928E100BFFFF746F86B
:102D7000401B64284FF0030000F2E08030688003BD
:102D8000F4D4207880071BD5B06810F00C0F09D060
:102D9000B06800F00C00082840F0858070684002A0
:102DA00000F181803068800703D5E068012840F099
:102DB0009A803068216920F0F80040EAC100306054
:102DC0002078000734D42078400746D4A5695DB345
:102DD000B06800F00C00082840F09C80012D00F045
:102DE00082807068E16900F480028A427BD1216AA6
:102DF00000F03F028A4276D147F6C071626A014014
:102E0000B1EB821F6FD1A16A4FF6FF73C9039943DB
:102E100000F44032A1F580318A4264D1E16A00F0C9
:102E20007060B0EB016F5ED1002002B0BDE8F081B0
:102E3000606900285BD00020C4F247200121C0F85F
:102E4000801EFEF7DBFF0546706F8007BBD4FEF7E0
:102E5000D5FF401B0228F7D9B0E0306C5FEAC0080C
:102E60000AD400200190306C40F080503064306C07
:102E700000F080500190019847F20007C4F200076B
:102E80003868C00526D4386840F480703860FEF792
:102E9000B5FF05463868C0051CD4FEF7AFFF401BE0
:102EA0000228F7D98AE0E068002840F20000C4F266
:102EB000472053D001210160FEF7A0FF054600BF67
:102EC000306880073FF575AFFEF798FF401B02287A
:102ED000F6D973E0A568306F052D51D0012D56D17C
:102EE00040F0010059E0012002B0BDE8F08100206F
:102EF000C4F247200021C0F8801EFEF77FFF054680
:102F0000706F80077FF55FAFFEF778FF401B0228E8
:102F1000F6D953E00027C4F2472700203866FEF7B1
:102F20006DFF022D05460DD1306880015DD5FEF79D
:102F300065FF401B02284FF00300F5D902B0BDE841
:102F4000F08100BF306880017FF56EAFFEF756FF5D
:102F5000401B02284FF00300F4D9EFE70021016085
:102F6000FEF74CFF054600BF306880077FF528AFAD
:102F7000FEF744FF401B02284FF00300F4D9DDE7C1
:102F800040F004003067306F40F0010005E020F0B1
:102F900001003067306F20F004003067FEF72EFF2D
:102FA000002D054641F2883713D000BF306F8007EF
:102FB00012D4FEF723FF401BB842F7D9032002B01A
:102FC000BDE8F081FEF71AFF401BB8424FF0030046
:102FD000B4D8306F8007F5D4B8F1000F3FF5F6AEE6
:102FE000306C20F080503064F0E604F11C052FCDE9
:102FF000084340EA8210D9034FF6FF729143A1F5CE
:10300000803140EA05600843706001203866FEF7B1
:10301000F5FE0446306880013FF506AFFEF7EEFE90
:10302000001B02284FF00300F4D987E770B528B1E0
:10303000416A29B100210161142106E0012070BD1F
:103040004168B1F5827F02D01C2100224250002647
:10305000866290F8511029B980F85060054600F05A
:103060003DF82846022180F8511090E82E0002F425
:1030700082720C6803F4044324F040040C601A4488
:1030800005F4006305691A4405F0020345691A4412
:1030900005F001038569C4691A4405F400731A44F4
:1030A00004F03803046A1A4404F08003846A1A4363
:1030B00004F400531A430A60436A042202EA1542E8
:1030C00003F010031A444A60CA6922F40062CA611C
:1030D0000121466580F85110304670BD2DE9F04160
:1030E00086B00446006843F60041C4F200010026A1
:1030F0008842CDE90466CDE90266019631D043F2FB
:103100000001C4F20101884240F09080002043F6A3
:1031100030010090C4F202014A6942F480524A61CF
:103120004A6902F480520092009A00900A6842F0C4
:1031300001020A60096801F0010100910099E02193
:1031400001910221CDE90210032004900520059091
:103150000020C4F2020001A9FEF780FD06B0BDE820
:10316000F08143F630000096C4F20200016946F295
:10317000100841F4004101610169C4F2020801F440
:103180000041009100990096016841F0040101603E
:10319000006801A900F00400009000984FF4E0508E
:1031A00001900220CDE9020603200490062005903C
:1031B0000020C4F2020000F50060FEF74FFD40F26F
:1031C000BC35C2F200054FF400304FF48067C5E90A
:1031D00008062846C5E90086C5E90266C5E9047601
:1031E000C5E90666FEF728FC002818BFFEF776F84A
:1031F000E564AC6340F21C4508F17800C2F20005BA
:103200000021402285E807004FF48030C5E908011D
:103210002846C5E90317C5E90511E961FEF70CFC6D
:10322000002818BFFEF75AF8A564AC6306B0BDE8E5
:10323000F0810000411E0020B0EB116F1CBF012087
:1032400070474EF21002CEF2000251604EF623514A
:10325000CEF20001F0230B700721906011607047DF
:1032600090F83C20012A4FF0020255D010B50123FE
:1032700080F83C3080F83D200268D2F804E0D2F8B3
:1032800008C00C682EF07003234341F2FF74C4F2AF
:103290000004A24253600DDC40F2FF73C4F200034D
:1032A0009A4215DCB2F1804F29D040F20043C4F2BB
:1032B000000322E040F2FF33C4F201039A4212DC21
:1032C00041F60003C4F200039A4218D0002312E032
:1032D00040F60003C4F200039A4210D040F60043C7
:1032E000C4F2000309E044F20003C4F201039A426D
:1032F00005D040F20043C4F201039A4204D1496868
:103300002CF08003194391600121002280F83D10C8
:1033100080F83C20BDE8104010467047002804BFEC
:103320000120704710B5044690F83D0028B90020F0
:1033300084F83C00204600F01FF8022084F83D008D
:103340002068211D03F078F9012084F8460084F8F4
:103350003E0084F83F0084F8400084F8410084F87F
:10336000420084F8430084F8440084F8450084F85F
:103370003D00002010BD000083B0006844F2000151
:10338000C4F2010188422DD040F60041C4F2000190
:10339000884216D040F20041C4F20001884230D188
:1033A0000020029043F64000C4F20200016841F0A0
:1033B00002010160006800F002000290029803B070
:1033C00070470020019043F64000C4F202000168FB
:1033D00041F008010160006800F0080001900198C8
:1033E00003B070470020009043F64000C4F2020092
:1033F000416841F480314160406800F480300090C1
:10340000009803B07047000090F83C20012A4FF06C
:1034100002026ED080B5012380F83C3080F83D2058
:10342000D0F800C04FF67772DCF8083023EA0202C9
:10343000CCF808200B684F2B28DC1F2B44DD202BF9
:1034400045D0302B43D0402B40F0AC80D1F804E085
:10345000C968DCF82030DCF8202022F00102CCF82A
:103460002020DCF8182022F0F00242EA011123F0BB
:103470000A0242EA0E02CCF81810CCF82020DCF840
:10348000081041F0470121F0300127E06F2B32DDB9
:10349000B3F5005F73D0B3F5805F21D0702B40F09F
:1034A0008180D1E901E3C968DCF8082043EA0E0312
:1034B00022F47F4243EA01211143CCF80810DCF8E2
:1034C000081041F0770109E00BB1102B6AD1DCF84C
:1034D000081021F07001194341F00701CCF80810E1
:1034E0000022012180F83D10002180F83C10BDE849
:1034F000804010467047502B21D0602B52D1D1F81C
:1035000004E0C968DCF82030DCF8202022F010024A
:10351000CCF82020DCF8182022F4704242EA013175
:1035200023F0A00242EA0E12CCF81810CCF82020AA
:10353000DCF8081041F0670121F01001CEE7D1F866
:1035400004E0C968DCF82030DCF8202022F0010219
:10355000CCF82020DCF8182022F0F00242EA011119
:1035600023F00A0242EA0E02CCF81810CCF8202010
:10357000DCF8081041F0570121F02001AEE7D1E955
:1035800001E3C968DCF8082043EA0E0322F47F4215
:1035900043EA01211143CCF80810DCF8081041F48B
:1035A00080419BE701229CE7002804BF012070476F
:1035B0002DE9F047044690F83D000D4628B900205B
:1035C00084F83C00204600F049F8022084F83D00D1
:1035D000206844F20702816891438160211D03F055
:1035E0002BF820684FF6FF7881688269D0F820C0F8
:1035F000D5E9003ED5E9026A43EA0109AB6922EA4E
:10360000080246EA03234FF6FC46B343D5E90767B1
:1036100042EA0A0229691A4342EA062242EA0111F1
:103620002CF0AA026B6942EA0E0241EA073142EA33
:103630000312C0F8089081610262012084F84600FC
:1036400084F83E0084F83F0084F8420084F8430088
:1036500084F83D000020BDE8F0870000F0B587B099
:10366000006840F60002C4F2000200219042CDE959
:103670000511CDE9031102913ED0B0F1804F63D125
:10368000002543F630000195C4F2020001690024D0
:1036900041F0010101610169C4F2020401F001017C
:1036A0000191019901950168022641F00101016033
:1036B0000168012701F0010101910199019501685B
:1036C00041F002010160006802A900F002000190CF
:1036D00001984FF4004002902046CDE9036505951E
:1036E0000697FEF7BBFA0820CDE90206CDE904559E
:1036F000069704F5806024E043F630000191C4F29F
:103700000200026942F004020261026902F004024E
:103710000192019A0191026842F008020260006879
:1037200000F00800019001984FF4405002900220F0
:10373000CDE90301CDE905100020C4F2020000F537
:10374000406002A9FEF78AFA07B0F0BD80B586B0E6
:10375000006844F20002C4F2010200219042CDE967
:103760000411CDE90211019139D040F60041C4F2B3
:10377000000188421DD040F20041C4F2000188429D
:103780004CD10020009043F63000C4F202000168E2
:1037900041F0020101600068022100F00200009087
:1037A0000098132001900020C4F2020000F5806010
:1037B0002BE00020009043F63000C4F202000168C4
:1037C00041F0010101600068022100F00100009059
:1037D00000980C2001900020C4F2020015E043F68E
:1037E00030000091C4F20200016841F01001016054
:1037F0000068032100F01000009000986020019004
:103800000020C4F2020000F5805002220292002241
:10381000059101A9CDE90322FEF720FA06B080BD8B
:1038200090F83C30012B04BF022070474FEAB202EF
:103830000123032A80F83C3000F2F8802DE9F043A0
:10384000DFE802F002AF3D7D036840F200461C6AEB
:103850001A6A24F0020422F001021A621A46D3F80E
:1038600004C052F818EF8F6843F48065C4F2010673
:10387000B54244EA070405D1CF6824F00C0427F0D0
:1038800004073C430F68B54206D1D1E905582CF432
:1038900040762E4346EA080C2EF073063743C3F8F1
:1038A00004C09F614F6809695F631C629F6947F0AC
:1038B00008079F619F6927F004079F61B0E00368D4
:1038C00040F200481C6A1A6A24F4007422F48072E0
:1038D0001A621A46D3F804C052F81CEF8F6843F4FA
:1038E0008065C4F20108454544EA072408D1CF6841
:1038F00040F2FF463F0224F4406427EA06063443C0
:10390000D1F80090454506D1D1E905562CF4405731
:103910002E4347EA061C2EF0730747EA0907C3F84F
:1039200004C0DF614F680969DF631C62DF6947F02B
:103930000807DF61DF6927F00407DF6170E00368D3
:1039400040F20045D3F820C01A6A43F4806722F49D
:1039500080521A621A465C6852F81C8FD1F800E057
:103960008E68C4F20105AF4204D14D6924F480444D
:1039700044EA85142CF4005747EA063728F4E64653
:1039800046EA0E265C60DE614E6809691E641F62AD
:10399000DF6947F40067DF61DF6927F48067DF6173
:1039A0003DE0036840F200481C6A1A6A24F02004D3
:1039B00022F010021A621A46D3F804C052F818EF27
:1039C0008F6843F48065C4F20108454544EA071452
:1039D00007D1CF686FF0400624F0C00406EA07164E
:1039E0003443D1F80090454506D1D1E905562CF471
:1039F00040672E4347EA860C2EF4E64747EA09273C
:103A0000C3F804C09F614F6809699F631C629F6986
:103A100047F400679F619F6927F480679F610902EF
:103A20001368194300231160BDE8F043002180F8BA
:103A30003C10184670470000002804BF0120704762
:103A400010B5044690F83D0028B9002084F83C00E9
:103A5000204600F01FF8022084F83D002068211D58
:103A600002F0EAFD012084F8460084F83E0084F864
:103A70003F0084F8400084F8410084F8420084F854
:103A8000430084F8440084F8450084F83D00002099
:103A900010BD0000704700004122082908BF4022E5
:103AA000042908BF3F22002908BF3E22825C012A68
:103AB0001CBF01207047022241B1082909D0042906
:103AC00014BF80F8412080F83F2004E080F83E20B9
:103AD00001E080F84020006801F01F010122036A24
:103AE00002FA01F123EA01020262026A0A4341F288
:103AF000FF71C4F20001884202620BDC40F2FF71E8
:103B0000C4F20001884213DCB0F1804F45D040F28E
:103B1000004115E040F2FF32C4F20102904214DC91
:103B200041F60003C4F20003984236D0002314E0AB
:103B300040F60001C4F2000188422ED040F6004158
:103B4000C4F20001884228D02EE044F20003C4F2FF
:103B50000103984221D040F20043C4F2010398428D
:103B600022D1436C884243F400434364C6DD904253
:103B700007DC41F60001C4F2000188420DD00021AB
:103B800007E044F20001C4F20101884205D040F28E
:103B90000041C4F20101884206D1816801F00701A9
:103BA000062904BF00207047016841F0010101604F
:103BB0000020704790F84230202B07D100294FF0A9
:103BC000010318BF002A04D1184670470223184683
:103BD0007047B0B582B001230025036345630446F6
:103BE00002F03AFF216B0123012912D101952168CE
:103BF0000A68019249680191019900BF216851E862
:103C0000031F226841F0100142E80313002BF5D195
:103C1000034602B0BDE8B0401846704740F69C62CB
:103C2000C2F200021278002A08BF704770B544F64D
:103C300088560025C2F2000656F82530D3F8044114
:103C4000844205D001359542F6D3BDE870407047F7
:103C5000D3F8080130B10C46804756F825002146BC
:103C6000FCF7E6FA56F82510D1F8040191F8002186
:103C7000FFF7A0FF56F82500D0F80401C06B0068DC
:103C8000016821F008010160BDE870407047000044
:103C900040F69C61C2F200010A78002A08BF704712
:103CA000B0B544F688550024C2F2000555F824103A
:103CB000D1F80431834205D001349442F6D3BDE8F3
:103CC000B040704791F800211846FFF773FF55F890
:103CD0002400D0F80401C06B0068016821F00801DD
:103CE0000160BDE8B0407047B0B582B001680A68B5
:103CF000CC684B6902F02F05202D04F0200505D17A
:103D000025B102B0BDE8B04002F0D6BD5FEA027C4A
:103D10001EBF03F0010E04F4907313EB0E0340D1A9
:103D2000036BD50618D5012B16D114F0100313D050
:103D3000002201920A6801924A680192019A496937
:103D4000490647D4818DC28DC38D002B18BF914287
:103D500040F01A8102B0B0BD13062AD514F08003DA
:103D600027D090F84120212AF4D18268B2F5805FF3
:103D700003D10269002A00F03A81026A531C0362EF
:103D800012784A60C28C013A1304C284E2D1C86836
:103D900020F08000C860C86840F04000C86002B0F1
:103DA000B0BDD10718BF14F4807167D151076BD42F
:103DB00071E05206CED514F04002CBD0CA6822F092
:103DC0004002CA60202180F8411002B0BDE8B04036
:103DD00000F0A4BBC26B116849688BB2002B42D0C3
:103DE000858DAB423FD2C185D169B1F5807F33D09B
:103DF000016851E8031F026821F4807142E803134F
:103E0000002BF5D1016851E8051F026821F001017E
:103E100042E80513002BF5D1016851E8051F02683F
:103E200021F0400142E80513002BF5D1202180F854
:103E300042100021016300BF016851E8031F0268BE
:103E400021F0100142E80313002BF5D1C16B0446A9
:103E50000846FDF7DBFC204602214163818DC28DBF
:103E6000891A89B2B9E0818D99427FF473AFD26922
:103E7000B2F5807F7FF46EAF0222ADE0416C41F07D
:103E800001014164510706D5BEF1000F03D0416C1A
:103E900041F002014164910706D5BEF1000F03D045
:103EA000416C41F004014164BCF1000F06D55EEAAB
:103EB000050103D0416C41F008014164416C0029C7
:103EC0003FF448AF910604D51DB1044602F0F4FC5E
:103ED000204601684969426C01F0400102F0080285
:103EE00089184AD0016851E8031F026821F49071D3
:103EF00042E80313002BF5D1016851E8051F026861
:103F000021F0010142E80513002BF5D1016B0129D5
:103F10000AD100BF016851E8031F026821F01001B7
:103F200042E80313002BF5D1202180F84210002134
:103F3000016301684969490654D500BF016851E829
:103F4000051F026821F0400142E80513002BF5D15E
:103F5000C16B002946D046F27172C0F600020446D9
:103F600008460A65FDF792FC00283FF4F3AEE06BCB
:103F7000016D02B0BDE8B04008470446FFF788FE77
:103F80000020606402B0B0BD891A00BF026852E828
:103F9000032F036822F4907243E80325002DF5D126
:103FA000026852E8052F036822F0010243E8052564
:103FB000002DF5D1202280F842200022026300BFAC
:103FC000026852E8032F036822F0100243E8032539
:103FD000002DF5D1022289B2426302B0BDE8B040A3
:103FE000FFF71CBE02B0BDE8B040FFF751BE026A49
:103FF00032F8023B6FF35F234B600262C2E60000BF
:10400000002804BF0120704710B5044690F8410015
:1040100028B9002084F84000204600F021F8242030
:1040200084F841002068C16821F40051C160204635
:1040300002F0A2FC2068016921F49041016141690C
:1040400021F02A014161C16841F40051C1600020A2
:104050002021606484F8411084F84210606310BD30
:104060002DE9F04387B0016844F6FF32C4F2000244
:1040700091424FF000020692CDE90422CDE90222DE
:1040800041DD41F20042C4F20102914265D041F2A9
:104090000000C4F20100814200F0CF8044F60040ED
:1040A000C4F20000814240F0C580002043F6300198
:1040B0000190C4F202010A6942F400220A610A690D
:1040C00002F400220192019A01900A6842F0010272
:1040D0000A600968022201F0010101910199CDE90C
:1040E0000320082003210690002002910591C4F2CC
:1040F000020002A9FDF7B2FD342005210022FEF7DF
:10410000F7FB342094E044F20040C4F20000814206
:1041100000F0BA8044F60000C4F20000814240F092
:104120008980002043F630010190C4F202010A693F
:1041300042F480220A610A6902F480220192019A03
:1041400001900A6842F008020A60096801F008015B
:10415000019101994FF44071B0E00546002643F605
:1041600030000196C4F20200416946F2284841F04D
:10417000200141614169C4F2020801F0200101916E
:1041800001990196016841F004010160006802A9EB
:1041900000F0040001900198C02002900220CDE9B7
:1041A000030603200590082006900020C4F20200B8
:1041B00000F50060FDF752FD40F27C44C2F20004BD
:1041C0004FF020674FF480692046C4E90087C4E9B6
:1041D0000266C4E90496C4E90666C4E90866FDF708
:1041E0002BFC002818BFFDF779F8EC63A56340F2BB
:1041F000DC4408F17800C2F200044021C4E9000761
:1042000004F1080080E842022046C4E90566C4E9DA
:1042100007666662FDF710FC002818BFFDF75EF820
:10422000472005210022AC63A563FEF761FB472010
:10423000FEF74CFB07B0BDE8F083002043F63001E9
:104240000190C4F202014A6942F010024A614A69CF
:1042500002F010020192019A01900A6842F00102F4
:104260000A60096801F00101019101994FF4C061F0
:1042700002910221CDE9031003200590072006904A
:104280000020C4F2020026E0002043F63001019035
:10429000C4F202010A6942F400320A610A6902F4B6
:1042A00000320192019A01900A6842F008020A6005
:1042B000096801F00801019101996021049003202F
:1042C0000590072006900020C4F20200029102210E
:1042D00000F54060039102A9FDF7C0FC07B0BDE8FE
:1042E000F083000090F84230202B07D100294FF0D6
:1042F000010318BF002A04D118467047022318464C
:10430000704700230363816222218285C285436452
:1043100080F84210016921B10168CA6842F48072D4
:10432000CA600068416941F001014161C16841F022
:104330002001C16018467047006844F60041C4F28D
:104340000001884218BF7047F0B581B040F2562492
:1043500040F60C60C2F20004C2F2000021460122C5
:104360000126FFF7BFFF207840F241210D28C2F25D
:10437000000113D02B2804BF01220A7009780129FB
:1043800044D140F24021C2F200010A7841F24C03CC
:10439000C2F200039854501C087037E040F24020ED
:1043A000C2F20000027841F24C03C2F20003002581
:1043B0009D5405700D7041F2400440F2D82540F242
:1043C0005827C2F20004C2F20005C2F2000703F14E
:1043D000080010A122462B460097FBF735FF206806
:1043E00040F25421C2F200010870286840F23A21DC
:1043F000C2F200010870386840F27801C2F2000190
:10440000087040F25520C2F20000067001B0BDE80D
:10441000F0407047523A256420473A256420423ADA
:1044200025640000704700002DE9F04381B0044688
:1044300090F84100202809D1884600294FF001005A
:1044400018BF002A06D101B0BDE8F083022001B0F8
:10445000BDE8F0830020606421201D4684F84100FF
:104460001646FDF7CBFCA684E684A1680646B1F5A6
:10447000805F02D1206900284DD0C1464FF000086E
:10448000E08C40B36F1C0BE0B9F1000F1AD019F8A3
:10449000010B21684860E08C0138E084E08CD0B1E9
:1044A000206800680006EFD4002FF9D0FDF7A6FCC5
:1044B00001464FF0030045B3891BA94225D8206867
:1044C000C068EDE738F8020B21686FF35F204860A1
:1044D0004FF00009DFE720680068400614D46F1C25
:1044E00004E000BF2068006840060DD4002FF9D01A
:1044F000FDF784FC01464FF0030035B1891BA9424A
:1045000003D82068C068EDE70020202184F841101E
:1045100001B0BDE8F0834FF00009B1E7704700003B
:10452000FEE700002DE9F04F83B004460068DDF897
:1045300034B00C9E0768994647F4806707600768A7
:10454000904647F48073036040698A4610F001008A
:104550002AD180F00107751C0BE000BF206840697C
:10456000C00711D02068406910F0010080F00107F9
:104570001AD1002DF6D0FDF741FC002EEED0A0EBB5
:104580000B00B042EED9E9E700202021206384F837
:104590003D1084F83E00216C41F020012164F907B0
:1045A00084F83C0040F0B78020680AF0FE0AC0F8AA
:1045B00010A0416989072CD44169490514D4771C9E
:1045C0005FB1FDF71BFC1EB1A0EB0B00B04204D99C
:1045D00020684069800740F1D180206841698907DF
:1045E00017D441694905EBD5016841F400710160B8
:1045F0006FF48061416100202021206384F83D1028
:1046000084F83E00216C41F00401216484F83C00F0
:10461000B0E000200290206850F8141F0291416819
:1046200002910299016809061AD4771C0AE000BFBA
:1046300020684069000640F18880206850F8141F07
:1046400009060DD40168490551D4002FF5D0FDF7B6
:10465000D5FB002EECD0A0EB0B00B042EDD9E7E784
:104660002068B9F1010F21D04FEA1821016150F8FB
:10467000141F090619D4771C09E000BF206840699F
:10468000000662D5206850F8141F09060DD4016891
:1046900049052CD4002FF5D0FDF7B0FB002EEDD04E
:1046A000A0EB0B00B042EDD9E8E720685FFA88F193
:1046B0000161206850F8141F09061DD4771C08E01A
:1046C00020684069000640D5206850F8141F09068C
:1046D00012D4016849050AD4002FF5D0FDF78EFBEE
:1046E000002EEDD0A0EB0B00B042EDD9E8E76FF45F
:1046F00080610160042029E02068002201683346BF
:1047000041F48071016020464FF00111CDF800B0F6
:1047100000F040F850B120680068C00544BF4FF475
:1047200000702064032003B0BDE8F08F25684AF0D4
:1047300001070221C0F20101204632465B462F618B
:1047400003B0BDE8F04F00F069B82020002120221E
:10475000216384F83D2084F83E10226C10432064CD
:1047600084F83C10206C042804D12068016841F4CE
:1047700000710160012003B0BDE8F08F002020210E
:10478000206384F83D1084F83E00216C41F0200144
:104790003BE700002DE9F047DDF8208099461646FA
:1047A000044601F47F0018278DB203F1010AB0F529
:1047B000803F08BF142708E02068C0592840401BEC
:1047C000B0FA80F04009B04218D02068C0592840A3
:1047D000401BB0FA80F04009B0420CD1BAF1000F92
:1047E000F3D0FDF70BFBB9F1000FE5D0A0EB08000B
:1047F0004845EAD9E0E70020BDE8F0870020202105
:10480000206384F83D1084F83E00216C41F02001C3
:10481000216484F83C000120BDE8F0872DE9F041D7
:1048200004460068984643698FB203EA0701B9421B
:1048300002D10020BDE8F0814169490517D4164630
:10484000551C00BF5DB1FDF7D9FA1EB1A0EB080001
:10485000B04204D9206840693840B8421ED120686F
:1048600041693940B942E4D041694905EAD5016856
:1048700041F4007101606FF4806141610420002106
:104880002022216384F83D2084F83E10226C1043DE
:104890002064012084F83C10BDE8F0812020EEE780
:1048A00080B582B002290FD0002923D1CF218DF805
:1048B000050040F2E4508DF804104FF47A7CC2F207
:1048C000000001AA98210DE0CF218DF8070040F2E9
:1048D000E4508DF806104FF47A7CC2F200000DF11E
:1048E00006029A210223CDF800C0FDF745FBB0FA7D
:1048F00080F04109C8B202B080BD000010B584B09C
:104900001AB1022A11D19A2200E098224FF47A7348
:104910008DE80B0040F2E450C2F200001146B022D4
:1049200001230124FDF7D0FC00E00024204604B060
:1049300010BD000080B584B018B1022813D19A21AF
:1049400000E0982101200DF10F02CDE9002040F296
:10495000E4504FF47A7CC2F20000DD220123CDF84E
:1049600008C0FDF7B1FC9DF80F0004B080BD000049
:1049700010B52DED068B00EE100A9FED251AB8EE4E
:10498000400A80EE010A91ED001A91ED022A91EDA4
:10499000013A144620EE019A92ED021A20EE022A04
:1049A00020EE03AA32EE010A82ED020A04F0E0F8DA
:1049B00094ED021AB0EE408AB0EE410A03F0CCFF4B
:1049C0002AEE000A29EE081A94ED012A31EE001AA7
:1049D00094ED020A32EE011A84ED011A03F0BCFFD5
:1049E00094ED021AB0EE408AB0EE410A04F0C0F82D
:1049F00020EE0A0A29EE081A94ED002A31EE400A48
:104A000032EE000A84ED000ABDEC068B10BD00BF3B
:104A100000007A440021C0E90311416170470000A1
:104A200070B52DED048B90ED000A90ED011A90ED1C
:104A3000022A90ED033A30EE014A34EE024A31EE9A
:104A4000400A34EE034ABDEE005A30EE021A30EE50
:104A5000420A24EE054A31EE431AB5EE005A30EE12
:104A6000030A92ED008A92ED019A21EE051A10EEEA
:104A7000100A0C4681ED004A81ED011AFBF784FE15
:104A800038EE090A054610EE100A0E46FBF77CFECA
:104A90009FED090B53EC102BFBF73FFD02460B4635
:104AA00028463146FBF7ABFDFBF781FEA060BDEC6D
:104AB000048B70BD00BF00BF00000000000010406C
:104AC00001720021C0E9031141614CF6CD41C3F6EA
:104AD000CC5180EC020AC0E90F114164704700001C
:104AE000137A92ED000A92ED011A012B3DD0002BB2
:104AF00018BF704790ED002A90ED013A90ED024A00
:104B000030EE010A33EE422A24EE001A31EE021A88
:104B100081ED001A90ED001A90ED012A90ED023A15
:104B200032EE011A23EE002A31EE421A81ED011A0B
:104B300090ED001A90ED012A90ED023A32EE411A02
:104B400023EE002A31EE421A81ED021A90ED001A8E
:104B500090ED012A90ED023A32EE011A23EE000A9E
:104B600030EE010A81ED030A704790ED002A90EDC6
:104B7000013A90ED024A30EE010A32EE032A24EEA9
:104B8000401A31EE421A81ED001A90ED001A90EDB4
:104B9000012A90ED023A32EE411A23EE002A32EE5B
:104BA000011A81ED011A90ED001A90ED012A90EDA5
:104BB000023A32EE411A23EE002A31EE421A81ED1A
:104BC000021A90ED001A90ED012A90ED023A31EEB2
:104BD000021A23EE000A30EE410A81ED030A704703
:104BE0002DE9F04F81B02DED068B82B08146D0E9E2
:104BF00000069A4615460191FBF7C6FD0746A868D0
:104C00008B46FBF7C1FD41EC180BB0EE480AF0EE05
:104C1000680A03F03DFEB0EE409A3046F0EE609A2E
:104C2000FBF7B2FDB0EE480AF0EE680A06460D4604
:104C300003F03AFF51EC100B32462B46FBF76DFCAC
:104C40000446884653EC192B38465946FBF765FC59
:104C500022464346FBF7BAFBFBF7A9FDB0EE480A34
:104C6000F0EE680A0AEE100A03F01EFFB0EE409A5A
:104C7000B0EE480AF0EE609AF0EE680A03F008FE23
:104C800051EC100B32462B46FBF747FC04460D4611
:104C900053EC192B38465946FBF73FFC02460B46AE
:104CA00020462946FBF733FCFBF781FD9AF80810F4
:104CB00099ED020A9AED002A9AED013A012901EED6
:104CC000100A1AD0A1BB32EE032A31EE4A4A20EE76
:104CD000023A3AEE011A20EE420A019833EE045AE3
:104CE00030EE012A30EE040A80ED005A80ED012AF0
:104CF00080ED020A33EE010A18E032EE032A3AEEA2
:104D0000014A20EE423A31EE4A1A20EE020A019898
:104D100033EE445A30EE012A33EE011A30EE440AE3
:104D200080ED005A80ED012A80ED021A80ED030A21
:104D300002B0BDEC068B01B0BDE8F08F2DE9F0416B
:104D400040F20044C4F2020417460E4605462046CF
:104D50004FF4805100229846FDF74AF82A2000F0CF
:104D600051FA20464FF480510122FDF741F8280AFC
:104D700000F048FAE8B200F045FA380A00F042FACA
:104D8000F8B200F03FFA20464FF480510022FDF7C0
:104D90002FF82B2000F036FA20464FF480510122E4
:104DA000FDF726F806F11805A8B2000A00F02AFA65
:104DB000E8B200F027FA08F11805A8B2000A00F0DE
:104DC00021FAE8B200F01EFA20464FF4805100228A
:104DD000FDF70EF82C2000F015FA20464FF4805114
:104DE0000122BDE8F041FDF703B800002DE9F043D2
:104DF00081B00E468146501E591E9846154682B215
:104E00008BB248463146FFF799FF464512D2089CBF
:104E100004E000BF0136B0B240450BD2A945F9D23B
:104E20004F4600BF204600F0E3F90137B8B2A84270
:104E3000F8D3EFE701B0BDE8F083000010B540F211
:104E40000044C4F2020420464FF480410022FCF7E3
:104E5000CFFF642003F008F920464FF4804101227F
:104E6000FCF7C6FF642003F0FFF804F540604FF440
:104E700080610122FCF7BCFF642003F0F5F82046B6
:104E80004FF480510022FCF7B3FF112000F0BAF973
:104E900020464FF480510122FCF7AAFF782003F04E
:104EA000E3F820464FF480510022FCF7A1FFB12027
:104EB00000F0A8F920464FF480510122FCF798FF3A
:104EC000052000F09FF93C2000F09CF93C2000F008
:104ED00099F920464FF480510022FCF789FFB22057
:104EE00000F090F920464FF480510122FCF780FF3A
:104EF000052000F087F93C2000F084F93C2000F008
:104F000081F920464FF480510022FCF771FFB32055
:104F100000F078F920464FF480510122FCF768FF39
:104F2000052000F06FF93C2000F06CF93C2000F007
:104F300069F9052000F066F93C2000F063F93C2097
:104F400000F060F920464FF480510022FCF750FF3A
:104F5000B42000F057F920464FF480510122FCF7AD
:104F600047FF032000F04EF920464FF48051002205
:104F7000FCF73EFFC02000F045F920464FF4805179
:104F80000122FCF735FF0E2000F03CF90E2000F066
:104F900039F9042000F036F920464FF48051002200
:104FA000FCF726FFC12000F02DF920464FF4805178
:104FB0000122FCF71DFFC52000F024F920464FF424
:104FC00080510022FCF714FFC22000F01BF920469C
:104FD0004FF480510122FCF70BFF0D2000F012F975
:104FE000002000F00FF920464FF480510022FCF71A
:104FF000FFFEC32000F006F920464FF48051012245
:10500000FCF7F6FE8D2000F0FDF82A2000F0FAF8FB
:1050100020464FF480510022FCF7EAFEC42000F045
:10502000F1F820464FF480510122FCF7E1FE8D207B
:1050300000F0E8F8EE2000F0E5F820464FF480514B
:105040000022FCF7D5FEC52000F0DCF820464FF426
:1050500080510122FCF7CCFE062000F0D3F8204658
:105060004FF480510022FCF7C3FE362000F0CAF84E
:1050700020464FF480510122FCF7BAFE782000F060
:10508000C1F820464FF480510022FCF7B1FE3A20CF
:1050900000F0B8F820464FF480510122FCF7A8FE3A
:1050A000552000F0AFF820464FF480510022FCF765
:1050B0009FFEE02000F0A6F820464FF48051012228
:1050C000FCF796FE0B2000F09DF8172000F09AF8F0
:1050D0000A2000F097F80D2000F094F81A2000F054
:1050E00091F8192000F08EF8162000F08BF81D20A2
:1050F00000F088F8212000F085F8262000F082F8E2
:10510000372000F07FF83C2000F07CF8002000F011
:1051100079F8092000F076F8052000F073F81020E7
:1051200000F070F820464FF480510022FCF760FE3A
:10513000E12000F067F820464FF480510122FCF78F
:1051400057FE0C2000F05EF8192000F05BF80920F3
:1051500000F058F80D2000F055F81B2000F052F830
:10516000192000F04FF8152000F04CF81D2000F039
:1051700049F8212000F046F8262000F043F83920B5
:1051800000F040F83E2000F03DF8002000F03AF832
:10519000092000F037F8052000F034F8102000F066
:1051A00031F8782002F060FF20464FF48051002251
:1051B000FCF71EFE292000F025F820464FF4805110
:1051C0000122BDE81040FCF713BE000082B0FFF7DB
:1051D00035FE4FF6FF7C00200021A0225023CDF8A1
:1051E00000C0FFF703FE00BF642002F03DFFFBE7B5
:1051F00010B50446000A00F005F8E0B2BDE8104022
:10520000AFF30080F0B581B040F20046C4F2020670
:1052100006F50065044628464FF480610022002709
:10522000FCF7E6FD30464FF400510022FCF7E0FDAC
:10523000E0B2C20930464FF40041FCF7D9FD3046D8
:105240004FF400510122FCF7D3FD6400072F07F152
:105250000107E7D328464FF48061012201B0BDE881
:10526000F040FCF7C5BD0000B0B584B040F2DC20D2
:1052700042F2000101230024C2F20000C4F2010145
:10528000C0F600730125CDE90244CDE900444FF496
:105290008032047680F82040C0E90A34C56180F885
:1052A000304080E81600C0E903444561FCF7B4F8DB
:1052B000002818BFFCF712F80A20CDE9000540F2DB
:1052C000DC20C2F2000069460294FCF70BF80028CB
:1052D00018BFFCF703F804B0B0BD0000B0B584B04F
:1052E00040F2243042F2001101230024C2F20000F7
:1052F000C4F20101C0F600730125CDE90244CDE9F5
:1053000000444FF48032047680F82040C0E90A342B
:10531000C56180F8304080E81600C0E9034445616B
:10532000FCF77AF8002818BFFBF7D8FF0A20CDE970
:10533000000540F22430C2F2000069460294FBF7F7
:10534000D1FF002818BFFBF7C9FF04B0B0BD0000B3
:1053500080B540F26C3046F20041C2F20000C4F267
:1053600000010322002380E80E0000F10C014FF43D
:10537000102C4FF4001E81E8085083618383FCF7F2
:1053800047F9002808BF80BDBDE88040FBF7A6BFF5
:1053900080B540F2943046F60001C2F20000C4F23B
:1053A00000010322002380E80E0000F10C014FF4FD
:1053B000102C4FF4001E81E8085083618383FCF7B2
:1053C00027F9002808BF80BDBDE88040FBF786BFF5
:1053D00080B582B0002043F630010190C4F2020192
:1053E0000A6842F400120A600A6802F4001201928C
:1053F000019A00900868002240F480000860086864
:10540000052100F48000009000980B20FDF770FA51
:105410000B20FDF75BFA102005210022FDF768FA4A
:105420001020FDF753FA392005210022FDF760FA1C
:105430003920FDF74BFA452005210022FDF758FAE7
:10544000452002B0BDE88040FDF740BA80B588B085
:105450000B4802AF01900AA000F1040E9EE80E5026
:10546000806987E80E50079001A8002102F09AF8A1
:1054700040F2B821C2F20001086008B080BD00BF50
:10548000C598000841650008000000000000000009
:105490008000000000000000000000002DE9F04F37
:1054A00087B0002443F630000694CDE90444CDE9EA
:1054B00002440194C4F20200016840F6004841F041
:1054C000100101600168C4F2020801F010010191AD
:1054D000019901940168A8F5406941F080010160DB
:1054E0000168002201F08001019101990194016895
:1054F000102541F004010160016801F004010191EF
:1055000001990194016841F001010160016801F015
:105510000101019101990194016841F002010160CA
:10552000016801F00201019101990194016841F0C3
:10553000080101600068102100F008000190019846
:105540004846FCF755FC08F5806738464FF404419F
:105550000022FCF74DFCA8F5006A50464FF470415C
:1055600001220126FCF744FC40464FF492610122DF
:10557000FCF73EFC40464FF4404100224FF4404BC4
:10558000FCF736FCCDE9025602AD48462946CDE986
:105590000444FCF763FB4FF4806938462946CDE9A3
:1055A0000296CDE90464FCF759FB4FF40040CDE9C5
:1055B000020638462946CDE90444FCF74FFB4FF478
:1055C0008050CDE9020602275046294604940597EB
:1055D000FCF744FB4FF46040CDE9020650462946F3
:1055E000CDE90467FCF73AFB40462946CDE902962F
:1055F000CDE90447FCF732FB40462946CDE902B627
:10560000CDE90444FCF72AFB0C2002904FF48810EB
:10561000CDE9030640462946FCF720FB9020CDE962
:10562000020640462946CDE90467FCF717FB08202F
:1056300005210022FDF75CF90820FDF747F9092054
:1056400005210022FDF754F90920FDF73FF907B0C5
:10565000BDE8F08F80B540F23C5045F20041C2F207
:105660000000C4F2000148F2A06200234FF4804C15
:10567000C0F2010280E80E00C0E9033CC0E9053336
:10568000C0E90733FCF7C0FB002808BF80BDBDE8B8
:105690008040FBF723BE000080B540F2905045F6F5
:1056A0000001C2F20000C4F2000148F2A06200232F
:1056B0004FF4804CC0F2010280E80E00C0E9033CC8
:1056C000C0E90533C0E90733FCF79EFB002808BF9B
:1056D00080BDBDE88040FBF701BE000080B540F210
:1056E000E45045F60041C2F20000C4F2000148F265
:1056F000A06200234FF4804CC0F2010280E80E004B
:10570000C0E9033CC0E90533C0E90733FCF77CFB83
:10571000002808BF80BDBDE88040FBF7DFBD00006A
:1057200080B540F61C3043F20001C2F20000C4F222
:1057300001014FF4827200234FF4007C80E80E00D8
:105740000A21C0E90333C0E9053CC361C0E908335D
:10575000C0E90A31FDF76AFC002808BF80BDBDE83A
:105760008040FBF7BBBD0000B0B540F6743043F697
:105770000041C2F20000C4F200014FF48272002323
:1057800080E80E0000F10C014FF0020C4FF0010E0A
:105790004FF40074302581E808500A21C0E906451D
:1057A000C0E90833C0E90A31FDF740FC002808BF12
:1057B000B0BDBDE8B040FBF791BD0000B0B58CB006
:1057C00003AC20462421FAF733FD40F6CC30002507
:1057D000C2F200004FF08041C0E9001501214FF0F6
:1057E000FF32CDE90315CDE90515CDE909152146AF
:1057F000CDE90055C0E9025205618561CDE9075543
:105800000B95FDF7D1FE002818BFFBF767FD40F6AA
:10581000CC30C2F200006946CDE90055FDF720FD0D
:10582000002818BFFBF75AFD0CB0B0BD10B58EB004
:1058300040F614400021C2F2000040F2004244F65B
:105840001F640D91CDE90B11CDE90911CDE90711C7
:10585000CDE90511CDE90311CDE90111C4F2000232
:105860005323C0E9021401618021C0E90023816152
:10587000FDF754FD002818BFFBF730FD4FF48050B2
:105880000A9040F61440C2F200000AA9FDF7BCFDE0
:10589000002818BFFBF722FD40F61440C2F20000BA
:1058A000FEF7CAF8002818BFFBF718FD40F61440B1
:1058B0000024C2F2000008A9CDE90844FDF7D0FC9D
:1058C000002818BFFBF70AFD6020CDE9010440F66F
:1058D0001440C2F2000001A9002203940594FDF7D0
:1058E0009FFF002818BFFBF7F9FC40F61440C2F2F6
:1058F000000001A90822FDF793FF002818BFFBF75D
:10590000EDFC40F61440C2F2000001A90C22FDF7A4
:1059100087FF002818BFFBF7E1FC40F61440C2F2F5
:105920000000FDF713FF0EB010BD0000B0B58CB045
:1059300003AC20462421FAF77BFC40F65C4040F69D
:1059400000010025C2F20000C4F20001C0E9001508
:1059500001214FF6FF72CDE90315CDE90515CDE91B
:1059600009152146CDE90055C0E90252056185615E
:10597000CDE907550B95FDF717FE002818BFFBF77B
:10598000ADFC40F65C40C2F200006946CDE900552E
:10599000FDF766FC002818BFFBF7A0FC0CB0B0BDFB
:1059A00010B58EB040F6A4400021C2F2000040F6CF
:1059B000004244F61F640D91CDE90B11CDE90911A8
:1059C000CDE90711CDE90511CDE90311CDE90111AB
:1059D000C4F200025323C0E9021401618021C0E92E
:1059E00000238161FDF79AFC002818BFFBF776FCC5
:1059F0004FF480500A9040F6A440C2F200000AA979
:105A0000FDF702FD002818BFFBF768FC40F6A44034
:105A1000C2F20000FEF710F8002818BFFBF75EFC8A
:105A200040F6A4400024C2F2000008A9CDE90844D1
:105A3000FDF716FC002818BFFBF750FC6020CDE9ED
:105A4000010440F6A440C2F2000001A90822039418
:105A50000594FDF7E5FE002818BFFBF73FFC40F674
:105A6000A440C2F2000001A90C22FDF7D9FE0028D3
:105A700018BFFBF733FC40F6A440C2F20000FDF76C
:105A800065FE0EB010BD000080B58CB040F6EC4055
:105A90000021C2F2000044F2000244F61F6C0B9198
:105AA000CDE90911CDE90711CDE90511CDE90311C2
:105AB000CDE90111C4F20102A723C0E9021C016172
:105AC0008021C0E900238161FDF728FC002818BF70
:105AD000FBF704FC4FF48050089040F6EC40C2F213
