:020000040800F2
:10000000B8770020550200083D4800082531000857
:1000100035480008050700080557000800000000E3
:10002000000000000000000000000000D14F0008A8
:10003000350C000800000000A1490008915000089C
:100040006F0200086F0200086F0200086F020008CC
:100050006F0200086F0200086F0200086F020008BC
:10006000390C0008410C00086F0200081D0C000844
:100070006F0200086F0200086F0200086F0200089C
:10008000290C00086F0200086F0200086F020008C8
:100090006F0200086F0200086F0200086F0200087C
:1000A0006F0200086F0200086F0200086F0200086C
:1000B0006F0200086F0200086F0200086F0200085C
:1000C0006F0200086F0200086F0200086F0200084C
:1000D0006F0200086F0200086F0200086F0200083C
:1000E0006F0200086F0200086F0200086F0200082C
:1000F0006F0200086F0200086F0200086F0200081C
:100100006F0200086F0200086F0200086F0200080B
:100110006F0200086F0200086F0200086F020008FB
:100120006F0200086F0200086F0200086F020008EB
:100130006F0200086F0200086F0200086F020008DB
:100140006F0200086F0200086F0200086F020008CB
:100150006F0200086F0200086F0200086F020008BB
:100160006F0200086F0200086F0200086F020008AB
:100170006F0200086F0200086F0200080000000014
:100180006F0200086F02000800F002F800F052F859
:1001900014A696E8000CB244B344DA4501D100F04D
:1001A00049F8BAE80F000FA696E83000A5EB040561
:1001B00004EB0607AAEB0704A7F101074FEA1515A0
:1001C0004FEA3414A4F10104AC4201D300F032F838
:1001D00013F0010F18BFFB1A43F0010300F001F800
:1001E000DBE718476CBB00008CBB0000103A24BF53
:1001F00078C878C1FAD8520724BF30C830C144BF8C
:1002000004680C6070470000704700000023002461
:1002100000250026103A28BF78C1FBD8520728BF16
:1002200030C148BF0B6070471FB508F0B6FA1FBD5C
:1002300010B510BD00F0E5F81146FFF7F5FF05F029
:10024000B3FB00F003F903B4FFF7F2FF03BC00F0C7
:1002500007F900000948804709480047FEE7FEE724
:10026000FEE7FEE7FEE7FEE7FEE7FEE7FEE7FEE766
:1002700004480549054A064B7047000055510008DF
:1002800089010008B84F0020B8770020B86F00201F
:10029000B86F002053EA020C00F069802DE9F04BA2
:1002A0004FF00006002B1FBFB3FA83F503FA05F4E5
:1002B00024FA05F65E4012BF1643B2FA82F502FA3E
:1002C00005F4C5F120051EBF22FA05FC44EA0C0422
:1002D000203556EA044C4FEA144418BF641C4FF012
:1002E00000084FF00009904271EB030C39D300294C
:1002F00019BFB1FA81F701FA07F6B0FA80F700FAF0
:1003000007F6C7F120071EBF20FA07FC46EA0C06D5
:100310002037B6FBF4FCA7EB0507103F07F01F0BD7
:10032000CBF120062CFA06F60CFA0BFB44BFB346C1
:100330000026202FA4BF5E464FF0000B5BEA060CA0
:1003400008BF4FF0010B19EB0B0948EB0608ABFB9C
:10035000027C06FB02CC0BFB03CCC01B71EB0C0137
:10036000C1E70B46024641464846BDE8F08B13B54F
:10037000084318BF4FF0FF300146AFF30080BDE8DF
:100380001C4070474FF0000200B513469446964655
:10039000203922BFA0E80C50A0E80C50B1F1200198
:1003A000BFF4F7AF090728BFA0E80C5048BF0CC046
:1003B0005DF804EB890028BF40F8042B08BF7047A4
:1003C00048BF20F8022B11F0804F18BF00F8012B16
:1003D000704770477047704710B500F00DF800681F
:1003E00010BD10B5044600F007F8046010BD000011
:1003F000004870473800002000487047380000204F
:1004000070477546FFF7F4FFAE4605006946534650
:1004100020F00700854618B020B5FFF729FFBDE89A
:1004200020404FF000064FF000074FF000084FF05B
:10043000000BAC46ACE8C009ACE8C009ACE8C009A8
:10044000ACE8C00921F007018D46704710B504469D
:10045000AFF300802046BDE81040FFF7F4BE000077
:1004600001491820ABBEFEE72600020040F600401E
:10047000C4F202008021012201F0CEB840F6004013
:10048000C4F202008021002201F0C6B870470000CB
:1004900040F60040C4F202001021012201F0BCB875
:1004A00040F60040C4F202001021002201F0B4B86E
:1004B00070470000002808BF704710B54EF21801C1
:1004C00049F2400CCEF20001C0F2020C51F804ECEB
:1004D0000B6800220C689C42FCD01A44121B9C4200
:1004E00028BF724462452346F4D301380204EDD19B
:1004F000BDE810407047000080B54EF21801CEF202
:100500000001A82251F804CC00FB02FE0868002379
:100510000A688242FCD003449B1A824228BF63448B
:100520007345104628BF80BDF2E7000010B5FFF705
:10053000ADFFFFF7BDFF05F001F9044605F08AF9AC
:10054000204310BD2DE9F04383B081460020904642
:100550000D46CDE90000FFF791FF922000F0BAF8B8
:10056000922000F0B7F86846461E0624374600BFC2
:10057000552000F0AFF8013C210607F8010FF7D134
:10058000FFF774FFBDF90000BDF9021000EE100A7C
:1005900040F20000C2F2000090ED001AB8EEC00A6E
:1005A000BDF9042021EE000A85ED000A00EE101AC4
:1005B00090ED001A02EE102AB8EEC00AB8EEC22A78
:1005C00021EE000A21EE021A85ED010A85ED021ADC
:1005D000FFF766FF802000F07DF80824374600BF53
:1005E000552000F077F8013C210607F8010FF7D1FC
:1005F000FFF74EFF9DF800000F2825D1BDF902003E
:10060000BDF9041000EE100A40F20400C2F200002E
:1006100090ED001AB8EEC00ABDF9062021EE000ADE
:1006200089ED000A00EE101A90ED001A02EE102A71
:10063000B8EEC00AB8EEC22A21EE000A21EE021A74
:1006400089ED010A89ED021AFFF718FFA22000F0D8
:1006500041F8A22000F03EF8022400BF552000F02F
:1006600039F8013C210606F8010FF7D1FFF7FEFE2D
:100670009DF800009DF80110C00040EA51114FF6AE
:1006800000020023CFF6FF72B3EB902F18BF114387
:1006900000EE101AB8EEC00AB4EE001A20EE010AFD
:1006A000B3EE071A30EE010A88ED000A40F274201A
:1006B00099E80E00C2F2000080E80E002968C160CF
:1006C00069680161A9684161D8F80010816103B0CF
:1006D000BDE8F08380B582B08DF8070040F6842035
:1006E0004FF47A7CC2F200000DF107010DF1060211
:1006F0000123CDF800C001F035FE9DF8060002B0E0
:1007000080BD0000FEE70000B0B52DED068B04466D
:10071000002000BF51F8203044F820300130042878
:10072000F8D140F6A51045F2097140F6E5139FEDAA
:10073000249A9FED24AAC0F60000C0F60001C0F67E
:100740000003B5EE008A0025C4E96920C4E96B31D5
:1007500004F15400032102220023B0EE480AF0EE17
:10076000490AB0EE4A1A84F8505004F009F904F12D
:10077000C400032102220023B0EE480AF0EE490A29
:10078000B0EE4A1A04F0FCF89FED0F0ADFED0F0AF5
:1007900004F59A70032102220023B0EE4A1A04F0F5
:1007A000EFF804F1510004F025FCC4E90455C4E954
:1007B0000655C4E90855C4E90A55BDEC068BB0BD21
:1007C0000AD7A33C00000000CDCC4C3D0AD7233C07
:1007D00070B5D0F8A4210D460446203002F1240162
:1007E00002F012FDD4F8A40100F1240100F10C0282
:1007F000284602F0AFFCD4F8A40100F10C01204619
:1008000000F066F894F85000C8BB04F15105D4F824
:10081000A461284604F0F2FB88BBD4F8A40196ED4D
:10082000030A90ED061A90ED0F2A30EE410AB0EE61
:10083000C00AB4EE420AF1EE10FA20DA96ED040A8C
:1008400090ED071A90ED102A30EE410AB0EEC00A82
:10085000B4EE420AF1EE10FA11DA96ED050A90EDC7
:10086000081A90ED112A30EE410AB0EEC00AB4EE3B
:10087000420AF1EE10FA02DA284604F0C1FBD4F87D
:10088000A82104F110012046BDE870401047000087
:1008900010B50446D0F8A401D1E900CE8968C0E9BA
:1008A00006CE0162D4F8A401D2E9001C9268C0E926
:1008B0000F1C42641BB1D4F8A40102F09DFC00207F
:1008C00084F850005134204604F09EFB204610BDB1
:1008D00070B52DED048B84B0044690F850000228CA
:1008E00016D0002859D104F151000D4604F086FBC2
:1008F000D8B1012084F850000020D4F8A42103903E
:10090000CDE9010004F1100101A802F0D9FC44E096
:10091000D4F8A42104F1100102F1300004B0BDECC0
:10092000048BBDE8704002F0CBBCD4F8A46195ED17
:10093000000AD6ED060A04F1540005F0B3F9D4F824
:10094000A401D6ED070A90ED0C1A04F1C40030EEB4
:10095000018A95ED010A05F0A5F9D4F8A401D6EDB8
:10096000080A90ED0D1A04F59A7030EE019A95ED93
:10097000020A05F097F9D4F8A43104F1100193EDBF
:100980000E1A01A830EE010A2A468DED018A8DED7E
:10099000029A8DED030A02F0F9FC04B0BDEC048B61
:1009A00070BD0000B0B50C460546002021582A58FD
:1009B000043010285162F9D1286894ED000A05F03E
:1009C000FBFC686894ED010A05F0F6FCA86894ED5C
:1009D000020A05F0F1FCE86894ED030ABDE8B040B6
:1009E00005F0EABC70B515460C460646002000BF6F
:1009F0002958325851622158043010289162F7D199
:100A0000306895ED000AD4ED000A05F045FC7068E9
:100A100095ED010AD4ED010A05F03EFCB06895EDB4
:100A2000020AD4ED020A05F037FCF06895ED030ADE
:100A3000D4ED030ABDE8704005F02EBCD0F8A42127
:100A4000002982ED0C0AC2ED0D0A82ED0E1A1EBFBE
:100A5000022180F85010704780B5D0F8A4214FF0E3
:100A6000010C02F13003864600F1100118468EF8A1
:100A700050C0BDE8804002F023BC000090ED002A89
:100A8000B0EE401A9FED150AB4EE412AF1EE10FACD
:100A900023DC90ED023AB4EE413AF1EE10FAB8BF21
:100AA000704731EE420A90ED072A90ED061A90ED5C
:100AB000083A22EE002A90ED094A32EE011A20EEA1
:100AC000032A22EE002A32EE011A20EE042A20EE3A
:100AD000022A22EE000A30EE010A704700000000F0
:100AE00070B52DED0C8BB0EE458AB0EE449AB0EEA9
:100AF00043AAB0EE42BAB0EE41CA044651EC100B24
:100B0000F0EE658AF0EE649AF0EE63AAF0EE62BA57
:100B1000F0EE61CA07F01AF90DEE100A206051ECF0
:100B20001C0B07F013F905460CEE100A606051EC3F
:100B30001B0B07F00BF90BEE100AA06051EC1A0B1F
:100B400007F004F90AEE100AE06051EC190B07F007
:100B5000FDF8064609EE100A206151EC180B07F06B
:100B6000F5F800EE100A3BEE4D1A3AEE4C2AB0EEC4
:100B7000083A30EE004A22EE032A21EE013A34EE22
:100B8000094A3CEE4A5A84EE014A35EE055A21EEF6
:100B9000031A39EE000A82EE032A85EE011A80EE6E
:100BA000030A04F1140161C132EE442A84ED082ADB
:100BB00030EE010A84ED090ABDEC0C8B70BD00001B
:100BC00090ED002AB0EE401A9FED130AB4EE412AD0
:100BD000F1EE10FA1FDC90ED023AB4EE413AF1EE7C
:100BE00010FAB8BF704731EE420A90ED082A90ED36
:100BF000071A32EE022A90ED093A22EE002A32EE6E
:100C0000011AB0EE082A23EE022A20EE022A22EE72
:100C1000000A30EE010A70470000000040F28C30FC
:100C2000C2F2000000F0A8BA40F2EC30C2F20000BC
:100C300000F0A2BA70470000042000F017BC0000CA
:100C4000082000F013BC000072B600BFFEE70000F1
:100C5000B0B581B00022009290F83C20012A02D168
:100C6000022001B0B0BDD1F800E00122BEF10A0FB0
:100C700080F83C200ED31FFA8EF25200036812FA5D
:100C80008EF21E3A4FF0070C53F80C5F0CFA02F488
:100C9000A54308E003680EEB4E02072553F8104FFA
:100CA000954024EA05051D608D6805FA02F21D686D
:100CB0002A431A604A68062A0ED802EB82014A1FAC
:100CC00001681F2351F8345F934025EA03030B604A
:100CD0001FFA8EF3934014E0016802EB82030C2AA2
:100CE0001FFA8EF203D851F8304F233B02E051F83F
:100CF0002C4F413B1F259D4024EA050502FA03F3D2
:100D00000D600A6842F2043C1A430A60C4F2010C06
:100D10000168BEF1120FACF5417308BF994205D1CD
:100D2000DCF8002042F48002CCF800202EF0010212
:100D3000102A08BF994205D0002180F83C100020FD
:100D400001B0B0BDDCF80010BEF1100F41F400019D
:100D5000CCF80010F0D140F20801C2F2000109689D
:100D60004DF68362C4F21B32A1FB0212910C01EB1F
:100D700081014900009100990029DDD000990139D5
:100D8000F8E70000002804BF0120704710B5016C8F
:100D900039B9044600F0A0F820460021616484F8C7
:100DA0003C10016CC9063AD4016C41F20212914325
:100DB000023142F204320164C4F20102116821F4EA
:100DC00040311160136890E812102343D0F810E00E
:100DD00013604A68012422F480724A604A68C0F6AF
:100DE000007442EA0E224A604A6822F040724A6069
:100DF0004A6842EA0C024A608A6822F400628A6009
:100E0000C2688B681A438A60826A8B68A24223F0A8
:100E100070638B608B6804D123F040520AE001219B
:100E200052E01A438A608A6822F040528A60C26A9D
:100E30008B681A438A608A6822F002028A608A6894
:100E4000037E90F8204042EA43028A604A6884B1F7
:100E500042F400624A604A684EF2000322F46042A3
:100E60004A60426ACFF6FF734C6803EB423222437A
:100E700001E022F400624A60CA6A40F2000C22F4E7
:100E80007002CA62C3694269CFF6F07CCC6A0CEB8F
:100E900003532343CB628B6823F400738B6090F879
:100EA00030308C6844EA43238B608B6823F4806382
:100EB0008B608B6843EA82228A6000214164026C65
:100EC000012363F301020264002280F83C20BDE8A4
:100ED000104008467047000080B586B0006842F2B6
:100EE0000012C4F2010200219042CDE90411CDE9C3
:100EF000021101911BD042F20001C4F201018842AB
:100F00003AD1002043F630010090C4F202014A6950
:100F100042F480724A614A6902F480720092009A37
:100F20000090086840F004000860086813E043F689
:100F300030000091C4F20200426942F40072426142
:100F4000426902F400720092009A0091016841F037
:100F500004010160006800F00400009000983F2048
:100F60000190032002900020039040F60000C4F29C
:100F7000020001A900F086FA06B080BD002804BF77
:100F800001207047B0B5044690F8200010B9204603
:100F900000F06EF82068016841F00101016000F086
:100FA00041FB054620684168C90705D100F03AFBBE
:100FB000401B0B28F6D310E0016821F0020101600C
:100FC00000F030FB054600BF2068416889070DD559
:100FD00000F028FB401B0B28F6D3606A052140F483
:100FE00000306062012084F82010B0BD217E0268CC
:100FF000012922F0800208BF80320260617E02680F
:10100000012922F0400208BF40320260A17E02683E
:10101000012922F0200208BF20320260E17E02682E
:10102000012922F0100218BF10320260217F0268ED
:10103000012922F0080208BF08320260617F0268BD
:10104000012922F0040208BF04320260D4E901C27F
:10105000D4E9033561691A432A431143ACF1010213
:101060001143C16100200121606284F82010B0BDED
:1010700080B586B0006846F60002C4F20002002186
:101080009042CDE90411CDE90211019132D046F22E
:101090000041C4F2000188426CD140F25421C2F2F6
:1010A00000010A6843F64000C4F20200531C0B60C2
:1010B00052B900210091016841F00071016001689E
:1010C00001F00071009100990021009150F8101C6E
:1010D00041F0080140F8101C50F8100C032100F0FA
:1010E00008000090009840F20040C4F2020000F5B1
:1010F000006033E043F64000C4F202000091016852
:1011000041F080610160016801F080610091009907
:1011100040F25421C2F200010A68531C0B6052B91C
:1011200000210091016841F000710160016801F047
:101130000071009100990021009150F8101C41F0BD
:10114000020140F8101C50F8100C602100F0020061
:101150000090009840F20040C4F202000191022188
:10116000029100210391032104910921059101A914
:1011700000F088F906B080BDF0B581B00021009183
:1011800040F20801C2F200010B68D0E9166148F292
:10119000B51537680822C1F64E358A403A42A3FB9E
:1011A00005350CD003681C68640708D51C6824F05A
:1011B00004041C60B260426D42F0010242650122EB
:1011C0008A403A4208D003685B691B0604D5B260C6
:1011D000426D42F00202426504228A403A4208D03F
:1011E00003681B689B0704D5B260426D42F004029D
:1011F000426510228A403A4216D001680B681B07EC
:1012000012D5B2600B680A685B0306D4D20506D417
:101210000A6822F008020A6001E011033FD4016C61
:1012200011B1044688472046C26D202101FA02F31D
:101230003B4241D001680F68FF063DD5B36090F88E
:1012400035700B68052F1AD123F016030B604B691C
:1012500023F080034B61036C0BB9836C1BB10B68EB
:1012600023F008030B603F219140B160012180F819
:101270003510016D002280F83420D9BB3EE00A68A9
:101280005B0310D4D20512D40A6822F010020A605F
:10129000012180F83510002180F8341007E0816CBE
:1012A0000029BED1C0E7110301D4416C00E0C16B3D
:1012B00011B1044688472046416DF9B1416DC90717
:1012C00016D0052180F835100168AA0A0B6823F0B2
:1012D00001030B60009B01339342009302D80B681B
:1012E000DB07F7D1012180F83510002180F8341098
:1012F000C16C19B101B0BDE8F040084701B0F0BDC4
:101300002DE9F041044600F08DF9C4B105460220F4
:1013100084F835000020216884F83400086820F043
:101320000100086020680168C9070BD000F07AF955
:10133000401B0528F6D90321202203207AE0012052
:10134000BDE8F081016848F23F02CFF21002D4E913
:10135000013501EA020ED4E9032143EA0E032B43CF
:10136000D4E9056C1A43D4E907781143314341EAC3
:101370000702616A42EA0802042942EA0C0303D127
:10138000D4E90B273A43134303604269042922F04E
:10139000070241EA02012DD1D4E90A5341EA0501CD
:1013A00043B3BCF5005F08D0BCF1000F12D1022D91
:1013B00016D0012D07D09DB119E0032D17D8DFE815
:1013C00005F00B0F0B02A3F1C072B2FA82F25209C0
:1013D0004AB90FE0032D02D2012222B90AE006D158
:1013E000C3F3006232B101214022012022E0002239
:1013F000002AF8D100F0F8024AF6AB23103ACAF6F8
:10140000AA23A2FB03374BF6145341613909C0F6F6
:101410000003595C40F2FF3398435F2A4FF03F02CC
:1014200088BF0430C4E9160102FA01F1816000228C
:1014300001210020626584F83510BDE8F0810000CC
:10144000B0B5044600F0EEF8054640F21800C2F2CE
:1014500000000078611C18BF044400BF00F0E2F8EF
:10146000401BA042FAD3B0BD7047000043F61441C0
:10147000C4F201010A68024214BF08607047FFF716
:10148000F3BF00002DE9F04F83B000F1200200F11E
:101490003E4741F60045009207F1FF77C4F202058E
:1014A00008224FEAB726A84208BF0722072E38BFF6
:1014B0004FEAB72200274FF0000A4FF000080192D0
:1014C0000AE000BF08F101080AF1020AB8F1100FA2
:1014D00007F1040700F09D800D68012202FA08FC64
:1014E00015EA0C09EED04D68032205F0030BABF1B1
:1014F0000106012E02FA0AFE10D88668CC6826EA98
:101500000E0604FA0AF4344384604468C5F30015F7
:1015100024EA0C0605FA08F52E434660BBF1030FDA
:101520001BD0C6688D6826EA0E0605FA0AF52E431A
:10153000BBF1020FC66010D16FF00302009D02EAFA
:10154000580655F806C007F01C040F220B69A2408C
:101550002CEA0202A3401A43AA5102684B6822EA0D
:101560000E0203F0030606FA0AF6324313F4403F74
:101570000260A7D0002243F644030292C4F20203A1
:101580001A6843F6004442F480421A601A68C4F2B2
:10159000010402F480420292029A28F003024FF6FC
:1015A000084C2244CFF6FF7C52F80C3007F00C06B2
:1015B0000F25B540AB43019D05FA06F6334342F8CB
:1015C0000C30A2684B6842EA090643F60C4CDD0277
:1015D00058BF22EA0906A660C4F2010CDCF800201C
:1015E0009D0242EA090658BF22EA0906CCF80060CB
:1015F00062689D0342EA090658BF22EA090666604E
:101600002268DB0342EA090658BF22EA090626607F
:1016100058E703B0BDE8F08F002A08BF09048161D4
:101620007047000044F64C30C2F20000006870477A
:10163000002804BF01207047F0B581B0044690F83F
:101640003D0028B9002084F83C00204600F0A8F8AE
:10165000242084F83D002068016821F00101016028
:10166000016841F400410160016821F4004101601A
:1016700000F06AFB636848F2A16CC0F2010C40F60E
:101680000011C0F23D0163453CBF48F28041C0F209
:101690001E01884202D2012001B0F0BD4DF68361E7
:1016A000C4F21B31A0FB01122168970CD1F804E0B1
:1016B0004FF496762EF03F0545EA92454D6077430C
:1016C00048F638160D6AC0F24106A7FB067625F0EB
:1016D0003F07634538BF960C721C3A430A62CA69D9
:1016E00048F2A0664CF6FF77C0F20106B34222EA48
:1016F000070C0AD801385A00B0FBF2F001306FF342
:101700001F30042898BF042020E0A2681927002A6F
:1017100008BF032701385F43B0FBF7F701373F05E8
:1017200009D052B119225A43B0FBF2F00422013021
:1017300062F31F3008E0012008E003EB4302B0FB36
:10174000F2F001306FF31F3040F4004040EA0C002B
:10175000C8610868D4E9072320F0C000104318438B
:101760000860886848F2FF3204F10C0790438CCF80
:1017700018431043A6698860C86820F0FF0038430A
:101780003043C860086840F0010008600020202154
:10179000206484F83D10206384F83E0001B0F0BD61
:1017A0002DE9F04786B0006845F60041C4F200011B
:1017B00000258842CDE90455CDE9025501955ED05A
:1017C00045F60001C4F2000188422FD045F20041E5
:1017D000C4F20001884240F09980002443F63005AD
:1017E0000094C4F20205286801A940F002002860B4
:1017F000286800F00200009000984FF4C07001903B
:101800001220CDE90204032004900420059040F248
:101810000040C4F20200FFF735FE0094286940F44E
:1018200000102861286900F400106DE0002443F6E0
:1018300030050094C4F20205286801A940F00200B6
:101840002860286800F00200009000984FF4406083
:1018500001901220CDE90204032004900420059099
:1018600040F20040C4F20200FFF70CFE0094286929
:1018700040F480002861286900F4800044E043F6C9
:1018800030060095C4F20206306840F2004740F08E
:10189000040030603068C4F2020700F004000090D9
:1018A00000980095306801AC40F00100306030686D
:1018B0004FF0120800F00100009000984FF4007003
:1018C00001904FF003094FF0040A07F580602146AC
:1018D000CDE90285CDF81090CDF814A0FFF7D2FD28
:1018E0004FF48070CDE9010803A880E82006A7F531
:1018F00080602146FFF7C6FD0095306940F4000086
:101900003061306900F400000090009806B0BDE836
:10191000F087000040F2180044F64C31C2F200009B
:10192000C2F2000100780A681044086070470000A5
:1019300080B543F60040C4F20200016841F4007132
:101940000160016841F480610160016841F48071C7
:101950000160032000F090F80F2000F005F800F07F
:101960002BF8002080BD0000B0B540F21802C2F292
:10197000000240F208011278C2F200014FF47A73BB
:101980000968B3FBF2F20446B1FBF2F1084600F03D
:1019900015FE0F2C4FF001050CD858B94FF0FF3051
:1019A00021460022002500F03BF840F21C00C2F264
:1019B000000004602846B0BD82B0002043F640011C
:1019C0000190C4F202014A6842F480424A604A68C7
:1019D00002F480420192019A00900868002240F0CF
:1019E0008050086008680F2100F080500090009837
:1019F0006FF0010002B000F013B80000002848BFEB
:101A0000704700F01F01012202FA01F11C2202EAD4
:101A1000D0004EF20012CEF200028150704700005A
:101A200010B54EF60C5CCEF2000CDCF80030C3F3BF
:101A3000022E8EF00704042C28BF0424BEF10303F9
:101A40004FF0FF3E0EFA04F438BF0023A143994043
:101A50000EFA03F39A43114300F1604200F00F03C2
:101A6000090102F56442043B6344002848BF03F1C6
:101A70000C02117010BD00004EF60C51CEF20001A8
:101A80000A684FF6FF031A4060F30A2242F08060B2
:101A900040F0FD7008607047002804BF01207047C7
:101AA000B0B582B00446056890F8950428B90020C6
:101AB00084F89404204600F05BF80320B5F1A04FB1
:101AC00084F8950404BF0020A071206803F0E0FDB5
:101AD00094E80F00257C009503F050FCB8BB20680B
:101AE000002103F0DDFD90BB207948B300EBC0007E
:101AF000800000214FF0010C00230022E518243360
:101B00002A75EA85984202F1010285F815C0297606
:101B1000C5E907116962F1D100210022002300BF4D
:101B2000A518243285F85432904203F1010385F858
:101B3000551285F85812C5E99711C5F86412EFD10E
:101B400094E80F00257C009503F0ACFC28B102203E
:101B500084F89504012002B0B0BD0020607401201B
:101B600084F89504206803F08DFC002002B0B0BD1D
:101B7000B0B586B000680024B0F1A04F0594CDE95F
:101B800003440294019401D006B0B0BD43F6300581
:101B90000094C4F20205286801A940F00100286001
:101BA000286800F00100009000984FF4C0500190A8
:101BB0000220CDE90204032004900A2005900020B1
:101BC000C4F20200FFF75EFC686840F080006860C5
:101BD0000094686940F480406861686900F480405E
:101BE0000090009806B0B0BD002804BF01207047E7
:101BF0002DE9F04143F60808C4F202080446D8F87B
:101C0000F8030D4600F00700884207D288F8F85321
:101C1000D8F8F80300F00700A84276D120688107C1
:101C200017D5410705D5D8F8001041F4E051C8F8A0
:101C30000010010705D5D8F8001041F46041C8F83C
:101C40000010D8F80010A26821F0F0011143C8F884
:101C50000010C0073FD1D8F8F80300F00700A842F1
:101C600007D988F8F853D8F8F80300F00700A8421D
:101C70004BD12068410707D5D8F80010E26821F45D
:101C8000E0511143C8F80010000708D5D8F800004B
:101C9000216920F4604040EAC100C8F8000000F06B
:101CA0007BF8D8F8001048F60812C1F30311C0F60B
:101CB0000002515C40F2080220FA01F140F21C00DF
:101CC000C2F200000068C2F200021160FFF74CFE91
:101CD0000020BDE8F0816068811E022907D258F813
:101CE000081C89015CBF0120BDE8F08110E00128DB
:101CF00007D158F8081C89035CBF0120BDE8F081BA
:101D000006E058F8081C890702D40120BDE8F081DC
:101D1000D8F8001021F003010843C8F80000FFF7CD
:101D200081FC064641F28837D8F80000616800F06F
:101D30000C00B0EB810F8ED0FFF774FC801BB84213
:101D4000F2D90320BDE8F08140F2080043F6080113
:101D5000C2F20000C4F202010068096848F61812D5
:101D6000C1F38221C0F60002515CC84070470000F8
:101D700040F2080043F60801C2F20000C4F202017A
:101D80000068096848F61812C1F34231C0F6000233
:101D9000515CC8407047000010B543F60404C4F21B
:101DA0000204606800F00C0008280AD0042819BF5B
:101DB00042F20040C0F2F40043F20060C0F26E1044
:101DC00010BD206821682368490243F20061C0F217
:101DD0006E1100F03F02C3F388105CBF42F2004175
:101DE000C0F2F401A1FB00010023FEF753FA2168C1
:101DF0000222C1F3014102EB4101B0FBF1F010BD41
:101E0000002804BF012070472DE9F04182B004464C
:101E1000007843F60006C007C4F2020649D0B06855
:101E200000F00C00042809D13068800341D56068B7
:101E300000283ED1012002B0BDE8F081B06800F07A
:101E40000C00082802D170684002EDD46568306843
:101E5000B5F5A02F05D0B5F5803F09D140F480300D
:101E60000CE040F480203060306840F4803005E0C1
:101E700020F480303060306820F480203060FFF73C
:101E8000D1FB002D054611D03068800311D4FFF737
:101E9000C9FB401B6428F7D928E100BFFFF7C2FB4C
:101EA000401B64284FF0030000F2E080306880039C
:101EB000F4D4207880071BD5B06810F00C0F09D03F
:101EC000B06800F00C00082840F08580706840027F
:101ED00000F181803068800703D5E068012840F078
:101EE0009A803068216920F0F80040EAC100306033
:101EF0002078000734D42078400746D4A5695DB324
:101F0000B06800F00C00082840F09C80012D00F023
:101F100082807068E16900F480028A427BD1216A84
:101F200000F03F028A4276D147F6C071626A0140F2
:101F3000B1EB821F6FD1A16A4FF6FF73C9039943BA
:101F400000F44032A1F580318A4264D1E16A00F0A8
:101F50007060B0EB016F5ED1002002B0BDE8F0818F
:101F6000606900285BD00020C4F247200121C0F83E
:101F7000801EFFF757FB0546706F8007BBD4FFF745
:101F800051FB401B0228F7D9B0E0306C5FEAC00873
:101F90000AD400200190306C40F080503064306CE6
:101FA00000F080500190019847F20007C4F200074A
:101FB0003868C00526D4386840F480703860FFF770
:101FC00031FB05463868C0051CD4FFF72BFB401BCE
:101FD0000228F7D98AE0E068002840F20000C4F245
:101FE000472053D001210160FFF71CFB054600BFCD
:101FF000306880073FF575AFFFF714FB401B0228E0
:10200000F6D973E0A568306F052D51D0012D56D15A
:1020100040F0010059E0012002B0BDE8F08100204D
:10202000C4F247200021C0F8801EFFF7FBFA0546E6
:10203000706F80077FF55FAFFFF7F4FA401B02284F
:10204000F6D953E00027C4F2472700203866FFF78F
:10205000E9FA022D05460DD1306880015DD5FFF704
:10206000E1FA401B02284FF00300F5D902B0BDE8A9
:10207000F08100BF306880017FF56EAFFFF7D2FAC4
:10208000401B02284FF00300F4D9EFE70021016064
:10209000FFF7C8FA054600BF306880077FF528AF14
:1020A000FFF7C0FA401B02284FF00300F4D9DDE728
:1020B00040F004003067306F40F0010005E020F090
:1020C00001003067306F20F004003067FFF7AAFA94
:1020D000002D054641F2883713D000BF306F8007CE
:1020E00012D4FFF79FFA401BB842F7D9032002B081
:1020F000BDE8F081FFF796FA401BB8424FF00300AD
:10210000B4D8306F8007F5D4B8F1000F3FF5F6AEC4
:10211000306C20F080503064F0E604F11C052FCDC7
:10212000084340EA8210D9034FF6FF729143A1F5AC
:10213000803140EA05600843706001203866FFF78F
:1021400071FA0446306880013FF506AFFFF76AFA7E
:10215000001B02284FF00300F4D987E770B528B1BF
:10216000416A29B100210161142106E0012070BDFE
:102170004168B1F5827F02D01C2100224250002626
:10218000866290F8511029B980F85060054600F039
:102190003DF82846022180F8511090E82E0002F404
:1021A00082720C6803F4044324F040040C601A4467
:1021B00005F4006305691A4405F0020345691A44F1
:1021C00005F001038569C4691A4405F400731A44D3
:1021D00004F03803046A1A4404F08003846A1A4342
:1021E00004F400531A430A60436A042202EA1542C7
:1021F00003F010031A444A60CA6922F40062CA61FB
:102200000121466580F85110304670BD2DE9F0413E
:1022100086B00446006843F60041C4F2000100267F
:102220008842CDE90466CDE90266019631D043F2D9
:102230000001C4F20101884240F09080002043F682
:1022400030010090C4F202014A6942F480524A61AE
:102250004A6902F480520092009A00900A6842F0A3
:1022600001020A60096801F0010100910099E02172
:1022700001910221CDE90210032004900520059070
:102280000020C4F2020001A9FFF7FCF806B0BDE887
:10229000F08143F630000096C4F20200016946F274
:1022A000100841F4004101610169C4F2020801F41F
:1022B0000041009100990096016841F0040101601D
:1022C000006801A900F00400009000984FF4E0506D
:1022D00001900220CDE9020603200490062005901B
:1022E0000020C4F2020000F50060FFF7CBF840F2D6
:1022F0008C35C2F200054FF400304FF48067C5E919
:1023000008062846C5E90086C5E90266C5E90476DF
:10231000C5E90666FEF7F4FF002818BFFEF794FC37
:10232000E564AC6340F2EC3508F17800C2F20005D8
:102330000021402285E807004FF48030C5E90801FC
:102340002846C5E90317C5E90511E961FEF7D8FF7D
:10235000002818BFFEF778FCA564AC6306B0BDE8A2
:10236000F08100002DE9F04383B01E4615460F466C
:102370000446FFF757F994F851108146012908D116
:10238000002F4FF0010018BF002D0ED103B0BDE8A3
:10239000F0836068B0F5827F0DD104294FF0020010
:1023A000F4D1A1680029EBD0F0E7002EEED094F82C
:1023B0005000012803D1022003B0BDE8F0830120C2
:1023C00084F8500094F85100002104281CBF052017
:1023D00084F851006165A563E687A6872763E686D2
:1023E0002068A686216461640168490603D40168F7
:1023F00041F0400101606168731EE268B1FA81F149
:10240000B3FA83F3DDF8288049095B09B2F5006F60
:1024100041EA030137D131B137F8021BC1602763AC
:10242000E08E0138E086012608F10105E08E10B942
:10243000E08F00286CD02068816889070CD5E18E78
:1024400051B1012E08D1216B002631F8022BC26058
:102450002163E18E0139E1868168C9070AD0E18FE5
:1024600041B1C068A16B012621F8020BA163E08F86
:102470000138E087FFF7D6F8002DD7D0A0EB090090
:102480004045D3D33AE039B139780173206B01303C
:102490002063E08E0138E086012608F1010500BFC7
:1024A000E08E08B9E08F98B32068816889070DD560
:1024B000E18E59B1012E09D1216B002609780173F3
:1024C000206B01302063E08E0138E086206881684F
:1024D000C9070BD0E18F49B1C068A16B0126087014
:1024E000A06B0130A063E08F0138E087FFF79AF816
:1024F000002DD5D0A0EB09004045D1D3012084F8B0
:102500005100002084F85000032003B0BDE8F083A0
:102510002046022101224346CDF8009002F0E4FC5F
:1025200060B1606D40F02000606520206065002093
:1025300084F85000012003B0BDE8F08340F20800A9
:10254000C2F20000006849F68171C1F25E61A0FB31
:102550000101480D4FF47A71484302906068B0F56C
:10256000827F0AD12046802100224346CDF8009088
:1025700002F0BAFC0028D4D108E0029830B10298E9
:1025800001380290206880680006F6D4A06838B947
:10259000002001902068C168019180680190019835
:1025A000012084F85100002084F85000606D00285C
:1025B00018BF012003B0BDE8F0830000411E0020D9
:1025C000B0EB116F1CBF012070474EF21002CEF22B
:1025D000000251604EF62351CEF20001F0230B7041
:1025E000072190601160704790F83C20012A4FF05D
:1025F000020255D010B5012380F83C3080F83D2010
:102600000268D2F804E0D2F808C00C682EF070031B
:10261000234341F2FF74C4F20004A24253600DDC74
:1026200040F2FF73C4F200039A4215DCB2F1804F0E
:1026300029D040F20043C4F2000322E040F2FF330D
:10264000C4F201039A4212DC41F60003C4F2000313
:102650009A4218D0002312E040F60003C4F20003AF
:102660009A4210D040F60043C4F2000309E044F25D
:102670000003C4F201039A4205D040F20043C4F2C1
:1026800001039A4204D149682CF0800319439160F8
:102690000121002280F83D1080F83C20BDE8104068
:1026A00010467047002804BF0120704710B504464B
:1026B00090F83D0028B9002084F83C00204600F046
:1026C0001FF8022084F83D002068211D02F04CFD17
:1026D000012084F8460084F83E0084F83F0084F826
:1026E000400084F8410084F8420084F8430084F8F4
:1026F000440084F8450084F83D00002010BD00002F
:1027000083B0006844F20001C4F2010188422DD078
:1027100040F60041C4F20001884216D040F2004168
:10272000C4F20001884230D10020029043F64000FC
:10273000C4F20200016841F002010160006800F08B
:1027400002000290029803B070470020019043F607
:102750004000C4F20200016841F008010160006815
:1027600000F008000190019803B07047002000902D
:1027700043F64000C4F20200416841F480314160F8
:10278000406800F480300090009803B0704700006B
:1027900090F83C20012A4FF002026ED080B5012350
:1027A00080F83C3080F83D20D0F800C04FF67772BA
:1027B000DCF8083023EA0202CCF808200B684F2B23
:1027C00028DC1F2B44DD202B45D0302B43D0402B61
:1027D00040F0AC80D1F804E0C968DCF82030DCF8C7
:1027E000202022F00102CCF82020DCF8182022F072
:1027F000F00242EA011123F00A0242EA0E02CCF88A
:102800001810CCF82020DCF8081041F0470121F026
:10281000300127E06F2B32DDB3F5005F73D0B3F5E5
:10282000805F21D0702B40F08180D1E901E3C9683D
:10283000DCF8082043EA0E0322F47F4243EA012138
:102840001143CCF80810DCF8081041F0770109E0DA
:102850000BB1102B6AD1DCF8081021F0700119437C
:1028600041F00701CCF808100022012180F83D104A
:10287000002180F83C10BDE8804010467047502B86
:1028800021D0602B52D1D1F804E0C968DCF82030A7
:10289000DCF8202022F01002CCF82020DCF81820F0
:1028A00022F4704242EA013123F0A00242EA0E1201
:1028B000CCF81810CCF82020DCF8081041F06701A3
:1028C00021F01001CEE7D1F804E0C968DCF820302F
:1028D000DCF8202022F00102CCF82020DCF81820BF
:1028E00022F0F00242EA011123F00A0242EA0E024B
:1028F000CCF81810CCF82020DCF8081041F0570173
:1029000021F02001AEE7D1E901E3C968DCF8082035
:1029100043EA0E0322F47F4243EA01211143CCF83B
:102920000810DCF8081041F480419BE701229CE785
:10293000002804BF012070472DE9F047044690F8B5
:102940003D000D4628B9002084F83C00204600F0E8
:1029500049F8022084F83D00206844F207028168AB
:1029600091438160211D02F0FFFB20684FF6FF7844
:1029700081688269D0F820C0D5E9003ED5E9026AB5
:1029800043EA0109AB6922EA080246EA03234FF64B
:10299000FC46B343D5E9076742EA0A0229691A43AC
:1029A00042EA062242EA01112CF0AA026B6942EACD
:1029B0000E0241EA073142EA0312C0F80890816131
:1029C0000262012084F8460084F83E0084F83F004B
:1029D00084F8420084F8430084F83D000020BDE8FC
:1029E000F0870000F0B587B0006840F60002C4F23E
:1029F000000200219042CDE90511CDE903110291B9
:102A00003ED0B0F1804F63D1002543F630000195F0
:102A1000C4F202000169002441F001010161016971
:102A2000C4F2020401F001010191019901950168CC
:102A3000022641F0010101600168012701F0010156
:102A4000019101990195016841F00201016000685E
:102A500002A900F00200019001984FF4004002909A
:102A60002046CDE9036505950697FEF70BFD082086
:102A7000CDE90206CDE90455069704F5806024E00F
:102A800043F630000191C4F20200026942F00402F0
:102A90000261026902F004020192019A0191026846
:102AA00042F008020260006800F0080001900198FE
:102AB0004FF4405002900220CDE90301CDE905100A
:102AC0000020C4F2020000F5406002A9FEF7DAFC23
:102AD00007B0F0BD80B586B0006844F20002C4F2D1
:102AE000010200219042CDE90411CDE902110191CA
:102AF00039D040F60041C4F2000188421DD040F2B6
:102B00000041C4F2000188424CD10020009043F6FD
:102B10003000C4F20200016841F002010160006867
:102B2000022100F002000090009813200190002084
:102B3000C4F2020000F580602BE00020009043F614
:102B40003000C4F20200016841F001010160006838
:102B5000022100F00100009000980C20019000205C
:102B6000C4F2020015E043F630000091C4F2020006
:102B7000016841F0100101600068032100F01000BD
:102B800000900098602001900020C4F2020000F53F
:102B90008050022202920022059101A9CDE9032270
:102BA000FEF770FC06B080BD90F83C30012B04BFEE
:102BB000022070474FEAB2020123032A80F83C301A
:102BC00000F2F8802DE9F043DFE802F002AF3D7D2E
:102BD000036840F200461C6A1A6A24F0020422F0DC
:102BE00001021A621A46D3F804C052F818EF8F682F
:102BF00043F48065C4F20106B54244EA070405D1F6
:102C0000CF6824F00C0427F004073C430F68B5425A
:102C100006D1D1E905582CF440762E4346EA080C3B
:102C20002EF073063743C3F804C09F614F680969EB
:102C30005F631C629F6947F008079F619F6927F0E7
:102C400004079F61B0E0036840F200481C6A1A6AFA
:102C500024F4007422F480721A621A46D3F804C075
:102C600052F81CEF8F6843F48065C4F201084545B3
:102C700044EA072408D1CF6840F2FF463F0224F41B
:102C8000406427EA06063443D1F80090454506D152
:102C9000D1E905562CF440572E4347EA061C2EF086
:102CA000730747EA0907C3F804C0DF614F68096981
:102CB000DF631C62DF6947F00807DF61DF6927F027
:102CC0000407DF6170E0036840F20045D3F820C0DC
:102CD0001A6A43F4806722F480521A621A465C68CA
:102CE00052F81C8FD1F800E08E68C4F20105AF42A3
:102CF00004D14D6924F4804444EA85142CF400572F
:102D000047EA063728F4E64646EA0E265C60DE61AE
:102D10004E6809691E641F62DF6947F40067DF615E
:102D2000DF6927F48067DF613DE0036840F2004817
:102D30001C6A1A6A24F0200422F010021A621A4651
:102D4000D3F804C052F818EF8F6843F48065C4F2DA
:102D50000108454544EA071407D1CF686FF04006E3
:102D600024F0C00406EA07163443D1F80090454524
:102D700006D1D1E905562CF440672E4347EA860C6C
:102D80002EF4E64747EA0927C3F804C09F614F685D
:102D900009699F631C629F6947F400679F619F698F
:102DA00027F480679F6109021368194300231160AB
:102DB000BDE8F043002180F83C1018467047000041
:102DC000002804BF0120704710B5044690F83D006C
:102DD00028B9002084F83C00204600F01FF80220AB
:102DE00084F83D002068211D02F0BEF9012084F81E
:102DF000460084F83E0084F83F0084F8400084F8E0
:102E0000410084F8420084F8430084F8440084F8C8
:102E1000450084F83D00002010BD00007047000010
:102E2000002804BF0120704710B5044690F8410007
:102E300028B9002084F84000204600F021F8242022
:102E400084F841002068C16821F40051C160204627
:102E500002F024FA2068016921F49041016141697E
:102E600021F02A014161C16841F40051C160002094
:102E70002021606484F8411084F84210606310BD22
:102E800080B586B0006844F6FF31C4F20001884284
:102E90004FF000010591CDE90311CDE901112EDDBF
:102EA00041F20041C4F20101884251D041F20001D7
:102EB000C4F2010188426DD044F60041C4F2000121
:102EC000884240F0B380002043F630010090C4F205
:102ED00002010A6942F400220A610A6902F400222E
:102EE0000092009A0090086840F0010008600868AD
:102EF000082100F0010000900098032066E044F2F1
:102F00000041C4F20001884265D044F60001C4F2D9
:102F10000001884240F08A80002043F63001009092
:102F2000C4F202010A6942F480220A610A6902F4C9
:102F300080220092009A0090086840F00800086023
:102F4000086800F00800009000984FF440705CE0C2
:102F5000002043F630010090C4F202014A6942F0B9
:102F600020024A614A6902F020020092009A009011
:102F7000086840F0040008600868082100F00400B8
:102F800000900098C02001900020C4F2020000F5DB
:102F9000006041E0002043F630010090C4F20201DD
:102FA0004A6942F010024A614A6902F01002009236
:102FB000009A0090086840F0010008600868072146
:102FC00000F00100009000984FF4C06001900020D4
:102FD000C4F2020020E0002043F630010090C4F269
:102FE00002010A6942F400320A610A6902F40032FD
:102FF0000092009A0090086840F008000860086895
:1030000000F0080000900098602001900020C4F2B9
:10301000020000F540600721022202920022039282
:103020000322CDE9042101A9FEF72CFA06B080BDE8
:103030002DE9F04381B0044690F84100202809D1E1
:10304000884600294FF0010018BF002A06D101B0C0
:10305000BDE8F083022001B0BDE8F0830020606489
:1030600021201D4684F841001646FEF7DBFAA684AF
:10307000E684A1680646B1F5805F02D12069002888
:103080004DD0C1464FF00008E08C40B36F1C0BE000
:10309000B9F1000F1AD019F8010B21684860E08CD3
:1030A0000138E084E08CD0B1206800680006EFD4DD
:1030B000002FF9D0FEF7B6FA01464FF0030045B3F2
:1030C000891BA94225D82068C068EDE738F8020BB3
:1030D00021686FF35F2048604FF00009DFE7206848
:1030E0000068400614D46F1C04E000BF206800682C
:1030F00040060DD4002FF9D0FEF794FA01464FF0A8
:10310000030035B1891BA94203D82068C068EDE7E8
:103110000020202184F8411001B0BDE8F0834FF079
:103120000009B1E7FEE7000040F2A02440F2642568
:1031300040F64076C2F20004C2F20005C2F2000678
:10314000204629463246FDF7FDF90A2003F0C6FA6B
:10315000F6E7000010B52DED068B00EE100A9FED8E
:10316000251AB8EE400A80EE010A91ED001A91EDA1
:10317000022A91ED013A144620EE019A92ED021ACC
:1031800020EE022A20EE03AA32EE010A82ED020AA4
:1031900004F02AF894ED021AB0EE408AB0EE410A2B
:1031A00003F016FF2AEE000A29EE081A94ED012A10
:1031B00031EE001A94ED020A32EE011A84ED011A82
:1031C00003F006FF94ED021AB0EE408AB0EE410A19
:1031D00004F00AF820EE0A0A29EE081A94ED002AF3
:1031E00031EE400A32EE000A84ED000ABDEC068B97
:1031F00010BD00BF00007A440021C0E90311416105
:10320000704700000000000070B52DED048B90EDBC
:10321000000A90ED011A90ED022A90ED033A30EE8B
:10322000014A31EE400A34EE024A30EE021A30EE24
:10323000420A34EE034AB5EE005A33EE411A30EE3C
:10324000030A92ED008A92ED019A24EE054A21EEDE
:10325000051A10EE100A0C4681ED004A81ED011AA4
:1032600005F02AFA38EE090A054610EE100A0E4655
:1032700005F022FA9FED080B53EC102B05F024F813
:1032800002460B462846314604F03AFE04F05EFD45
:10329000A060BDEC048B70BD000000000000104079
:1032A00001720021C0E9031141614CF6CD41C3F622
:1032B000CC5180EC020AC0E90F1141647047000054
:1032C000137A92ED000A92ED011A012B21D0002B06
:1032D00018BF704790ED002A90ED013A90ED024A38
:1032E00030EE010A33EE422A24EE001A31EE021AC1
:1032F00081ED001A90ED001A90ED012A90ED023A4E
:1033000032EE011A23EE002A021D31EE421A034664
:103310001DE090ED002A90ED013A90ED024A30EE6A
:10332000010A32EE032A24EE001A32EE411A81ED30
:10333000001A90ED001A90ED012A90ED023A31EE5C
:10334000421A23EE002A031D32EE011A024681EDD5
:10335000011A92ED001A93ED002A90ED023A31EE37
:10336000421A23EE002A31EE421A81ED021A92ED42
:10337000001A93ED002A90ED023A31EE021A23EE84
:10338000000A30EE010A81ED030A70472DE9F04F83
:1033900081B02DED068B82B08146D0E900069A46B9
:1033A0001546019105F088F90746A8688B4605F097
:1033B00083F941EC180BB0EE480AF0EE680A03F00E
:1033C000A3FDB0EE409A3046F0EE609A05F074F935
:1033D000B0EE480AF0EE680A06460D4603F0A0FE7D
:1033E00051EC100B32462B4604F06EFF0446884623
:1033F00053EC192B3846594604F066FF22464346E3
:1034000004F0D6FC04F0A2FCB0EE480AF0EE680A24
:103410000AEE100A03F084FEB0EE409AB0EE480ABD
:10342000F0EE609AF0EE680A03F06EFD51EC100BBE
:1034300032462B4604F048FF04460D4653EC192B48
:103440003846594604F040FF02460B4620462946BE
:1034500005F044F804F07AFC9AF8081099ED020A95
:103460009AED002A9AED013A012901EE100A1AD0CC
:10347000A1BB32EE032A31EE4A4A20EE023A3AEE7E
:10348000011A20EE420A019833EE045A30EE012A66
:1034900030EE040A80ED005A80ED012A80ED020A28
:1034A00033EE010A18E032EE032A3AEE014A20EE2A
:1034B000423A3AEE411A20EE020A019833EE045ADB
:1034C00030EE012A33EE011A30EE040A80ED005A84
:1034D00080ED012A80ED021A80ED030A02B0BDECF6
:1034E000068B01B0BDE8F08F2DE9F04140F20044B9
:1034F000C4F2020417460E46054620464FF480519A
:1035000000229846FEF788F82A2000F061FC204649
:103510004FF480510122FEF77FF8280A00F058FC92
:10352000E8B200F055FC380A00F052FCF8B200F0A6
:103530004FFC20464FF480510022FEF76DF82B20FF
:1035400000F046FC20464FF480510122FEF764F85B
:1035500006F11805A8B2000A00F03AFCE8B200F043
:1035600037FC08F11805A8B2000A00F031FCE8B2F7
:1035700000F02EFC20464FF480510022FEF74CF85C
:103580002C2000F025FC20464FF480510122BDE89C
:10359000F041FEF741B800002DE9F04381B00E463E
:1035A0008146501E591E9846154682B28BB2484637
:1035B0003146FFF799FF464512D2089C04E000BF50
:1035C0000136B0B240450BD2A945F9D24F4600BFF3
:1035D000204600F0F3FB0137B8B2A842F8D3EFE77A
:1035E00001B0BDE8F083000010B540F20044C4F221
:1035F000020420464FF480410022FEF70DF86420BB
:1036000003F06CF820464FF480410122FEF704F8E5
:10361000642003F063F804F540604FF480610122F8
:10362000FDF7FAFF642003F059F820464FF480516B
:103630000022FDF7F1FF112000F0CAFB20464FF4F5
:1036400080510122FDF7E8FF782003F047F820467B
:103650004FF480510022FDF7DFFFB12000F0B8FBEE
:1036600020464FF480510122FDF7D6FF052000F0DF
:10367000AFFB3C2000F0ACFB3C2000F0A9FB204657
:103680004FF480510022FDF7C7FFB22000F0A0FBED
:1036900020464FF480510122FDF7BEFF052000F0C7
:1036A00097FB3C2000F094FB3C2000F091FB20466F
:1036B0004FF480510022FDF7AFFFB32000F088FBEC
:1036C00020464FF480510122FDF7A6FF052000F0AF
:1036D0007FFB3C2000F07CFB3C2000F079FB0520C8
:1036E00000F076FB3C2000F073FB3C2000F070FB08
:1036F00020464FF480510022FDF78EFFB42000F0E9
:1037000067FB20464FF480510122FDF785FF03201F
:1037100000F05EFB20464FF480510022FDF77CFF55
:10372000C02000F055FB20464FF480510122FDF7E8
:1037300073FF0E2000F04CFB0E2000F049FB04202C
:1037400000F046FB20464FF480510022FDF764FF55
:10375000C12000F03DFB20464FF480510122FDF7CF
:103760005BFFC52000F034FB20464FF4805100225F
:10377000FDF752FFC22000F02BFB20464FF4805192
:103780000122FDF749FF0D2000F022FB002000F090
:103790001FFB20464FF480510022FDF73DFFC32060
:1037A00000F016FB20464FF480510122FDF734FF54
:1037B0008D2000F00DFB2A2000F00AFB20464FF47C
:1037C00080510022FDF728FFC42000F001FB2046B5
:1037D0004FF480510122FDF71FFF8D2000F0F8FA11
:1037E000EE2000F0F5FA20464FF480510022FDF75C
:1037F00013FFC52000F0ECFA20464FF4805101225F
:10380000FDF70AFF062000F0E3FA20464FF480514E
:103810000022FDF701FF362000F0DAFA20464FF4CF
:1038200080510122FDF7F8FE782000F0D1FA204601
:103830004FF480510022FDF7EFFE3A2000F0C8FA65
:1038400020464FF480510122FDF7E6FE552000F09E
:10385000BFFA20464FF480510022FDF7DDFEE02044
:1038600000F0B6FA20464FF480510122FDF7D4FE55
:103870000B2000F0ADFA172000F0AAFA0A2000F0A1
:10388000A7FA0D2000F0A4FA1A2000F0A1FA1920DE
:1038900000F09EFA162000F09BFA1D2000F098FA26
:1038A000212000F095FA262000F092FA372000F04F
:1038B0008FFA3C2000F08CFA002000F089FA0920F1
:1038C00000F086FA052000F083FA102000F080FA5C
:1038D00020464FF480510022FDF79EFEE12000F0CB
:1038E00077FA20464FF480510122FDF795FE0C2017
:1038F00000F06EFA192000F06BFA092000F068FA67
:103900000D2000F065FA1B2000F062FA192000F08B
:103910005FFA152000F05CFA1D2000F059FA212012
:1039200000F056FA262000F053FA392000F050FA41
:103930003E2000F04DFA002000F04AFA092000F085
:1039400047FA052000F044FA102000F041FA7820F0
:1039500002F0C4FE20464FF480510022FDF75CFEC9
:10396000292000F035FA20464FF480510122BDE8AD
:103970001040FDF751BE00002DE9F04F87B0DDF893
:10398000448083464FEA58074FEA18101C46914678
:1039900001237A0718BF03EB181000FB08F50BEBA7
:1039A000580001EB08020138531E82B29BB2584600
:1039B0000E460691FFF798FD002D00F08D80A8F1CE
:1039C0000C00C1B2800140EA9100C3B2052B00F2A5
:1039D00083800120984010F02B0F00F07D802A4654
:1039E000A9F120000121C0B2012D98BF0A4649F279
:1039F0008431059200EB4002C0F6000101EB021198
:103A0000029148F69451C0F6000101EB00110191BA
:103A10004AF25451C0F600014FF0000A01EB801049
:103A20005E464FF0000903920090049308E04FF0C7
:103A3000000900BF05980AF1010A049B82454BD09A
:103A4000032B0DD0012B09D063B9039848F6201140
:103A5000C0F6000101EB800005E000BF019802E024
:103A6000029800E00098504405784FF0000815E0F7
:103A700028422046109908BF084600F09FF909F136
:103A800001095FFA89F0B0FBF7F101FB170000288C
:103A9000CDD008F10108B8F1080FCBD0129800285A
:103AA0004FF0010000FA08F0E2D0284209D0069950
:103AB000B0B289B202460B46FFF716FD204600F071
:103AC0007DF90136B0B2A0EB0B00B842E1D1069807
:103AD0005E4601300690ADE707B0BDE8F08F00000C
:103AE000002A08BF70472DE9F04F89B09FED3A1AC0
:103AF0001646139A20EE010A129DBDEEC00A10EE82
:103B0000107A4FEA520A4FF000090597CDE90613E3
:103B1000089037E0DDF84CB00899CDF804B0DDF836
:103B200018B0079F10FB0A1080B2594604922E224B
:103B30003B46002400950294FFF71EFF089CDDF829
:103B40004CE0049A4FF0000C59463B4609F101093C
:103B5000013602EB8200A8EB40005FFA89F212FB0B
:103B60000A4740F03002B8B2D2B2CDE9005ECDF8DB
:103B700008C0FFF701FF09F101095FFA89F0F1B20E
:103B8000884224D26FEA09003044010608D001219E
:103B9000013801EB810102064FEA4101F8D100E052
:103BA0000121059BF0B2B3FBF1F849F69A115FFAD7
:103BB00089F20238C1F699119042A8FB0112A9D0EE
:103BC00006ACDDF84CE01ACC4FF0000CC1E709B0B0
:103BD000BDE8F04F704700BF0000C8422DE9F04F2C
:103BE00083B09B461378CBB1DDE90C9ADDF83880C1
:103BF0000D4606464FEA5A07541E00BFB0B2DAB26D
:103C000029465B46CDE9009ACDF80880FFF7B4FE5F
:103C1000A3783E44002B04F10104EFD103B0BDE8CA
:103C2000F08F000084B04FF6FF77FFF7DDFC002037
:103C30000021A022502300970025FFF7ADFC40F2A1
:103C4000A02A4BF61C5440F2642BC2F2000A102644
:103C5000C0F60004C2F2000B0FF250180FF2541914
:103C60009AED000A0020142104224FF47843CDE994
:103C70000076FFF735FF3020142122464FF47843B9
:103C8000CDE900760295FFF7A9FF9AED010A3A20E7
:103C9000142104224FF47843CDE90076FFF720FF8A
:103CA0006A20282122464FF47843CDE90076029518
:103CB000FFF794FF9AED020A7420142104224FF4B6
:103CC0007843CDE90076FFF70BFF9BED000A00205B
:103CD000282104224FF47843CDE90076FFF700FF56
:103CE0003020282122464FF47843CDE90076029512
:103CF000FFF774FF9BED010A3A20282104224FF4BC
:103D00007843CDE90076FFF7EBFE6A2028212246B2
:103D10004FF47843CDE900760295FFF75FFF9BED06
:103D2000020A7420282104224FF47843CDE900765A
:103D3000FFF7D6FE40F64070C2F2000090ED000A98
:103D40000A203C2104224FF47843CDE90076FFF7A6
:103D5000C7FE34203C2122464FF47843CDE900765B
:103D60000295FFF73BFF3E203C2142464FF478434B
:103D7000CDE900760295FFF731FF64203C21224611
:103D80004FF47843CDE900760295FFF727FF6A20CC
:103D90003C214A464FF47843CDE900760295FFF77F
:103DA0001DFF642002F09AFC5AE700BF6779726F2A
:103DB00000000000616363656C00000010B50446FC
:103DC000000A00F005F8E0B2BDE81040AFF3008053
:103DD000F0B581B040F20046C4F2020606F5006577
:103DE000044628464FF4806100220027FDF714FCAA
:103DF00030464FF400510022FDF70EFCE0B2C2093C
:103E000030464FF40041FDF707FC30464FF40051B7
:103E10000122FDF701FC6400072F07F10107E7D33A
:103E200028464FF48061012201B0BDE8F040FDF763
:103E3000F3BB0000B0B584B040F2AC2042F2000108
:103E400001230024C2F20000C4F20101C0F6007395
:103E50000125CDE90244CDE900444FF480320476D7
:103E600080F82040C0E90A34C56180F8304080E81D
:103E70001600C0E903444561FCF784FF002818BF21
:103E8000FCF7E2FE0A20CDE9000540F2AC20C2F2C8
:103E9000000069460294FCF7DBFE002818BFFCF71F
:103EA000D3FE04B0B0BD0000B0B584B040F2F42041
:103EB00042F2001101230024C2F20000C4F2010109
:103EC000C0F600730125CDE90244CDE900444FF46A
:103ED0008032047680F82040C0E90A34C56180F859
:103EE000304080E81600C0E903444561FCF74AFF12
:103EF000002818BFFCF7A8FE0A20CDE9000540F213
:103F0000F420C2F2000069460294FCF7A1FE0028EA
:103F100018BFFCF799FE04B0B0BD000080B540F2B8
:103F20003C3046F20041C2F20000C4F2000103221C
:103F3000002380E80E0000F10C014FF4102C4FF428
:103F4000001E81E8085083618383FDF717F800287D
:103F500008BF80BDBDE88040FCF776BE80B540F26A
:103F6000643046F60001C2F20000C4F200010322F0
:103F7000002380E80E0000F10C014FF4102C4FF4E8
:103F8000001E81E8085083618383FCF7F7FF002857
:103F900008BF80BDBDE88040FCF756BE80B582B04A
:103FA0000020019043F63000C4F2020001680022B4
:103FB00041F4001101600068052100F40010019037
:103FC00001980B20FDF72CFD0B20FDF717FD1020AD
:103FD00005210022FDF724FD102002B0BDE880403D
:103FE000FDF70CBD80B588B00B4802AF01900AA068
:103FF00000F1040E9EE80E50806987E80E5007908D
:1040000001A8002101F01EFE40F29021C2F2000141
:10401000086008B080BD00BF1EBD000871500008D8
:104020000000000000000000800000000000000010
:10403000000000002DE9F04F87B0002443F6300067
:104040000694CDE90444CDE902440194C4F202008F
:10405000016840F6004841F0100101600168C4F2B7
:10406000020801F010010191019901940168A8F57D
:10407000406A41F0800101600168002201F0800186
:104080000191019901940168102541F0040101603A
:10409000016801F00401019101990194016841F066
:1040A00001010160016801F0010101910199019490
:1040B000016841F002010160016801F00201019113
:1040C00001990194016841F0080101600068102124
:1040D00000F00800019001985046FDF79DFA08F5A0
:1040E000806948464FF4044100224FF4044BFDF729
:1040F00093FAA8F5006630464FF47041012201277B
:10410000FDF78AFA40464FF492610122FDF784FAE6
:1041100040464FF440410022FDF77EFACDE90257B8
:1041200002AD50462946CDE90444FDF7ABF94846B7
:104130002946CDE902B7CDE90444FDF7A3F94FF4D0
:104140008050CDE902074FF0020930462946049419
:10415000CDF81490FDF796F94FF46040CDE90207D1
:1041600030462946CDE90479FDF78CF94FF480609B
:10417000CDE9020740462946CDE90449FDF782F919
:104180004FF44040CDE9020740462946CDE90444BA
:10419000FDF778F90C2002904FF48810CDE9030761
:1041A00040462946FDF76EF99020CDE902074046CA
:1041B0002946CDE90479FDF765F90820052100229B
:1041C000FDF72EFC0820FDF719FC0920052100222F
:1041D000FDF726FC0920FDF711FC07B0BDE8F08FC4
:1041E00080B540F24C4045F20041C2F20000C4F2FA
:1041F000000148F2A06200234FF4804CC0F201029B
:1042000080E80E00C0E9033CC0E90533C0E907338C
:10421000FDF70EFA002808BF80BDBDE88040FCF71E
:1042200013BD000080B540F2A04045F60001C2F287
:104230000000C4F2000148F2A06200234FF4804C59
:10424000C0F2010280E80E00C0E9033CC0E905337A
:10425000C0E90733FDF7ECF9002808BF80BDBDE8D1
:104260008040FCF7F1BC000080B540F2F44045F618
:104270000041C2F20000C4F2000148F2A062002333
:104280004FF4804CC0F2010280E80E00C0E9033C0C
:10429000C0E90533C0E90733FDF7CAF9002808BFB4
:1042A00080BDBDE88040FCF7CFBC000080B540F683
:1042B0002C2043F20001C2F20000C4F201014FF4CD
:1042C000827200234FF4007C80E80E000A21C0E9CE
:1042D0000333C0E9053CC361C0E90833C0E90A31D2
:1042E000FDF73CFF002808BF80BDBDE88040FCF71B
:1042F000ABBC0000B0B540F6842043F60041C2F2EA
:104300000000C4F200014FF48272002380E80E0026
:1043100000F10C014FF0020C4FF0010E4FF400744D
:10432000302581E808500A21C0E90645C0E9083374
:10433000C0E90A31FDF712FF002808BFB0BDBDE893
:10434000B040FCF781BC0000B0B58CB003AC204697
:104350002421FCF717F840F6DC200025C2F200000B
:104360004FF08041C0E9001501214FF0FF32CDE947
:104370000315CDE90515CDE909152146CDE900550F
:10438000C0E9025205618561CDE907550B95FEF73D
:10439000CFFA002818BFFCF757FC40F6DC20C2F229
:1043A00000006946CDE90055FEF71EF9002818BF48
:1043B000FCF74AFC0CB0B0BD10B58EB040F624300E
:1043C00040F200420021C2F20000C4F200024FF6A7
:1043D000FF730D91CDE90B11CDE90911CDE907115D
:1043E000CDE90511CDE90311CDE90111C0E90021A5
:1043F000C0E9021301618161FEF754F9002818BF7A
:10440000FCF722FC4FF480500A9040F62430C2F2B0
:1044100000000AA9FEF7BCF9002818BFFCF714FC3D
:1044200040F62430C2F20000FEF7CAFC002818BF94
:10443000FCF70AFC40F624300024C2F2000008A970
:10444000CDE90844FEF7D0F8002818BFFCF7FCFBC4
:104450006020CDE9010440F62430C2F2000001A939
:10446000002203940594FEF79FFB002818BFFCF779
:10447000EBFB40F62430C2F2000001A90822FEF74F
:1044800093FB002818BFFCF7DFFB40F62430C2F294
:10449000000001A90C22FEF787FB002818BFFCF7DB
:1044A000D3FB40F62430C2F20000FEF713FB0EB03F
:1044B00010BD0000B0B58CB003AC20462421FBF742
:1044C00061FF40F66C3040F600010025C2F20000AA
:1044D000C4F20001C0E9001501214FF6FF72CDE9D9
:1044E0000315CDE90515CDE909152146CDE900559E
:1044F000C0E9025205618561CDE907550B95FEF7CC
:1045000017FA002818BFFCF79FFB40F66C30C2F288
:1045100000006946CDE90055FEF766F8002818BF8F
:10452000FCF792FB0CB0B0BD10B58EB040F6B430C5
:1045300040F600420021C2F20000C4F200024FF037
:10454000FF330D91CDE90B11CDE90911CDE907112B
:10455000CDE90511CDE90311CDE90111C0E9002133
:10456000C0E9021301618161FEF79CF8002818BFC1
:10457000FCF76AFB4FF480500A9040F6B430C2F268
:1045800000000AA9FEF704F9002818BFFCF75CFB3D
:1045900040F6B430C2F20000FEF712FC002818BF4B
:1045A000FCF752FB40F6B4300024C2F2000008A928
:1045B000CDE90844FEF718F8002818BFFCF744FBC3
:1045C0006020CDE9010440F6B430C2F2000001A938
:1045D000082203940594FEF7E7FA002818BFFCF7B9
:1045E00033FB40F6B430C2F2000001A90C22FEF702
:1045F000DBFA002818BFFCF727FB40F6B430C2F204
:104600000000FEF767FA0EB010BD000080B58CB058
:1046100040F6FC3044F200020021C2F20000C4F275
:1046200001024FF6FF730B91CDE90911CDE9071196
:10463000CDE90511CDE90311CDE90111C0E9002152
:10464000C0E9021301618161FEF72CF8002818BF50
:10465000FCF7FAFA4FF48050089040F6FC30C2F2B2
:10466000000008A9FEF794F8002818BFFCF7ECFA40
:1046700040F6FC30C2F20000FEF7A2FB002818BF93
:10468000FCF7E2FA602001900020CDE902000590DD
:1046900040F6FC30C2F2000001A90022FEF784FAC5
:1046A000002818BFFCF7D0FA40F6FC30C2F2000038
:1046B00001A90422FEF778FA002818BFFCF7C4FA13
:1046C00040F6FC30C2F20000FEF704FA0CB080BDE8
:1046D00080B540F61C5044F60041C2F20000C4F21E
:1046E000000100234FF00C0C4FF4E13280E80E0083
:1046F000C0E90333C0E905C3C361FEF791FB00289D
:1047000008BF80BDBDE88040FCF79EBA80B540F68A
:10471000444041F20001C2F20000C4F20101002352
:104720004FF00C0C4FF4E13280E80E00C0E9033387
:10473000C0E905C3C361FEF773FB002808BF80BD55
:10474000BDE88040FCF780BA80B540F68C4044F26A
:104750000041C2F20000C4F2000100234FF00C0C33
:104760004FF4E13280E80E00C0E90333C0E905C32D
:10477000C361FEF755FB002808BF80BDBDE880403F
:10478000FCF762BA80B540F6D44044F60001C2F2AC
:104790000000C4F2000100234FF00C0C4FF4E13292
:1047A00080E80E00C0E90333C0E905C3C361FEF72A
:1047B00037FB002808BF80BDBDE88040FCF744BA45
:1047C00080B540F6645041F20041C2F20000C4F2EC
:1047D000010100234FF00C0C4FF4E13280E80E0091
:1047E000C0E90333C0E905C3C361FEF719FB002824
:1047F00008BF80BDBDE88040FCF726BA80B540F216
:104800004850C2F200004FF0A04101600421017144
:104810004FF40071C1800221C0F809100021C1814C
:10482000FDF73AF9002808BF80BDBDE88040FCF7DD
:104830000BBA0000FEE7000070470000FEE7000032
:1048400002F0D2F940F250260446C2F2000600BF40
:1048500002F0CAF9A1B2401AB0F1FF3518BF0546FF
:1048600002F0C2F904463068ADB22946FBF7B0FF4A
:1048700030682946D0F8B02190470A2001F02EFF79
:10488000E6E7000002F0B0F940F69C650446C2F28B
:10489000000500BF02F0A8F9A1B2401AB0F1FF363E
:1048A00018BF064602F0A0F904462868B1B200F02D
:1048B00053FA322001F012FFECE7000082B00DF154
:1048C000070000F097FB40F69C66C2F2000640F23B
:1048D000942440F20C099FED298A3068C2F200044A
:1048E000C2F200092146B0EE480A4A4600234FF0C2
:1048F000000800F087F840F2702740F6A0654DF2FE
:104900000A7BC2F20007C2F200054FF03F4AC3F62D
:10491000234B0EE02868B0EE480A411C306829603D
:1049200021464A46002300F06DF800BFC82001F080
:10493000D5FE38680128F9D12868012812D000284E
:10494000F4D130689C3000F059FB0028EED04FF0D5
:104950007C50C4E90008C4F80880C9E900BBC9F864
:1049600008B0D7E730689C3000F048FB0028DDD065
:10497000C4E900AAC4F80880CCE700BF9A99993E20
:1049800080B545F6AD6C45F6BD6E00F15C07C0F62E
:10499000000CC0F6000E87E80E5080EC030A80BDC4
:1049A000EFF30980BFF36F8F154B1A681EF0100FDD
:1049B00008BF20ED108A20E9F04F10602DE90900B2
:1049C0004FF0500080F31188BFF34F8FBFF36F8F0C
:1049D00001F02EFF4FF0000080F31188BDE80900C0
:1049E00019680868B0E8F04F1EF0100F08BFB0EC6F
:1049F000108A80F30988BFF36F8F704700BF00BF34
:104A0000A40E002070B584B0044600201546CDE900
:104A10000100039001AA20460E4600F021F8D4F8C8
:104A2000980095E80E00D0F8A4013C300EC001209B
:104A300084F89D0096E80700E261C4E90501D4F816
:104A40009800D0F8A40100F10C030ECB04F19C00F7
:104A5000C4E90212236104B070BD00000000000030
:104A60002DE9F0472DED0C8B00F19C0804464046E3
:104A70001D469146B0EE408A0F4600F0C5FA97ED0C
:104A8000009A55B1D4F8980097ED01CAD0F8A40166
:104A900097ED02BAFEF7B0FB13E0D4F8980097ED5B
:104AA000023AD0F8A40190ED030A90ED041A90EDBB
:104AB000052A39EE409A97ED010A33EE42BA30EEFC
:104AC00041CAB5EE409AF1EE10FA0CD1B5EE40CAEB
:104AD000F1EE10FA07D1B5EE40BAF1EE10FA02D1BC
:104AE0009FED61DA33E02CEE0C0A29EE091A31EE63
:104AF000000A00F08DFA10EE100A03F0DDFD824688
:104B000018EE100A0F4603F0D7FD9FED530B53EC40
:104B1000102B03F0D9FB06460D4650463946324667
:104B20002B4603F0EDF907461BEE100A20F000407B
:104B30008A4603F0C1FD32462B4603F0E1F93A46BE
:104B4000534603F035F903F001F90DEE100A1DEE9E
:104B5000100A04F1200503F0AFFD41EC180B19EE2B
:104B6000100A03F0A9FD41EC1A0BD9F8000003F07C
:104B7000A3FD9FED3B9B41EC150BB0EE490AB0EE57
:104B8000491AB0EE482AB0EE4A3AB0EE494A2846F1
:104B9000F0EE690AF0EE691AF0EE682AF0EE6A3A71
:104BA000F0EE694AFBF79CFF1CEE100A04F1480581
:104BB00003F082FD41EC1A0BD9F8040003F07CFDF0
:104BC00041EC150BB0EE490AB0EE491AB0EE482A96
:104BD000B0EE4A3AB0EE494A2846F0EE690AF0EEE5
:104BE000691AF0EE682AF0EE6A3AF0EE694AFBF7CD
:104BF00077FF1BEE100A04F1700503F05DFD41EC38
:104C00001A0BD9F8080003F057FD41EC150BB0EE74
:104C1000490AB0EE491AB0EE482AB0EE4A3AB0EE70
:104C2000494A2846F0EE690AF0EE691AF0EE682A61
:104C3000F0EE6A3AF0EE694AFBF752FF002184ED8C
:104C400000DAA180404684F89D10BDEC0C8BBDE8D5
:104C5000F08700BF00BF00BF000000000000E03F81
:104C60000000000000000000000000000000000044
:104C7000B0B52DED028B9FED368B04460020B0EED3
:104C8000480AB0EE481AB0EE482AB0EE483AB0EE04
:104C9000484AB0EE485A2060A080C4E90500E061AF
:104CA00004F12000F0EE680AF0EE681AF0EE682ACF
:104CB000F0EE683AF0EE684AF0EE685A0D46FBF7FF
:104CC0000FFFB0EE480AB0EE481AB0EE482AB0EE38
:104CD000483AB0EE484AB0EE485A04F14800F0EEC7
:104CE000680AF0EE681AF0EE682AF0EE683AF0EE24
:104CF000684AF0EE685AFBF7F3FEB0EE480AB0EEF1
:104D0000481AB0EE482AB0EE483AB0EE484AB0EE43
:104D1000485A04F17000F0EE680AF0EE681AF0EEFE
:104D2000682AF0EE683AF0EE684AF0EE685AFBF74F
:104D3000D7FE04F19C00C4F8985000F05BF9012004
:104D400084F89D00BDEC028BB0BD00BF00BF00BF6A
:104D5000000000000000000070B52DED068B84B04F
:104D600004468088014488B2A18003F099FA9FED3F
:104D70005C0B53EC102B03F0C3F802F0E7FF04F1D7
:104D80009C050646284600F039F9002840F0A4802A
:104D900094F89D0008EE106A012832D0002840F0F7
:104DA0009B8004F12000B0EE480AFBF709FFB0EE4B
:104DB000409A04F14800B0EE480AFBF701FFB0EE5C
:104DC00040AA04F17000B0EE480AFBF7F9FED4F8EF
:104DD0009800B0EE401AB0EE490AF0EE4A0A0121FE
:104DE000FBF72CFE94ED000AB4EE480AF1EE10FA3F
:104DF00072DC284604B0BDEC068BBDE8704000F0C4
:104E0000FFB894ED000A04F12000B4EE480AF1EE78
:104E100010FAB8BFB0EE408AB0EE480AFBF72EFE9B
:104E200094ED021A04F1480030EE010A8DED010AFA
:104E3000B0EE480AFBF722FE94ED031A04F170006D
:104E400030EE010A8DED020AB0EE480AFBF716FEBD
:104E5000D4F8980094ED041AD0F8A41130EE010AA9
:104E600001F13C0201A900238DED030AFBF710FDBF
:104E7000D4F8980094ED050AD0F8A40190ED031A37
:104E800090ED0F2A30EE410AB0EEC00AB4EE420AAD
:104E9000F1EE10FA20DA94ED060A90ED041A90ED86
:104EA000102A30EE410AB0EEC00AB4EE420AF1EE2A
:104EB00010FA11DA94ED070A90ED051A90ED112A17
:104EC00030EE410AB0EEC00AB4EE420AF1EE10FA3A
:104ED00002DA284600F094F804B0BDEC068B70BDF1
:104EE0000000000000408F402DE9F04782B00A9C8E
:104EF000984615460E468146FCF794FB201A00EBB7
:104F00000804FCF78FFB40F20801C2F200010968B7
:104F1000C1F3CB3161430191D9F800108968314068
:104F2000891BB1FA81F14909A94203D1002002B0DD
:104F3000BDE8F087824608F1010709E0D9F80000D2
:104F400080683040801BB0FA80F04009A842EDD064
:104F5000002FF3D0FCF766FBA0EB0A00A04207D2BB
:104F600001980199002808BF0446481E0190E5E712
:104F7000D9E900014268B1F5827F22F0E002426087
:104F80000BD1D9F80810B1F5004F02D0B1F5806F00
:104F900003D1016821F040010160D9F82810B1F572
:104FA000005F07D1016821F400510160016841F4FC
:104FB00000510160012089F85100002089F850005B
:104FC000032002B0BDE8F0870000000000000000F0
:104FD000074B19680868B0E8F04F80F30988BFF301
:104FE0006F8F4FF0000080F31188704700BF00BF43
:104FF000A40E002000210170704700000078704767
:10500000012101707047000000210170704700000D
:10501000B5EE400AF1EE10FADCBF9FED140A7047BE
:1050200045F6DF1110EE100AC5F63771A1EB6000EE
:10503000BEEE002A01EE100A20EE020A20EE012A3E
:1050400022EE012AB7EE083A32EE032A22EE011AC6
:1050500020EE010A20EE010A30EE030A21EE000ADA
:10506000B7EE001A81EE000A704700BF0000000092
:10507000012000F0D9FDFBE7DDF800C001604263CC
:1050800080F8383080ED0F0A80F840C0704700008B
:1050900080B5FCF73FFC01F093FD012808BF80BDFF
:1050A000BDE8804001F0A0BC70B592B006AC2046CF
:1050B0003021FBF767F9002543F640000595CDE95F
:1050C0000355CDE901550095C4F20200016802269E
:1050D00041F080510160006800F08050009000981D
:1050E00047F200000095C4F20000016841F48041DD
:1050F0000160006800F48040009000980120069054
:105100004FF4803007904FF480000D900C200E90EB
:10511000A820CDE90F060720119020460C96FCF739
:105120006FFE10B172B600BFFEE70F20CDE9010699
:105130004FF4A05004904FF48050059001A8052131
:105140000395FCF751FD10B172B600BFFEE712B037
:1051500070BD00004EF68850CEF20000016841F4A8
:10516000700101607047000010B540F6FF3E036813
:10517000C4F2000E40F2004C7045C4F2010C0FDC8A
:10518000B0F1804F19D040F20042C4F200029042C8
:1051900013D040F60002C4F2000290420DD010E09D
:1051A00040F60042C4F20002904206D0604504D0AE
:1051B0000022C4F20102904203D14A6823F0700336
:1051C000134341F6FF72C4F2000290420FDC7045B7
:1051D00021DCB0F1804F41D040F20042C4F2000225
:1051E00090423BD040F60002C4F2000234E043F6A5
:1051F000FF72C4F2010290421EDC42F20002C4F2CD
:10520000000290422AD00022C4F20102904225D02E
:10521000604523D026E040F60042C4F200029042EE
:105220001CD041F60002C4F20002904216D041F6B2
:105230000042C4F200020FE044F20002C4F2010294
:1052400090420BD044F60002C4F20102904205D015
:1052500044F20042C4F20102904203D1CA6823F42E
:105260004073134323F080024B69D1F800E08C684F
:105270001A430260C46240F48062C0F828E06245CC
:1052800004BF09690163012141610169C90708BFC0
:1052900010BD016921F00101016110BDB0B50446E6
:1052A000006804F108030ECB0569194325F4405545
:1052B0002A4302616269E3691143C268194349F2F2
:1052C0000C639A431143C1604169A26921F44071A2
:1052D00041F20043114340F48062C4F201039A4258
:1052E000416102D1FCF744FD01E0FCF72DFDE169CD
:1052F0004FF69C7563681922C0F6FF75B1F5004F33
:10530000A0FB02011CD15A00DB0FFAF7C3FF48F2E1
:105310001F51C5F2EB11A0FB01235A0905F180537F
:1053200002FB0300322303EBC000A0FB01014FF49A
:10533000F87000EA111000EB0210C1F3421118E0FE
:105340009A009B0FFAF7A6FF48F21F51C5F2EB1126
:10535000A0FB01235A0902FB0500322303EB0010D6
:10536000A0FB0101F02000EA511000EB0210C1F394
:105370004311084421688860B0BD000082B002F487
:105380007F42B2F5807F38D1826B4FF6BF7322F433
:1053900080328263C268CFF6BD731A40C260029B3E
:1053A000C268DBB222F44012012BC26003D1C26892
:1053B00042F48012C2600022009200BF009A0132C3
:1053C0000092009AB2F1706F3DD80269B2F1FF3FCE
:1053D000F4DC00220092026942F00102026100BF87
:1053E000009A01320092009AB2F1706F2BD80269D4
:1053F000D207F5D14FF0000C33E0C26842F0400212
:10540000C2600022019200BF019A01320192019A0A
:10541000B2F1706F1AD80269B2F1FF3FF4DC0022DA
:105420000192026942F00102026100BF019A013259
:105430000192019AB2F1706F08D80269D207F5D1D2
:105440004FF0000C04E04FF0030C0AE04FF0030CA7
:10545000826B13F47F4F14BF22F4803242F4803207
:10546000826301F47F01B1F5803F07D1816841F08B
:1054700006018160816841F020018160604602B0D0
:10548000704700000146D0F8000E20F00300C1F87C
:10549000000ED1F8040840F002020020C1F80428F0
:1054A000704700002DE9F04F83B01B0C00F58077AA
:1054B0000F260025013E47F8045FFBD1DBB20093C5
:1054C0003BB1836B23F400138363836B43F40023AA
:1054D00010E0D0F8043843F00203C0F80438836BBE
:1054E00043F400138363836B23F400238363836B90
:1054F00023F4802302F47F4783630023B7F5807F82
:10550000C0F8003E07D1D0F80078B3EB116F07D197
:10551000C0F8007808E0D0F8003843F0030301E059
:1055200047F00103C0F8003800230193019B0133C9
:105530000193019BB3F1706F18D80369B3F1FF3F7A
:10554000F4DC002301934FF484630361019B4FF06B
:10555000000E01330193019BB3F1706F88BF4FF0D0
:10556000010E05D803699B06F0D401E04FF0010E4F
:1055700000230293029B01330293029BB3F1706FED
:1055800018D80369B3F1FF3FF4DC00230293102322
:10559000036100BF029B4FF0000A01330293029B9C
:1055A000B3F1706F88BF4FF0010A05D80469E406B3
:1055B000F0D401E04FF0010ACCB24FF00008C0F87F
:1055C0001088C0F81488C0F81C8894B300F51066E1
:1055D0004FEA441B4FF67F39002400BF33594FF088
:1055E0009045002C08BF4FF0006505EAE3733719BA
:1055F00033512034A345C7F81080C7F80890EDD187
:1056000000F530664FF000094FF67F34002700BFE9
:10561000F5594FF0904C002F08BF4FF0006C0CEA8A
:10562000E575F319F5512037BB45C3F810909C6020
:10563000EED1D0F8103811F47F0F23F48073C0F846
:1056400010386FF08043C0F81880436103D181693E
:1056500041F010018161816943F60003C8F23C0307
:10566000194312F47F0F816103D0816941F0080171
:1056700081610099012905D1816941F0804141F0A2
:10568000040181614EEA0A0003B0BDE8F08F00001A
:105690000146806820F0010200208A607047000007
:1056A000B0B50446C06820F0C040E06091B1012967
:1056B00026D1E068002540F00050E0600A20FBF7AA
:1056C000BFFE6069C00705F10A0014D1BE2D054672
:1056D000F4D310E0E068002540F08040E06000BFB7
:1056E0000A20FBF7ADFE6069C00705F10A0002D091
:1056F000BE2D0546F4D3C838B0FA80F04009B0BDDD
:105700000120B0BDFEE7000070B582B000F11C06BC
:1057100004250DF10604ADF8061000BF56F81C0C68
:105720002146FFF789F856F81C0C00F011F986EDB8
:10573000010A0436013DF1D102B070BD2DE9F041FE
:10574000FAF79CFE8020FAF7C5FF5520FAF7C2FF52
:105750005520FAF7BFFFFAF789FE9620FAF7CCFE3C
:10576000FAF78CFE8020FAF7B5FF5520FAF7B2FF62
:105770005520FAF7AFFFFAF779FE9620FAF7BCFE4C
:10578000FAF77CFE7E20FAF7A5FFB620FAF7A2FF13
:10579000FAF76CFE5020FAF78DFEFAF76FFE8020C4
:1057A000FAF798FF5520FAF795FF5520FAF792FF80
:1057B000FAF75CFE9620FAF79FFEFAF75FFE80206C
:1057C000FAF788FF5520FAF785FF5520FAF782FF90
:1057D0000446FAF74BFE9620FAF78EFE1E2C1CBFED
:1057E000FF20BDE8F0814BF62A580026C0F60008DD
:1057F000FAF744FE06EB460018F8005008EB0007E5
:105800007C782846FAF766FF2046FAF763FFFAF736
:105810002DFE9620FAF770FEFAF730FE45F0800074
:10582000FAF758FF5520FAF755FF5520FAF752FFBF
:105830000546FAF71BFE9620FAF75EFEA54205D153
:105840000136062ED4D10020BDE8F081B878BDE83D
:10585000F08100002DE9F041FAF722FE8020FAF7EE
:1058600039FF5520FAF736FFFAF712FE9620FAF7BD
:1058700043FEFAF715FE8020FAF72CFF5520FAF7C1
:1058800029FFFAF705FE9620FAF736FEFAF708FE2A
:105890001420FAF71FFFB620FAF71CFFFAF7F8FDFD
:1058A0005020FAF707FEFAF7FBFD8020FAF712FF07
:1058B0005520FAF70FFFFAF7EBFD9620FAF71CFEDA
:1058C000FAF7EEFD8020FAF705FF5520FAF702FF00
:1058D0000446FAF7DDFD9620FAF70EFE0F2C1CBFEA
:1058E000FF20BDE8F0814BF63C580026C0F60008CA
:1058F000FAF7D6FD06EB460018F8005008EB000753
:105900007C782846FAF7E6FE2046FAF7E3FEFAF737
:10591000BFFD9620FAF7F0FDFAF7C2FD45F08000D2
:10592000FAF7D8FE5520FAF7D5FE0546FAF7B0FD8E
:105930009620FAF7E1FDA54205D10136062ED7D112
:105940000020BDE8F081B878BDE8F08100000000DB
:1059500070B50446B0F93A0002F08BFC9FED0E0BD7
:1059600053EC102B02F0B0FC0546E06B0E4602F043
:10597000A3FE02460B462846314602F0A5FC9FEDE9
:10598000080B53EC102B02F0BBFA02F0DFF900EE2B
:10599000100A70BD00BF00BF1F85EB51B81E094043
:1059A0000000000000004E40FBF7C2FFFFF77CFB49
:1059B000FEF740FBFEF7F2FAFEF7B0FAFEF776FCD0
:1059C000FEF738FAFEF770FAFEF7C8FAFEF708FCA1
:1059D000FEF728FCFEF748FCFEF78CFCFEF7B4FC53
:1059E000FEF7EAFCFEF766FDFEF79EFDFEF70EFEF3
:1059F000FEF76EFEFEF78AFEFEF7A6FEFEF7C2FE7B
:105A0000FEF7DEFEFEF7FAFE40F60044C4F20204A2
:105A100020464FF480410022FBF7FEFD20464FF464
:105A200000410022FBF7F8FD00F006F8FEF7DAFA75
:105A300000F002F9FEE700002DE9F0472DED028BA2
:105A400082B000BFFAF772FD0028FBD140F22404B7
:105A5000C2F2000440F6D4459FED5E8A2068C2F28F
:105A60000005002601212A460023B0EE480A0096D0
:105A70004FF00108FFF700FB606802212A4601236E
:105A8000B0EE480A0096FFF7F7FAA06804212A460C
:105A90000023B0EE480A00964FF0040AFFF7ECFA34
:105AA000E06803212A460123B0EE480ACDF80080C1
:105AB0004FF00309FFF7E0FA40F2502640F29C0055
:105AC000C2F20006C2F2000040F69C6740F6FC51AC
:105AD000306040F6F45540F6AC50C2F20007C2F216
