:100000000C947A120C94AB120C94AB120C94AB12AD
:100010000C94AB120C94AB120C94AB120C94AB126C
:100020000C94AB120C9478500C9426510C94FE5006
:100030000C94AB120C94AB120C94AB120C94AB124C
:100040000C94AB120C94AB120C94AB120C94AB123C
:100050000C94AB120C94AB120C94AB120C94BA4DE2
:100060000C94AB120C942A4F0C94004F0C94AB12CE
:100070000C94AB120C94AB120C94AB120C94AB120C
:100080000C94AB120C94AB120C94AB120C94AB12FC
:100090000C94D64E0C94AC4E0C94AB120C94544F62
:1000A0000C94AB120C94AB120C94AB120C94AB12DC
:1000B0000C94AB120C94AB120C94AB120C94AB12CC
:1000C0000C94AB120C94AB120C94AB120C94824EA9
:1000D0000C94584E0C94AB120C942E4E0C94044E6F
:1000E0000C94AB120C94FE580C948F280C94DE44A4
:1000F0000C944F240C9452130C94A5240C94E524D6
:100100000C94EC570C944A130C9481290C94782489
:100110000C940B450C947E210C94A3580C949621BE
:100120000C9460570C94B2580C94C21F0C949B15FD
:100130000C94F9580C9408160C947B130C94F157FA
:100140000C94BD570C94DE270C94E8580C94401383
:100150000C94C3180C94173D0C94CD290C94C257E1
:100160000C9403590C94B1280C9477130C94D51962
:100170000C94E8150C94DC280C945F130C94ED5847
:100180000C94062A0C9417580C9467570C948A21E7
:100190000C947F580C941E2A0C94FB170C94971403
:1001A0000C94F01E0C94CC280C9477440C94225799
:1001B0000C9485130C9448190C943F570C94B6205A
:1001C0000C94D8280C940B580C9455130C944E1383
:1001D0000C9468250C9455580C9432280C94712476
:1001E0000C943A570C9451570C9470580C942B580B
:1001F0000C9419280C94AA450C9445150C94D428F9
:100200000C944A580C9476570C9481130C948E5885
:100210000C94AE570C944B280C941A290C94B95892
:100220000C941C580C94061C0C94AD580C94B857A4
:100230000C949D210C9480130C94A9570C94731367
:100240000C94F7290C945F580C94761B0C94B61CF4
:100250000C9417450C949F230C9410250C94B357C1
:100260000C9402450C9496140C94FF240C94D858CA
:100270000C94F9440C945B130C9464580C9457142C
:100280000C9456570C9410580C9414150C949C44D0
:100290000C9469130C94D4240C949F450C94EF583F
:1002A0000C94A8580C94E3580C94403D0C94965729
:1002B0000C947A580C945B570C946D210C94433D2C
:1002C0000C9413590C940D590C945E240C9475588D
:1002D0000C946D280C94D0280C946D130C943D163E
:1002E0000C94D2430C9465130C943F3D0C94371539
:1002F0000C94D9570C941B570C9495140C942315FB
:100300000C9404580C945A580C948F440C944E51ED
:100310000C941E290C94B7580C9469580C944857A7
:100320000C94F0440C94F2580C94C4570C942B5732
:100330000C94E7440C9499200C947B570C94085926
:100340000C9400280C94A1580C94DD290C944613AD
:100350000C94F6570C946E210C949E4C0C94BF1B7D
:100360000C942120207E010100000000000000000C
:100370000000005F5F0000000007070007070000A3
:10038000147F7F1C7F7F140000242A7F7F2A1200A5
:10039000466630180C666200307A4F5D377A480046
:1003A000000000070700000000001C3E6341000041
:1003B000000041633E1C0000082A3E1C1C3E2A0827
:1003C0000008083E3E080800000080E060000000D1
:1003D000000808080808080000000060600000002D
:1003E0006030180C060301003E7F5149457F3E00F6
:1003F0000040427F7F40400000727B49496F6600A9
:1004000000226149497F36001814527F7F50100046
:1004100000276F4949793300003E7F49497B32000C
:10042000000301717D0F070000367F49497F3600C8
:1004300000266F49497F3E000000006C6C00000000
:10044000000080EC6C00000000081C3663410000D6
:100450000024242424242400004163361C080000C6
:1004600000020351590F06003E7F415D5D5F1E0093
:10047000007C7E13137E7C00417F7F49497F3600DC
:100480001C3E634141632200417F7F41633E1C006B
:10049000417F7F495D416300417F7F491D0103002A
:1004A0003C7E434151737200007F7F08087F7F00CC
:1004B0000041417F7F414100307040417F3F01005A
:1004C000417F7F081C776300417F7F41406070005F
:1004D0007F7F0E1C0E7F7F007F7F060C187F7F00C2
:1004E0001C3E6341633E1C00417F7F4909070600B3
:1004F0003C7E4351336E5C00417F7F09193F6600AB
:1005000000266F49497B32000003417F7F41030091
:10051000003F7F40407F3F00001F3F60603F1F0063
:100520007F7F3018307F7F0061731E0C1E73610067
:1005300000074F78784F0700476371594D67730084
:1005400000007F7F414100000103060C183060006D
:10055000000041417F7F0000080C0603060C0800E4
:100560008080808080808080000002060C0800006F
:10057000207454543C784000433F7F44447C38000E
:1005800000387C44446C2800387C44453F7F400060
:1005900000387C54545C180000487E7F49030200F8
:1005A0000098BCA4A4FC7C00417F7F08047C7800F8
:1005B0000000447D7D4000000060E08084FC7D0000
:1005C000417F7F10386C44000000417F7F40000075
:1005D000787C0C380C7C7800047C780404787800F3
:1005E00000387C44447C380084FCF8A4243C180087
:1005F000183C24A4F8FC8400447C78440C080000D7
:1006000000485C545474200000043F7F4464200080
:10061000003C7C40407C7C00001C3C60603C1C003A
:100620003C7C6038607C3C00446C3810386C440082
:10063000009CBCA0A0FC7C00004C64745C4C44009A
:10064000004141773E0808000000007F7F00000065
:100650000008083E77414100020301030201010046
:10066000207E0204000000000000000000000000E6
:10067000000000000000000000000000000000007A
:10068000000000000000000000000000000000006A
:10069000000000000000000000000000000000005A
:1006A0000000000000000000000038FCFCF8000022
:1006B0000000000000000000000000FFFFFF00003D
:1006C00000000000000000000000C0E3E3C30000E1
:1006D0000000000000000000000000010100000018
:1006E0000000000000000000FCFCF8000000FCFC22
:1006F000F8000000000000000303030000000303F3
:1007000003000000000000000000000000000000E6
:1007100000000000000000000000000000000000D9
:10072000000000000000000000E0F030000000F0D9
:10073000F010000000060606E6FF3F060606F6FF7C
:100740001F060606000606C6FF3F060606E6FF3F32
:100750000606060000000001010000000001010083
:1007600000000000000080C0E07030FCFCFC306045
:10077000E04000000000070F1F3830FFFFFF60E07F
:10078000C08000000000307060C0C0FFFFFFE0705C
:100790007F3F06000000000000000003030300008C
:1007A00000000000C0E0F03030F0E0C0000000C009
:1007B000F070100003070F0C0C0F87E3783E0F0357
:1007C000000000000000C0F07C1E07017CFEFF83DB
:1007D00083FFFE7C00010100000000000000010119
:1007E00001010000000000C0E0E070303070E0C0A7
:1007F0000000000000000083CFDF78F0F09C1F0FA6
:1008000001008000003C7FFFC180808081C7EF7EB7
:1008100038FCEFC7000000000101010101000000E9
:100820000000010000000000000000FCFCF80000D7
:1008300000000000000000000000000303030000AF
:1008400000000000000000000000000000000000A8
:100850000000000000000000000000000000000098
:100860000000000000000000000000C0E070303810
:100870001C08000000000000F0FEFF07010000005F
:1008800000000000000000000F7FFFE0800000007B
:100890000000000000000000000001030F1E1C38D3
:1008A0007020000000001C383070E0C080000000A4
:1008B0000000000000000000000001031FFEF8809F
:1008C000000000000000000000000080F0FF3F0377
:1008D0000000000000007038381C0F070300000003
:1008E0000000000000000000000000808000000008
:1008F00000000000001818183030A0FFFFA03030B2
:10090000181818000000081C1E0703000003071E2B
:100910000C080000000000000000000000000000C3
:100920000000000000000000000000808080000047
:100930000000000000606060606060FFFFFF6060BA
:1009400060606000000000000000001F1F1F00002A
:100950000000000000000000000000000000000097
:100960000000000000000000000000000000000087
:100970000000000000000000000000000000000077
:10098000000000000000000000C0E0E0C0800000A7
:1009900000000000000000000030390F07010000D7
:1009A0000000000000000000000000000000000047
:1009B0000000000000006060606060606060606077
:1009C0006060600000000000000000000000000007
:1009D0000000000000000000000000000000000017
:1009E0000000000000000000000000000000000007
:1009F00000000000000000000000000000000000F7
:100A000000000000000000000000C0E0E0C00000A6
:100A100000000000000000000000000101000000D4
:100A20000000000000000000000000000000C0F016
:100A30007C18000000000000000080E0F83E0F037A
:100A400000000000000080E0F83E0F0300000000FE
:100A50000000000000000303000000000000000090
:100A600000000000000000C0E0E07030303060E0C6
:100A7000C000000000FCFFFF010080C060380C07D0
:100A8000FFFFF80000071F7FFEE7C38080C0C0F0B3
:100A90007F1F0700000000000000010101010000AD
:100AA00000000000000080C0C06060F0F0F00000B6
:100AB0000000000000000000000000FFFFFF000039
:100AC0000000000000000000000000FFFFFF000029
:100AD0000000000000000000000000010101000013
:100AE00000000000000080C0E0603030303070E076
:100AF000C080000000000000000000000080C0F086
:100B00007F1F0600000080E0F0BC9E87838181800B
:100B1000808080000000010101010101010101014B
:100B20000101010000000060607030303070E0E0D2
:100B3000C0000000000000000060606060F0F8DFAE
:100B40008F020000000040E0C080808080C0E1FF94
:100B50007F1E0000000000000001010101010000F3
:100B6000000000000000000000000000C0E0F0F005
:100B700000000000000080C070380E0701FFFFFF7A
:100B800000000000000607070606060606FFFFFF36
:100B90000606060000000000000000000001010140
:100BA00000000000000000F0F0F030303030303055
:100BB000303000000000007F7F3F18181818387888
:100BC000F0E0800000006060E0C080808080C0E0D5
:100BD000FF7F1F0000000000000101010101010072
:100BE0000000000000000000C0E060703030307095
:100BF000606000000000FCFFFF71301818183878A2
:100C0000F0E0800000000F3F7FE0C0808080C0E007
:100C1000FF7F1F0000000000000001010101010032
:100C20000000000000003030303030303030B0F0A4
:100C3000F03000000000000000000080F0FC3F07E2
:100C4000010000000000000080F0FC3F07000000F1
:100C50000000000000000000010101000000000091
:100C600000000000000080C0E07030303070E0E034
:100C7000C00000000000079FDF7870206070F89FC0
:100C80008F030000003E7FFFE0C080808080C0E1D5
:100C90007F3F080000000000000101010101010088
:100CA00000000000000000C0E0E07030303070E074
:100CB000C080000000001F7FFFC0C0808080C0C0D7
:100CC000FFFFFE00000000C0C0C0818181C1C0F0F4
:100CD0007F1F07000000000000010101010100006A
:100CE0000000000000000000000000000000000004
:100CF00000000000000000000000183C3C1800004C
:100D000000000000000000000000C0E0E0C00000A3
:100D100000000000000000000000000101000000D1
:100D200000000000000000000000000000000000C3
:100D3000000000000000000000183C3C180000000B
:100D4000000000000000000000C0E0E0C0800000E3
:100D500000000000000000000030390F0701000013
:100D60000000000000000000000000000000008003
:100D700080C0C00060F0F0B8981C0C0E060703039A
:100D80000101000000000001030307060E0C1838E3
:100D90003070600000000000000000000000000053
:100DA0000000000000000000000000000000000043
:100DB00000000000000C0C0C0C0C0C0C0C0C0C0CAF
:100DC0000C0C0C00000606060606060606060606BD
:100DD0000606060000000000000000000000000001
:100DE0000000000000C0C080800000000000000083
:100DF0000000000000000101030307060E0C1C9810
:100E0000B8F0F06000607038181C0C0E0607030183
:100E100001000000000000000000000000000000D1
:100E20000000000000207038181C0C0C0C1C18F876
:100E3000F0C0000000000000000080E0F0781C1FFF
:100E40000F030000000000000000C3E3E3C0000047
:100E50000000000000000000000000010100000090
:100E600000000000000080C0E06070303030706032
:100E7000E0C00000FCFFFF0300F0F8FC0E060606D1
:100E8000FFFFFF00031F3F78E0C1C387878686C34B
:100E9000C1870700000000000000010101010101FD
:100EA00000000000000000000000C0F8E0000000AA
:100EB0000000000000000080F07E0F01073FFCE012
:100EC0000000000080F0FE1F070606060606070F5A
:100ED0003FFCE08001010000000000000000000075
:100EE0000001010100F0F0F030303030303070E0BF
:100EF000E0C0000000FFFFFF606060606060F0F82D
:100F00009F8F030000FFFFFF808080808080C0C132
:100F1000FF7F3E000001010101010101010101000B
:100F20000000000000000080C0E0607030303070D1
:100F300060E0C08000FCFFFF030000000000000034
:100F40000000010100071F3F78E0C0C0808080C022
:100F5000C0E060200000000000000001010101016C
:100F60000000000000F0F0F0303030303070E0E091
:100F7000C000000000FFFFFF0000000000000001B3
:100F8000FFFFFC0000FFFFFF8080808080C0E070DA
:100F90003F1F0700000101010101010101010000E3
:100FA0000000000000F0F0F03030303030303030F1
:100FB0003030000000FFFFFF6060606060606060D4
:100FC0006000000000FFFFFF8080808080808080C4
:100FD0008080000000010101010101010101010106
:100FE000010100000000F0F0F030303030303030DF
:100FF000303030000000FFFFFF3030303030303014
:10100000300000000000FFFFFF00000000000000B3
:1010100000000000000001010100000000000000CD
:101020000000000000000080C0E060303030307010
:1010300060E0C08000FCFFFF010000000000808035
:101040008080818000071F3F78E0C0C08080818160
:10105000C1FFFF7F0000000000000001010101014D
:101060000100000000F0F0F00000000000000000AF
:10107000F0F0F00000FFFFFF6060606060606060A3
:10108000FFFFFF0000FFFFFF000000000000000066
:10109000FFFFFF0000010101000000000000000050
:1010A00001010100000030303030F0F0F03030301D
:1010B00030000000000000000000FFFFFF00000003
:1010C00000000000000080808080FFFFFF808080A3
:1010D0008000000000000101010101010101010186
:1010E00001000000000000000030303030F0F0F06F
:1010F00030303000000000000000000000FFFFFF63
:10110000000000000040E0C0808080C0E0FF7F0F52
:1011100000000000000000010101010100000000CA
:101120000000000000F0F0F0000000000080C0E0CF
:101130007030100000FFFFFF6070F8DE8F030100C9
:101140000000000000FFFFFF00000003070F3C78D5
:10115000F0C080000001010100000000000000005C
:10116000010101010000F0F0F000000000000000AB
:10117000000000000000FFFFFF0000000000000072
:10118000000000000000FFFFFF80808080808080E2
:1011900080808000000001010101010101010101C5
:1011A0000101010000F0F0E08000000000000000FC
:1011B000C0F0F0F000FFFFFF071E78E0C0F03C0F2A
:1011C00003FFFFFF00FFFFFF00000001030000001E
:1011D00000FFFFFF0001010100000000000000000F
:1011E0000001010100F0F0F0C080000000000000EC
:1011F000F0F0F00000FFFFFF030F3E78E0C00000BA
:10120000FFFFFF0000FFFFFF0000000001071F7C41
:10121000FFFFFF00000101010000000000000000CE
:10122000000101000000C0C0E0703030303070E0DC
:10123000C0800000FCFFFF01000000000000000073
:1012400003FFFFF0071F3F70E0C080808080C0E098
:10125000783F1F01000000000001010101010100B1
:101260000000000000F0F0F03030303030307060BE
:10127000E0C0000000FFFFFFC0C0C0C0C0C0E06011
:101280007F3F1F0000FFFFFF000000000000000084
:10129000000000000001010100000000000000004B
:1012A000000000000000C0C0E0703030303060E06E
:1012B000C0800000FCFFFF010000000000000000F3
:1012C00003FFFFF0073F7FF0C0808080808080E0D8
:1012D000F87F1F01000000000101071F3F39313175
:1012E0003030300000F0F0F030303030303070E02E
:1012F000E0C0000000FFFFFFC0C0C0C0C0C0E07081
:101300007F1F060000FFFFFF00000000030F1E7C90
:10131000F0C000000001010100000000000000001A
:1013200001010100000080C0E060703030303060AA
:10133000E0C000000000071F1F38307060E0C0C030
:1013400080800000004070E0C0C080808080C0C10C
:10135000E37F3F0C000000000001010101010100DA
:1013600000000000303030303030F0F0F0303030FD
:1013700030303000000000000000FFFFFF000000E0
:1013800000000000000000000000FFFFFF00000060
:10139000000000000000000000000101010000004A
:1013A0000000000000F0F0F000000000000000006D
:1013B000F0F0F00000FFFFFF000000000000000060
:1013C000FFFFFF00001F7FFFE0C080808080C0E043
:1013D000FF7F1F000000000000010101010101006A
:1013E0000000000010F0F0C000000000000000004D
:1013F00080F0F0100000073FFEF080000000E0FCED
:101400003F0700000000000000073FFCF87F0F01CD
:1014100000000000000000000000000101000000CA
:1014200000000000F0F0C00000000080C0000000DC
:101430000000F0F0003FFFF000C0F83F1FFFF08019
:1014400000FE7F0100000FFFFC1F010000000FFFE6
:10145000FF1F00000000000101000000000000006C
:1014600001000000001070F0C0000000000000C08B
:10147000F070100000000001070FBEF8F8FE0F0327
:10148000010000000000C0F07C1F070303071F7C61
:10149000F0E08000000101010000000000000000F9
:1014A000000101000030F0E08000000000000000BA
:1014B000E0F07000000000030F3EF8F0C0F07C1F69
:1014C0000701000000000000000000FFFFFF000017
:1014D0000000000000000000000000010101000009
:1014E000000000000000303030303030303030B09C
:1014F000F0F0300000000000000080E0F07C1E07EB
:10150000030000000080E0F0FC9E8F8380808080DC
:101510008080800000010101010101010101010140
:101520000101010000000000FCFCFC0C0C0C0C0C88
:101530000C0C000000000000FFFFFF000000000096
:101540000000000000000000FFFFFF00000000009E
:1015500000000000000000000F0F0F0C0C0C0C0C22
:101560000C0C0000000018FCF0C00000000000009F
:101570000000000000000000030F3FF8E0800000C2
:10158000000000000000000000000000030F3EF813
:10159000E0800000000000000000000000000000EB
:1015A0000303000000000C0C0C0C0C0C0C0CFCFCDD
:1015B000FC00000000000000000000000000FFFF31
:1015C000FF00000000000000000000000000FFFF1E
:1015D000FF00000000000C0C0C0C0C0C0C0C0F0F8E
:1015E0000F000000000000000000C0E0F0C080001C
:1015F00000000000000000181C0F030100030F3E54
:1016000018000000000000000000000000000000C2
:1016100000000000000000000000000000000000CA
:1016200000000000000000000000000000000000BA
:1016300000000000000000000000000000000000AA
:10164000000000000000000000000000000000009A
:10165000000000000C0C0C0C0C0C0C0C0C0C0C0CFA
:101660000C0C0C0000000000F0E080000000000006
:10167000000000000000000001070F3E780000009D
:10168000000000000000000000000000000000005A
:10169000000000000000000000000000000000004A
:1016A000000000000000000000000000000000003A
:1016B000000000000000000C0C8E868686868E8C52
:1016C000FCF8E000003CFEFFC383818181C1E17131
:1016D000FFFFFF0000000000010101010100000008
:1016E0000101010000FCFCFC000000000000000003
:1016F0000000000000FFFFFF080C0606060E0E1C8F
:10170000FCF0C00000FFFF7FC0C0808080C0C0E050
:101710007F3F0F00000101000000010101010100F5
:1017200000000000000000000000000000000000B9
:101730000000000000C0F0F81C0C0E060606060EA5
:101740001C3C0800000F3F7FF0C0C080808080C03C
:10175000C0E04000000000000000010101010101A3
:101760000000000000000000000000000000000079
:10177000FCFCFC0000E0F8FC1C0E060606060C183B
:10178000FFFFFF00000F3FFFE0C080808080C0703F
:10179000FFFFFF0000000000000101010101000047
:1017A0000101010000000000000000000000000036
:1017B0000000000000C0F0F89C8E868686868E8C25
:1017C000F8F00000000F3F7FE1C1C181818181C13C
:1017D000C141000000000000000001010101010002
:1017E000000000000000000080F0F8381C0C0C0C19
:1017F0001C183800000C0C0CFFFFFF0C0C0C0C0C20
:101800000000000000000000FFFFFF0000000000DB
:1018100000000000000000000101010000000000C5
:1018200000000000000000000000000000000000B8
:101830000000000000C0F8FC1C0E0606060E1CF896
:10184000FC4606060000737FFFCECCCCCCCEC7C7CB
:10185000C3808000001C3F3F7170606060606070FA
:10186000393F1F060000FCFCFC00000000000000E7
:10187000000000000000FFFFFF180C0C06060E1E03
:10188000FCF8C0000000FFFFFF00000000000000A7
:10189000FFFFFF0000000101010000000000000048
:1018A00001010100000000000000183C3C1800008D
:1018B0000000000000000006060606FEFEFE000016
:1018C0000000000000000080808080FFFFFF80801B
:1018D000800000000000000101010101010101017F
:1018E00001000000000000000000000000183C3C67
:1018F00018000000000000060606060606FEFEFEB2
:1019000000000000000000000000000000FFFFFFDA
:10191000000000000030387060606070303F1F07CA
:10192000000000000000FCFCFC00000000000000C3
:10193000000000000000FFFFFF80C0C0E070381C06
:101940000E0602000000FFFFFF030103070F3C78B3
:10195000F0E0800000000101010000000000000034
:101960000001010100000C0C0C0CFCFCFC00000050
:1019700000000000000000000000FFFFFF0000006A
:1019800000000000000080808080FFFFFF808080DA
:10199000808000000000010101010101010101013D
:1019A0000101000000000000000000000000000035
:1019B0000000000000FEFEFE0C0606FEFCF81C0601
:1019C000060EFEFC00FFFFFF000000FFFFFF00000F
:1019D0000000FFFF00010101000000010101000003
:1019E00000000101000000000000000000000000F5
:1019F000000000000000FEFEFE180C0C06060E1E85
:101A0000FCF8C0000000FFFFFF0000000000000025
:101A1000FFFFFF00000001010100000000000000C6
:101A200001010100000000000000000000000000B3
:101A30000000000000C0F0F81C0C0E0606060E1C8C
:101A40003CF8E000000F3F7FE0C0C0808080C0E035
:101A5000F07F1F03000000000000010101010100F0
:101A60000000000000000000000000000000000076
:101A70000000000000FEFEFE080C060606060E1C16
:101A8000FCF0C00000FFFFFFC0C0808080C0C0E04D
:101A90007F3F0F00007F7F7F0000010101010100F7
:101AA0000000000000000000000000000000000036
:101AB0000000000000C0F0F81C0E060606060C1C14
:101AC000FEFEFE00000F3F7FE0C0C0808080C0604F
:101AD000FFFFFF0000000000000101010101000004
:101AE0007F7F7F0000000000000000000000000079
:101AF00000000000000000FEFEFE381C0C0606067A
:101B0000060E1C00000000FFFFFF000000000000A8
:101B100000000000000000010101000000000000C2
:101B200000000000000000000000000000000000B5
:101B300000000000000078FCFC8E868606060E0C75
:101B40003C0800000040F0C0C18181838383C7FE50
:101B50007E380000000000000101010101010100C8
:101B600000000000000000000000E0E03000000085
:101B7000000000000000060606E6FFFF0606060657
:101B80000600000000000000001FFFFFC0808080F2
:101B9000C0C00000000000000000000001010101C1
:101BA0000100000000000000000000000000000034
:101BB0000000000000FEFEFE00000000000000FE2D
:101BC000FEFE0000003F7FFFC0C0808080C060FF3D
:101BD000FFFF000000000000010101010100000101
:101BE00001010000000000000000000000000000F3
:101BF0000000000000063EFEF0800000000000C073
:101C0000F83E060000000000071FFEF0E0FC1F0782
:101C100001000000000000000000000101000000C1
:101C200000000000000000000000000000000000B4
:101C30000000000006FEFE80000080F87CF08000BE
:101C40000080FE7E00001FFFF0F83F0300073FFC0E
:101C5000C0FF0F00000000010101000000000001B2
:101C60000101000000000000000000000000000072
:101C7000000000000002061E3C78E0C0C0E0781CB6
:101C80000E020000000080E0F03C1F070F1F3CF038
:101C9000E0800000000101010000000000000000E1
:101CA0000101010000000000000000000000000031
:101CB0000000000000061E7EF8C00000000000C00A
:101CC000FC3E0E0000000000030F7EF8C0F83F0F3E
:101CD00001000000207060606070381F0F0100007C
:101CE00000000000000000000000000000000000F4
:101CF000000000000000060606060686C6E6763EE0
:101D00001E0600000080C0F0F8BC8E8783818080B2
:101D10008080800000010101010101010101010138
:101D200001010100000000000080E0E07030303070
:101D3000303000000000000080FF7F1F0000000026
:101D4000000000000003030307FEFCE000000000A9
:101D50000000000000000000000F3F3F7060606066
:101D60006060000000000000000000FCFCFC0000BF
:101D70000000000000000000000000FFFFFF000066
:101D80000000000000000000000000FFFFFF000056
:101D900000000000000000000000003F3F3F000086
:101DA00000000000000000303030307070E0C000F3
:101DB000000000000000000000000000007FFFFEA7
:101DC00080000000000000000000000000F8FCFFA0
:101DD000070303030000006060606070783F1F0726
:101DE00000000000000000000000000000000000F3
:101DF0000000000000181C0C0606060C1C383030D1
:101E0000381C0C040000000000000000000000006E
:101E100000000000000000000000000000000000C2
:101E20000000000000000000003E5B4F5B3E3E6B88
:101E30004F6B3E1C3E7C3E1C183C7E3C181C577D64
:101E4000571C1C5E7F5E1C00183C1800FFE7C3E7B0
:101E5000FF0018241800FFE7DBE7FF30483A060EC2
:101E60002629792926407F050507407F05253F5A09
:101E70003CE73C5A7F3E1C1C08081C1C3E7F142279
:101E80007F22145F5F005F5F06097F017F00668924
:101E9000956A606060606094A2FFA29408047E046A
:101EA0000810207E201008082A1C08081C2A080890
:101EB0001E101010100C1E0C1E0C30383E38300650
:101EC0000E3E0E06000000000000005F000000074C
:101ED000000700147F147F14242A7F2A122313087A
:101EE000646236495620500008070300001C224156
:101EF000000041221C002A1C7F1C2A08083E0808FA
:101F000000807030000808080808000060600020A9
:101F1000100804023E5149453E00427F400072498C
:101F20004949462141494D331814127F1027454530
:101F300045393C4A49493141211109073649494946
:101F400036464949291E00001400000040340000B4
:101F5000000814224114141414140041221408021D
:101F6000015909063E415D594E7C1211127C7F4990
:101F70004949363E414141227F4141413E7F4949E5
:101F800049417F090909013E414151737F08080811
:101F90007F00417F41002040413F017F08142241E2
:101FA0007F404040407F021C027F7F0408107F3E3C
:101FB0004141413E7F090909063E4151215E7F09A9
:101FC000192946264949493203017F01033F404010
:101FD000403F1F2040201F3F4038403F63140814FB
:101FE0006303047804036159494D43007F41414133
:101FF0000204081020004141417F04020102044014
:1020000040404040000307080020545478407F2897
:102010004444383844444428384444287F3854548D
:10202000541800087E090218A4A49C787F080404B0
:102030007800447D40002040403D007F102844004F
:1020400000417F40007C047804787C0804047838E0
:1020500044444438FC1824241818242418FC7C0810
:10206000040408485454542404043F44243C40408D
:10207000207C1C2040201C3C4030403C4428102840
:10208000444C9090907C4464544C44000836410089
:102090000000770000004136080002010204023C03
:1020A0002623263C1EA1A161123A4040207A3854D2
:1020B000545559215555794122545478422155544B
:1020C000784020545579400C1E527212395555559E
:1020D00059395454545939555454580000457C4189
:1020E0000002457D420001457C407D1211127DF0C9
:1020F000282528F07C545545002054547C547C0AF3
:10210000097F4932494949323A4444443A324A48BB
:1021100048303A4141217A3A42402078009DA0A0BF
:102120007D3D4242423D3D4040403D3C24FF242411
:10213000487E4943662B2FFC2F2BFF0929F620C030
:10214000887E090320545479410000447D41304881
:10215000484A32384040227A007A0A0A727D0D19C4
:10216000317D2629292F28262929292630484D4026
:1021700020380808080808080808382F10C8ACBA22
:102180002F102834FA00007B000008142A142222A1
:10219000142A14085500550055AA55AA55AAFF55EA
:1021A000FF55FF000000FF00101010FF0014141472
:1021B000FF001010FF00FF1010F010F0141414FCBA
:1021C000001414F700FF0000FF00FF1414F404FCD7
:1021D000141417101F10101F101F1414141F0010B8
:1021E0001010F0000000001F101010101F10101031
:1021F00010F010000000FF10101010101010101040
:10220000FF10000000FF140000FF00FF00001F107F
:10221000170000FC04F414141710171414F404F439
:102220000000FF00F714141414141414F700F7142A
:102230001414171410101F101F141414F414101079
:10224000F010F000001F101F0000001F140000001D
:10225000FC140000F010F01010FF10FF141414FF15
:10226000141010101F00000000F010FFFFFFFFFF10
:10227000F0F0F0F0F0FFFFFF0000000000FFFF0FA4
:102280000F0F0F0F3844443844FC4A4A4A347E0248
:10229000020606027E027E026355494163384444C9
:1022A0003C04407E201E2006027E020299A5E7A57E
:1022B000991C2A492A1C4C7201724C304A4D4D30EF
:1022C0003048784830BC625A463D3E494949007E14
:1022D0000101017E2A2A2A2A2A44445F44444051AB
:1022E0004A444040444A51400000FF0103E080FF5F
:1022F000000008086B6B083612362436060F090FEB
:1023000006000018180000001010003040FF010106
:10231000001F01011E00191D1712003C3C3C3C002F
:1023200000000000000103070F1F3F7F0080C0E096
:10233000F0F8FCFE00C201000100110011000C00C9
:1023400000E100000A0025002500210000960000A1
:102350001900390039003600127A00001F004600CB
:10236000460044008070000022004D004D004A00ED
:10237000004B000036007500750072004038000008
:102380004A009C009C009900802500007200EC002F
:10239000EC00E900C0120000E900DA01DA01D7011F
:1023A00060090000D701B603B603B303B004000010
:1023B000B3036E076E076B07580200006E07DC0E52
:1023C000DC0ED80E2C010000DC0EC11DC11DBE1D8F
:1023D00000002100240027002A002D0030003300D7
:1023E00001010000040107010A0100000A0B0209B3
:1023F0000C0D0E080703040100000000000000009F
:1024000000000000000000000000000000000000CC
:102410000000000000001211100000000000000089
:1024200000000000000000000000000000000000AC
:10243000000020002300260029002C002F0032007D
:10244000000100000301060109010000220025002F
:1024500028002B002E00310034000201000005018D
:1024600008010B0105050505070508080808020213
:1024700002020A0A0808040404040101010101011E
:1024800001010303030303030303040707070C0C01
:102490000C0C0C0C0C0C02020202060606060606C8
:1024A00006060B0B0B0B0B0B0B0B0102102020086D
:1024B000081020401020408002010201080402019F
:1024C000010204081020408080402010080402010E
:1024D0008004020180402010080402010804020167
:1024E00001020408102040800102040810204080EE
:1024F0004E51135911241FBECFEFD1E2DEBFCDBF25
:1025000000E00CBF1FE0A0E0B2E0ECECFAEB00E072
:102510000BBF02C007900D92AC33B107D9F726E18B
:10252000ACE3BFE001C01D92A438B207E1F712E1AD
:10253000C9E7D2E100E006C021970109802FFE0122
:102540000E94C259C837D10780E00807A9F70E9446
:10255000A8530C94545D0C94000080E00895CF9231
:10256000DF92EF92FF92CF93DF93EC016A017B0140
:10257000E889F98982E08083C11481EED806E104FC
:10258000F104A1F060E079E08DE390E0A70196010D
:102590000E948159215031094109510956954795A9
:1025A00037952795211580E1380798F0E889F98952
:1025B000108260E874E88EE190E0A70196010E9425
:1025C000815921503109410951095695479537954F
:1025D0002795EC85FD853083EE85FF852083188E59
:1025E000EC89FD8986E08083EA89FB8980818061AE
:1025F0008083EA89FB89808188608083EA89FB89FE
:10260000808180688083EA89FB8980818F7D8083D7
:10261000DF91CF91FF90EF90DF90CF900895E09100
:10262000BC15F091BD1530E020E040E060E188EBA2
:1026300095E119949B01DC011896ED91FC9141E024
:1026400067E119948150823108F05AC0E82FF0E018
:102650008827E25DFC4E8F4F0C94C2594E135213E3
:10266000401346134A13801355135B135F1365130E
:1026700069136D137313771380137B138113851301
:10268000809180008F7780938000089580918000F2
:102690008F7DF9CF80918000877FF5CF84B58F77CC
:1026A00084BD089584B58F7DFBCF8091B0008F7776
:1026B0008093B00008958091B0008F7DF9CF809114
:1026C00090008F77809390000895809190008F7D87
:1026D000F9CF80919000877FF5CF8091A0008F7710
:1026E0008093A00008958091A0008F7DF9CF809104
:1026F000A000877FF5CF809120018F778093200104
:102700000895809120018F7DF9CF80912001877FEE
:10271000F5CF1F93CF93DF93282F30E0F901E651D7
:10272000FC4D8491F901E655FB4DD491F901EC592A
:10273000FB4DC491CC23A9F0162F81110E942213C6
:10274000EC2FF0E0EE0FFF1FE65BFB4DA591B4917F
:102750008FB7F894EC91111108C0D095DE23DC936B
:102760008FBFDF91CF911F910895DE2BF8CFCF93CC
:10277000DF9390E0FC01E655FB4D24918C599B4D75
:10278000FC0184918823C9F090E0880F991FFC0117
:10279000E053FC4DA591B491FC01E65BFB4DC59166
:1027A000D49161110DC09FB7F8948C91209582232C
:1027B0008C938881282328839FBFDF91CF91089530
:1027C000623051F49FB7F8943C91822F8095832317
:1027D0008C93E8812E2BEFCF8FB7F894EC912E2BB2
:1027E0002C938FBFEACF3FB7F8948091B4129091A9
:1027F000B512A091B612B091B71226B5A89B05C02C
:102800002F3F19F00196A11DB11D3FBFBA2FA92F6F
:10281000982F8827BC01CD01620F711D811D911D6C
:1028200042E0660F771F881F991F4A95D1F70895D8
:102830008F929F92AF92BF92CF92DF92EF92FF92D0
:102840006B017C010E94F3134B015C01C114D104A4
:10285000E104F104B9F00E94F313681979098A09B7
:102860009B09683E73408105910580F321E0C21AFF
:10287000D108E108F10888EE880E83E0981EA11CBB
:10288000B11CE4CFFF90EF90DF90CF90BF90AF905E
:102890009F908F9008952FB7F8946091B012709127
:1028A000B1128091B2129091B3122FBF0895260FEA
:1028B000371F481F591F621773078407950779F15F
:1028C000693371058105910511F148F4663371058D
:1028D0008105910591F0E091AC12E06811C06C3374
:1028E000710581059105B9F06F3371058105910579
:1028F00091F7E091AC12E46003C0E091AC12E160AA
:10290000E093AC126F5F7F4F8F4F9F4FD4CFE0911A
:10291000AC12E260F5CFE091AC12E860F1CF08951F
:10292000BC0190E080E00C94181408950895AF92D3
:10293000BF92CF92DF92EF92FF920F931F93CF93AC
:10294000DF936C017B018B01040F151FEB015E010E
:10295000AE18BF08C017D10759F06991D601ED91A3
:10296000FC910190F081E02DC6011995892B79F732
:10297000C501DF91CF911F910F91FF90EF90DF90F4
:10298000CF90BF90AF900895CF93DF93CDB7DEB7D0
:10299000CC5ED1090FB6F894DEBF0FBECDBFFE01ED
:1029A000359698EEDF011D929A95E9F796EF9A8396
:1029B0009BE69E836115710511F060E170E08983EB
:1029C0006B831C8246E050E0BE016F5F7F4F8AE759
:1029D00094E10E94971466E070E080E090E00E942D
:1029E0001814C451DF4F0FB6F894DEBF0FBECDBF31
:1029F000DF91CF910895FC01A089B1898C91A689BE
:102A0000B78982FD0FC09C91818D8F5F8F73228D5E
:102A1000821749F0A18DAE0FBF2FB11D5D969C931B
:102A2000818F08958C910895FC01538D448D252F3D
:102A300030E0842F90E0821B930B541710F0CF9658
:102A4000089501970895FC01918D828D981761F08A
:102A5000A28DAE0FBF2FB11D5D968C91928D9F5FA1
:102A60009F73928F90E008958FEF9FEF0895FC0180
:102A7000918D828D981731F0828DE80FF11D858D33
:102A800090E008958FEF9FEF0895FC01918D228DC6
:102A9000892F90E0805C9F4F821B91098F7399274B
:102AA000089580E493E10E94451521E0892B09F403
:102AB00020E0822F08958DED93E10E94451521E0DD
:102AC000892B09F420E0822F08958AE794E10E947F
:102AD000451521E0892B09F420E0822F089587E134
:102AE00095E10E94451521E0892B09F420E0822F11
:102AF0000895FC01A48DA80FB92FB11DA35ABF4F93
:102B00002C91848D90E001968F739927848FA689EC
:102B1000B7892C93A089B1898C91837080648C9340
:102B2000938D848D981306C00288F389E02D8081EF
:102B30008F7D80830895EF92FF920F931F93CF9321
:102B4000DF93EC0181E0888F9B8D8C8D98131AC0E8
:102B5000E889F989808185FF15C09FB7F894EE89CF
:102B6000FF896083E889F98980818370806480832C
:102B70009FBF81E090E0DF91CF911F910F91FF9077
:102B8000EF900895F62E0B8D10E00F5F1F4F0F731F
:102B90001127E02E8C8D8E110CC00FB607FCFACFDA
:102BA000E889F989808185FFF5CFCE010E947915EA
:102BB000F1CFEB8DEC0FFD2FF11DE35AFF4FF082AB
:102BC0009FB7F8940B8FEA89FB8980818062CFCF11
:102BD000CF93DF93EC01888D8823B9F0AA89BB8954
:102BE000E889F9898C9185FD03C0808186FD0DC03F
:102BF0000FB607FCF7CF8C9185FFF2CF808185FF60
:102C0000EDCFCE010E947915E9CFDF91CF910895E4
:102C1000BC0180E493E10E94971480E493E10C945A
:102C2000E81580E090E0892B29F00E946F15811152
:102C30000E94000080E090E0892B29F00E94651539
:102C400081110E94000080E090E0892B29F00E9411
:102C50005B1581110E94000080E090E0892B29F033
:102C60000E94511581110C9400000895DC011A9600
:102C7000ED91FC9130E020E019941F93CF93DF9306
:102C8000EC01A881B981683109F49BC038F4643142
:102C900009F489C0673149F080E00EC0693109F458
:102CA000D4C06032C9F76AE488C01C968C9180FD5C
:102CB0003FC0411105C081E0DF91CF911F91089580
:102CC000F90181919F014150DFB7F894A0917010F4
:102CD000B0917110C0916F10E0916D10F0916E1075
:102CE00070916C1060916B1081110EC08C918C23CF
:102CF0008C9388E09081972B90839081962390838A
:102D00008150C1F7DFBFD5CF10916A1098E05C9178
:102D100087FF0CC0512B5C935081572B5083880F39
:102D2000508156235083915091F7ECCF5C23F3CF21
:102D3000442309F4C0CFF90181919F014150DFB7CD
:102D4000F894A0917010B0917110C0916F10E09143
:102D50006D10F0916E1060916C1070916B1081117C
:102D60000EC08C918C238C9388E090819723908364
:102D70009081962B90838150C1F7DFBFD9CF1091FE
:102D80006A1098E05C9187FF0CC0512B5C935081D6
:102D900057235083880F5081562B5083915091F7C1
:102DA000ECCF5C23F3CF11964C9169E40E94361668
:102DB000E881F9814485417060E4CE010E943616B5
:102DC0007ACF4C9169E40E943616A881B981EA85D0
:102DD000FB8530E020E012964C916CE2CE01199513
:102DE0008E8D90E0FC01EC59FB4DE491F0E0EE0F8C
:102DF000FF1FE65BFB4D2591349130936E102093BD
:102E00006D10FC01E655FB4DE491E0936C10E095EC
:102E1000E0936B108F8D90E0FC01EC59FB4DE49139
:102E2000F0E0EE0FFF1FE65BFB4D259134913093F0
:102E3000711020937010FC01E655FB4DE491E09376
:102E40006A10E095E0936F1036CFEA85FB8530E09D
:102E500020E013964C916CE21995E881F98141814B
:102E600069E4ABCFCF92DF92FF920F931F93CF9382
:102E7000DF9300D01F921F92CDB7DEB78C011C826A
:102E800081E08B837A836983D801ED91FC91F1888D
:102E90001D82F801A081B181C480D5809E012F5F81
:102EA0003F4F50964C916FE0C801F60119958D8106
:102EB0008F5F8D838F1568F30F900F900F900F9099
:102EC0000F90DF91CF911F910F91FF90DF90CF90E6
:102ED0000895CF93DF9300D000D01F921F92CDB7FB
:102EE000DEB7BE016F5F7F4F28E0FB0111922A958C
:102EF000E9F70E94321728960FB6F894DEBF0FBE8E
:102F0000CDBFDF91CF910895DC011696ED91FC9134
:102F100030E020E040E069E11994DC011696ED9183
:102F2000FC9130E020E040E068E119949A01DC0176
:102F30001696ED91FC91462F67E11994EF92FF925E
:102F40000F931F93CF93DF931F92CDB7DEB77C0112
:102F50008B01D8016C91673129F150F46531A0F4EF
:102F60000F90DF91CF911F910F91FF90EF900895F7
:102F70006A3118F16E3FA1F7F8014181498369E296
:102F8000C7010E9436160BC0F80141814983D70161
:102F90001696ED91FC9130E020E0C70119950E5F87
:102FA0001F4FD7CFF80181818983AE014F5F5F4FFB
:102FB00061E0C7010E949617F2CF0F5F1F4FD70144
:102FC0001696ED91FC9130E020E040E0C7011995A4
:102FD000C0CF462FDC011696ED91FC9130E020E049
:102FE00066E11994462FDC011696ED91FC9130E0D4
:102FF00020E065E11994EF92FF920F931F93CF9316
:10300000DF93EC01042F79016E3009F450C06F306A
:1030100091F06B3009F441C06A3009F466C06D303C
:1030200009F450C080E0693089F583E298E0998323
:1030300088831C8A2AC00E948D17F7011381110F03
:10304000110F110F6C89160F612F62956F706061FF
:10305000CE010E94F217612F6F70CE010E94F2170D
:10306000F7016481606BCE010E94F217F701408185
:1030700051816281660F660F660FCE010E9496171E
:103080000150A1F7CE010E94841781E0DF91CF911A
:103090001F910F91FF90EF90089567E178E044232E
:1030A00011F062E178E0CE010E949E17EECF0E94FF
:1030B0008D1761E8CE010E94F217602FCE010E94A9
:1030C000E917E0CF411109C06CE178E00E949E173A
:1030D000E881F98182898C8BD8CF64E678E00E9400
:1030E0009E17E881F9818389F6CFEA85FB8530E078
:1030F00020E040E068E21995EE81FF8130E020E0B9
:1031000040E064E1CE01199541E06BE4CE010E94FC
:103110003616E881F981448169E2CE010E943616B3
:1031200040E06BE4CE010E943616E881F9814481CB
:1031300069E2CE010E94361641E06BE4CE010E94A6
:103140003616E881F981458169E2CE010E94361682
:103150006BE378E0A8CFCF93DF931F92CDB7DEB7B4
:103160006983BE016F5F7F4F0E941A130F90DF913A
:10317000CF910895462FDC011896ED91FC9130E037
:1031800020E060E21994EF92FF920F931F93CF9388
:10319000DF938C01C62FD42F7901673130F465316C
:1031A000B8F4643131F080E01BC0673101F16A315D
:1031B000D0F7D8011896ED91FC9197014D2F6C2F07
:1031C000C801DF91CF911F910F91FF90EF9019945B
:1031D00060E00E94BA186D2FC8010E94AB1881E010
:1031E000DF91CF911F910F91FF90EF90089561E0D3
:1031F0000E94BA18DECFCF93DF93EC01A889B9897A
:10320000FD01349131969491319684911396FD018C
:10321000A4916317A8F1961798F1631B770B8A9F07
:10322000E02D1124E69FC001E79F900D1124280F87
:10323000392F311D83E0220F331F8A95E1F7C90131
:103240000496DA01245F3F4FE889F989E80FF91FF6
:10325000E491ED93019682179307B1F78D89882346
:1032600061F0FA019A01285F3F4F8191DF011197C8
:1032700080958C932E173F07C1F7DF91CF9108956A
:10328000FA01CA0108961192E817F907E1F7E6CFAB
:103290000F931F93CF93DF93EC01862F642F8C3213
:1032A00008F03AC08A3208F060C0883209F44BC096
:1032B000893209F460C0803408F475C0982F9F7378
:1032C000FE01E90FF11D868D8F3F09F44EC090314C
:1032D00008F436C0282F30E0F901E651FC4D849106
:1032E000F901E655FB4D0491F901EC59FB4D1491A0
:1032F000112379F081110E942213E12FF0E0EE0FEB
:10330000FF1FE05DFB4DA591B491EC910E2381E090
:1033100009F480E0898F29C08D3299F108F4CBCF70
:1033200094EB980F923008F0C6CF8F73C80FD11D61
:103330008E8D411134C061E00E94B71360E08E8D24
:103340000E94891312C08E01025E1F4FD0E0F80167
:1033500081918F018F3F31F061E0D03108F062E060
:103360000E94B713DF5FD63191F781E0DF91CF91F3
:103370001F910F91089570E090E080E00E94181472
:10338000F4CF85E090E0433010F082E090E0880FC9
:10339000991F880F991F05970197F1F7E6CF62E013
:1033A0000E94B713E2CF80E0E1CF2F923F924F927D
:1033B0005F926F927F928F929F92AF92BF92CF92C5
:1033C000DF92EF92FF920F931F93CF93DF93CDB7CE
:1033D000DEB72D970FB6F894DEBF0FBECDBFDC0170
:1033E0005496ED91FC915597D996DC90D997CF01E1
:1033F00003966A3019F5FC018491D80ED996DC92B7
:10340000D997D8961C9281E090E02D960FB6F8944B
:10341000DEBF0FBECDBFDF91CF911F910F91FF9007
:10342000EF90DF90CF90BF90AF909F908F907F9064
:103430006F905F904F903F902F9008953296249018
:10344000D8965C90D8975D0124E0A20EB11CF49050
:10345000FC01E490352C3F0CED0C81E0850D381615
:1034600010F4FF24F394C62E8D01612CCE01019639
:103470004C01462C752C242DA4016C2DC5010E94F5
:10348000FB187C86DD8691E09B879A868986D80129
:103490001896ED91FC919E01275F3F4F41E06FE050
:1034A000C501199543947394731428F3D3946F0C46
:1034B000DE14F8F2F80180AD820D80AFA4CFEF9258
:1034C000FF920F931F93CF93DF93EC01EC80FD806D
:1034D0006E157F050CF070C057FF04C0240F351F18
:1034E00050E040E08E819F81FA01E20FF31F8E17BA
:1034F0009F071CF49C01241B350B121613060CF0BD
:103500005BC0922F842F8695869586958E9DD001DF
:103510008F9DB00D11246A0F7B1FAF8DB8A1A60F30
:10352000B71F477049F188E0841B482F682F70E06F
:10353000FB01E45DFC4DE491281708F063C0621BB9
:1035400071092FEF30E002C0359527956A95E2F7B3
:10355000E2230130110539F0B0F10230110561F5B7
:103560008C91E82702C08C91E82BEC93941720F102
:103570002C813D81A20FB31FE92FE41BE83078F0C6
:103580000230110521F58E2F9C9190959C932C81F2
:103590003D81A20FB31F88508830B0F7E770EE234B
:1035A00059F0F0E0EC5DFC4DE49101301105F9F0CB
:1035B00010F10230110519F1DF91CF911F910F9198
:1035C000FF90EF900895E0958C91E823CECF81E0B5
:1035D0000115110509F480E081959E2F8C932C81B3
:1035E0003D81A20FB31F98509830C0F7D7CF8C9170
:1035F000E82BEC93E1CFE0958C91E823FACF8C9106
:10360000E827F7CF0130110509F4ADCFE0F2023021
:10361000110509F4A5CFAE0DBF1DAECF0F931F93BB
:10362000CF93DF9377FF04C0260F371F70E060E071
:10363000DC011496CD91DC91FB01E20FF31FCE1754
:10364000DF071CF49E01261B370B121613064CF5E0
:10365000FA0157FD3796A3E0F595E795AA95E1F7AE
:10366000EC9FD001ED9FB00DFC9FB00D11246A0FAF
:103670007B1FDC015F96ED91FC91E60FF71F477011
:10368000552781E090E001C0880F4A95EAF7482F5E
:103690000130110559F0A8F02E0F3F1F023011051F
:1036A000E1F0DF91CF911F910F9108952E0F3F1FF1
:1036B000E217F307B1F38191DF011197842B8C930B
:1036C000F7CF80952E0F3F1FE217F30751F391912B
:1036D000DF01119798239C93F7CFE217F30709F3C3
:1036E0008191DF01119784278C93F7CF0F931F935C
:1036F000FA01DC0156964C9156974230E9F043307E
:10370000A1F1413061F514964D915C91DA01AE1B47
:10371000BF0BFD01E21BF30B77FD0BC0DC0116961E
:103720004D915C916417750724F4AB01BF010E94B1
:103730000E1B1F910F91089514964D915C91DA0123
:10374000A61BB70BBD0161507109DC0116964D91A6
:103750005C91DA01AE1BBF0BFD01E21BF30B77FDA1
:10376000E8CFAF010E945F1AE4CF16964D915C91AD
:10377000DA01A61BB70BBD0161507109CDCF0F93C4
:103780001F93FA01DC0156964C9156974230A9F0EE
:10379000433091F1413019F514964D915C91DA0165
:1037A000AE1BBF0BFD013197F7FD04C0AB01BF019C
:1037B0000E945F1A1F910F91089514964D915C918C
:1037C000DA01A61BB70BBD01DC0116964D915C9189
:1037D000DA01AE1BBF0BFD013197621B730BF7FDC6
:1037E000E9CFDC0116964D915C91E417F50714F7CB
:1037F000AF010E940E1BDECF16964D915C91DA014F
:10380000A61BB70BBD01621B730BCECFFC0177FD6E
:1038100064C080859185681779070CF05EC057FDFC
:103820005CC082859385481759070CF056C086897D
:103830008230B1F0833029F1813041F48481958167
:10384000841B950BAB01BC0161507109213031051E
:1038500009F108F443C02230310509F463C008952A
:1038600084819581DC01A61BB70BBD0161507109F4
:1038700086819781DC01A41BB50BAD014150510934
:10388000E5CF86819781861B970BBA01AC01415029
:103890005109DCCFCA0157FD0796A3E0959587959E
:1038A000AA95E1F7A481B5818A9F90018B9F300D85
:1038B0009A9F300D1124620F731F078CF0A1E02D29
:1038C000E60FF71F4770552721E030E001C0220FB7
:1038D0004A95EAF78081822B80830895CA0157FDBB
:1038E000079633E0959587953A95E1F7A481B581E0
:1038F0008A9F90018B9F300D9A9F300D1124620F8B
:10390000731F078CF0A1E02DE60FF71F47705527B6
:1039100081E090E001C0880F4A95EAF78095908198
:103920008923DACFCA0157FD079623E0959587953D
:103930002A95E1F7A481B5818A9F90018B9F300D74
:103940009A9F300D1124620F731F078CF0A1E02D98
:10395000E60FF71F4770552721E030E001C0220F26
:103960004A95EAF780818227B7CF0895FC016370FA
:10397000668B8481958126813781613039F063308F
:1039800029F09187808733872287089531872087A0
:103990009387828708952F923F924F925F926F9202
:1039A0007F928F929F92AF92BF92CF92DF92EF92CF
:1039B000FF920F931F93CF93DF93CDB7DEB76A9734
:1039C0000FB6F894DEBF0FBECDBF9A8F898F7A8372
:1039D00069834A01D22E18870F833701BC2CDC0182
:1039E00059962D913C915A972115310509F015C131
:1039F00018968D919C911997681779070CF0D7C18B
:103A00001A968D919C91481759070CF0D0C14C2CF7
:103A1000512CB6E0CB9E600D711D11247C876B8705
:103A2000161617060CF0C3C1EA2DF0E0FA87E987F5
:103A300093E0EE0FFF1F9A95E1F7F88BEF87CF0128
:103A4000840F951F181619060CF0B1C1A98DBA8DF7
:103A500058968C91811104C0BFEABD1508F4D39427
:103A6000A98DBA8DED91FC9111970284F385E02D1B
:103A7000CD011995B5E0DB9EC0011124E981FA81E1
:103A8000FC83EB83312C212C9C012C5D314E388F33
:103A90002F8B4A2D50E05E8B4D8BEF89F88DE20D18
:103AA000F31D44919E828D82D12CC12C69817A8133
:103AB000620D731D7A8B698B842F90E09C8B8B8BAE
:103AC000E98DFA8DA081B18140FF82C0F1E0BF1283
:103AD0006FC0AF126DC01C96ED91FC912F8138859F
:103AE000A4014C0D5D1D69897A89898D9A8D19957E
:103AF000EB89FC89F595E7954E2F5FEFC51AD50A3E
:103B00006D817E818D899E89680F791F7E836D838B
:103B100098E0C916D10481F6AFEF2A1A3A0AEB8170
:103B2000FC81E40DF51DFC83EB83F5E02F163104D9
:103B300009F0B3CF2F81388526153705B9F0A98D47
:103B4000BA8DED91FC91B1E0BB1257C0AB1255C0DC
:103B500069817A816B5F7F4F0088F189E02D830155
:103B600028E030E0A401898D9A8D1995A98DBA8D30
:103B7000ED91FC9111970688F789E02DCD016A96A9
:103B80000FB6F894DEBF0FBECDBFDF91CF911F916E
:103B90000F91FF90EF90DF90CF90BF90AF909F90EC
:103BA0008F907F906F905F904F903F902F901994DF
:103BB0001E96ED91FC91EF80F88409851A8592019B
:103BC0004D815E816B817C81898D9A8D199590CF15
:103BD0002F8138852615370509F48ACF31E0B312D5
:103BE00007C0A31205C01C96ED91FC91930178CFFC
:103BF0001E96ED91FC917301E0CF6B857C85641975
:103C000075090684F785E02D73010F8518899201E7
:103C1000A401898D9A8D1995A9CFF90134969491B3
:103C2000329745915491D91AB7E0DB9E400D511D52
:103C30001124F901259134913C8B2B8BFA012590AD
:103C40003490FA013296749031963491398B3296D1
:103C500064903196449041E04C1518F04A1508F0F4
:103C60007FC0662D062C000C770B7C836B83842D24
:103C7000042C000C990B9E838D83A98DBA8DED9138
:103C8000FC9111970284F385E02DCD011995512CFB
:103C9000D12CC12CEA2DF0E0FA87E9872B2D30E0FA
:103CA0003C872B87A401440D511D47FC5A95588F22
:103CB0004F8B69817A81660D711D67FC7A957E87CD
:103CC0006D877989C71608F051CF2C2D30E04D81D2
:103CD0005E81420F531FA985BA854A9FC0014B9F41
:103CE000900D5A9F900D1124FC01E80DF91DF88BE1
:103CF000EF87852D612C4F89588D420F531F5E8BA6
:103D00004D8B671408F050C044244394480E8770CC
:103D100041F4C1010196EB89FC89E20DF31DD490B9
:103D20001C01D7FE19C0A98DBA8DED91FC91662DAD
:103D300070E0B1E0BB1219C0AB1217C02D853E85F3
:103D4000620F731F0484F585E02D2F8138854D891E
:103D50005E89898D9A8D1995DD0C6394842DD1CF60
:103D60001E821D821C821B8288CF4B815C81640F66
:103D7000751FAB85BC856A9FC0016B9F900D7A9FB4
:103D8000900D112469817A81680F791F0684F78567
:103D9000E02DEF80F88409851A859D014F855889AB
:103DA000898D9A8D1995D8CF570CC3948ACF6A966E
:103DB0000FB6F894DEBF0FBECDBFDF91CF911F913C
:103DC0000F91FF90EF90DF90CF90BF90AF909F90BA
:103DD0008F907F906F905F904F903F902F900895BD
:103DE0008F929F92AF92CF92EF92FF920F931F9379
:103DF000CF93DF93EC01262F898D9A8D009709F0E0
:103E000051C06A30D1F41D861C868D8948E0849F9C
:103E1000900111248E859F85820F931F9F878E8727
:103E200081E090E0DF91CF911F910F91FF90EF9093
:103E3000CF90AF909F908F9008956D3089F3CC888C
:103E4000AD888F898823C1F08C859D8536E0C39E1F
:103E5000800D911D1124488559854817590764F430
:103E60004E855F851D861C8638E0A39EC001112407
:103E7000840F951F9F878E87EA88FB880889198998
:103E80004E855F856C857D85CE010E94CB1C2C897B
:103E90008C859D8546E0249F800D911D11249D8772
:103EA0008C87BECF6A3069F41D861C86FC0138966B
:103EB000E4912D898E859F85E29F800D911D1124AF
:103EC000ADCF6D3009F4ACCFFC013496349163175B
:103ED00008F4A6CF3296E491E61708F4A1CFFC01CE
:103EE000329685909490462F431B342F47E0349FA1
:103EF000800C911C1124F401329634913196E49196
:103F00003323A9F1EE2399F1CC88F4013596E4919D
:103F1000AD884F89442301F10E2E000CFF0BE30FF7
:103F2000F11DCE9EA001CF9E500D11246C857D8584
:103F3000460F571F68857985641775076CF44E85A1
:103F40005F851D861C86FC013896E491AE9E400D6F
:103F5000511D11245F874E87EA88FB8808891989DB
:103F60004E855F856C857D85CE010E94CB1CF4015A
:103F70003496E4912C898C859D85E29F800D911D5E
:103F800011248DCF6F927F928F929F92AF92BF92AA
:103F9000CF92DF92EF92FF920F931F93CF93DF9315
:103FA000EC016B015A0139014801E881F981028471
:103FB000F385E02D1995E881F9810288F389E02DD8
:103FC00087019301A501B601CE011995A501480D00
:103FD000591D41505109E881F9810288F389E02D8A
:103FE0009301B601CE011995E881F9810088F18924
:103FF000E02D9401A501B601CE011995C60CD71C80
:10400000B60161507109E881F9810088F189E02DDC
:104010009401A501CE011995E881F9810688F789F7
:10402000E02DCE01DF91CF911F910F91FF90EF9086
:10403000DF90CF90BF90AF909F908F907F906F90C8
:1040400019946F927F928F929F92AF92BF92CF926C
:10405000DF92EF92FF920F931F93CF93DF935C0158
:10406000EB016A01490138018701DC01ED91FC9106
:104070006217730719F5641675062CF0962D872DB7
:104080003A01C92ED82E9601261937092F5F3F4FC6
:10409000048CF58DE02DA301BE01C5011995DF91BA
:1040A000CF911F910F91FF90EF90DF90CF90BF9035
:1040B000AF909F908F907F906F9008954615570511
:1040C00091F42617370724F0892D4B01C22FD82FE2
:1040D0009E01281939092F5F3F4F068CF78DE02D7F
:1040E000A601B401DACF0284F385E02D1995D5013C
:1040F000ED91FC910488F589E02D83019401A601DE
:10410000BE01C5011995D501ED91FC910688F7898D
:10411000E02DC501DF91CF911F910F91FF90EF909E
:10412000DF90CF90BF90AF909F908F907F906F90D7
:104130001994EF92FF920F931F93DC011A960D9141
:104140001C911B9718962D913C911997ED91FC911C
:1041500000A0F1A1E02D7B0150E040E070E060E0C4
:1041600019951F910F91FF90EF9008954F925F92D4
:104170006F927F928F929F92AF92BF92CF92DF9277
:10418000EF92FF920F931F93CF93DF936C012B015C
:104190005A0139014801DC01ED91FC910284F3855B
:1041A000E02D1995E201640C751CD601ED91FC918E
:1041B000C615D7055CF40088F189E02D87019401CC
:1041C000A501BE01C60119952196EFCF0688F78992
:1041D000E02DC601DF91CF911F910F91FF90EF90DD
:1041E000DF90CF90BF90AF909F908F907F906F9017
:1041F0005F904F9019948F929F92AF92BF92CF92FF
:10420000DF92EF92FF920F931F93CF93DF93EC0116
:104210005B014A016901E881F9810284F385E02D9F
:10422000199595012C0D3D1D21503109E881F98129
:104230000488F589E02D78018401A401B501CE013F
:104240001995E881F9810688F789E02DCE01DF9183
:10425000CF911F910F91FF90EF90DF90CF90BF9083
:10426000AF909F908F9019948F929F92AF92BF9230
:10427000CF92DF92EF92FF920F931F93CF93DF9332
:10428000EC015B014A0169017801E881F98102844E
:10429000F385E02D1995C80CD91C86010150110930
:1042A000E881F9810488F589E02D9501A401B50123
:1042B000CE011995E881F9810688F789E02DCE01B4
:1042C000DF91CF911F910F91FF90EF90DF90CF90F2
:1042D000BF90AF909F908F9019940895EF92FF92A6
:1042E0000F931F93DC01ED91FC9100A0F1A1E02D53
:1042F00019951F910F91FF90EF9008950F931F93C1
:10430000DC01ED91FC91068CF78DE02D19951F9144
:104310000F9108950F931F93DC01ED91FC91048C94
:10432000F58DE02D19951F910F910895DC01ED9108
:10433000FC910084F185E02D19942F923F924F92C9
:104340005F926F927F928F929F92AF92BF92CF9225
:10435000DF92EF92FF920F931F93CF93DF9300D0E2
:1043600000D0CDB7DEB73C016A013E832D83FC82CD
:10437000EB825801A41AB50AB7FE03C0B194A19408
:10438000B1088D809E80861A970A97FE03C091948B
:10439000819491088A149B045CF0902F812F0D81E9
:1043A0001E819D838E839C2D8D2D6B01692F782F0F
:1043B0000C151D055CF09D818E817E836D83692FB8
:1043C000782F902F812F8601C92ED82E1601201A02
:1043D000310A2B012D813E81421A530A57FE03C038
:1043E000519441945108710137FE03C03FEFE31A25
:1043F000F30AF594E7948D819E81861797075CF503
:10440000A1E0B0E0BA83A983C016D1064CF1D30174
:10441000ED91FC910484F585E02D2B813C81A80170
:104420006D817E818A149B041CF04D815E81B801F0
:10443000C3011995E418F508F7FE0AC02D813E81E5
:1044400089819A81280F391F3E832D83E20CF31C4A
:104450000F5F1F4FD9CF2FEF3FEF3A832983D4CF80
:1044600026960FB6F894DEBF0FBECDBFDF91CF9179
:104470001F910F91FF90EF90DF90CF90BF90AF9082
:104480009F908F907F906F905F904F903F902F9074
:10449000089520914710260F3327331F213231050D
:1044A000ECF42091E212FC0190E080E0243069F00D
:1044B00082E00895A09147102191AC01495D5F4EC3
:1044C000A40FB52FB11D2C930196861798F38091F8
:1044D0004710680F6093471080E0089581E00895C9
:1044E0001092E21281E08093E1121092BC1261E01E
:1044F00084E10E94891361E085E10E948913E9EB60
:10450000F0E080818E7F808380818D7F808388E44E
:104510008093B80085E48093BC000895CF93DF9327
:1045200091E0909326108823B9F0C091B800D09103
:10453000BA008091BC008A7B8093BC0060E084E17B
:104540000E94891360E085E10E9489130E94702215
:10455000D093BA00C093B800DF91CF9108958F92A5
:104560009F92AF92BF92CF92DF92EF92FF920F9302
:104570001F93CF93DF93D0910B13D13208F0D7C0A4
:10458000182FC0910A130E94F3136B017C018091D4
:10459000E21281116BC082E08093E2121093E1126B
:1045A0008FEF8093E0121092DF12D093DE12AAEE0A
:1045B000B2E1EEEBF2E180E0D81391C01092BD12AF
:1045C0008091BD12CC0FC82BC093BD128091BC123C
:1045D000813009F088C01092BC120E94F3136B0165
:1045E0007C018091BD128093BB008091E412909178
:1045F000E512A091E612B091E712892B8A2B8B2B42
:10460000A1F00E94F3130091E4121091E5122091A1
:10461000E6123091E7126C197D098E099F09061781
:1046200017072807390708F442C08091BC0083FDB2
:10463000D8CF85EC8093BC000E94F3136B017C0102
:104640008091E212823009F450C08091E0128F3FD5
:1046500009F46FC08091E012803209F46CC080913F
:10466000E012803309F469C084E026C08091E4122E
:104670009091E512A091E612B091E712892B8A2B56
:104680008B2B09F484CF0E94F3138090E412909056
:10469000E512A090E612B090E7126C197D098E0920
:1046A0009F0986169706A806B90608F070CF809174
:1046B000E3120E948E2285E01092E91210920B13F1
:1046C0001092E812DF91CF911F910F91FF90EF9020
:1046D000DF90CF90BF90AF909F908F9008959D9165
:1046E00091938F5F69CF85EEA5CF8091E412909171
:1046F000E512A091E612B091E712892B8A2B8B2B41
:1047000009F49ECF0E94F3130091E4121091E51278
:104710002091E6123091E7126C197D098E099F09EC
:10472000061717072807390708F08ACFC0CF81E09E
:10473000C3CF80E0C1CF82E0BFCF83E0BDCF1F9366
:10474000CF93DF93EC01162F8D8D9E8D892B09F46D
:1047500059C02DA93EA94FA958AD60E074E284EF7D
:1047600090E00E9481592051310941095109569523
:104770004795379527952093B800112309F452C027
:1047800017EA8D8D9E8D009709F44EC029A131E066
:104790003093E81220930A131092E91210920B132F
:1047A000DC01ED91FC910190F081E02D60E0199524
:1047B0008D8D9E8DDC01ED91FC910190F081E02DBD
:1047C000612F199581E00E94AF228D8D9E8D892BDE
:1047D00009F45EC029AD3AAD4BAD5CAD60E074E26A
:1047E00084EF90E00E94815920513109410951091B
:1047F00056954795379527952093B800DF91CF912F
:104800001F9108958B8D9C8D892B21F09EAD8FADCE
:104810009CBD8DBDEFA5F8A990818CA980958923B9
:104820008083ABCF16EAADCFEDA5FEA590818BA915
:104830008095892380838B8D9C8D892B39F01EBDBB
:1048400000000DB407FEFDCF8EB5BFCF28E030E0ED
:1048500090E8E9A5FAA589A9412F4923A9F040814B
:10486000842B8083EBA5FCA580814AA9842B8083BF
:10487000EBA5FCA540818AA9809584238083969529
:104880002150310931F7A1CF408180958423E9CFB0
:10489000EFA5F8A980819CA9892B8083AFCFE091F7
:1048A000771080917610E81730F4F0E0EA5FFF4E61
:1048B000808190E008958FEF9FEF08959091771099
:1048C000809176102FEF3FEF981748F4E92FF0E032
:1048D000EA5FFF4E208130E09F5F90937710C9011F
:1048E00008958091761090917710891B990B089507
:1048F000CF92DF92EF92FF920F931F93CF93DF93AC
:104900007C01CB018A012091E812222389F0EB017E
:104910006B01C40ED51ECC15DD0569F06991D70178
:10492000ED91FC910190F081E02DC7011995F3CF35
:10493000642F0E944922C801DF91CF911F910F91EE
:10494000FF90EF90DF90CF900895CF93DF931F9269
:10495000CDB7DEB769832091E8122223F9F02091C8
:104960000B13203258F021E030E0FC013383228326
:1049700090E080E00F90DF91CF9108958091E9124F
:10498000E82FF0E0E651FD4E998190838F5F809390
:10499000E91280930B1381E090E0ECCF61E0CE014F
:1049A00001960E944922F7CFCF93DF93EC018F89C4
:1049B000988DDC01ED91FC910284F385E02D199531
:1049C0000196A9F7DF91CF910895CF93DF931F92BE
:1049D000CDB7DEB76983DC0157968D919C91DC01E0
:1049E000ED91FC910280F381E02D41E050E0BE01A9
:1049F0006F5F7F4F19950F90DF91CF9108956115EB
:104A0000710559F0DC0157968D919C91DC01ED9177
:104A1000FC910280F381E02D199490E080E00895EC
:104A20004F925F926F927F928F929F92AF92BF92BE
:104A3000CF92DF92EF92FF920F931F93CF93DF936A
:104A40008C017B016A010E944B144B015C01D0E098
:104A5000C0E0D80157968D919C91DC01ED91FC91BD
:104A60000284F385E02D19958F3F980761F0E114DA
:104A7000F10421F0F701EC0FFD1F808321960E94C5
:104A80004B144B015C01CC15DD0584F40E944B14E2
:104A9000681979098A099B09F8014388548865884F
:104AA0007688461657066806790698F6CE01DF9195
:104AB000CF911F910F91FF90EF90DF90CF90BF901B
:104AC000AF909F908F907F906F905F904F900895E0
:104AD0002F923F924F925F926F927F928F929F920E
:104AE000AF92BF92CF92DF92EF92FF920F931F93FC
:104AF000CF93DF936C017B011A01480159010E9499
:104B00004B142B013C01D0E0C0E0D60157968D91AB
:104B10009C91DC01ED91FC910284F385E02D1995C7
:104B20008F3F980741F0E114F10421F0F701EC0FF9
:104B3000FD1F80832196C215D3055CF40E944B149F
:104B4000641975098609970986169706A806B90695
:104B5000E0F6CE01DF91CF911F910F91FF90EF9082
:104B6000DF90CF90BF90AF909F908F907F906F908D
:104B70005F904F903F902F900895EF92FF920F9388
:104B80001F93CF93DF931F92CDB7DEB77C011BE05D
:104B900000E0D701ED91FC910280F381E02D41E02E
:104BA00050E0BE016F5F7F4FC7011995009751F02C
:104BB00089818F3F11F40F3F69F01150082F49F799
:104BC00090E080E00F90DF91CF911F910F91FF90C7
:104BD000EF90089581E090E0F5CFFF920F931F933F
:104BE000CF93DF9300D01F92CDB7DEB7DC011496D0
:104BF0001C9214976E3F49F112962C91222329F1B1
:104C0000F62E8C010E94BD25892B11F1D801ED9162
:104C1000FC910280F381E02D44E050E0BE016F5F23
:104C20007F4FC8011995049799F48981F81210C033
:104C30008A81823069F48B8162E0680F6F0D609524
:104C40009C81691305C0F801848381E090E002C073
:104C500090E080E00F900F900F900F90DF91CF9138
:104C60001F910F91FF9008959F92AF92BF92CF92A4
:104C7000DF92EF92FF920F931F93CF93DF9300D0B9
:104C800000D0CDB7DEB76C01A62E942EF22EB32E37
:104C90008FEF89838A836B83ED8213E0100F1C836F
:104CA0004E83D601ED91FC910190F081E02D46E01C
:104CB00050E0BE016F5F7F4FC6011995190DE10EDF
:104CC000EA0C9F2DEF2DFB2D8191E80E8E2F891B75
:104CD0008017D0F3402F50E0D601ED91FC91019068
:104CE000F081E02D6F2D7B2DC60119956E2D6095FD
:104CF000D601ED91FC910680F781E02DC601199552
:104D000026960FB6F894DEBF0FBECDBFDF91CF91D0
:104D10001F910F91FF90EF90DF90CF90BF90AF90D9
:104D20009F900895AF92BF92CF92DF92EF92FF9241
:104D30000F931F93CF93DF9300D01F921F92CDB795
:104D4000DEB76C01162FA42EF22EB32E0D83DC01DC
:104D5000ED91FC910084F185E02D199582E0E82E1B
:104D600001E09E012B5F3F4F4A2D612FC6010E943B
:104D70003426D601ED91FC910284F385E02DC60125
:104D80001995C6010E94BD25892B99F410E000E019
:104D9000C8010F900F900F900F900F90DF91CF915F
:104DA0001F910F91FF90EF90DF90CF90BF90AF9049
:104DB0000895F60114820190F081E02D0280F381C4
:104DC000E02D43E050E0BE016F5F7F4FC6011995B3
:104DD0000397E1F68981811711F01E3FB9F64D81E5
:104DE00050E02A81CA0102962817190679F6D601E1
:104DF000ED91FC910280F381E02D6F2D7B2DC6019A
:104E000019950D8110E00817190709F0BFCFD601D9
:104E1000ED91FC910280F381E02D41E050E0BE0174
:104E20006C5F7F4FC6011995019709F0AFCF9B8149
:104E300089812A81820F890F3F2DEF2DFB2D2E2F87
:104E4000231B201711061CF42191820FF8CF8095A7
:104E50002C8128139BCFF60194839ACFEF92FF9277
:104E60000F93CF93DF931F921F92CDB7DEB77C01D4
:104E700002E09E012F5F3F4F0E949226029791F41D
:104E800029813A81F7018381882319F0322723276A
:104E90003227C9010F900F90DF91CF910F91FF90B2
:104EA000EF9008958FEF9FEFF5CF0F93CF93DF93A0
:104EB0001F92CDB7DEB701E09E012F5F3F4F0E94EA
:104EC0009226019739F4898190E00F90DF91CF917C
:104ED0000F9108958FEF9FEFF8CFCF92DF92EF926F
:104EE000FF920F931F93CF93DF931F92CDB7DEB73F
:104EF0006C01162FF42E2983DC01ED91FC910084C6
:104F0000F185E02D199583E0E82E01E09E012F5FE9
:104F10003F4F4F2D612FC6010E943426D601ED91DF
:104F2000FC910284F385E02DC6011995612FC6011D
:104F30000E94ED250F90DF91CF911F910F91FF906F
:104F4000EF90DF90CF900895CF92DF92EF92FF9293
:104F50000F931F93CF93DF93EC01162FF42E69016B
:104F6000E881F9810084F185E02D199583E0E82E30
:104F700096014F2D612FCE010E943426E881F981E0
:104F80000284F385E02DCE011995612FCE01DF91CA
:104F9000CF911F910F91FF90EF90DF90CF900C94E5
:104FA000ED25FC018381882329F0FB013083FA0180
:104FB00020830895FA013083FB01FACFCF93DF936A
:104FC000EC016F3F760769F488A599A5298D3A8D84
:104FD000232B99F497FF11C09F77919581959109A3
:104FE0000CC01A8E198E45E40E942E278F3F980719
:104FF00069F721E030E03A8F298FDF91CF91089552
:10500000CF93DF936F3F760731F4FC0185A190E0E9
:10501000DF91CF910895EC011A8E198E42E40E941F
:1050200055278F3F9807A1F721E030E03A8F298F6D
:10503000EFCFCF93DF936F3F760731F4FC0182A16E
:1050400090E0DF91CF910895EC011A8E198E4FE315
:105050000E9455278F3F9807A1F721E030E03A8F53
:10506000298FEFCFCF93DF936F3F760731F4FC01A9
:1050700081A190E0DF91CF910895EC011A8E198EF5
:105080004EE30E9455278F3F9807A1F721E030E0BB
:105090003A8F298FEFCFCF93DF93EC016F3F7607E5
:1050A00079F48F8D98A1298D3A8D232B31F492FFBD
:1050B00004C09B7F919581959109DF91CF910895CF
:1050C0001A8E198E4CE30E942E278F3F980759F7AE
:1050D00021E030E03A8F298FE6CFCF93DF93EC01C8
:1050E0006F3F760769F48D8D9E8D298D3A8D232B28
:1050F00099F497FF11C09F779195819591090CC004
:105100001A8E198E4AE30E942E278F3F980769F75F
:1051100021E030E03A8F298FDF91CF910895CF932E
:10512000DF93EC016F3F760779F48B8D9C8D298D91
:105130003A8D232B31F497FF04C09F779195819589
:105140009109DF91CF9108951A8E198E48E30E943C
:105150002E278F3F980759F721E030E03A8F298FAB
:10516000E6CF0F93CF93DF93EC019C01255E3F4F79
:105170000FE048E30E9492268F30910551F081E0C4
:1051800090E09A8F898F8FEF9FEFDF91CF910F91F2
:1051900008951A8E198EF9CF20E848E20C946D27F5
:1051A00021E047E30C946D2720E047E30C946D2742
:1051B000242F48E20C946D27CF92DF92EF92FF925A
:1051C0000F931F93CF93DF931F921F92CDB7DEB73C
:1051D0006C01162F7A0157FF05C0F194E194F10894
:1051E0006894F7F8298301E09E012F5F3F4F49E261
:1051F000612FC6010E94A4279701AE014E5F5F4F49
:10520000BE016F5F7F4FC6010E94D12702E09E0161
:105210002F5F3F4F4EE2612FC6010E94A4270F90DF
:105220000F90DF91CF911F910F91FF90EF90DF9042
:10523000CF90089521E041E20C946D27CF92DF9248
:10524000EF92FF920F931F93CF93DF9300D000D084
:105250001F92CDB7DEB76C01162F790157FF04C03E
:10526000519541955109506809839A01AE014D5FEE
:105270005F4FBE016E5F7F4FC6010E94D127D601EE
:1052800013968C918823D1F11C821D829701AE0167
:10529000495F5F4FBE016A5F7F4FC6010E94D12701
:1052A000D601ED91FC910084F185E02DC6011995A0
:1052B00084E0E82E07E09E012F5F3F4F49E2612F17
:1052C000C6010E943426D601ED91FC910284F3853B
:1052D000E02DC6011995612FC6010E94ED25279684
:1052E0000FB6F894DEBF0FBECDBFDF91CF911F91F7
:1052F0000F91FF90EF90DF90CF9008951D821C8258
:10530000C5CFCF92DF92EF92FF920F931F93CF936F
:10531000DF9300D000D01F92CDB7DEB77C01162FEF
:10532000690157FF04C0519541955109506809839F
:105330009A01AE014D5F5F4FBE016E5F7F4FC701A7
:105340000E94D127F7018381882321F11C821D82CD
:105350009601AE01495F5F4FBE016A5F7F4FC70193
:105360000E94D12707E09E012F5F3F4F49E2612F46
:10537000C7010E94A42727960FB6F894DEBF0FBE80
:10538000CDBFDF91CF911F910F91FF90EF90DF90F4
:10539000CF9008951D821C82DBCFFC01818D928D00
:1053A0000895DC015196ED91FC91529790815096B1
:1053B0008C91809589238083089520917A10309173
:1053C0007B102817390781F490917810809179101B
:1053D000981751F0E0917810F0E0EA53F04F808197
:1053E000082E000C990B08958FEF9FEF08952091E0
:1053F0007A1030917B102817390739F48FB7F89459
:1054000010927910109278108FBF089520917A1021
:1054100030917B102817390771F480917910209111
:10542000781090E0805C9F4F821B910960E470E0EF
:105430000E946D59089590E080E0089520917A10BF
:1054400030917B1028173907B9F49091781080912A
:105450007910981789F0E0917810F0E0EA53F04F56
:1054600080812091781030E02F5F3F4F2F733327DA
:105470002093781090E008958FEF9FEF089520E03B
:1054800001972FEF8F3F9207D9F708958F929F9240
:10549000AF92BF92CF92DF92EF92FF924B015C01ED
:1054A0000E944B14C0901013D0901113E09012136F
:1054B000F09013139B01AC012C193D094E095F09B3
:1054C00069017A01C501B4010E94FA5A2AE037ED58
:1054D00043EA5CE30E94505A20E030E84BEB55E48D
:1054E0000E94DF590E94C25A6C157D058E059F05EA
:1054F0004CF4809114139091151301969093151309
:10550000809314138AE794E10E944515892BE9F0F2
:105510008AE794E10E9423150497B9F48AE794E19D
:105520000E9423158F39910581F48AE794E10E9446
:1055300023158B36910549F480911413909115131E
:1055400001969093151380931413FF90EF90DF90C2
:10555000CF90BF90AF909F908F900895109232138C
:1055600010923313109234131092351310922A13A1
:1055700010922B1310922C1310922D1310922213B1
:1055800010922313109224131092251310921A13C1
:1055900010921B1310921C1310921D130895AF92BA
:1055A000BF92CF92DF92EF92FF920F931F93CF9310
:1055B000DF935B016A017901E80108EC20EA3FE032
:1055C000AC0161E08EEE95E10E94812920EA3FE086
:1055D000A50162E08EEE95E10E94812920EA3FE07C
:1055E000A60163E08EEE95E10E94812920EA3FE06A
:1055F000A70164E08EEE95E10E94812920EA3FE058
:10560000AE0165E08EEE95E10E948129DF91CF9198
:105610001F910F91FF90EF90DF90CF90BF90AF90D0
:1056200008950F931F930EEB1AE029E93BE04AE13E
:1056300059E06EEF76E08DE599E00E94CF2A60E2B6
:1056400073E080E090E00E94181424EE3BE04FE508
:1056500059E065E579E08DE599E00E94CF2A60E2A6
:1056600073E080E090E00E9418142FED3AE045E4EA
:1056700058E061E079E08DE599E00E94CF2A68E585
:1056800072E080E090E00E94181400E018E02FED36
:105690003AE045E458E061E079E08DE599E00E9468
:1056A000CF2A68E572E080E090E00E94181429E9B2
:1056B0003BE04AE159E06EEF76E08DE599E00E942B
:1056C000CF2A64EF71E080E090E01F910F910C947D
:1056D00018140F931F930EEB1AE029E93BE04AE1FF
:1056E00059E06EEF76E08EE096E00E94CF2A60E20D
:1056F00073E080E090E00E94181429E73BE042EF5D
:1057000058E064E179E08EE096E00E94CF2A60E202
:1057100073E080E090E00E94181423E43BE041EA4B
:1057200058E068E379E08EE096E00E94CF2A68E5D1
:1057300072E080E090E00E94181400E018E023E49A
:105740003BE041EA58E068E379E08EE096E00E94B1
:10575000CF2A68E572E080E090E00E94181429E901
:105760003BE04AE159E06EEF76E08EE096E00E9481
:10577000CF2A64EF71E080E090E01F910F910C94CC
:1057800018140F931F930EEB1AE029E93BE04AE14E
:1057900059E06EEF76E080EC97E00E94CF2A60E25D
:1057A00073E080E090E00E94181425E83BE042EFAF
:1057B00057E065E678E080EC97E00E94CF2A60E24F
:1057C00073E080E090E00E9418142EEE3AE040E78B
:1057D00057E06BE678E080EC97E00E94CF2A68E51E
:1057E00072E080E090E00E94181400E018E02EEED5
:1057F0003AE040E757E06BE678E080EC97E00E9403
:10580000CF2A68E572E080E090E00E94181429E950
:105810003BE04AE159E06EEF76E080EC97E00E94D1
:10582000CF2A64EF71E080E090E01F910F910C941B
:1058300018140F931F9300E018E029E93BE04AE1B8
:1058400059E06EEF76E086E699E00E94CF2A60E2AA
:1058500073E080E090E00E94181426EC3AE04BEFF1
:1058600057E066E379E086E699E00E94CF2A68E592
:1058700072E080E090E00E94181423E83AE043E2EE
:1058800058E061EC79E086E699E00E94CF2A60E971
:1058900071E080E090E00E9418140CE81AE023E820
:1058A0003AE043E258E061EC79E086E699E00E9454
:1058B000CF2A60E971E080E090E00E94181429E9A5
:1058C0003BE04AE159E06EEF76E086E699E00E941F
:1058D000CF2A6CE271E080E090E01F910F910C9470
:1058E00018140F931F930CE81AE029E93BE04AE1F2
:1058F00059E06EEF76E086E699E00E94CF2A60E2FA
:1059000073E080E090E00E94181426EC3AE04BEF40
:1059100057E066E379E086E699E00E94CF2A68E5E1
:1059200072E080E090E00E94181423E83AE043E23D
:1059300058E061EC79E086E699E00E94CF2A60E9C0
:1059400071E080E090E00E94181400E018E023E885
:105950003AE043E258E061EC79E086E699E00E94A3
:10596000CF2A60E971E080E090E00E94181429E9F4
:105970003BE04AE159E06EEF76E086E699E00E946E
:10598000CF2A6CE271E080E090E01F910F910C94BF
:1059900018140F931F9300E018E029E93BE04AE157
:1059A00059E06EEF76E082E096E00E94CF2A60E256
:1059B00073E080E090E00E9418142AE33AE04EE79A
:1059C00057E06DED78E082E096E00E94CF2A68E52E
:1059D00072E080E090E00E94181424E63AE045E48A
:1059E00058E06BED79E082E096E00E94CF2A60E912
:1059F00071E080E090E00E9418140CE81AE024E6C0
:105A00003AE045E458E06BED79E082E096E00E94F0
:105A1000CF2A60E971E080E090E00E94181429E943
:105A20003BE04AE159E06EEF76E082E096E00E94CA
:105A3000CF2A6CE271E080E090E01F910F910C940E
:105A400018140F931F930CE81AE029E93BE04AE190
:105A500059E06EEF76E082E096E00E94CF2A60E2A5
:105A600073E080E090E00E9418142AE33AE04EE7E9
:105A700057E06DED78E082E096E00E94CF2A68E57D
:105A800072E080E090E00E94181424E63AE045E4D9
:105A900058E06BED79E082E096E00E94CF2A60E961
:105AA00071E080E090E00E94181400E018E024E625
:105AB0003AE045E458E06BED79E082E096E00E9440
:105AC000CF2A60E971E080E090E00E94181429E993
:105AD0003BE04AE159E06EEF76E082E096E00E941A
