:020000040800F2
:10000000D8120024AD02000821B2000871A3000834
:1000100019B20008F103000849D6000800000000EA
:1000200000000000000000000000000071B60008A1
:10003000B90E00080000000099B20008D1B600080F
:10004000CB020008CB020008CB020008CB0200085C
:10005000CB020008CB020008CB020008CB0200084C
:10006000CB020008CB020008CB020008F90300080D
:1000700009040008CB020008CB020008CB020008EC
:10008000CB020008CB020008CB020008CB0200081C
:10009000CB020008CB020008CB020008CB0200080C
:1000A000CB020008CB020008CB020008CB020008FC
:1000B000CB020008CB020008CB020008CB020008EC
:1000C000CB020008CB020008CB020008CB020008DC
:1000D000CB02000829D40008CB020008CB0200089C
:1000E000CB020008CB02000800000000CB02000891
:1000F000CB020008CB020008CB020008CB020008AC
:10010000CB020008CB020008CB020008CB0200089B
:10011000CB020008CB020008CB020008CB0200088B
:10012000CB020008CB02000819040008CB0200082B
:10013000CB020008CB020008CB020008CB0200086B
:1001400000000000000000000000000000000000AF
:10015000CB020008CB0200082904000839D60008A9
:10016000CB020008CB020008CB020008CB0200083B
:10017000CB020008CB020008CB0200080000000000
:10018000CB020008CB020008CB020008CB0200081B
:10019000CB020008CB020008CB020008CB0200080B
:1001A000CB020008CB020008CB020008CB020008FB
:1001B000CB020008CB020008CB020008CB020008EB
:1001C000CB020008CB020008CB020008CB020008DB
:1001D000CB020008CB020008CB020008CB020008CB
:1001E000CB020008CB020008CB020008CB020008BB
:1001F000CB020008CB020008CB020008CB020008AB
:10020000CB020008CB020008CB020008CB0200089A
:10021000CB020008CB020008CB020008CB0200088A
:10022000CB020008CB020008CB020008000000004F
:10023000CB020008CB02000800000000CB0200083F
:10024000CB020008CB020008CB020008CB0200085A
:10025000CB020008CB020008CB020008CB0200084A
:10026000CB020008CB020008CB020008CB0200083A
:10027000CB020008CB020008CB02000800000000FF
:10028000CB020008CB020008CB02000800000000EF
:1002900000000000CB020008DFF80CD000F090F85E
:1002A0000048004719D70008D812002407488047A3
:1002B0000748804707480047FEE7FEE7FEE7FEE7FE
:1002C000FEE7FEE7FEE7FEE7FEE7FEE7D10E0008E9
:1002D000C1B70008990200082DE9F05F054600202B
:1002E00092469B4688460646814640241BE02846A7
:1002F00041464746224600F053F853465A46C01A34
:10030000914110D311461846224600F03AF82D1AB2
:1003100067EB01084F4622460120002100F031F82A
:1003200017EB00094E41201EA4F10104DFDC484612
:1003300031462A464346BDE8F09F40EA01039B0749
:1003400003D009E008C9121F08C0042AFAD203E04A
:1003500011F8013B00F8013B521EF9D27047D2B2AE
:1003600001E000F8012B491EFBD270470022F6E79E
:1003700010B513460A4604461946FFF7F0FF20461B
:1003800010BD202A04DB203A00FA02F10020704759
:100390009140C2F1200320FA03F3194390407047C3
:1003A000202A04DB203A21FA02F00021704721FACA
:1003B00002F3D040C2F12002914008431946704731
:1003C0001CB509480090094801900546009C06E0CC
:1003D000E06840F0010394E8070098471034AC420D
:1003E000F6D3FFF75DFF000078D8000898D8000822
:1003F000FFE7FEE70000000080B540F20410C2F203
:10040000004001F0F9FE80BD80B540F27C10C2F2E0
:10041000004001F0F1FE80BD80B540F21400C2F250
:10042000004001F0E9FE80BD80B540F28C00C2F2D0
:10043000004001F0E1FE80BD83B0029002980168A7
:1004400001201022C4F202029142009000F0A38029
:10045000FFE70298016801202822C4F202029142BB
:10046000009000F09880FFE7029801680120402288
:10047000C4F202029142009000F08D80FFE70298E2
:10048000016801205822C4F202029142009000F05B
:100490008280FFE70298016801207022C4F2020204
:1004A0009142009077D0FFE70298016801208822EE
:1004B000C4F20202914200906DD0FFE702980168F9
:1004C0000120A022C4F202029142009063D0FFE713
:1004D000029801680120B822C4F202029142009001
:1004E00059D0FFE702980168012040F21042C4F29F
:1004F0000202914200904ED0FFE70298016801206D
:1005000040F22842C4F202029142009043D0FFE739
:1005100002980168012040F24042C4F20202914276
:10052000009038D0FFE702980168012040F258425D
:10053000C4F20202914200902DD0FFE702980168B8
:10054000012040F27042C4F202029142009022D097
:10055000FFE702980168012040F28842C4F20202DB
:100560009142009017D0FFE702980168012040F205
:10057000A042C4F20202914200900CD0FFE7029820
:1005800000684FF64831CBF6FD710844B0FA80F0B0
:1005900040090090FFE70098C00740B3FFE70298CA
:1005A000007810384AF6AB21CAF6AA21A0FB011048
:1005B00000090190019800F007014DF64800C0F6CF
:1005C0000000405C0299C8650198042807D3FFE742
:1005D00002990868042262F30900886506E002991E
:1005E000086840F2FF3290438865FFE705E0029912
:1005F000086820F0FF008865FFE70298806D03B06F
:10060000704700000000000084B003900398006869
:10061000019003980168012045F20842C5F60202E4
:10062000914200904ED0FFE703980168012045F207
:100630001C42C5F602029142009043D0FFE70398A6
:100640000168012045F23042C5F602029142009055
:1006500038D0FFE703980168012045F24442C5F60F
:100660000202914200902DD0FFE70398016801201B
:1006700045F25842C5F602029142009022D0FFE7AF
:1006800003980168012045F26C42C5F602029142CE
:10069000009017D0FFE703980168012045F28042DF
:1006A000C5F60202914200900CD0FFE70398006863
:1006B0004AF66C31CAF2FD710844B0FA80F0400984
:1006C0000090FFE70098C00710B3FFE70398007899
:1006D00008384CF6CD41CCF6CC41A0FB0110000906
:1006E0000290029945F60000C5F6020000EB810079
:1006F00003990866039945F68000C5F6020048662E
:10070000029800F01F01012088400399886635E0B7
:100710000398007810384AF6AB21CAF6AA21A0FB4C
:10072000011000090290019840F2B841C4F20201A0
:1007300088420CD8FFE7019840F21041C4F2020150
:10074000884204D3FFE7029808300290FFE702993D
:1007500040F60000C4F2020000EB81000399086635
:10076000039940F68000C4F202004866029800F047
:100770001F010120884003998866FFE704B0704795
:1007800083B002900298007901900198002800F04F
:100790008A80FFE70198082800F28580FFE7029829
:1007A0000168012045F20842C5F60202914200901C
:1007B0004ED0FFE702980168012045F21C42C5F6C1
:1007C00002029142009043D0FFE7029801680120A5
:1007D00045F23042C5F602029142009038D0FFE760
:1007E00002980168012045F24442C5F60202914296
:1007F00000902DD0FFE702980168012045F2584291
:10080000C5F602029142009022D0FFE702980168EB
:10081000012045F26C42C5F602029142009017D0C9
:10082000FFE702980168012045F28042C5F6020206
:10083000914200900CD0FFE7029800684AF66C31B4
:10084000CAF2FD710844B0FA80F040090090FFE759
:100850000098C00780B1FFE7019945F6FC00C5F696
:10086000020000EB81000299C866029945F640102B
:10087000C5F6020008670FE0019940F6FC00C4F2DB
:10088000020000EB81000299C866029940F6401010
:10089000C4F202000867FFE70198411E012088406A
:1008A00002994867FFE703B07047000000000000AE
:1008B00085B0049000208DF80F000498806918BB63
:1008C000FFE70498806A029003281BD80299DFE8AA
:1008D00001F0020D0218049890F82F00C00720B113
:1008E000FFE701208DF80F00FFE70CE00498C06AD5
:1008F000B0F1C07F04D1FFE701208DF80F00FFE7C2
:1009000001E000E0FFE747E004988069B0F5005F90
:1009100026D1FFE70498806A019003281ED8019928
:10092000DFE801F00206021101208DF80F0016E049
:10093000049890F82F00C00720B1FFE701208DF840
:100940000F00FFE70BE00498C06AB0F1C07F04D14C
:10095000FFE701208DF80F00FFE700E0FFE71AE056
:100960000498806A0090032804D3FFE700980328C6
:1009700004D00EE001208DF80F000BE0049890F8F1
:100980002F00C00720B1FFE701208DF80F00FFE71F
:1009900000E0FFE7FFE7FFE79DF80F0005B07047B5
:1009A00089B008900791069205930898806D04908D
:1009B0000898806D03900898016801201022C4F205
:1009C00002029142029000F00381FFE7089801685B
:1009D00001202822C4F202029142029000F0F88025
:1009E000FFE70898016801204022C4F20202914208
:1009F000029000F0ED80FFE708980168012058227E
:100A0000C4F202029142029000F0E280FFE70898EF
:100A1000016801207022C4F202029142029000F0AB
:100A2000D780FFE70898016801208822C4F20202FB
:100A30009142029000F0CC80FFE708980168012005
:100A4000A022C4F202029142029000F0C180FFE7AE
:100A5000089801680120B822C4F202029142029073
:100A600000F0B680FFE708980168012040F21042CC
:100A7000C4F202029142029000F0AA80FFE70898B7
:100A80000168012040F22842C4F202029142029021
:100A900000F09E80FFE708980168012040F2404284
:100AA000C4F202029142029000F09280FFE708989F
:100AB0000168012040F25842C4F2020291420290C1
:100AC00000F08680FFE708980168012040F270423C
:100AD000C4F20202914202907AD0FFE708980168BE
:100AE000012040F28842C4F20202914202906FD08B
:100AF000FFE708980168012040F2A042C4F2020218
:100B00009142029064D0FFE708980168012040F20A
:100B1000B842C4F202029142029059D0FFE708980D
:100B20000168012045F20842C5F602029142029096
:100B30004ED0FFE708980168012045F21C42C5F637
:100B400002029142029043D0FFE708980168012019
:100B500045F23042C5F602029142029038D0FFE7DA
:100B600008980168012045F24442C5F6020291420C
:100B700002902DD0FFE708980168012045F2584205
:100B8000C5F602029142029022D0FFE70898016860
:100B9000012045F26C42C5F602029142029017D044
:100BA000FFE708980168012045F28042C5F602027D
:100BB000914202900CD0FFE7089800684AF66C3129
:100BC000CAF2FD710844B0FA80F040090290FFE7D4
:100BD0000298C00770B1FFE70898416E806E4860C8
:100BE0000898C06E28B1FFE70898016F406F486011
:100BF000FFE7FFE70898016801201022C4F2020213
:100C00009142019000F0A380FFE70898016801205D
:100C10002822C4F202029142019000F09880FFE77E
:100C20000898016801204022C4F20202914201901A
:100C300000F08D80FFE70898016801205822C4F277
:100C400002029142019000F08280FFE7089801685B
:100C500001207022C4F202029142019077D0FFE796
:100C60000898016801208822C4F202029142019092
:100C70006DD0FFE7089801680120A022C4F20202AB
:100C80009142019063D0FFE7089801680120B822E3
:100C9000C4F202029142019059D0FFE7089801681E
:100CA000012040F21042C4F20202914201904ED063
:100CB000FFE708980168012040F22842C4F20202CE
:100CC0009142019043D0FFE708980168012040F26B
:100CD0004042C4F202029142019038D0FFE70898E6
:100CE0000168012040F25842C4F202029142019090
:100CF0002DD0FFE708980168012040F27042C4F24D
:100D000002029142019022D0FFE708980168012079
:100D100040F28842C4F202029142019017D0FFE7EC
:100D200008980168012040F2A042C4F202029142F8
:100D300001900CD0FFE7089800684FF64831CBF6D9
:100D4000FD710844B0FA80F040090190FFE7019876
:100D5000C00750B3FFE70898C06D00F01F013F20A7
:100D600088400499886008980168086820F4802009
:100D700008600598089909684860089880684028C4
:100D800009D1FFE7069808990968886007980899CB
:100D90000968C86008E0079808990968886006989B
:100DA00008990968C860FFE782E008980168012097
:100DB00045F20842C5F60202914200904ED0FFE78C
:100DC00008980168012045F21C42C5F602029142D2
:100DD000009043D0FFE708980168012045F23042B7
:100DE000C5F602029142009038D0FFE708980168EA
:100DF000012045F24442C5F60202914200902DD0F6
:100E0000FFE708980168012045F25842C5F6020242
:100E10009142009022D0FFE708980168012045F236
:100E20006C42C5F602029142009017D0FFE7089885
:100E30000168012045F28042C5F60202914200900D
:100E40000CD0FFE7089800684AF66C31CAF2FD71D1
:100E50000844B0FA80F040090090FFE70098C0070E
:100E600020B3FFE70898C06D00F01F010120884003
:100E7000039948600598089909684860089880684F
:100E8000402809D1FFE70698089909688860079803
:100E900008990968C86008E0079808990968886097
:100EA000069808990968C860FFE700E0FFE7FFE7D8
:100EB00009B070470000000070470000000000000B
:100EC00081B0EFF3108072B60090FFE7FEE70000FC
:100ED00044F60C01C5F60201086840F00200086003
:100EE000FFE744F60400C5F602000068800400280D
:100EF00001D4FFE7F5E7704784B002900298406B99
:100F0000009002980068D0F884004FF6FC71884386
:100F1000009940EA810002990968C1F884000298AA
:100F20000068D0F8840020F47F00029A1168926B68
:100F300040EA0240C1F884000298816B009808449E
:100F4000009002980068D0F888006FF38F00009935
:100F500040EA810002990968C1F888000298006897
:100F6000D0F8880020F4FE00029A1168D26B40EAA3
:100F70000240C1F888000298C16B009800EB410064
:100F8000009002980068D0F8A0006FF38F000099DD
:100F900040EA810002990968C1F8A000029800683F
:100FA000D0F8A00020F4FE00029A1168126C40EA0A
:100FB0000240C1F8A0000299086C496C009A00FB3D
:100FC0000120009002980068D0F8B0006FF38F0005
:100FD000009940EA810002990968C1F8B0000298BE
:100FE0000068D0F8B00020F4FE00029A1168926CFC
:100FF00040EA0240C1F8B0000299886CC96C009ABE
:1010000000FB0120009002980068D0F8AC006FF35C
:101010008F00009940EA810002990968C1F8AC008C
:101020000299086D496D009A00FB0120009002981A
:101030000068D0F8F0006FF38F00009940EA81005B
:1010400002990968C1F8F00002980068D0F8F00031
:1010500020F47C10029A1168926D40EA0240C1F8B7
:10106000F0000298816D009800EB4100009002981A
:101070000068D0F8C0006FF38F00009940EA81004B
:1010800002990968C1F8C00002980068D0F8C00051
:1010900020F47C10029A1168D26D40EA0240C1F837
:1010A000C00002980068D0F8C00020F07C50029A7E
:1010B0001168126E40EA0260C1F8C00002994A6BE2
:1010C0004AF60040C4F2000000EB8200C8660299B4
:1010D0008A6BC86E00EB820008670299CA6B086FC2
:1010E00000EBC200486702990A6C4B6C486F5A4388
:1010F00000EB8200886702998A6CCB6C886F5A4338
:1011000000EB8200C86702990A6D4B6DC86F5A43A5
:1011100000EB8200C1F8800002998A6DD1F880004E
:1011200000EBC200C1F884000299CA6D8B6ED1F841
:1011300084005A4300EB8200C1F8880002990A6ECD
:101140008B6ED1F888005A4300EB8200C1F8900002
:101150000298D0F890004DF2FD31C4F200018842AF
:101160000FD3FFE70299D1F89C0040F02000C1F8AE
:101170009C000299032081F8980001208DF80F004F
:1011800017E00298C06E0190FFE701980299D1F82C
:101190009010884208D2FFE7019900200860FFE71D
:1011A000019804300190F0E7FFE700208DF80F0070
:1011B000FFE79DF80F0004B070470000000000003A
:1011C00080B58AB0089003F0E7FD0490089828B92C
:1011D000FFE701208DF8270000F0AABC089890F8DE
:1011E000350002280ED0FFE7089980204865FFE708
:1011F0000899002081F83400FFE701208DF82700CE
:1012000000F096BC0898016801201022C4F2020286
:101210009142039000F0A380FFE708980168012045
:101220002822C4F202029142039000F09880FFE766
:101230000898016801204022C4F202029142039002
:1012400000F08D80FFE70898016801205822C4F261
:1012500002029142039000F08280FFE70898016843
:1012600001207022C4F202029142039077D0FFE77E
:101270000898016801208822C4F20202914203907A
:101280006DD0FFE7089801680120A022C4F2020295
:101290009142039063D0FFE7089801680120B822CB
:1012A000C4F202029142039059D0FFE70898016806
:1012B000012040F21042C4F20202914203904ED04B
:1012C000FFE708980168012040F22842C4F20202B8
:1012D0009142039043D0FFE708980168012040F253
:1012E0004042C4F202029142039038D0FFE70898CE
:1012F0000168012040F25842C4F202029142039078
:101300002DD0FFE708980168012040F27042C4F236
:1013100002029142039022D0FFE708980168012061
:1013200040F28842C4F202029142039017D0FFE7D4
:1013300008980168012040F2A042C4F202029142E2
:1013400003900CD0FFE7089800684FF64831CBF6C1
:10135000FD710844B0FA80F040090390FFE703985C
:10136000C00780B1FFE708980168086820F01E00F8
:10137000086008980168486920F080004861089872
:101380000068059009E008980168086820F00E00E0
:101390000860089800680590FFE708980168012038
:1013A0001022C4F202029142029000F00381FFE792
:1013B0000898016801202822C4F20202914202909A
:1013C00000F0F880FFE70898016801204022C4F28D
:1013D00002029142029000F0ED80FFE70898016858
:1013E00001205822C4F202029142029000F0E280F1
:1013F000FFE70898016801207022C4F202029142BE
:10140000029000F0D780FFE7089801680120882249
:10141000C4F202029142029000F0CC80FFE70898EB
:1014200001680120A022C4F202029142029000F061
:10143000C180FFE7089801680120B822C4F20202C7
:101440009142029000F0B680FFE708980168012001
:1014500040F21042C4F202029142029000F0AA80CF
:10146000FFE708980168012040F22842C4F2020216
:101470009142029000F09E80FFE7089801680120E9
:1014800040F24042C4F202029142029000F0928087
:10149000FFE708980168012040F25842C4F20202B6
:1014A0009142029000F08680FFE7089801680120D1
:1014B00040F27042C4F20202914202907AD0FFE7F9
:1014C00008980168012040F28842C4F20202914269
:1014D00002906FD0FFE708980168012040F2A04217
:1014E000C4F202029142029064D0FFE708980168BA
:1014F000012040F2B842C4F202029142029059D057
:10150000FFE708980168012045F20842C5F602028B
:10151000914202904ED0FFE708980168012045F201
:101520001C42C5F602029142029043D0FFE70898A0
:101530000168012045F23042C5F602029142029054
:1015400038D0FFE708980168012045F24442C5F60B
:101550000202914202902DD0FFE708980168012015
:1015600045F25842C5F602029142029022D0FFE7AE
:1015700008980168012045F26C42C5F602029142CA
:10158000029017D0FFE708980168012045F28042D9
:10159000C5F60202914202900CD0FFE7089800685D
:1015A0004AF66C31CAF2FD710844B0FA80F0400985
:1015B0000290FFE70298C00738B1FFE70898016E74
:1015C000086820F480700860FFE708980068102120
:1015D000C4F20201884200F08180FFE708980068A9
:1015E0002821C4F20201884278D0FFE708980068F9
:1015F0004021C4F20201884270D0FFE708980068D9
:101600005821C4F20201884268D0FFE708980068B8
:101610007021C4F20201884260D0FFE70898006898
:101620008821C4F20201884258D0FFE70898006878
:10163000A021C4F20201884250D0FFE70898006858
:10164000B821C4F20201884248D0FFE70898006838
:1016500040F21041C4F2020188423FD0FFE70898EF
:10166000006840F22841C4F20201884236D0FFE708
:101670000898006840F24041C4F2020188422DD02F
:10168000FFE70898006840F25841C4F2020188421E
:1016900024D0FFE70898006840F27041C4F20201CC
:1016A00088421BD0FFE70898006840F28841C4F2E6
:1016B0000201884212D0FFE70898006840F2A0417A
:1016C000C4F20201884209D0FFE70898006840F29E
:1016D000B841C4F20201884207D1FFE708980168C7
:1016E000086820F00100086006E0089801680868B2
:1016F00020F001000860FFE7FFE705980068C007D9
:10170000C8B1FFE703F048FB0499401A062811D33B
:10171000FFE70899202048650899032081F83500E3
:10172000FFE70899002081F83400FFE701208DF8D9
:101730002700FDE1E1E70898016801201022C4F2CA
:1017400002029142019000F0A380FFE7089801682F
:1017500001202822C4F202029142019000F09880F8
:10176000FFE70898016801204022C4F2020291427A
:10177000019000F08D80FFE7089801680120582251
:10178000C4F202029142019000F08280FFE70898C3
:10179000016801207022C4F202029142019077D0C8
:1017A000FFE70898016801208822C4F202029142F2
:1017B00001906DD0FFE7089801680120A022C4F2D3
:1017C00002029142019063D0FFE70898016801206E
:1017D000B822C4F202029142019059D0FFE7089862
:1017E0000168012040F21042C4F2020291420190CD
:1017F0004ED0FFE708980168012040F22842C4F269
:1018000002029142019043D0FFE70898016801204D
:1018100040F24042C4F202029142019038D0FFE708
:1018200008980168012040F25842C4F20202914235
:1018300001902DD0FFE708980168012040F2704226
:10184000C4F202029142019022D0FFE70898016899
:10185000012040F28842C4F202029142019017D066
:10186000FFE708980168012040F2A042C4F202029A
:10187000914201900CD0FFE7089800684FF648317C
:10188000CBF6FD710844B0FA80F040090190FFE703
:101890000198C00760B1FFE70898806D079008982D
:1018A000C06D00F01F013F208840079988600BE061
:1018B0000898806D06900898C06D00F01F01012007
:1018C000884006994860FFE70898016801201022C7
:1018D000C4F202029142009000F00381FFE70898F1
:1018E000016801202822C4F202029142009000F017
:1018F000F880FFE70898016801204022C4F2020244
:101900009142009000F0ED80FFE708980168012007
:101910005822C4F202029142009000F0E280FFE7F8
:101920000898016801207022C4F2020291420090DE
:1019300000F0D780FFE70898016801208822C4F2F0
:1019400002029142009000F0CC80FFE70898016805
:101950000120A022C4F202029142009000F0C18056
:10196000FFE7089801680120B822C4F20202914200
:10197000009000F0B680FFE708980168012040F26F
:101980001042C4F202029142009000F0AA80FFE7E8
:1019900008980168012040F22842C4F202029142F4
:1019A000009000F09E80FFE708980168012040F257
:1019B0004042C4F202029142009000F09280FFE7A0
:1019C00008980168012040F25842C4F20202914294
:1019D000009000F08680FFE708980168012040F23F
:1019E0007042C4F20202914200907AD0FFE7089858
:1019F0000168012040F28842C4F202029142009044
:101A00006FD0FFE708980168012040F2A042C4F2BD
:101A100002029142009064D0FFE70898016801201B
:101A200040F2B842C4F202029142009059D0FFE75E
:101A300008980168012045F20842C5F60202914269
:101A400000904ED0FFE708980168012045F21C4243
:101A5000C5F602029142009043D0FFE70898016862
:101A6000012045F23042C5F602029142009038D082
:101A7000FFE708980168012045F24442C5F60202DA
:101A8000914200902DD0FFE708980168012045F2AF
:101A90005842C5F602029142009022D0FFE7089812
:101AA0000168012045F26C42C5F6020291420090A5
:101AB00017D0FFE708980168012045F28042C5F67B
:101AC0000202914200900CD0FFE7089800684AF6A5
:101AD0006C31CAF2FD710844B0FA80F04009009000
:101AE000FFE70098C007A0B1FFE70898416E806E3D
:101AF00048600898C06E58B1FFE70898C16E086842
:101B000020F4807008600898016F406F4860FFE71C
:101B1000FFE70899012081F83500FFE708990020C8
:101B200081F83400FFE7FFE700208DF82700FFE78A
:101B30009DF827000AB080BD80B586B00490049857
:101B400020B9FFE701208DF8170046E3049890F8CC
:101B50003500022807D0FFE704998020486501205E
:101B60008DF8170039E30498016801201022C4F2AF
:101B700002029142029000F0A380FFE704980168FE
:101B800001202822C4F202029142029000F09880C3
:101B9000FFE70498016801204022C4F2020291424A
:101BA000029000F08D80FFE7049801680120582220
:101BB000C4F202029142029000F08280FFE7049892
:101BC000016801207022C4F202029142029077D093
:101BD000FFE70498016801208822C4F202029142C2
:101BE00002906DD0FFE7049801680120A022C4F2A2
:101BF00002029142029063D0FFE70498016801203D
:101C0000B822C4F202029142029059D0FFE7049830
:101C10000168012040F21042C4F202029142029097
:101C20004ED0FFE704980168012040F22842C4F238
:101C300002029142029043D0FFE70498016801201C
:101C400040F24042C4F202029142029038D0FFE7D3
:101C500004980168012040F25842C4F20202914205
:101C600002902DD0FFE704980168012040F27042F5
:101C7000C4F202029142029022D0FFE70498016868
:101C8000012040F28842C4F202029142029017D031
:101C9000FFE704980168012040F2A042C4F202026A
:101CA000914202900CD0FFE7049800684FF648314B
:101CB000CBF6FD710844B0FA80F040090290FFE7CE
:101CC0000298C007002800F09D80FFE704990420D7
:101CD00081F83500049800681021C4F2020188429E
:101CE00000F08180FFE7049800682821C4F2020117
:101CF000884278D0FFE7049800684021C4F20201CE
:101D0000884270D0FFE7049800685821C4F20201AD
:101D1000884268D0FFE7049800687021C4F202018D
:101D2000884260D0FFE7049800688821C4F202016D
:101D3000884258D0FFE704980068A021C4F202014D
:101D4000884250D0FFE704980068B821C4F202012D
:101D5000884248D0FFE70498006840F21041C4F27E
:101D6000020188423FD0FFE70498006840F2284112
:101D7000C4F20201884236D0FFE70498006840F2BE
:101D80004041C4F2020188422DD0FFE70498006868
:101D900040F25841C4F20201884224D0FFE704987F
:101DA000006840F27041C4F2020188421BD0FFE794
:101DB0000498006840F28841C4F20201884212D0BF
:101DC000FFE70498006840F2A041C4F20201884293
:101DD00009D0FFE70498006840F2B841C4F202015C
:101DE000884207D1FFE704980168086820F00100E5
:101DF000086006E004980168086820F001000860A7
:101E0000FFE7E5E104980168086820F00E0008602B
:101E1000049800681021C4F20201884200F0818019
:101E2000FFE7049800682821C4F20201884278D0B4
:101E3000FFE7049800684021C4F20201884270D094
:101E4000FFE7049800685821C4F20201884268D074
:101E5000FFE7049800687021C4F20201884260D054
:101E6000FFE7049800688821C4F20201884258D034
:101E7000FFE704980068A021C4F20201884250D014
:101E8000FFE704980068B821C4F20201884248D0F4
:101E9000FFE70498006840F21041C4F20201884252
:101EA0003FD0FFE70498006840F22841C4F20201E5
:101EB000884236D0FFE70498006840F24041C4F2FF
:101EC000020188422DD0FFE70498006840F2584193
:101ED000C4F20201884224D0FFE70498006840F26F
:101EE0007041C4F2020188421BD0FFE704980068E9
:101EF00040F28841C4F20201884212D0FFE7049800
:101F0000006840F2A041C4F20201884209D0FFE714
:101F10000498006840F2B841C4F20201884207D137
:101F2000FFE704980168086820F00100086006E0F7
:101F300004980168086820F001000860FFE7049831
:101F4000016801201022C4F202029142019000F0C7
:101F50000381FFE70498016801202822C4F20202ED
:101F60009142019000F0F880FFE704980168012099
:101F70004022C4F202029142019000F0ED80FFE79E
:101F80000498016801205822C4F202029142019093
:101F900000F0E280FFE70498016801207022C4F29B
:101FA00002029142019000F0D780FFE70498016897
:101FB00001208822C4F202029142019000F0CC80FC
:101FC000FFE7049801680120A022C4F202029142B6
:101FD000019000F0C180FFE7049801680120B82259
:101FE000C4F202029142019000F0B680FFE704982B
:101FF0000168012040F21042C4F2020291420190B5
:1020000000F0AA80FFE704980168012040F228420E
:10201000C4F202029142019000F09E80FFE7049812
:102020000168012040F24042C4F202029142019054
:1020300000F09280FFE704980168012040F25842C6
:10204000C4F202029142019000F08680FFE70498FA
:102050000168012040F27042C4F2020291420190F4
:102060007AD0FFE704980168012040F28842C4F268
:102070000202914201906FD0FFE7049801680120AD
:1020800040F2A042C4F202029142019064D0FFE704
:1020900004980168012040F2B842C4F20202914261
:1020A000019059D0FFE704980168012045F20842E9
:1020B000C5F60202914201904ED0FFE704980168F4
:1020C000012045F21C42C5F602029142019043D024
:1020D000FFE704980168012045F23042C5F602028C
:1020E0009142019038D0FFE704980168012045F241
:1020F0004442C5F60202914201902DD0FFE70498B8
:102100000168012045F25842C5F602029142019051
:1021100022D0FFE704980168012045F26C42C5F621
:1021200002029142019017D0FFE704980168012054
:1021300045F28042C5F60202914201900CD0FFE7C1
:10214000049800684AF66C31CAF2FD710844B0FA8E
:1021500080F040090190FFE70198C00728B3FFE72E
:102160000498016E086820F4807008600498806DFF
:1021700003900498C06D00F01F010120884003996E
:1021800048600498416E806E48600498C06E58B1F3
:10219000FFE70498C16E086820F480700860049816
:1021A000016F406F4860FFE7FFE70499012081F865
:1021B0003500FFE70499002081F83400FFE7049818
:1021C000006D20B1FFE70498016D8847FFE7FFE746
:1021D000FFE700208DF81700FFE79DF8170006B015
:1021E00080BD00000000000081B000900098406DAC
:1021F00001B070470000000080B590B00F90002043
:102200000B9040F20000C2F20040006848F2B511A5
:10221000C1F64E31A0FB0110800A0A900F98806D24
:1022200009900F98806D0890099800680E900898A2
:1022300000680D900F98016801201022C4F202027C
:102240009142079000F0A380FFE70F9801680120FA
:102250002822C4F202029142079000F09880FFE722
:102260000F98016801204022C4F2020291420790B7
:1022700000F08D80FFE70F98016801205822C4F21A
:1022800002029142079000F08280FFE70F980168F8
:1022900001207022C4F202029142079077D0FFE73A
:1022A0000F98016801208822C4F20202914207902F
:1022B0006DD0FFE70F9801680120A022C4F202024E
:1022C0009142079063D0FFE70F9801680120B82280
:1022D000C4F202029142079059D0FFE70F980168BB
:1022E000012040F21042C4F20202914207904ED007
:1022F000FFE70F980168012040F22842C4F2020271
:102300009142079043D0FFE70F980168012040F207
:102310004042C4F202029142079038D0FFE70F9882
:102320000168012040F25842C4F202029142079033
:102330002DD0FFE70F980168012040F27042C4F2EF
:1023400002029142079022D0FFE70F980168012016
:1023500040F28842C4F202029142079017D0FFE790
:102360000F980168012040F2A042C4F2020291429B
:1023700007900CD0FFE70F9800684FF64831CBF676
:10238000FD710844B0FA80F040090790FFE7079814
:10239000C007002800F01385FFE70E980F99C96D5C
:1023A00001F01F01C8400007002840F1B080FFE79E
:1023B0000F9800681021C4F20201884200F0818069
:1023C000FFE70F9800682821C4F20201884278D004
:1023D000FFE70F9800684021C4F20201884270D0E4
:1023E000FFE70F9800685821C4F20201884268D0C4
:1023F000FFE70F9800687021C4F20201884260D0A4
:10240000FFE70F9800688821C4F20201884258D083
:10241000FFE70F980068A021C4F20201884250D063
:10242000FFE70F980068B821C4F20201884248D043
:10243000FFE70F98006840F21041C4F202018842A1
:102440003FD0FFE70F98006840F22841C4F2020134
:10245000884236D0FFE70F98006840F24041C4F24E
:10246000020188422DD0FFE70F98006840F25841E2
:10247000C4F20201884224D0FFE70F98006840F2BE
:102480007041C4F2020188421BD0FFE70F98006838
:1024900040F28841C4F20201884212D0FFE70F984F
:1024A000006840F2A041C4F20201884209D0FFE76F
:1024B0000F98006840F2B841C4F20201884207D187
:1024C000FFE70F980068006800F00400069006E03F
:1024D0000F980068006800F008000690FFE7069873
:1024E000A0B1FFE70F980168086820F004000860B9
:1024F0000F98C06D00F01F0108208840099988607E
:102500000F99486D40F001004865FFE7FFE70E981E
:102510000F99C96D01F01F01C840C007002800F0E5
:10252000A980FFE70F9800681021C4F202018842D9
:1025300000F08180FFE70F9800682821C4F20201B3
:10254000884278D0FFE70F9800684021C4F202016A
:10255000884270D0FFE70F9800685821C4F202014A
:10256000884268D0FFE70F9800687021C4F202012A
:10257000884260D0FFE70F9800688821C4F202010A
:10258000884258D0FFE70F980068A021C4F20201EA
:10259000884250D0FFE70F980068B821C4F20201CA
:1025A000884248D0FFE70F98006840F21041C4F21B
:1025B000020188423FD0FFE70F98006840F22841AF
:1025C000C4F20201884236D0FFE70F98006840F25B
:1025D0004041C4F2020188422DD0FFE70F98006805
:1025E00040F25841C4F20201884224D0FFE70F981C
:1025F000006840F27041C4F2020188421BD0FFE73C
:102600000F98006840F28841C4F20201884212D05B
:10261000FFE70F98006840F2A041C4F2020188422F
:1026200009D0FFE70F98006840F2B841C4F20201F8
:10263000884207D1FFE70F980068406900F08000EA
:10264000059005E00F980068006800200590FFE7FE
:10265000059870B1FFE70F98C06D00F01F010120D1
:102660008840099988600F99486D40F002004865DC
:10267000FFE7FFE70E980F99C96D01F01F01C840F1
:102680004007002840F1A980FFE70F98006810215B
:10269000C4F20201884200F08180FFE70F980068D1
:1026A0002821C4F20201884278D0FFE70F98006821
:1026B0004021C4F20201884270D0FFE70F98006801
:1026C0005821C4F20201884268D0FFE70F980068E1
:1026D0007021C4F20201884260D0FFE70F980068C1
:1026E0008821C4F20201884258D0FFE70F980068A1
:1026F000A021C4F20201884250D0FFE70F98006881
:10270000B821C4F20201884248D0FFE70F98006860
:1027100040F21041C4F2020188423FD0FFE70F9817
:10272000006840F22841C4F20201884236D0FFE737
:102730000F98006840F24041C4F2020188422DD057
:10274000FFE70F98006840F25841C4F20201884246
:1027500024D0FFE70F98006840F27041C4F20201F4
:1027600088421BD0FFE70F98006840F28841C4F20E
:102770000201884212D0FFE70F98006840F2A041A2
:10278000C4F20201884209D0FFE70F98006840F2C6
:10279000B841C4F20201884207D1FFE70F980068F0
:1027A000006800F00200049005E00F9800680068DF
:1027B00000200490FFE7049870B1FFE70F98C06D08
:1027C00000F01F0104208840099988600F99486D26
:1027D00040F004004865FFE7FFE70E980F99C96DC8
:1027E00001F01F01C840C006002840F1DE80FFE76D
:1027F0000F9800681021C4F20201884200F0818025
:10280000FFE70F9800682821C4F20201884278D0BF
:10281000FFE70F9800684021C4F20201884270D09F
:10282000FFE70F9800685821C4F20201884268D07F
:10283000FFE70F9800687021C4F20201884260D05F
:10284000FFE70F9800688821C4F20201884258D03F
:10285000FFE70F980068A021C4F20201884250D01F
:10286000FFE70F980068B821C4F20201884248D0FF
:10287000FFE70F98006840F21041C4F2020188425D
:102880003FD0FFE70F98006840F22841C4F20201F0
:10289000884236D0FFE70F98006840F24041C4F20A
:1028A000020188422DD0FFE70F98006840F258419E
:1028B000C4F20201884224D0FFE70F98006840F27A
:1028C0007041C4F2020188421BD0FFE70F980068F4
:1028D00040F28841C4F20201884212D0FFE70F980B
:1028E000006840F2A041C4F20201884209D0FFE72B
:1028F0000F98006840F2B841C4F20201884207D143
:10290000FFE70F980068006800F00800039006E0F9
:102910000F980068006800F004000390FFE7039838
:10292000002841D0FFE70F98C06D00F01F01102074
:102930008840099988600F98006800684003002863
:102940001AD5FFE70F98006800680003002809D433
:10295000FFE70F98006C20B1FFE70F98016C8847E4
:10296000FFE708E00F98806C20B1FFE70F98816CBB
:102970008847FFE7FFE716E00F9800680068C0058A
:10298000002807D4FFE70F980168086820F00800C6
:102990000860FFE70F98006C20B1FFE70F98016C0B
:1029A0008847FFE7FFE7FFE7FFE70E980F99C96D3C
:1029B00001F01F01C8408006002840F12681FFE792
:1029C0000F9800681021C4F20201884200F0818053
:1029D000FFE70F9800682821C4F20201884278D0EE
:1029E000FFE70F9800684021C4F20201884270D0CE
:1029F000FFE70F9800685821C4F20201884268D0AE
:102A0000FFE70F9800687021C4F20201884260D08D
:102A1000FFE70F9800688821C4F20201884258D06D
:102A2000FFE70F980068A021C4F20201884250D04D
:102A3000FFE70F980068B821C4F20201884248D02D
:102A4000FFE70F98006840F21041C4F2020188428B
:102A50003FD0FFE70F98006840F22841C4F202011E
:102A6000884236D0FFE70F98006840F24041C4F238
:102A7000020188422DD0FFE70F98006840F25841CC
:102A8000C4F20201884224D0FFE70F98006840F2A8
:102A90007041C4F2020188421BD0FFE70F98006822
:102AA00040F28841C4F20201884212D0FFE70F9839
:102AB000006840F2A041C4F20201884209D0FFE759
:102AC0000F98006840F2B841C4F20201884207D171
:102AD000FFE70F980068006800F01000029006E021
:102AE0000F980068006800F002000290FFE702986B
:102AF000002800F08980FFE70F98C06D00F01F01EB
:102B000020208840099988600F9890F835000428A3
:102B100037D1FFE70F980168086820F016000860B9
:102B20000F980168486920F0800048610F98006C98
:102B300020B9FFE70F98806C38B1FFE70F98016864
:102B4000086820F008000860FFE70F98C06D00F0EB
:102B50001F013F208840099988600F99012081F862
:102B60003500FFE70F99002081F83400FFE70F9848
:102B7000006D20B1FFE70F98016D8847FFE700F077
:102B800019BC0F9800680068400300281AD5FFE7B9
:102B90000F98006800680003002809D4FFE70F9829
:102BA000406C20B1FFE70F98416C8847FFE708E0D1
:102BB0000F98C06B20B1FFE70F98C16B8847FFE704
:102BC000FFE720E00F9800680068C005002811D4D6
:102BD000FFE70F980168086820F0100008600F995F
:102BE000012081F83500FFE70F99002081F83400BB
:102BF000FFE7FFE70F98C06B20B1FFE70F98C16BAD
:102C00008847FFE7FFE7FFE7FFE70F98406D0028E1
:102C100000F0D480FFE70F98406DC007002800F057
:102C2000C480FFE70F99042081F835000F980068F1
:102C30001021C4F20201884200F08180FFE70F9862
:102C400000682821C4F20201884278D0FFE70F987B
:102C500000684021C4F20201884270D0FFE70F985B
:102C600000685821C4F20201884268D0FFE70F983B
:102C700000687021C4F20201884260D0FFE70F981B
:102C800000688821C4F20201884258D0FFE70F98FB
:102C90000068A021C4F20201884250D0FFE70F98DB
:102CA0000068B821C4F20201884248D0FFE70F98BB
:102CB000006840F21041C4F2020188423FD0FFE7B1
:102CC0000F98006840F22841C4F20201884236D0D1
:102CD000FFE70F98006840F24041C4F202018842C9
:102CE0002DD0FFE70F98006840F25841C4F202016E
:102CF000884224D0FFE70F98006840F27041C4F288
:102D0000020188421BD0FFE70F98006840F288411B
:102D1000C4F20201884212D0FFE70F98006840F227
:102D2000A041C4F20201884209D0FFE70F98006871
:102D300040F2B841C4F20201884207D1FFE70F9880
:102D40000168086820F00100086006E00F9801683B
:102D5000086820F001000860FFE7FFE70B980130EA
:102D60000B900A99884201D9FFE707E0FFE70F9827
:102D700000680068C0070028F0D1FFE70F980068DE
:102D80000068C00728B1FFE70F99032081F83500DC
:102D900004E00F99012081F83500FFE7FFE70F9964
:102DA000002081F83400FFE7FFE70F98C06C20B1E6
:102DB000FFE70F98C16C8847FFE7FFE7FAE20F983B
:102DC0000168012045F20842C5F6020291420190D5
:102DD0004ED0FFE70F980168012045F21C42C5F66E
:102DE00002029142019043D0FFE70F980168012051
:102DF00045F23042C5F602029142019038D0FFE719
:102E00000F980168012045F24442C5F60202914242
:102E100001902DD0FFE70F980168012045F258423C
:102E2000C5F602029142019022D0FFE70F98016897
:102E3000012045F26C42C5F602029142019017D082
:102E4000FFE70F980168012045F28042C5F60202B3
:102E5000914201900CD0FFE70F9800684AF66C3160
:102E6000CAF2FD710844B0FA80F040090190FFE712
:102E70000198C007002800F09B82FFE70F980068C8
:102E800000680C900D980F99C96D01F01F01C840A2
:102E90004007002840F1D780FFE79DF83000400749
:102EA000002840F1D080FFE70F98C06D00F01F01AF
:102EB00004208840089948609DF8310000060028E9
:102EC00018D5FFE79DF83200C00748B9FFE70F9813
:102ED000806C20B1FFE70F98816C8847FFE708E01E
:102EE0000F98006C20B1FFE70F98016C8847FFE74F
:102EF000FFE7A7E09DF830008006002800F19980E8
:102F0000FFE70F9800681021C4F20201884200F028
:102F10008180FFE70F9800682821C4F202018842EF
:102F200078D0FFE70F9800684021C4F20201884280
:102F300070D0FFE70F9800685821C4F20201884260
:102F400068D0FFE70F9800687021C4F20201884240
:102F500060D0FFE70F9800688821C4F20201884220
:102F600058D0FFE70F980068A021C4F20201884200
:102F700050D0FFE70F980068B821C4F202018842E0
:102F800048D0FFE70F98006840F21041C4F20201F8
:102F900088423FD0FFE70F98006840F22841C4F212
:102FA0000201884236D0FFE70F98006840F24041A6
:102FB000C4F2020188422DD0FFE70F98006840F26A
:102FC0005841C4F20201884224D0FFE70F980068FC
:102FD00040F27041C4F2020188421BD0FFE70F9813
:102FE000006840F28841C4F20201884212D0FFE733
:102FF0000F98006840F2A041C4F20201884209D053
:10300000FFE70F98006840F2B841C4F2020188421D
:1030100007D1FFE70F980168086820F008000860F2
:1030200006E00F980168086820F004000860FFE7D8
:10303000FFE70F98006C20B1FFE70F98016C8847FD
:10304000FFE7FFE7B3E10D980F99C96D01F01F018C
:10305000C8408007002840F1E180FFE79DF830007C
:103060008007002840F1DA80FFE70F98C06D00F07C
:103070001F0102208840089948609DF83100000631
:10308000002818D5FFE79DF83200C00748B9FFE7D0
:103090000F98406C20B1FFE70F98416C8847FFE71D
:1030A00008E00F98C06B20B1FFE70F98C16B88470D
:1030B000FFE7FFE7B1E09DF830008006002800F14F
:1030C000A380FFE70F9800681021C4F20201884234
:1030D00000F08180FFE70F9800682821C4F2020108
:1030E000884278D0FFE70F9800684021C4F20201BF
:1030F000884270D0FFE70F9800685821C4F202019F
:10310000884268D0FFE70F9800687021C4F202017E
:10311000884260D0FFE70F9800688821C4F202015E
:10312000884258D0FFE70F980068A021C4F202013E
:10313000884250D0FFE70F980068B821C4F202011E
:10314000884248D0FFE70F98006840F21041C4F26F
:10315000020188423FD0FFE70F98006840F2284103
:10316000C4F20201884236D0FFE70F98006840F2AF
:103170004041C4F2020188422DD0FFE70F98006859
:1031800040F25841C4F20201884224D0FFE70F9870
:10319000006840F27041C4F2020188421BD0FFE790
:1031A0000F98006840F28841C4F20201884212D0B0
:1031B000FFE70F98006840F2A041C4F20201884284
:1031C00009D0FFE70F98006840F2B841C4F202014D
:1031D000884207D1FFE70F980168086820F01400C3
:1031E000086006E00F980168086820F00A0008608F
:1031F000FFE70F99012081F83500FFE70F990020C4
:1032000081F83400FFE7FFE70F98C06B20B1FFE7BC
:103210000F98C16B8847FFE7FFE7C7E00D980F994C
:10322000C96D01F01F01C8400007002840F1BC80B3
:10323000FFE79DF830000007002840F1B580FFE768
:103240000F9800681021C4F20201884200F08180CA
:10325000FFE70F9800682821C4F20201884278D065
:10326000FFE70F9800684021C4F20201884270D045
:10327000FFE70F9800685821C4F20201884268D025
:10328000FFE70F9800687021C4F20201884260D005
:10329000FFE70F9800688821C4F20201884258D0E5
:1032A000FFE70F980068A021C4F20201884250D0C5
:1032B000FFE70F980068B821C4F20201884248D0A5
:1032C000FFE70F98006840F21041C4F20201884203
:1032D0003FD0FFE70F98006840F22841C4F2020196
:1032E000884236D0FFE70F98006840F24041C4F2B0
:1032F000020188422DD0FFE70F98006840F2584144
:10330000C4F20201884224D0FFE70F98006840F21F
:103310007041C4F2020188421BD0FFE70F98006899
:1033200040F28841C4F20201884212D0FFE70F98B0
:10333000006840F2A041C4F20201884209D0FFE7D0
:103340000F98006840F2B841C4F20201884207D1E8
:10335000FFE70F980168086820F01C00086006E08D
:103360000F980168086820F00E000860FFE70F98CA
:10337000C06D00F01F01012000FA01F1089A5160B0
:103380000F9948650F9981F83500FFE70F990020E4
:1033900081F83400FFE70F98C06C20B1FFE70F9869
:1033A000C16C8847FFE700E0FFE7FFE7FFE700E0C9
:1033B000FFE7FFE710B080BD10B58EB00C9001F0B4
:1033C000EBFC0A900C9828B9FFE701208DF8370034
:1033D00000F09FBC0C98016801201022C4F2020288
:1033E0009142079000F0A380FFE70C98016801204C
:1033F0002822C4F202029142079000F09880FFE771
:103400000C98016801204022C4F202029142079008
:1034100000F08D80FFE70C98016801205822C4F26B
:1034200002029142079000F08280FFE70C98016849
:1034300001207022C4F202029142079077D0FFE788
:103440000C98016801208822C4F202029142079080
:103450006DD0FFE70C9801680120A022C4F202029F
:103460009142079063D0FFE70C9801680120B822D1
:10347000C4F202029142079059D0FFE70C9801680C
:10348000012040F21042C4F20202914207904ED055
:10349000FFE70C980168012040F22842C4F20202C2
:1034A0009142079043D0FFE70C980168012040F259
:1034B0004042C4F202029142079038D0FFE70C98D4
:1034C0000168012040F25842C4F202029142079082
:1034D0002DD0FFE70C980168012040F27042C4F241
:1034E00002029142079022D0FFE70C980168012068
:1034F00040F28842C4F202029142079017D0FFE7DF
:103500000C980168012040F2A042C4F202029142EC
:1035100007900CD0FFE70C9800684FF64831CBF6C7
:10352000FD710844B0FA80F040090790FFE7079862
:10353000C007002800F07981FFE70C98406A08B1C5
:10354000FFE7FFE70C99022081F83500FFE70C99AF
:10355000002081F83400FFE70C9800681021C4F2C5
:103560000201884200F08180FFE70C980068282162
:10357000C4F20201884278D0FFE70C98006840212D
:10358000C4F20201884270D0FFE70C98006858210D
:10359000C4F20201884268D0FFE70C9800687021ED
:1035A000C4F20201884260D0FFE70C9800688821CD
:1035B000C4F20201884258D0FFE70C980068A021AD
:1035C000C4F20201884250D0FFE70C980068B8218D
:1035D000C4F20201884248D0FFE70C98006840F22C
:1035E0001041C4F2020188423FD0FFE70C98006806
:1035F00040F22841C4F20201884236D0FFE70C981D
:10360000006840F24041C4F2020188422DD0FFE739
:103610000C98006840F25841C4F20201884224D05C
:10362000FFE70C98006840F27041C4F20201884242
:103630001BD0FFE70C98006840F28841C4F20201F9
:10364000884212D0FFE70C98006840F2A041C4F213
:103650000201884209D0FFE70C98006840F2B841A7
:10366000C4F20201884207D1FFE70C98016808689C
:1036700020F00100086006E00C980168086820F05E
:1036800001000860FFE7FFE70C9800680068C007CA
:1036900098B1FFE701F080FB0A99401A06280BD386
:1036A000FFE70C99202048650C99032081F835002C
:1036B00001208DF837002CE3E6E70C9800680068DD
:1036C0000B900B9848F23F01CFF6106108400B9029
:1036D0000C998868D1F80CC00B694A6940EA0C0063
:1036E000184310438A691043CA691043096A0143A9
:1036F0000B9808430B900C98406A042808D1FFE708
:103700000C99C86A096B01430B9808430B90FFE7BB
:1037100041F20000C5F6004000684FF6FF71884393
:10372000B0F1005F40D3FFE70C984068292807D329
:10373000FFE70C98416801202F2906902AD3FFE764
:103740000C9840683F2807D3FFE70C984168012098
:10375000432906901ED3FFE70C984068472807D3FB
:10376000FFE70C98416801204929069012D3FFE732
:103770000C98416800204F29059008D3FFE70C986A
:1037800041680020532938BF01200590FFE70598C4
:103790000690FFE70698C00728B1FFE70B9840F4B2
:1037A00080100B90FFE7FFE70B980C990968086001
:1037B0000C98006840690B900B9820F007000B9064
:1037C0000C98416A0B9808430B900C98406A0428A7
:1037D0001AD1FFE70C98816A0B9808430B900C985C
:1037E000C06A80B1FFE70C98FDF762F850B1FFE7BF
:1037F0000C99402048650C99012081F835008DF81E
:10380000370086E2FFE7FFE70B980C9909684861EB
:103810000C98FCF711FE09900C98C06D00F01F0188
:103820003F2088400999886026E10C9801680120B2
:1038300045F20842C5F60202914204904ED0FFE7DD
:103840000C980168012045F21C42C5F60202914223
:10385000049043D0FFE70C980168012045F2304204
:10386000C5F602029142049038D0FFE70C98016837
:10387000012045F24442C5F60202914204902DD047
:10388000FFE70C980168012045F25842C5F6020294
:103890009142049022D0FFE70C980168012045F284
:1038A0006C42C5F602029142049017D0FFE70C98D3
:1038B0000168012045F28042C5F60202914204905F
:1038C0000CD0FFE70C9800684AF66C31CAF2FD7123
:1038D0000844B0FA80F040090490FFE70498C0075C
:1038E000002800F0BD80FFE70C980168012045F238
:1038F0000842C5F60202914203904ED0FFE70C98B1
:103900000168012045F21C42C5F602029142039073
:1039100043D0FFE70C980168012045F23042C5F61C
:1039200002029142039038D0FFE70C980168012011
:1039300045F24442C5F60202914203902DD0FFE7C2
:103940000C980168012045F25842C5F602029142E6
:10395000039022D0FFE70C980168012045F26C42E9
:10396000C5F602029142039017D0FFE70C98016858
:10397000012045F28042C5F60202914203900CD02C
:10398000FFE70C9800684AF66C31CAF2FD710844F2
:10399000B0FA80F040090390FFE70398C00708B130
:1039A000FFE7FFE70C99022081F83500FFE70C994B
:1039B000002081F83400FFE70C98006800680B9045
:1039C0000B986FF310100B900C988068402803D16F
:1039D000FFE71020029008E00C9880688038B0FA69
:1039E00080F0400980030290FFE702980C99CA68B2
:1039F0000B69D1F814C0D1F818E0CC694EEA040E76
:103A00004CEA0E0C43EA0C031A4340EAD200096A5E
:103A100040EA11110B9808430B900B980C99096818
:103A200008600C9908684AF6F832CAF2FD72104430
:103A30004CF6CD42CCF6CC42A0FB02026FF0030064
:103A400000EA9200C8650C98FCF7F6FC08900C9808
:103A5000C06D00F01F0101208840089948600AE00D
:103A60000C99402048650C99032081F8350001200D
:103A70008DF837004DE1FFE70C9801680120102216
:103A8000C4F202029142019000F00381FFE70C981A
:103A9000016801202822C4F202029142019000F044
:103AA000F880FFE70C98016801204022C4F202026E
:103AB0009142019000F0ED80FFE70C980168012031
:103AC0005822C4F202029142019000F0E280FFE726
:103AD0000C98016801207022C4F202029142019008
:103AE00000F0D780FFE70C98016801208822C4F21B
:103AF00002029142019000F0CC80FFE70C9801682F
:103B00000120A022C4F202029142019000F0C18083
:103B1000FFE70C9801680120B822C4F2020291422A
:103B2000019000F0B680FFE70C980168012040F298
:103B30001042C4F202029142019000F0AA80FFE715
:103B40000C980168012040F22842C4F2020291421E
:103B5000019000F09E80FFE70C980168012040F280
:103B60004042C4F202029142019000F09280FFE7CD
:103B70000C980168012040F25842C4F202029142BE
:103B8000019000F08680FFE70C980168012040F268
:103B90007042C4F20202914201907AD0FFE70C9881
:103BA0000168012040F28842C4F202029142019071
:103BB0006FD0FFE70C980168012040F2A042C4F2E8
:103BC00002029142019064D0FFE70C980168012045
:103BD00040F2B842C4F202029142019059D0FFE78C
:103BE0000C980168012045F20842C5F60202914294
:103BF00001904ED0FFE70C980168012045F21C426D
:103C0000C5F602029142019043D0FFE70C9801688B
:103C1000012045F23042C5F602029142019038D0AF
:103C2000FFE70C980168012045F24442C5F6020204
:103C3000914201902DD0FFE70C980168012045F2D8
:103C40005842C5F602029142019022D0FFE70C983B
:103C50000168012045F26C42C5F6020291420190D2
:103C600017D0FFE70C980168012045F28042C5F6A5
:103C70000202914201900CD0FFE70C9800684AF6CE
:103C80006C31CAF2FD710844B0FA80F0400901902D
:103C9000FFE70198C00790B3FFE70C98FCF7B4FC6E
:103CA0000C988068802804D1FFE70C9900204860B8
:103CB000FFE70C990879096E08600C98416E806ED8
:103CC00048600C98406888B1FFE70C984068082865
:103CD0000CD8FFE70C98FCF753FD0C98C16E002040
:103CE00008600C98016F406F486007E00C99002055
:103CF000C8660C9908670C994867FFE7FFE70C99BD
:103D0000002048650C9A012182F835108DF83700A3
:103D1000FFE79DF837000EB010BD00000000000066
:103D200080B588B0069005910492039300208DF829
:103D30000B00069820B9FFE701208DF81F006CE307
:103D4000FFE7069890F83400012804D1FFE702202D
:103D50008DF81F0061E30699012081F83400FFE728
:103D6000FFE7069890F83500012840F04383FFE70D
:103D70000699022081F835000699002048650698CA
:103D800000681021C4F20201884200F08180FFE740
:103D9000069800682821C4F20201884278D0FFE723
:103DA000069800684021C4F20201884270D0FFE703
:103DB000069800685821C4F20201884268D0FFE7E3
:103DC000069800687021C4F20201884260D0FFE7C3
:103DD000069800688821C4F20201884258D0FFE7A3
:103DE00006980068A021C4F20201884250D0FFE783
:103DF00006980068B821C4F20201884248D0FFE763
:103E00000698006840F21041C4F2020188423FD097
:103E1000FFE70698006840F22841C4F20201884298
:103E200036D0FFE70698006840F24041C4F2020134
:103E300088422DD0FFE70698006840F25841C4F24E
:103E40000201884224D0FFE70698006840F27041E2
:103E5000C4F2020188421BD0FFE70698006840F2D6
:103E60008841C4F20201884212D0FFE70698006838
:103E700040F2A041C4F20201884209D0FFE706984F
:103E8000006840F2B841C4F20201884207D1FFE75E
:103E900006980168086820F00100086006E00698AE
:103EA0000168086820F001000860FFE7069805999E
:103EB000049A039BFCF774FD069801680120102208
:103EC000C4F202029142019000F0A380FFE706983D
:103ED000016801202822C4F202029142019000F000
:103EE0009880FFE70698016801204022C4F2020290
:103EF0009142019000F08D80FFE706980168012053
:103F00005822C4F202029142019000F08280FFE741
:103F10000698016801207022C4F2020291420190C9
:103F200077D0FFE70698016801208822C4F20202D8
:103F3000914201906DD0FFE7069801680120A02210
:103F4000C4F202029142019063D0FFE70698016833
:103F50000120B822C4F202029142019059D0FFE739
:103F600006980168012040F21042C4F20202914218
:103F700001904ED0FFE706980168012040F22842E8
:103F8000C4F202029142019043D0FFE70698016813
:103F9000012040F24042C4F202029142019038D026
:103FA000FFE706980168012040F25842C4F202027D
:103FB000914201902DD0FFE706980168012040F260
:103FC0007042C4F202029142019022D0FFE70698AB
:103FD0000168012040F28842C4F20202914201903D
:103FE00017D0FFE706980168012040F2A042C4F212
:103FF0000202914201900CD0FFE7069800684FF64C
:104000004831CBF6FD710844B0FA80F040090190C8
:10401000FFE70198C007A8B1FFE7069800680068AD
:104020000B2161F344000699096808600698006C4A
:1040300038B1FFE706980168086840F0080008609A
:10404000FFE714E0069800680068052161F343006B
:104050000699096808600698006C38B1FFE7069871
:104060000168086840F004000860FFE7FFE7069871
:10407000016801201022C4F202029142009000F077
:104080000381FFE70698016801202822C4F202029A
:104090009142009000F0F880FFE706980168012047
:1040A0004022C4F202029142009000F0ED80FFE74E
:1040B0000698016801205822C4F202029142009041
:1040C00000F0E280FFE70698016801207022C4F248
:1040D00002029142009000F0D780FFE70698016845
:1040E00001208822C4F202029142009000F0CC80AC
:1040F000FFE7069801680120A022C4F20202914263
:10410000009000F0C180FFE7069801680120B82206
:10411000C4F202029142009000F0B680FFE70698D8
:104120000168012040F21042C4F202029142009064
:1041300000F0AA80FFE706980168012040F22842BB
:10414000C4F202029142009000F09E80FFE70698C0
:104150000168012040F24042C4F202029142009004
:1041600000F09280FFE706980168012040F2584273
:10417000C4F202029142009000F08680FFE70698A8
:104180000168012040F27042C4F2020291420090A4
:104190007AD0FFE706980168012040F28842C4F215
:1041A0000202914200906FD0FFE70698016801205B
:1041B00040F2A042C4F202029142009064D0FFE7B4
:1041C00006980168012040F2B842C4F2020291420E
:1041D000009059D0FFE706980168012045F2084297
:1041E000C5F60202914200904ED0FFE706980168A2
:1041F000012045F21C42C5F602029142009043D0D4
:10420000FFE706980168012045F23042C5F6020238
:104210009142009038D0FFE706980168012045F2EE
:104220004442C5F60202914200902DD0FFE7069865
:104230000168012045F25842C5F602029142009001
:1042400022D0FFE706980168012045F26C42C5F6CE
:1042500002029142009017D0FFE706980168012002
:1042600045F28042C5F60202914200900CD0FFE771
:10427000069800684AF66C31CAF2FD710844B0FA3B
:1042800080F040090090FFE70098C007D0B1FFE739
:104290000698006E0068C003002807D5FFE706985F
:1042A000016E086840F480700860FFE70698C06EF1
:1042B00038B1FFE70698C16E086840F48070086066
:1042C000FFE7FFE7069800681021C4F20201884268
:1042D00000F08180FFE7069800682821C4F20201FF
:1042E000884278D0FFE7069800684021C4F20201B6
:1042F000884270D0FFE7069800685821C4F2020196
:10430000884268D0FFE7069800687021C4F2020175
:10431000884260D0FFE7069800688821C4F2020155
:10432000884258D0FFE706980068A021C4F2020135
:10433000884250D0FFE706980068B821C4F2020115
:10434000884248D0FFE70698006840F21041C4F266
:10435000020188423FD0FFE70698006840F22841FA
:10436000C4F20201884236D0FFE70698006840F2A6
:104370004041C4F2020188422DD0FFE70698006850
:1043800040F25841C4F20201884224D0FFE7069867
:10439000006840F27041C4F2020188421BD0FFE77E
:1043A0000698006840F28841C4F20201884212D0A7
:1043B000FFE70698006840F2A041C4F2020188427B
:1043C00009D0FFE70698006840F2B841C4F2020144
:1043D000884207D1FFE706980168086840F00100AD
:1043E000086006E006980168086840F0010008606F
:1043F000FFE70DE006994FF400604865FFE7069976
:10440000002081F83400FFE701208DF80B00FFE762
:104410009DF80B008DF81F00FFE79DF81F0008B006
:1044200080BD00000000000080B598B016904DF2ED
:10443000EC71C0F6000101A84C22FBF77EFF169834
:1044400020B9FFE701208DF85F00D9E116980068D8
:104450004AF20001C4F20001884206D1FFE7169932
:10446000086800F580704860FFE716988068B0F52E
:10447000407F01D1FFE7FFE71698006C08B1FFE726
:10448000FFE71698806C08B1FFE7FFE71698006D0C
:1044900008B1FFE7FFE71698006E08B1FFE7FFE7F6
:1044A0001699C86D096E084408B1FFE7FFE7169832
:1044B00090F8980040B9FFE71699002081F899001C
:1044C000169800F0A1F9FFE716980168886920F0B6
:1044D0001000886100F060FC1590FFE716980068F6
:1044E00080690007002817D5FFE700F055FC1599F3
:1044F000401A0B280FD3FFE71699D1F89C0040F023
:104500000100C1F89C001699032081F89800012051
:104510008DF85F0074E1E1E716980168886940F062
:104520000100886100F038FC1590FFE716980068DC
:104530008069C007B8B9FFE700F02EFC1599401A52
:104540000B280FD3FFE71699D1F89C0040F001002B
:10455000C1F89C001699032081F8980001208DF87D
:104560005F004DE1E2E716980168886940F00200BB
:1045700088611698007C012807D1FFE7169801682A
:10458000886920F04000886106E016980168886913
:1045900040F040008861FFE71698407C012807D171
:1045A000FFE716980168886940F48040886106E05A
:1045B00016980168886920F480408861FFE71698A2
:1045C000807C012807D1FFE716980168886920F4EC
:1045D0008050886106E016980168886940F4805030
:1045E0008861FFE716980068806920F44070169A89
:1045F000116892681043886116980168886920F0F4
:10460000A400886116980168086920F0100008610C
:104610001698C068012807D1FFE7169801688869D5
:1046200040F0040088612BE01698C06830B3FFE7C3
:104630001698C068022819D0FFE7169801688869A3
:1046400040F08000886116980168086940F0100009
:1046500008611698C068032807D1FFE7169801681B
:10466000886940F020008861FFE706E0169801683D
:10467000886940F020008861FFE700E0FFE7FFE77E
:10468000169A116853699069D2F81CE0A0F1010CE8
:104690006FF0FF0000EB0E2040EA4C60126A013A16
:1046A00010430022CFF6FF7202EB03421043C861B1
:1046B00016988068B0F5407F1CD1FFE7169A116804
:1046C000536A906AD2F82CE001386FF0FF0C0CEBC3
:1046D0000E2C40EA0C00D2F830C06FF00F0202EB53
:1046E0000C1210430022CFF6FF7202EB034210437C
:1046F000C860FFE71698006E48B1FFE7169801689A
:10470000426ED1F8C0001043C1F8C000FFE716990F
:10471000C86D096E084480B1FFE716980068D0F8AC
:10472000C80020F00700169A1168936E01AA52F88B
:1047300023201043C1F8C800FFE71698006C80B131
:10474000FFE716980068D0F8BC0020F00700169A22
:104750001168536C01AA52F823201043C1F8BC0021
:10476000FFE71698806C88B1FFE716980068D0F8CC
:10477000BC0020F07000169A1168D36C01AA52F8A0
:10478000232040EA0210C1F8BC00FFE71698006D34
:1047900088B1FFE716980068D0F8BC0020F4E0600C
:1047A000169A1168536D01AA52F8232040EA02209C
:1047B000C1F8BC00FFE7169800684AF20001C4F295
:1047C0000001884207D1FFE716984168886820F009
:1047D00003008860FFE716990020C1F8940016993D
:1047E000C1F89C001699012081F898001698FCF7F2
:1047F00083FB8DF853009DF853008DF85F00FFE7B1
:104800009DF85F0018B080BD80B5C0B03F9000201B
:104810003E903D903C903B903A900AA8C021FBF717
:10482000A5FD3F9800684AF20001C4F200018842E9
:104830006FD1FFE700200B904FF400410A912690C2
:104840000AA801F05DF918B1FFE7FCF739FBFFE7B3
:1048500040F21000C2F200400168013101600068BE
:10486000012810D1FFE7FFE744F2EC40C5F6020053
:10487000016841F480710160006800F48070099063
:104880000998FFE7FFE7FFE744F2E040C5F60200C2
:10489000016841F480710160006800F48070089044
:1048A0000898FFE7FFE744F2E040C5F60200016820
:1048B00041F080010160006800F0800007900798D7
:1048C000FFE74FF400703A90022001903B900020E7
:1048D00002903C903D90092003903E9042F20000EF
:1048E000C5F602003AA9049100F06AF8019B029A09
:1048F000039804994FF4005CCDF8E8C03B933C92D8
:104900003D923E9041F60040C5F6020000F058F896
:1049100053E03F9800684AF20041C4F20001884227
:104920004AD1FFE700200B904FF400410A912690F6
:104930000AA801F0E5F818B1FFE7FCF7C1FAFFE7B4
:1049400040F21000C2F200400168013101600068CD
:10495000012810D1FFE7FFE744F2EC40C5F6020062
:10496000016841F480710160006800F48070069075
:104970000698FFE7FFE7FFE744F2E040C5F60200D4
:10498000016841F002010160006800F0020005903A
:104990000598FFE74FF440503A9002203B900020EA
:1049A0003C903D9009203E9040F20040C5F6020048
:1049B0003AA900F005F8FFE7FFE740B080BD00002E
:1049C00090B00F900E9100200D908020C5F6000051
:1049D0000A90FFE70E9800680D99C840002800F083
:1049E000CF81FFE70E9800680D9A012191400840A1
:1049F0000C900C98002800F0BF81FFE70E984068EB
:104A000000F00300012807D0FFE70E98406800F08F
:104A1000030002282FD1FFE70F9880680B900D98B4
:104A20004100032000FA01F10B9888430B900E9887
:104A3000C0680D99490000FA01F10B9808430B90EA
:104A40000B980F9988600F9840680B900D99012082
:104A500000FA01F10B9888430B900E984068C0F360
:104A600000100D9900FA01F10B9808430B900B9878
:104A70000F994860FFE70E98406800F00300032894
:104A800018D0FFE70F98C0680B900D9841000320E5
:104A900000FA01F10B9888430B900E9880680D99ED
:104AA000490000FA01F10B9808430B900B980F99FD
:104AB000C860FFE70E98406800F00300022826D186
:104AC000FFE70F980D996FF0030202EA51010844C5
:104AD000006A0B900D9800F0070081000F2000FA8B
:104AE00001F10B9888430B900E9800690D9901F025
:104AF0000701890000FA01F10B9808430B900B980D
:104B00000F990D9B02EA530211440862FFE70F98C8
:104B100000680B900D984100032000FA01F10B98FA
:104B200088430B900E98406800F003000D994900EF
:104B300000FA01F10B9808430B900B980F9908604D
:104B40000E9880798007002800F01581FFE7FFE7C5
:104B500044F2F440C5F60200016841F00201016030
:104B6000006800F0020009900998FFE70D9820F016
:104B7000030040F20841C5F6000140580B900D9823
:104B800000F0030081000F2000FA01F10B98884328
:104B90000B900F980021C5F60201884203D1FFE770
:104BA000002008907AE00F9840F20041C5F602011B
:104BB000884203D1FFE7012007906CE00F9840F690
:104BC0000001C5F60201884203D1FFE702200690EA
:104BD0005EE00F9840F60041C5F60201884203D11D
:104BE000FFE70320059050E00F9841F20001C5F661
:104BF0000201884203D1FFE70420049042E00F98AD
:104C000041F20041C5F60201884203D1FFE70520C9
:104C1000039034E00F9841F60001C5F60201884286
:104C200003D1FFE70620029026E00F9841F60041ED
:104C3000C5F60201884203D1FFE70720019018E082
:104C40000F9842F20001C5F60201884203D1FFE746
:104C5000082000900AE00F9942F20042C5F60202D5
:104C60000A20914208BF09200090FFE700980190B8
:104C7000FFE701980290FFE702980390FFE703988F
:104C80000490FFE704980590FFE705980690FFE77A
:104C900006980790FFE707980890FFE708980D9996
:104CA00001F00301890000FA01F10B9808430B9011
:104CB0000B980D9921F0030140F20842C5F600025D
:104CC00088504FF0B04000680B900C990B988843C7
:104CD0000B900E988079C006002805D5FFE70C9947
:104CE0000B9808430B90FFE70B984FF0B04108601A
:104CF0000420C5F6000000680B900C990B988843BF
:104D00000B900E9880798006002805D5FFE70C9956
:104D10000B9808430B90FFE70B980421C5F60001A0
:104D200008600A9840680B900C990B9888430B9088
:104D30000E9880798007002805D5FFE70C990B981D
:104D400008430B90FFE70B980A9948600A9800689F
:104D50000B900C990B9888430B900E988079C007A4
:104D600028B1FFE70C990B9808430B90FFE70B98CD
:104D70000A990860FFE7FFE70D9801300D9029E6DA
:104D800010B070470000000041F20000C5F600407E
:104D90000068000C7047000040F6D060C2F200408E
:104DA000006870470000000083B0019000910198F6
:104DB00090F8410020283BD1FFE7FFE7019890F8E9
:104DC0004000012804D1FFE702208DF80B0033E0FA
:104DD0000199012081F84000FFE7FFE701992420B5
:104DE00081F8410001980168086820F0010008601E
:104DF00001980168086820F480500860009A0198C2
:104E0000016808681043086001980168086840F06C
:104E1000010008600199202081F84100FFE7019915
:104E2000002081F84000FFE700208DF80B0003E030
:104E300002208DF80B00FFE79DF80B0003B07047D0
:104E400084B002900191029890F84100202840D14E
:104E5000FFE7FFE7029890F84000012804D1FFE740
:104E600002208DF80F0038E00299012081F84000FF
:104E7000FFE7FFE70299242081F8410002980168CA
:104E8000086820F00100086002980068006800903F
:104E9000009820F4706000900199009840EA012089
:104EA00000900098029909680860029801680868F3
:104EB00040F0010008600299202081F84100FFE7DE
:104EC0000299002081F84000FFE700208DF80F00D4
:104ED00003E002208DF80F00FFE79DF80F0004B0FB
:104EE000704700000000000080B582B0009000987C
:104EF00020B9FFE701208DF807007BE0009890F8CB
:104F0000410040B9FFE70099002081F84000009877
:104F100000F076F8FFE70099242081F8410000981E
:104F20000168086820F00100086000980168406886
:104F300020F07060086100980168886820F40040E3
:104F400088600098C068012807D1FFE700980168D1
:104F5000806840F40040886006E00098016880683E
:104F600040F404408860FFE70098C068022807D139
:104F7000FFE700980168486840F40060486006E078
:104F800000980168486820F400604860FFE70098D6
:104F90000168486848F20002C0F2002210434860ED
:104FA00000980168C86820F40040C860009A116841
:104FB000106953699269184340EA0220C860009A58
:104FC0001168D069126A1043086000980168086887
:104FD00040F001000860009900204864009A2021F8
:104FE00082F8411000990863009981F842008DF819
:104FF0000700FFE79DF8070002B080BD0000000039
:1050000080B5BEB03D9000203C903B903A903990E6
:10501000389008A8C021FBF7A9F93D98006845F22F
:105020000041C4F2000188423CD1FFE70020099012
:1050300008210891299008A800F062FD18B1FFE747
:10504000FBF73EFFFFE7FFE744F2E040C5F6020052
:10505000016841F002010160006800F00200079061
:105060000798FFE7C02038901220399000203A902E
:105070003B9004203C9040F20040C5F6020038A965
:10508000FFF79EFCFFE744F2E840C5F60200016826
:1050900041F400110160006800F4001006900698C9
:1050A000FFE7D3E03D98006845F60001C4F2000137
:1050B00088423CD1FFE700200990082108912990FF
:1050C00008A800F01DFD18B1FFE7FBF7F9FEFFE7A8
:1050D000FFE744F2E040C5F60200016841F020011C
:1050E0000160006800F0200005900598FFE70320AC
:1050F00038901220399000203A903B9004203C9048
:1051000041F20040C5F6020038A9FFF759FCFFE75D
:1051100044F2E840C5F60200016841F480010160F4
:10512000006800F4800004900498FFE78DE03D984B
:10513000006845F60041C4F2000188423DD1FFE716
:105140000020099008210891299008A800F0D8FCB7
:1051500018B1FFE7FBF7B4FEFFE7FFE744F2E040DA
:10516000C5F60200016841F080010160006800F0AE
:10517000800003900398FFE74FF4C070389012202E
:10518000399000203A903B9004203C9041F600403A
:10519000C5F6020038A9FFF713FCFFE744F2E84028
:1051A000C5F60200016841F400010160006800F4E6
:1051B000000002900298FFE746E03D98006841F643
:1051C0000041C5F6000188423DD1FFE7002009906B
:1051D000102108912E9008A800F092FC18B1FFE76A
:1051E000FBF76EFEFFE7FFE744F2E040C5F6020082
:1051F000016841F020010160006800F0200001908A
:105200000198FFE74FF44040389012203990002079
:105210003A903B9004203C9041F20040C5F60200D9
:1052200038A9FFF7CDFBFFE744F2F440C5F60200D2
:10523000016841F080010160006800F0800000908A
:105240000098FFE7FFE7FFE7FFE7FFE73EB080BD1D
:1052500040F20800C2F20040027840F6D061C2F28B
:10526000004108681044086070470000000000001A
:1052700080B582B0032000F023F901F031FF44F241
:105280001842C5F602021168C1F303234DF6380136
:10529000C0F60001CB5C03F01F03D84000900098DB
:1052A000126802F00F02895C01F01F01C84040F251
:1052B0000401C2F200410860009840F20001C2F20D
:1052C000004108600F2000F013F820B1FFE7012033
:1052D0008DF8070005E000F0BBF800208DF807000E
:1052E000FFE79DF8070002B080BD0000000000004D
:1052F00080B582B0009040F20800C2F20040007811
:1053000020B9FFE701208DF8070030E040F20000EF
:10531000C2F20040006840F20801C2F200410A787F
:105320004FF47A71B1FBF2F1B0FBF1F003F0A0F9A8
:1053300020B1FFE701208DF8070018E000980F2842
:105340000DD8FFE700994FF0FF30002200F0A0F8E1
:10535000009840F20C01C2F20041086003E0012015
:105360008DF8070003E000208DF80700FFE79DF8A7
:10537000070002B080BD000010B581B00090009819
:1053800040784EF69851CEF2000108604EF6A051DA
:10539000CEF20001086820F0010008600098406823
:1053A0004EF69C52CEF200021060DDF800E09EF84E
:1053B0000C0000079EF80B2040EA02609EF80020D7
:1053C0009EF808309EF809C09EF80A4040EAC440A2
:1053D0009EF80D4040EA84409EF80E4040EA44406A
:1053E0009EF80FE040EA0E4040EA0C2040EA4300FD
:1053F0001043086001B010BDBFF35F8F4EF624511B
:10540000CEF20001086820F4803008604EF6945116
:10541000CEF200010020086070470000000000008C
:1054200081B00090009840F001004EF69451CEF209
:10543000000108604EF62451CEF20001086840F4E5
:1054400080300860BFF34F8FBFF36F8F01B070479C
:1054500081B0FFE744F2F440C5F60200016841F074
:1054600002010160006800F0020000900098FFE770
:1054700001B070470000000080B582B0ADF80600B2
:10548000BDF9060008F0E4F802B080BD000000009D
:1054900080B586B0ADF816000491039208F0F0F8DC
:1054A0000290BDF91600019002980499039A05F044
:1054B000BBFE0146019808F0EBF806B080BD000085
:1054C00080B582B00190019808F006F902B080BD65
:1054D00080B584B0029044F60C00C5F60200006866
:1054E00000F004010020B0EB910F13D1FFE744F668
:1054F0000C00C5F60200006800F00700029988421F
:1055000004D0FFE701208DF80F002EE000208DF879
:105510000F002AE044F60C01C5F60201086820F0ED
:105520000700029A10430860FFF736FC0190FFE77E
:1055300044F60400C5F60200006800F400510020A3
:10554000B0EB513F0DD1FFE7FFF726FC0199401A60
:10555000B0F57A7F04D9FFE701208DF80F0004E051
:10556000E6E700208DF80F00FFE79DF80F0004B07C
:1055700080BD00000000000080B501F05DFD44F238
:105580002041C5F602010968C1F302124DF6380147
:10559000C0F60001895C01F01F01C84080BD000019
:1055A00088B0079044F22840C5F60200016801F077
:1055B000030106910068C0F30530059044F22C40C9
:1055C000C5F602000068C0F300100490049844F28D
:1055D0003C41C5F60201096889B2C908484300EE9A
:1055E000100AB8EE400A8DED020A0598002800F076
:1055F0001B81FFE70698009048B1FFE7009801285B
:1056000069D0FFE70098022800F08980ABE044F2FF
:105610000040C5F60200006800F020010020B0EB59
:10562000511F33D0FFE744F20040C5F60200006886
:10563000C0F3C10149F20000C0F2D030C84003906D
:105640009DED030AB8EE400A9DED051AB8EE411A29
:1056500080EE010A44F23840C5F6020000686FF39C
:105660005F2001EE100AB8EE411A9DED022A9FED6F
:10567000743A82EE032A31EE021AB7EE002A31EEB6
:10568000021A20EE010A8DED010A23E09DED050AC4
:10569000B8EE401A9FED6C0A80EE010A44F23840E1
:1056A000C5F6020000686FF35F2001EE100AB8EE45
:1056B000411A9DED022A9FED623A82EE032A31EEF5
:1056C000021AB7EE002A31EE021A20EE010A8DED21
:1056D000010AFFE76BE09DED050AB8EE401A9FED69
:1056E000590A80EE010A44F23840C5F6020000680B
:1056F0006FF35F2001EE100AB8EE411A9DED022A09
:105700009FED4F3A82EE032A31EE021AB7EE002ADD
:1057100031EE021A20EE010A8DED010A47E09DEDFF
:10572000050AB8EE401A9FED450A80EE010A44F2E0
:105730003840C5F6020000686FF35F2001EE100AE2
:10574000B8EE411A9DED022A9FED3D3A82EE032A02
:1057500031EE021AB7EE002A31EE021A20EE010AEB
:105760008DED010A23E09DED050AB8EE401A9FED8C
:10577000350A80EE010A44F23840C5F6020000689E
:105780006FF35F2001EE100AB8EE411A9DED022A78
:105790009FED2B3A82EE032A31EE021AB7EE002A71
:1057A00031EE021A20EE010A8DED010AFFE79DEDB0
:1057B000010A44F23840C5F60200016889B2490A7C
:1057C00001EE101AB8EE411AB7EE002A31EE021AB5
:1057D00080EE010A0799BCEEC00A81ED000A9DED3A
:1057E000010A0168C1F3064101EE101AB8EE411A30
:1057F00031EE021A80EE010A0799BCEEC00A81ED73
:10580000010A9DED010A0068C0F3066001EE100A6E
:10581000B8EE411A31EE021A80EE010A0798BCEE8A
:10582000C00A80ED020A07E0079900200860079986
:10583000486007998860FFE708B07047001BB74BC6
:10584000000000460024744A0024744C000000004C
:1058500088B0079044F22840C5F60200016801F0C4
:10586000030106910068C0F30550059044F22C40F6
:10587000C5F602000068C0F300200490049844F2CA
:105880004441C5F60201096889B2C908484300EEDF
:10589000100AB8EE400A8DED020A0598002800F0C3
:1058A0001B81FFE70698009048B1FFE700980128A8
:1058B00069D0FFE70098022800F08980ABE044F24D
:1058C0000040C5F60200006800F020010020B0EBA7
:1058D000511F33D0FFE744F20040C5F602000068D4
:1058E000C0F3C10149F20000C0F2D030C8400390BB
:1058F0009DED030AB8EE400A9DED051AB8EE411A77
:1059000080EE010A44F24040C5F6020000686FF3E1
:105910005F2001EE100AB8EE411A9DED022A9FEDBC
:10592000743A82EE032A31EE021AB7EE002A31EE03
:10593000021A20EE010A8DED010A23E09DED050A11
:10594000B8EE401A9FED6C0A80EE010A44F2404026
:10595000C5F6020000686FF35F2001EE100AB8EE92
:10596000411A9DED022A9FED623A82EE032A31EE42
:10597000021AB7EE002A31EE021A20EE010A8DED6E
:10598000010AFFE76BE09DED050AB8EE401A9FEDB6
:10599000590A80EE010A44F24040C5F60200006850
:1059A0006FF35F2001EE100AB8EE411A9DED022A56
:1059B0009FED4F3A82EE032A31EE021AB7EE002A2B
:1059C00031EE021A20EE010A8DED010A47E09DED4D
:1059D000050AB8EE401A9FED450A80EE010A44F22E
:1059E0004040C5F6020000686FF35F2001EE100A28
:1059F000B8EE411A9DED022A9FED3D3A82EE032A50
:105A000031EE021AB7EE002A31EE021A20EE010A38
:105A10008DED010A23E09DED050AB8EE401A9FEDD9
:105A2000350A80EE010A44F24040C5F602000068E3
:105A30006FF35F2001EE100AB8EE411A9DED022AC5
:105A40009FED2B3A82EE032A31EE021AB7EE002ABE
:105A500031EE021A20EE010A8DED010AFFE79DEDFD
:105A6000010A44F24040C5F60200016889B2490AC1
:105A700001EE101AB8EE411AB7EE002A31EE021A02
:105A800080EE010A0799BCEEC00A81ED000A9DED87
:105A9000010A0168C1F3064101EE101AB8EE411A7D
:105AA00031EE021A80EE010A0799BCEEC00A81EDC0
:105AB000010A9DED010A0068C0F3066001EE100ABC
:105AC000B8EE411A31EE021A80EE010A0798BCEED8
:105AD000C00A80ED020A07E00799002008600799D4
