:020000040800F2
:10000000D07700205502000825650008CD4A000879
:1000100015650008F109000831840008000000009F
:1000200000000000000000000000000061710008F6
:100030003113000800000000C16700084174000887
:100040006F0200086F0200086F0200086F020008CC
:100050006F0200086F0200086F0200086F020008BC
:1000600035130008411300086F020008C911000889
:100070006F0200086F0200086F0200086F0200089C
:10008000D91100086F0200086F0200086F02000813
:100090006F0200086F0200086F0200086F0200087C
:1000A0006F0200086F0200086F0200086F0200086C
:1000B0006F0200086F0200086F0200086F0200085C
:1000C0006F0200086F0200086F0200086F0200084C
:1000D0006F0200086F0200086F0200086F0200083C
:1000E0006F0200086F0200086F0200086F0200082C
:1000F0006F0200086F0200086F0200086F0200081C
:100100006F0200086F0200086F0200086F0200080B
:100110006F0200086F0200086F0200086F020008FB
:100120006F0200086F0200086F0200086F020008EB
:100130006F0200086F0200086F0200086F020008DB
:100140006F0200086F0200086F0200086F020008CB
:100150006F0200086F0200086F0200086F020008BB
:100160006F0200086F0200086F0200086F020008AB
:100170006F0200086F0200086F0200080000000014
:100180006F0200086F02000800F002F800F052F859
:1001900014A696E8000CB244B344DA4501D100F04D
:1001A00049F8BAE80F000FA696E83000A5EB040561
:1001B00004EB0607AAEB0704A7F101074FEA1515A0
:1001C0004FEA3414A4F10104AC4201D300F032F838
:1001D00013F0010F18BFFB1A43F0010300F001F800
:1001E000DBE7184738EB000058EB0000103A24BF5B
:1001F00078C878C1FAD8520724BF30C830C144BF8C
:1002000004680C6070470000704700000023002461
:1002100000250026103A28BF78C1FBD8520728BF16
:1002200030C148BF0B6070471FB50BF00AFB1FBD04
:1002300010B510BD00F0E5F81146FFF7F5FF08F026
:100240005FFB00F003F903B4FFF7F2FF03BC00F01B
:1002500007F900000948804709480047FEE7FEE724
:10026000FEE7FEE7FEE7FEE7FEE7FEE7FEE7FEE766
:1002700004480549054A064B7047000015750008FB
:1002800089010008D04F0020D0770020D06F0020D7
:10029000D06F002053EA020C00F069802DE9F04B8A
:1002A0004FF00006002B1FBFB3FA83F503FA05F4E5
:1002B00024FA05F65E4012BF1643B2FA82F502FA3E
:1002C00005F4C5F120051EBF22FA05FC44EA0C0422
:1002D000203556EA044C4FEA144418BF641C4FF012
:1002E00000084FF00009904271EB030C39D300294C
:1002F00019BFB1FA81F701FA07F6B0FA80F700FAF0
:1003000007F6C7F120071EBF20FA07FC46EA0C06D5
:100310002037B6FBF4FCA7EB0507103F07F01F0BD7
:10032000CBF120062CFA06F60CFA0BFB44BFB346C1
:100330000026202FA4BF5E464FF0000B5BEA060CA0
:1003400008BF4FF0010B19EB0B0948EB0608ABFB9C
:10035000027C06FB02CC0BFB03CCC01B71EB0C0137
:10036000C1E70B46024641464846BDE8F08B13B54F
:10037000084318BF4FF0FF300146AFF30080BDE8DF
:100380001C4070474FF0000200B513469446964655
:10039000203922BFA0E80C50A0E80C50B1F1200198
:1003A000BFF4F7AF090728BFA0E80C5048BF0CC046
:1003B0005DF804EB890028BF40F8042B08BF7047A4
:1003C00048BF20F8022B11F0804F18BF00F8012B16
:1003D000704770477047704710B500F00DF800681F
:1003E00010BD10B5044600F007F8046010BD000011
:1003F00000487047680000200048704768000020EF
:1004000070477546FFF7F4FFAE4605006946534650
:1004100020F00700854618B020B5FFF729FFBDE89A
:1004200020404FF000064FF000074FF000084FF05B
:10043000000BAC46ACE8C009ACE8C009ACE8C009A8
:10044000ACE8C00921F007018D46704710B504469D
:10045000AFF300802046BDE81040FFF7F4BE000077
:1004600001491820ABBEFEE72600020082B00190D1
:1004700042F20030C4F2010000900099486820F474
:1004800040304860019842680099486810434860CD
:1004900001980168486820F48070486001980168FC
:1004A0000269486840EA022048600198016848688B
:1004B00020F04070486001980168826848681043E5
:1004C000486001980168886820F40060886001989D
:1004D0000168C2688868104388600198806A0121B9
:1004E000C0F60071884219D0FFE70198016888685A
:1004F00020F07060886001980168826A8868104303
:10050000886001980168886820F0405088600198F0
:100510000168C26A8868104388600CE0019801682D
:10052000886820F07060886001980168886820F011
:1005300040508860FFE701980168886820F0020059
:1005400088600198027E0168886840EA42008860FD
:10055000019890F82000C8B1FFE701980168486849
:1005600040F40060486001980168486820F46040E9
:10057000486001980168426A4EF20000CFF6FF70B1
:1005800000EB423248681043486006E00198016879
:10059000486820F400604860FFE701980168C86A75
:1005A00020F47000C86201980168C2690020CFF68B
:1005B000F07000EB0252C86A1043C86201980168EB
:1005C000886820F400708860019890F830200168F5
:1005D000886840EA4220886001980168886820F4B1
:1005E00080608860019801684269886840EA8220DA
:1005F000886002B07047000080B540F60040C4F249
:1006000002008021012201F089FE80BD80B540F604
:100610000040C4F202008021002201F07FFE80BD74
:100620007047000080B540F60040C4F2020010217F
:10063000012201F073FE80BD80B540F60040C4F297
:1006400002001021002201F069FE80BD7047000009
:1006500080B582B0ADF80600FFE7BDF80600411E88
:10066000ADF8061028B1FFE74FF47A7000F004F8F7
:10067000F3E702B080BD000086B0ADF816000020A0
:10068000049003900290019000904EF21400CEF27C
:10069000000000680090BDF81600A82148430490AF
:1006A0004EF21800CEF2000000680390FFE74EF211
:1006B0001800CEF200000068029002980399884268
:1006C0001ED0FFE702980399884207D2FFE70398FC
:1006D0000299411A01980844019008E00098029993
:1006E000401A03990144019808440190FFE70298D9
:1006F000039001980499884201D3FFE701E0FFE7E6
:10070000D5E706B07047000080B582B000208DF8B4
:100710000700FFF785FFFFF799FF07F03DFF014650
:100720009DF8070008438DF8070007F0FDFF01461C
:100730009DF8070008438DF807009DF8070002B0F8
:1007400080BD000080B588B007900691059200201A
:10075000009004900390FFF759FF922000F020F9D9
:10076000122003A90191062200F0E6F8FFF744FFEA
:100770009DF80C009DF80D1040EA0120ADF80A002C
:10078000BDF90A0000EE100AB8EEC00A40F20000FF
:10079000C2F2000090ED001A20EE010A069981EDE8
:1007A000000A9DF80E109DF80F2041EA0221ADF8D5
:1007B0000A10BDF90A1000EE101AB8EEC00A90ED4A
:1007C000001A20EE010A069981ED010A9DF8101029
:1007D0009DF8112041EA0221ADF80A10BDF90A1076
:1007E00000EE101AB8EEC00A90ED001A20EE010AD1
:1007F000069880ED020AFFF71FFF00980199082272
:1008000000F09AF8FFF70EFF9DF80C000F2844D176
:10081000FFE79DF80E009DF80F1040EA0120ADF8AB
:100820000A00BDF90A0000EE100AB8EEC00A40F254
:100830000400C2F2000090ED001A20EE010A0799B0
:1008400081ED000A9DF810109DF8112041EA022167
:10085000ADF80A10BDF90A1000EE101AB8EEC00A81
:1008600090ED001A20EE010A079981ED010A9DF82A
:1008700012109DF8132041EA0221ADF80A10BDF9CB
:100880000A1000EE101AB8EEC00A90ED001A20EE21
:10089000010A079880ED020AFFE7FFF7B7FEA220E2
:1008A00000F07EF8222003A9022200F045F8FFF7AD
:1008B000A3FE9DF80C009DF80D10C00040EA5110F9
:1008C000ADF80A00BDF90A00B0F5806F07DBFFE75D
:1008D000BDF80A00A0F50060ADF80A00FFE7BDF919
:1008E0000A0000EE100AB8EEC00AB4EE001A20EEBC
:1008F000010AB3EE071A30EE010A059880ED000AEE
:100900000798006840F2A021C2F200010860079831
:100910004068486007988068886006980068C860EA
:1009200006984068086106988068486105980068E4
:10093000886108B080BD000080B584B08DF80F00DC
:1009400002918DF807209DF80F0040F0800000F024
:1009500027F8FFE79DF8070070B1FFE7552000F08A
:100960001FF8029908700298013002909DF8070064
:1009700001388DF80700EDE704B080BD80B582B086
:100980008DF8070000919DF8070040F0800000F00E
:1009900007F8552000F004F80099087002B080BDF7
:1009A00080B582B08DF8070069464FF47A70086010
:1009B00040F6A420C2F200000DF107010DF106027D
:1009C000012302F0C7FF9DF8060002B080BD0000C1
:1009D00080B582B08DF807008DF806109DF80700ED
:1009E000FFF7DEFF9DF80600FFF7DAFF02B080BDDB
:1009F000FFE7FEE780B58EB00D900C910B920020C2
:100A00000A90FFE70A9803280CDCFFE70C980A9A83
:100A100050F822000D9941F82200FFE70A980130B2
:100A20000A90EFE70B980D99C1F8A4010D990020E9
:100A3000059081F850000D9940F63160C0F6000035
:100A4000C1F8A8010D9948F23540C0F60000C1F880
:100A5000B0010D9940F69D60C0F60000C1F8AC01F0
:100A6000012300930993089307930D985430099A32
:100A7000032103919FED220A8DED040ADFED210A87
:100A8000CDED010A9FED201A8DED021A05F06EFEE4
:100A9000009BDDED010A9DED021A03999DED040A0C
:100AA0000D98C430089A05F061FE03999DED040A83
:100AB0000D9800F59A70079A0223DFED140A9FED56
:100AC000141A05F053FE0D98513006F05BFB0598A3
:100AD0000690FFE70698032810DCFFE70D980699BB
:100AE00000EB8101002008610D99069A01EB82015B
:100AF0000862FFE7069801300690EBE70EB080BD74
:100B0000CDCC4C3ECDCCCCBECDCCCC3E9A9919BFF1
:100B10009A99193F80B582B00190ADF80210019901
:100B200001F12000D1F8A42102F1240104F080F8A1
:100B3000BDF802000199D1F8A42102F124010C3280
:100B400003F0DCFF0198D0F8A4110C3100F0ECF8B0
:100B50000198D0F8A4110C3100F03AF80198D0F8BF
:100B6000A82100F11001904702B080BD80B584B08B
:100B70000390029101928DF803300398D0F8A411EC
:100B8000029B18685A689B680B62CA618861039867
:100B9000D0F8A411019B18685A689B684B640A64DA
:100BA000C8639DF80300C00730B1FFE70398D0F891
:100BB000A40104F02FF8FFE70399002081F850000A
:100BC0000398513006F0F6FA0398513004B080BD16
:100BD00080B58AB009900891099890F850000028D3
:100BE00040F09C80FFE70998513006F0D3FA0028C6
:100BF00040F09380FFE70998D0F8A40118300790DF
:100C00000998D0F8A4013C300690089890ED000AAD
:100C1000079890ED001A30EE410A10EE100A0AF023
:100C200075FD41EC100B51EC100B9FED3D0B52ECA0
:100C3000103BD20F62F3DF7141EC100B8DED040B12
:100C4000069800680AF062FD9DED041B41EC100B54
:100C500051EC110B53EC102B0AF098FD00285BD1DE
:100C6000FFE7089890ED010A079890ED011A30EE21
:100C7000410A10EE100A0AF049FD41EC100B51EC4C
:100C8000100B9FED270B52EC103BD20F62F3DF717C
:100C900041EC100B8DED020B069840680AF036FD12
:100CA0009DED021B41EC100B51EC110B53EC102B82
:100CB0000AF06CFD80BBFFE7089890ED020A0798E8
:100CC00090ED021A30EE410A10EE100A0AF01EFDF5
:100CD00041EC100B51EC100B9FED110B52EC103B43
:100CE000D20F62F3DF7141EC100B8DED000B069813
:100CF00080680AF00BFD9DED001B41EC100B51ECE0
:100D0000110B53EC102B0AF041FD28B9FFE70998AD
:100D1000513006F047FAFFE7FFE7FFE70AB080BD72
:100D2000000000000000000080B58EB00D900C9116
:100D30000D9890F850000146019140B1FFE70198ED
:100D4000012869D0FFE70198022866D06EE00D986F
:100D5000513006F01FFA88B1FFE70D99012081F8A4
:100D6000500000200B900A9009900D9800F110019E
:100D7000D0F8A42109A804F01BF857E00D98D0F88A
:100D8000A401183008900D985430089991ED000A8C
:100D90000C99D1ED000A07F09FFF0D98D0F8A4013F
:100DA00090ED0C1A30EE010A8DED070A0D98C43053
:100DB000089991ED010A0C99D1ED010A07F08CFF19
:100DC0000D98D0F8A40190ED0D1A30EE010A8DEDCA
:100DD000060A0D9800F59A70089991ED020A0C998F
:100DE000D1ED020A07F078FF0D98D0F8A40190ED3C
:100DF0000E1A30EE010A8DED050A0798029006984A
:100E00000390059804900D9800F11001D0F8A421EA
:100E100002A803F0CDFF09E008E00D99D1F8A42164
:100E200002F13000103103F0C3FFFFE70EB080BDC8
:100E300080B584B00390029100200190FFE70198F3
:100E400003280DDCFFE70298019A50F8220003996D
:100E500051F822104862FFE7019801300190EEE757
:100E600003980068029991ED000A08F03DFE03988E
:100E70004068029991ED010A08F036FE03988068F7
:100E8000029991ED020A08F02FFE0398C0680299BA
:100E900091ED030A08F028FE04B080BD80B584B04F
:100EA00003900291019200200090FFE70098032830
:100EB00015DCFFE70198009A50F82200039951F8D9
:100EC000221048620298009A50F82200039951F8C3
:100ED00022108862FFE7009801300090E6E703984F
:100EE0000068019991ED000A0299D1ED000A08F01D
:100EF0001FFD03984068019991ED010A0299D1ED17
:100F0000010A08F015FD03988068019991ED020A25
:100F10000299D1ED020A08F00BFD0398C06801990F
:100F200091ED030A0299D1ED030A08F001FD04B026
:100F300080BD000080B586B005AA82ED001A42EDA2
:100F4000010A02ED020A02908DF807100298D0F80B
:100F5000A4110398049A059B8B634A6308639DF868
:100F60000700C00728B1FFE70299022081F850006E
:100F70000CE00299012081F850000299D1F8A421D7
:100F800002F13000103103F013FFFFE706B080BD1F
:100F900084B002908DED010A9DED010A029890ED5A
:100FA000001AB4EE410AF1EE10FA0BDBFFE79DEDFB
:100FB000010A029890ED021AB4EE410AF1EE10FA1D
:100FC00003DDFFE70020039028E09DED010A029871
:100FD00090ED001A30EE410A8DED000A02989DED69
:100FE000002A90ED064A90ED073A90ED081A90ED30
:100FF000090A23EE023A33EE043A21EE021A21EEF8
:10100000021A31EE031A20EE020A20EE020A20EE46
:10101000020A30EE010A8DED030AFFE79DED030A97
:1010200004B0704780B58EB08DED0C1B8DED0A0BB2
:101030008DED083B8DED062B8DED045B8DED024BA8
:1010400001909DED0A0B51EC100B09F009FE01997E
:1010500008609DED0C0B51EC100B09F001FE01999D
:1010600048609DED060B51EC100B09F0F9FD01995C
:1010700088609DED080B51EC100B09F0F1FD019912
:10108000C8609DED020B51EC100B09F0E9FD0199D0
:1010900008619DED040B51EC100B09F0E1FD019985
:1010A0004861019890ED001A90ED020A30EE410A75
:1010B0008DED000A01994868886101990869C86145
:1010C000019890ED012A90ED030A90ED043A90ED1D
:1010D000051A30EE420AB0EE082A20EE020A9DED13
:1010E000002A22EE024A80EE040A31EE011A31EEA5
:1010F000031A81EE021A30EE410A80ED080A0198C7
:1011000090ED010A90ED032A90ED041A90ED053A56
:1011100030EE420A30EE000A9DED004A24EE042A29
:1011200022EE044A80EE040A31EE031A81EE021A1E
:1011300030EE010A80ED090A0EB080BD84B0029045
:101140008DED010A9DED010A029890ED001AB4EEB2
:10115000410AF1EE10FA0BDBFFE79DED010A029860
:1011600090ED021AB4EE410AF1EE10FA03DDFFE74A
:101170000020039024E09DED010A029890ED001AF2
:1011800030EE410A8DED000A029890ED073A90ED9D
:10119000081A90ED090A31EE011A9DED002A21EEA0
:1011A000021A31EE031AB0EE083A20EE030A20EEDE
:1011B000020A20EE020A30EE010A8DED030AFFE773
:1011C0009DED030A04B0704780B540F2AC30C2F226
:1011D000000000F03BFC80BD80B540F20C40C2F244
:1011E000000000F033FC80BD82B0019001980078CF
:1011F00010384AF6AB21CAF6AA21A0FB011000095B
:10120000009000994BF6BC00C0F60000405C0199CC
:10121000C8650098042807D3FFE7019908680422ED
:1012200062F30900886506E00199086840F2FF3220
:1012300090438865FFE70198806D02B07047000019
:1012400086B0059000208DF813000598806A039001
:101250000598806910BBFFE70398029003281BD80C
:101260000299DFE801F0020D0218059890F82F00AE
:10127000C00720B1FFE701208DF81300FFE70CE065
:101280000598C06AB0F1C07F04D1FFE701208DF856
:101290001300FFE701E000E0FFE745E00598806903
:1012A000B0F5005F25D1FFE70398019003281ED811
:1012B0000199DFE801F00206021101208DF8130008
:1012C00016E0059890F82F00C00720B1FFE7012035
:1012D0008DF81300FFE70BE00598C06AB0F1C07FFE
:1012E00004D1FFE701208DF81300FFE700E0FFE7DE
:1012F00019E003980090032804D3FFE7009803281F
:1013000004D00EE001208DF813000BE0059890F852
:101310002F00C00720B1FFE701208DF81300FFE781
:1013200000E0FFE7FFE7FFE79DF8130006B0704716
:101330007047000080B5042000F0F8FD80BD00007B
:1013400080B5082000F0F2FD80BD000072B6FFE716
:10135000FEE7000085B00390029100200190FFE7B6
:10136000039890F83C00012804D1FFE702208DF893
:101370001300F7E00399012081F83C00FFE7FFE745
:10138000029800680A281CD3FFE70298008800EB47
:101390004000A0F11E01072000FA01F20398016845
:1013A000C8689043C86002998868098801EB4101C8
:1013B0001E3900FA01F203980168C8681043C8603A
:1013C00018E00298008800EB4001072000FA01F2C3
:1013D0000398016808699043086102998868098840
:1013E00001EB410100FA01F203980168086910431A
:1013F0000861FFE70298406806281BD8FFE70298BB
:10140000406800EB8000411F1F2000FA01F20398A2
:101410000168486B9043486302990888496801EB6A
:101420008101053900FA01F203980168486B104305
:1014300048633DE0029840680C281CD8FFE70298FA
:10144000406800EB8000A0F123011F2000FA01F2A8
:1014500003980168086B90430863029908884968FB
:1014600001EB8101233900FA01F203980168086B4E
:10147000104308631BE00298406800EB8000A0F175
:1014800041011F2000FA01F203980168C86A9043E5
:10149000C86202990888496801EB8101413900FA64
:1014A00001F203980168C86A1043C862FFE7FFE7CA
:1014B00042F20030C4F2010000900398006842F24A
:1014C0000001C4F2010188420BD1FFE702980068D5
:1014D000122806D1FFE70099486840F48000486070
:1014E000FFE70398006842F20001C4F2010188425C
:1014F0002ED1FFE702980068102805D0FFE7029878
:101500000068112824D1FFE70099486840F40000E2
:10151000486002980068102819D1FFE740F20800DF
:10152000C2F2000000684DF68361C4F21B31A0FBDB
:101530000110800C00EB800040000190FFE7019853
:1015400020B1FFE7019801380190F8E7FFE7FFE7D6
:10155000FFE70399002081F83C00FFE700208DF8A9
:101560001300FFE79DF8130005B0704780B584B005
:10157000029000208DF80700029820B9FFE70120B3
:101580008DF80F0042E00298806A0121C0F60071D8
:10159000884201D0FFE7FFE70298006C50B9FFE7EF
:1015A000029800F037F8029900204864029981F807
:1015B0003C00FFE70298006CC006002817D4FFE744
:1015C0000298006C40F0020020F4885002990864F0
:1015D0000298FEF74BFF0299002048640298006CC5
:1015E00040F0010020F002000299086403E00120AD
:1015F0008DF80700FFE7FFE70299002081F83C0023
:10160000FFE79DF807008DF80F00FFE79DF80F003A
:1016100004B080BD80B58AB0099000200890079082
:101620000690059004900998006842F20001C4F207
:101630000101884230D1FFE7FFE70020039043F625
:101640004400C4F20200016841F480710160006846
:1016500000F4807003900398FFE7FFE700200290FA
:1016600043F63000C4F20200016841F00401016059
:10167000006800F0040002900298FFE73F20049009
:10168000032005900020069040F60000C4F20200FE
:1016900004A900F067FC39E00998006842F20011E3
:1016A000C4F20101884230D1FFE7FFE7002001903A
:1016B00043F64400C4F20200016841F40071016085
:1016C000006800F4007001900198FFE7FFE7002038
:1016D000009043F63000C4F20200016841F00401BA
:1016E0000160006800F0040000900098FFE73F20D0
:1016F0000490032005900020069040F60000C4F2FC
:10170000020004A900F02EFCFFE7FFE70AB080BD4D
:1017100080B584B00290029820B9FFE701208DF8CF
:101720000F00E0E0029890F8200020B9FFE702984F
:1017300000F0DEF8FFE702980168086840F0010059
:10174000086000F003FE0190FFE70298006840681F
:10175000C007A8B9FFE700F0F9FD0199401A0B286E
:101760000DD3FFE70299486A40F4003048620299BD
:10177000052081F8200001208DF80F00B3E0E4E798
:1017800002980168086820F00200086000F0DEFDA1
:101790000190FFE70298006840688007002815D58F
:1017A000FFE700F0D3FD0199401A0B280DD3FFE7A6
:1017B0000299486A40F4003048620299052081F895
:1017C000200001208DF80F008DE0E3E70298007EF5
:1017D000012807D1FFE702980168086840F08000FF
:1017E000086006E002980168086820F08000086040
:1017F000FFE70298407E012807D1FFE702980168C1
:10180000086840F04000086006E002980168086837
:1018100020F040000860FFE70298807E012807D191
:10182000FFE702980168086840F02000086006E0C1
:1018300002980168086820F020000860FFE702981D
:10184000C07E012807D1FFE702980168086820F0F0
:101850001000086006E002980168086840F0100077
:101860000860FFE70298007F012807D1FFE7029890
:101870000168086840F00800086006E00298016806
:10188000086820F008000860FFE70298407F012800
:1018900007D1FFE702980168086840F0040008607B
:1018A00006E002980168086820F004000860FFE77D
:1018B000029B19685A689868D3F80CC040EA0C007B
:1018C000D3F810C040EA0C005B691843013A10439A
:1018D000C861029900204862029A012182F8201012
:1018E0008DF80F00FFE79DF80F0004B080BD0000E9
:1018F00080B58CB00B9000200A900990089007905A
:1019000006900B98006846F20041C4F2000188423C
:101910003FD1FFE740F28420C2F2000001680131AC
:1019200001600068012812D1FFE7FFE70020059061
:1019300043F64000C4F20200016841F0007101600A
:10194000006800F0007005900598FFE7FFE7FFE7EB
:101950000020049043F63000C4F20200016841F018
:1019600008010160006800F0080004900498FFE797
:101970000320069002210791002108910990092077
:101980000A9040F60040C4F2020006A900F0EAFA0C
:101990005AE00B98006846F60001C4F20001884244
:1019A00051D1FFE7FFE70020039043F64000C4F267
:1019B0000200016841F080610160006800F0806011
:1019C00003900398FFE740F28420C2F20000016810
:1019D000013101600068012812D1FFE7FFE7002014
:1019E000029043F64000C4F20200016841F0007129
:1019F0000160006800F0007002900298FFE7FFE7C6
:101A0000FFE70020019043F63000C4F202000168B5
:101A100041F002010160006800F0020001900198AD
:101A2000FFE7602006900220079000200890032026
:101A3000099009200A9040F20040C4F2020006A971
:101A400000F090FAFFE7FFE70CB080BD80B586B0EC
:101A500005900020039040F20800C2F200000068E8
:101A600048F2B511C1F64E31A0FB0110800A029078
:101A70000598806D0190019800680490049805997C
:101A8000C96DC840000700281AD5FFE7059800680F
:101A900000684007002812D5FFE70598016808682C
:101AA00020F0040008600598C16D08208840019965
:101AB00088600599486D40F001004865FFE7FFE741
:101AC00004980599C96DC840C007A0B1FFE7059803
:101AD00000684069000600280CD5FFE70598C16D35
:101AE00001208840019988600599486D40F0020006
:101AF0004865FFE7FFE704980599C96DC8404007AE
:101B0000002814D5FFE705980068006880070028C2
:101B10000CD5FFE70598C16D0420884001998860C5
:101B20000599486D40F004004865FFE7FFE7049819
:101B30000599C96DC840C006002847D5FFE705983C
:101B400000680068000700283FD5FFE70598C16DD1
:101B5000102088400199886005980068006840035B
:101B600000281AD5FFE705980068006800030028E0
:101B700009D4FFE70598006C20B1FFE70598016CD8
:101B80008847FFE708E00598806C20B1FFE70598DB
:101B9000816C8847FFE7FFE716E00598006800685A
:101BA000C005002807D4FFE705980168086820F001
:101BB00008000860FFE70598006C20B1FFE7059872
:101BC000016C8847FFE7FFE7FFE7FFE70498059907
:101BD000C96DC8408006002840F18D80FFE7059858
:101BE00000680068C006002840F18480FFE705987F
:101BF000C16D2020884001998860059890F83500D3
:101C0000052834D1FFE705980168086820F0160020
:101C1000086005980168486920F0800048610598CF
:101C2000006C20B9FFE70598806C38B1FFE7059894
:101C30000168086820F008000860FFE70598C16D9A
:101C40003F208840019988600599012081F835007E
:101C5000FFE70599002081F83400FFE70598006D43
:101C600020B1FFE70598016D8847FFE77BE0059805
:101C700000680068400300281AD5FFE7059800684F
:101C800000680003002809D4FFE70598406C20B1E4
:101C9000FFE70598416C8847FFE708E00598C06BAF
:101CA00020B1FFE70598C16B8847FFE7FFE720E019
:101CB000059800680068C005002811D4FFE7059862
:101CC0000168086820F0100008600599012081F87B
:101CD0003500FFE70599002081F83400FFE7FFE7B2
:101CE0000598C06B20B1FFE70598C16B8847FFE7F7
:101CF000FFE7FFE7FFE70598406DA0B3FFE7059812
:101D0000406DC00730B3FFE70599052081F8350025
:101D100005980168086820F001000860FFE7039853
:101D2000013003900299884201D9FFE707E0FFE7FD
:101D3000059800680068C0070028F0D1FFE7059902
:101D4000012081F83500FFE70599002081F8340073
:101D5000FFE7FFE70598C06C20B1FFE70598C16C6D
:101D60008847FFE7FFE706B080BD000080B586B07A
:101D700004900020039000F0E9FA0290049820B942
:101D8000FFE701208DF81700A3E00498406A08B12E
:101D9000FFE7FFE70499022081F83500FFE7049987
:101DA000002081F83400FFE704980168086820F0FB
:101DB00001000860FFE7049800680068C00790B160
:101DC000FFE700F0C3FA0299401A06280AD3FFE79A
:101DD0000499202048650499032081F835008DF886
:101DE000170076E0E7E7049800680068039003981E
:101DF00048F23F01CFF2100108400390049900918E
:101E00004868D1F808C0CB680A6940EA0C0018435A
:101E100010434A6910438A691043CA691043096A2A
:101E200001430398084303900498406A042808D1AA
:101E3000FFE70499C86A096B0143039808430390BC
:101E4000FFE70398049909680860049800684069EE
:101E50000390039820F0070003900498416A0398C8
:101E6000084303900498406A04281AD1FFE70498B5
:101E7000816A0398084303900498C06A80B1FFE721
:101E80000498FFF7DDF950B1FFE704994020486559
:101E90000499012081F835008DF8170019E0FFE75B
:101EA000FFE703980499096848610498FFF79CF9D3
:101EB00001900498C16D3F20884001998860049981
:101EC00000204865049A012182F835108DF817002A
:101ED000FFE79DF8170006B080BD000080B584B014
:101EE000039000F033FA02900398019001980130BA
:101EF00048B1FFE740F23400C2F2000001780198D7
:101F000008440190FFE7FFE700F020FA0299401A29
:101F10000199884201D2FFE7F6E704B080BD0000D6
:101F200081B0ADF8020001B07047000080B582B00A
:101F3000ADF8060043F61440C4F201000068BDF895
:101F4000061008420CD0FFE7BDF8060043F6144126
:101F5000C4F201010860BDF80600FFF7E1FFFFE7EA
:101F600002B080BD8EB00D900C9100200A900990B7
:101F700008900B90FFE70B980F2800F2CC81FFE749
:101F80000B99012088400A900C9800680A99084033
:101F9000099009980A99884240F0B881FFE70C98A7
:101FA000406800F00300012807D0FFE70C98406864
:101FB00000F0030002282FD1FFE70D9880680890F9
:101FC0000B984100032000FA01F10898884308901B
:101FD0000C98C0680B99490000FA01F10898084371
:101FE000089008980D9988600D98406808900B99A2
:101FF000012000FA01F10898884308900C98406885
:10200000C0F300100B9900FA01F1089808430890FA
:1020100008980D994860FFE70C98406800F00300AD
:10202000032818D0FFE70D98C06808900B9841006E
:10203000032000FA01F10898884308900C98806802
:102040000B99490000FA01F1089808430890089894
:102050000D99C860FFE70C98406800F00300022863
:1020600026D1FFE70D980B996FF0030202EA5101A8
:102070000844006A08900B9800F0070081000F20C8
:1020800000FA01F10898884308900C9800690B99B0
:1020900001F00701890000FA01F10898084308904F
:1020A00008980D990B9B02EA530211440862FFE75E
:1020B0000D98006808900B984100032000FA01F188
:1020C0000898884308900C98406800F003000B992A
:1020D000490000FA01F108980843089008980D9902
:1020E00008600C9880798007002800F00E81FFE7D7
:1020F000FFE70020079043F64400C4F202000168A5
:1021000041F480410160006800F480400790079826
:10211000FFE70B9820F0030043F60801C4F2010129
:10212000405808900B9800F0030081000F2000FA3F
:1021300001F10898884308900D980021C4F202012B
:10214000884203D1FFE7002006905EE00D9840F240
:102150000041C4F20201884203D1FFE7012005904B
:1021600050E00D9840F60001C4F20201884203D10C
:10217000FFE70220049042E00D9840F60041C4F2CF
:102180000201884203D1FFE70320039034E00D9859
:1021900041F20001C4F20201884203D1FFE70420AA
:1021A000029026E00D9841F20041C4F202018842FB
:1021B00003D1FFE70520019018E00D9841F60001DA
:1021C000C4F20201884203D1FFE7062000900AE032
:1021D0000D9941F60042C4F202020820914208BF64
:1021E00007200090FFE700980190FFE70198029018
:1021F000FFE702980390FFE703980490FFE7049835
:102200000590FFE705980690FFE70698C0B20B9986
:1022100001F00301890000FA01F1089808430890D1
:1022200008980B9921F0030143F60802C4F2010259
:10223000885043F60840C4F20100006808900999EC
:102240000898884308900C988079C006002805D526
:10225000FFE70999089808430890FFE7089843F6B4
:102260000841C4F20101086043F60C40C4F20100C9
:102270000068089009990898884308900C9880791C
:102280008006002805D5FFE70999089808430890BB
:10229000FFE7089843F60C41C4F20101086043F6D9
:1022A0000440C4F201000068089009990898884326
:1022B00008900C9880798007002805D5FFE70999D8
:1022C000089808430890FFE7089843F60441C4F2D1
:1022D0000101086043F60040C4F201000068089064
:1022E00009990898884308900C988079C00728B10C
:1022F000FFE70999089808430890FFE7089843F614
:102300000041C4F201010860FFE7FFE7FFE70B9817
:1023100001300B902FE60EB07047000082B00190A4
:10232000ADF802108DF801209DF8010028B1FFE7FB
:10233000BDF802000199886105E0BDF802000004C3
:1023400001998861FFE702B07047000044F6C84079
:10235000C2F200000068704780B58EB00C900C98F7
:1023600020B9FFE701208DF8370043E10C9890F881
:102370003D0040B9FFE70C99002081F83C000C9823
:1023800000F03CF9FFE70C99242081F83D000C98FF
:102390000168086820F0010008600C98016808686E
:1023A00040F4004008600C980168086820F4004080
:1023B000086000F079FD0A900C98406848F2A0612E
:1023C000C0F2010188420BD8FFE70A9948F2804227
:1023D000C0F21E020020914238BF012009900AE09D
:1023E0000A9940F60012C0F23D020020914238BF27
:1023F00001200990FFE70998012804D1FFE7012097
:102400008DF83700F6E00A984DF68361C4F21B316F
:10241000A0FB0110800C0B900C980068406820F025
:102420003F000B9908430C99096848600C980068B4
:10243000006A20F03F0008900C98406848F2A061C4
:10244000C0F20101884204D8FFE70B9801300790E1
:102450000EE00B984FF49671484344F6D351C1F205
:102460006201A0FB0101012000EB91100790FFE742
:102470000898079908430C99096808620C98006845
:10248000C0694CF6FF71884306900C98406848F28A
:10249000A061C0F2010188421FD8FFE70A98013805
:1024A0000C9949684900B0FBF1F001306FF31F301F
:1024B000032803D8FFE7042005900BE00A980138B1
:1024C0000C9949684900B0FBF1F001306FF31F30FF
:1024D0000590FFE7059804904CE00C98806868B977
:1024E000FFE70A9801380C99496801EB4101B0FBFC
:1024F000F1F001306FF31F3003900DE00A980138BE
:102500000C99496819225143B0FBF1F001300421C4
:1025100061F31F300390FFE70398000518B9FFE748
:102520000120029023E00C98806868B9FFE70A98C0
:1025300001380C99496801EB4101B0FBF1F0013021
:102540006FF31F3001900DE00A9801380C9949682B
:1025500019225143B0FBF1F00130042161F31F3027
:102560000190FFE7019840F400400290FFE70298D5
:102570000490FFE70698049908430C990968C8611C
:102580000C980068006820F0C0000C9B1968DA699C
:102590001B6A1A43104308600C980068806848F270
:1025A000FF3188430C9A1168D36812691A431043AB
:1025B00088600C980068C06820F0FF000C9B1968C8
:1025C0005A699B691A431043C8600C9801680868EF
:1025D00040F0010008600C99002008640C9A20214A
:1025E00082F83D100C9908630C9981F83E008DF833
:1025F0003700FFE79DF837000EB080BD80B592B080
:102600001190002010900F900E900D900C9011984A
:10261000006845F20041C4F20001884235D1FFE76D
:10262000FFE700200B9043F63000C4F2020001687F
:1026300041F002010160006800F002000B900B986D
:10264000FFE74FF4C0700C9012200D9000200E9008
:1026500003200F900420109040F20040C4F20200CA
:102660000CA9FFF77FFCFFE700200A9043F640002B
:10267000C4F20200016841F400110160006800F436
:1026800000100A900A98FFE7A7E01198006845F645
:102690000001C4F20001884235D1FFE7FFE70020C6
:1026A000099043F63000C4F20200016841F00201D3
:1026B0000160006800F0020009900998FFE74FF4FC
:1026C00040600C9012200D9000200E9003200F907F
:1026D0000420109040F20040C4F202000CA9FFF761
:1026E00041FCFFE70020089043F64000C4F20200DE
:1026F000016841F480010160006800F480000890E6
:102700000898FFE768E01198006845F60041C4F2B8
:10271000000188425FD1FFE7FFE70020079043F602
:102720003000C4F20200016841F004010160006859
:1027300000F0040007900798FFE7FFE700200690ED
:1027400043F63000C4F20200016841F0010101606B
:10275000006800F0010006900698FFE74FF4007053
:102760000C90122000900D90002001900E900320FC
:1027700002900F9004200390109040F60000C4F2E5
:1027800002000CA90491FFF7EDFBDDF800C0019BEE
:10279000029A039804994FF4807ECDF830E0CDF88A
:1027A00034C00E930F9210900020C4F20200FFF785
:1027B000D9FBFFE70020059043F64000C4F2020079
:1027C000016841F400010160006800F40000059018
:1027D0000598FFE7FFE7FFE7FFE712B080BD0000C5
:1027E00040F23400C2F20000027844F6C841C2F25E
:1027F00000010868104408607047000080B543F687
:102800000041C4F20201086840F4007008600868E2
:1028100040F480600860086840F48070086003201D
:1028200000F090F80F2000F005F800F03BF80020D1
:1028300080BD000080B582B0009040F20800C2F276
:102840000000006840F23401C2F200010A784FF43F
:102850007A71B1FBF2F1B0FBF1F001F04DFA20B169
:10286000FFE701208DF8070018E000980F280DD829
:10287000FFE700994FF0FF30002200F049F8009880
:1028800040F23801C2F20001086003E001208DF837
:10289000070003E000208DF80700FFE79DF8070020
:1028A00002B080BD80B582B0FFE70020019043F602
:1028B0004400C4F20200016841F4804101600068F4
:1028C00000F4804001900198FFE7FFE700200090AE
:1028D00043F64000C4F20200016841F080510160FB
:1028E000006800F0805000900098FFE76FF0010052
:1028F0000F21002200F00CF802B080BD80B582B03C
:102900008DF807009DF9070005F0BCFD02B080BD01
:1029100080B586B08DF817000491039200200290D4
:1029200005F0C8FD02909DF91700019002980499E6
:10293000039A03F0F9FD0146019805F0C3FD06B0C6
:1029400080BD000080B582B00190019805F0DCFDEB
:1029500002B080BD80B58EB00C900C9820B9FFE716
:1029600001208DF8370012E10C9800680B900C984C
:1029700090F8950440B9FFE70C99002081F8940481
:102980000C9800F009F9FFE70C99032081F89504F1
:102990000B98B0F1A04F04D1FFE70C99002088718B
:1029A000FFE70C98006805F037FC0C9B1868197C51
:1029B0008DF8241059689A68DB680893079206918D
:1029C0000699079A089BDDF824C0EE46CEF800C0B1
:1029D00005F016FA40B1FFE70C99022081F8950442
:1029E00001208DF83700D2E00C980068002105F036
:1029F0009DFC40B1FFE70C99022081F8950401206D
:102A00008DF83700C3E000208DF82B00FFE79DF81C
:102A10002B000C990979884241DAFFE70C989DF860
:102A20002B1001EBC10100EB8101012048759DF8DD
:102A30002B000C9900EBC00201EB820108759DF898
:102A40002B000C9900EBC00201EB8201C8850C98A9
:102A50009DF82B1001EBC10100EB810100200876ED
:102A60000C999DF82B2002EBC20201EB8201C86198
:102A70000C999DF82B2002EBC20201EB8201086247
:102A80000C999DF82B2002EBC20201EB82014862F7
:102A9000FFE79DF82B0001308DF82B00B7E70020F1
:102AA0008DF82B00FFE79DF82B000C9909798842DF
:102AB0003EDAFFE70C989DF82B1001EBC10100EB0B
:102AC0008101002081F855029DF82B100C9A01EB32
:102AD000C10302EB830282F854120C999DF82B205B
:102AE00002EBC20201EB820181F858020C999DF8B9
:102AF0002B2002EBC20201EB8201C1F85C020C99AF
:102B00009DF82B2002EBC20201EB8201C1F86002AA
:102B10000C999DF82B2002EBC20201EB8201C1F857
:102B20006402FFE79DF82B0001308DF82B00BAE717
:102B30000C9B1868197C8DF8141059689A68DB682A
:102B40000493039202910299039A049BDDF814C046
:102B5000EE46CEF800C005F011FA40B1FFE70C993F
:102B6000022081F8950401208DF837000FE00C99C0
:102B70000020019048740C99012081F895040C986C
:102B8000006805F0E5F901988DF83700FFE79DF83A
:102B900037000EB080BD000080B588B007900020DF
:102BA0000690059004900390029007980068B0F199
:102BB000A04F3ED1FFE7FFE70020019043F6300031
:102BC000C4F20200016841F001010160006800F0F8
:102BD000010001900198FFE74FF4C05002900220DD
:102BE000039000200490032005900A200690002006
:102BF000C4F2020002A9FFF7B5F9FFE743F634017A
:102C0000C4F20201086840F080000860FFE700207D
:102C1000009043F64400C4F20200016841F4804190
:102C20000160006800F4804000900098FFE7FFE733
:102C3000FFE708B080BD000080B584B0029001912C
:102C4000029820B9FFE701208DF80F0021E10198DB
:102C500043F60041C4F20201096801F0070188420D
:102C600012D9FFE7019943F60040C4F20200017057
:102C7000006800F007000199884204D0FFE70120B6
:102C80008DF80F0005E1FFE7029800788007002823
:102C90002AD5FFE7029800784007002809D5FFE70A
:102CA00043F60801C4F20201086840F4E0500860ED
:102CB000FFE7029800780007002809D5FFE743F6F0
:102CC0000801C4F20201086840F460400860FFE7B0
:102CD00043F60801C4F20201086820F0F000029AED
:102CE000926810430860FFE702980078C007002848
:102CF0006ED0FFE702984068012811D1FFE743F644
:102D00000000C4F20200006800F400310020B0EBC3
:102D1000514F04D1FFE701208DF80F00B9E02CE0FE
:102D200002984068022805D0FFE70298406803280F
:102D300011D1FFE743F60000C4F20200006800F082
:102D400000710020B0EB516F04D1FFE701208DF836
:102D50000F009EE010E043F60000C4F2020000689D
:102D600000F002010020B0EB510F04D1FFE7012079
:102D70008DF80F008DE0FFE7FFE743F60801C4F28E
:102D80000201086820F00300029A526810430860AC
:102D9000FFF7DCFA0090FFE743F60800C4F20200F8
:102DA000006800F00C0002994968B0EB810F0ED06A
:102DB000FFE7FFF7CBFA0099401A41F289318842C8
:102DC00004D3FFE703208DF80F0062E0E4E7FFE79C
:102DD000019843F60041C4F20201096801F00701BD
:102DE000884212D2FFE7019943F60040C4F2020084
:102DF0000170006800F007000199884204D0FFE7E5
:102E000001208DF80F0044E0FFE7029800784007AA
:102E100000280CD5FFE743F60801C4F20201086858
:102E200020F4E050029AD26810430860FFE702984D
:102E30000078000700280DD5FFE743F60801C4F22B
:102E40000201086820F46040029A126940EAC20058
:102E50000860FFE700F04CF843F60801C4F20201F5
:102E60000968C9B20A094BF6A401C0F60001895CE1
:102E7000C84040F20801C2F20001086040F2380088
:102E8000C2F200000068FFF7D5FC00208DF80F00AB
:102E9000FFE79DF80F0004B080BD000040F208007D
:102EA000C2F200000068704780B5FFF7F7FF43F6F5
:102EB0000801C4F202010968C1F382224BF6B40191
:102EC000C0F60001895CC84080BD000080B5FFF7F6
:102ED000E5FF43F60801C4F20201096889B24A0B12
:102EE0004BF6B401C0F60001895CC84080BD00000B
:102EF00080B586B00020059004900390029043F6C0
:102F00000800C4F20200006800F00C0001460191C4
:102F100040B1FFE7019804280AD0FFE7019808288C
:102F20000CD04FE042F20040C0F2F40002904FE0BB
:102F300043F20060C0F26E10029049E043F60400D4
:102F4000C4F20200016801F03F01059100684002EF
:102F5000002813D5FFE743F60400C4F2020000681E
:102F6000C0F3881043F20061C0F26E11A0FB0101B2
:102F7000059A0023FDF78EF9049012E043F6040051
:102F8000C4F202000068C0F3881042F20041C0F2AF
:102F9000F401A0FB0101059A0023FDF77BF90490E1
:102FA000FFE743F60400C4F20200006800F4403179
:102FB000022000EBD130039004980399B0FBF1F0AC
:102FC000029005E042F20040C0F2F4000290FFE7F8
:102FD000029806B080BD000080B586B004900498C9
:102FE00020B9FFE701208DF8170050E3049800781E
:102FF000C007002800F0A580FFE743F60800C4F2F0
:103000000200006800F00C00042813D0FFE743F62C
:103010000800C4F20200006800F00C0008281ED16D
:10302000FFE743F60400C4F20200006840020028F3
:1030300015D5FFE743F60000C4F20200006800F473
:1030400000310020B0EB514F08D0FFE704984068F2
:1030500020B9FFE701208DF8170018E370E0FFE7C3
:1030600004984068B0F5803F09D1FFE743F60001BE
:10307000C4F20201086840F48030086020E004983F
:103080004068B0F5A02F0DD1FFE743F60001C4F270
:103090000201086840F480200860086840F480302D
:1030A00008600CE043F60001C4F20201086820F455
:1030B00080300860086820F480200860FFE7FFE7A0
:1030C000FFE704984068E8B1FFE7FFF73FF9039096
:1030D000FFE743F60000C4F20200006800F400318C
:1030E0000020B0EB514F0CD1FFE7FFF72FF9039908
:1030F000401A652804D3FFE703208DF81700C6E2C5
:10310000E7E71CE0FFF722F90390FFE743F6000032
:10311000C4F20200006800F400310020B0EB514F0F
:103120000CD0FFE7FFF712F90399401A652804D382
:10313000FFE703208DF81700A9E2E7E7FFE7FFE7C5
:10314000FFE7049800788007002840F19680FFE7A9
:1031500043F60800C4F20200006810F00C0F13D010
:10316000FFE743F60800C4F20200006800F00C001C
:1031700008282CD1FFE743F60400C4F202000068DF
:103180004002002823D4FFE743F60000C4F2020007
:10319000006800F002010020B0EB510F09D0FFE7FA
:1031A0000498C068012804D0FFE701208DF81700BB
:1031B0006DE243F60001C4F20201086820F0F80055
:1031C000049A126940EAC2000860FFE754E00498DC
:1031D000C06870B3FFE70021C4F2472101200860F6
:1031E000FFF7B4F80390FFE743F60000C4F20200D3
:1031F000006800F002010020B0EB510F0CD1FFE796
:10320000FFF7A4F80399401A032804D3FFE703202B
:103210008DF817003BE2E7E743F60001C4F2020134
:10322000086820F0F800049A126940EAC2000860B9
:1032300021E00021C4F2472100200860FFF786F852
:103240000390FFE743F60000C4F20200006800F0BC
:1032500002010020B0EB510F0CD0FFE7FFF776F82A
:103260000399401A032804D3FFE703208DF81700C1
:103270000DE2E7E7FFE7FFE7FFE7049800780007C4
:1032800000284BD5FFE70498406918B3FFE740F6E4
:103290008061C4F2472101200860FFF757F80390CE
:1032A000FFE743F67400C4F20200006800F0020178
:1032B0000020B0EB510F0CD1FFE7FFF747F803995F
:1032C000401A032804D3FFE703208DF81700DEE13E
:1032D000E7E722E040F68061C4F247210020086061
:1032E000FFF734F80390FFE743F67400C4F20200DE
:1032F000006800F002010020B0EB510F0CD0FFE796
:10330000FFF724F80399401A032804D3FFE70320AA
:103310008DF81700BBE1E7E7FFE7FFE704980078C7
:103320004007002840F1CE80FFE700208DF807001D
:1033300043F64000C4F202000068C000002815D423
:10334000FFE7FFE70020009043F64000C4F20200D0
:10335000016841F080510160006800F080500090E9
:103360000098FFE701208DF80700FFE747F2000013
:10337000C4F200000068C005002822D4FFE747F22D
:103380000001C4F20001086840F480700860FEF794
:10339000DDFF0390FFE747F20000C4F20000006881
:1033A000C00500280CD4FFE7FEF7D0FF0399401AB0
:1033B000032804D3FFE703208DF8170067E1EAE74D
:1033C000FFE7FFE704988068012809D1FFE743F68B
:1033D0007001C4F20201086840F0010008601FE0BB
:1033E0000498806805280DD1FFE743F67001C4F208
:1033F0000201086840F004000860086840F001001D
:1034000008600CE043F67001C4F20201086820F085
:1034100001000860086820F004000860FFE7FFE78B
:10342000FFE704988068F8B1FFE7FEF78FFF03908D
:10343000FFE743F67000C4F20200006800F00201EA
:103440000020B0EB510F0ED1FFE7FEF77FFF03998D
:10345000401A41F28931884204D3FFE703208DF8F6
:10346000170014E1E5E71EE0FEF770FF0390FFE7A9
:1034700043F67000C4F20200006800F00201002070
:10348000B0EB510F0ED0FFE7FEF760FF0399401A33
:1034900041F28931884204D3FFE703208DF81700F9
:1034A000F5E0E5E7FFE79DF80700012809D1FFE710
:1034B00043F64001C4F20201086820F08050086021
:1034C000FFE7FFE704988069002800F0DC80FFE751
:1034D00043F60800C4F20200006800F00C0008285F
:1034E00000F08580FFE70498806902285CD1FFE73F
:1034F0006021C4F2472100200860FEF727FF0390F7
:10350000FFE743F60000C4F20200006800F000711B
:103510000020B0EB516F0CD0FFE7FEF717FF0399C7
:10352000401A032804D3FFE703208DF81700AEE00C
:10353000E7E70499C869D1F820C04B6A8A6A40EA73
:103540000C0040EA8310D2034FF6FF739A43A2F5B2
:1035500080321043C96A40EA016043F60401C4F2B4
:10356000020108606021C4F2472101200860FEF7D3
:10357000EDFE0390FFE743F60000C4F2020000688E
:1035800000F000710020B0EB516F0CD1FFE7FEF7A7
:10359000DDFE0399401A032804D3FFE703208DF8CA
:1035A000170074E0E7E721E06021C4F24721002022
:1035B0000860FEF7CBFE0390FFE743F60000C4F27D
:1035C0000200006800F000710020B0EB516F0CD0D9
:1035D000FFE7FEF7BBFE0399401A032804D3FFE779
:1035E00003208DF8170052E0E7E7FFE74AE0049870
:1035F0008069012804D1FFE701208DF8170046E01B
:1036000043F60400C4F20200006802900498806946
:10361000012831D0FFE7029800F480000499C969BD
:10362000884229D1FFE7029800F03F000499096A17
:10363000884221D1FFE7029847F6C07108400499FB
:10364000496AB0EB811F17D1FFE7029800F44030C0
:103650000499896AC9034FF6FF729143A1F580313D
:10366000884209D1FFE7029800F070600499C96AA6
:10367000B0EB016F04D0FFE701208DF8170006E0E2
:10368000FFE7FFE7FFE700208DF81700FFE79DF851
:10369000170006B080BD000080B584B0029002988B
:1036A00020B9FFE701208DF80F0072E00298406A10
:1036B00060B9FFE702984068B0F5827F01D1FFE76B
:1036C00003E002990020C861FFE705E002990020AD
:1036D000086102994861FFE7029900208862029818
:1036E00090F8510040B9FFE70299002081F850009E
:1036F000029800F053F8FFE70299022081F8510088
:1037000002980168086820F040000860029A01925F
:1037100011685068D2F808C0D36800F482700CF4C5
:10372000044C604403F400631844136903F002037B
:103730001844536903F001031844936903F40073B8
:103740001844D36903F038031844136A03F0800364
:103750001843926A02F4005210430860029801680C
:103760008369426A042000EA134002F01002104408
:10377000486002980168C86920F40060C861029935
:1037800000204865029A012182F851108DF80F003F
:10379000FFE79DF80F0004B080BD000080B58EB03B
:1037A0000D9000200C900B900A90099008900D98B5
:1037B000006843F20001C4F20101884233D1FFE7FF
:1037C000FFE70020079043F64400C4F202000168BE
:1037D00041F480510160006800F480500790079820
:1037E000FFE7FFE70020069043F63000C4F2020036
:1037F000016841F001010160006800F001000690DD
:103800000698FFE7E02008900220099000200A9027
:1038100003200B9005200C900020C4F2020008A9A0
:10382000FEF7A0FB93E00D98006843F60041C4F258
:103830000001884240F08A80FFE7FFE70020059002
:1038400043F64000C4F20200016841F40041016007
:10385000006800F4004005900598FFE7FFE70020AE
:10386000049043F63000C4F20200016841F0040104
:103870000160006800F0040004900498FFE74FF432
:10388000E050089002200990002002900A90032046
:103890000B9006200C9040F60000C4F2020008A92C
:1038A000FEF760FB029940F2AC30C2F200000390D8
:1038B00046F21002C4F20202026041608160C160FF
:1038C0004FF48062026141618161C1614FF4003255
:1038D00002624162FEF74AFA18B1FFE7FDF736FDD2
:1038E000FFE7FFE70D9840F2AC31C2F20001C1647E
:1038F0000D988863FFE740F20C40C2F2000001908F
:1039000046F28801C4F202010160002141604022B8
:103910008260C1604FF48062026141618161C16176
:103920004FF4803202624162FEF720FA18B1FFE7DD
:10393000FDF70CFDFFE7FFE70D9840F20C41C2F2E6
:10394000000181640D988863FFE7FFE7FFE70EB091
:1039500080BD000080B58CB0DDF838C00A900991B8
:103960000892ADF81E3001200390FEF7EFFC0490A2
:103970000A9890F851008DF817000A984068069050
:10398000BDF81E00ADF81C009DF81700012812D0EC
:10399000FFE70698B0F5827F09D1FFE70A988068B3
:1039A00028B9FFE79DF81700042804D0FFE702209C
:1039B0008DF82F009BE1099838B1FFE7089820B1F6
:1039C000FFE7BDF81E0020B9FFE701208DF82F00AA
:1039D0008DE1FFE70A9890F85000012804D1FFE735
:1039E00002208DF82F0082E10A99012081F8500011
:1039F000FFE7FFE70A9890F85100042805D0FFE799
:103A00000A99052081F85100FFE70A9900204865CE
:103A100008990A9A9163BDF81E100A9AD187BDF8D9
:103A20001E100A9A918709990A9A1163BDF81E100F
:103A30000A9AD186BDF81E100A9A91860A990864DE
:103A40000A9948640A980068006800F0400040281D
:103A500007D0FFE70A980168086840F04000086056
:103A6000FFE70A98C068B0F5006F40F08180FFE77B
:103A70000A98406828B1FFE7BDF81C0001280ED164
:103A8000FFE70A980168006B0088C8600A99086B14
:103A9000023008630A99C88E0138C886FFE7FFE73D
:103AA0000A98C18E0120019039B9FFE70A98C08FAA
:103AB000002818BF01200190FFE70198C0070028E7
:103AC00055D0FFE70A98006880688007002818D55D
:103AD000FFE70A98C08EA0B1FFE70398012810D134
:103AE000FFE70A980168006B0088C8600A99086BB4
:103AF000023008630A99C88E0138C88600200390F6
:103B0000FFE70A9800688068C007A8B1FFE70A9835
:103B1000C08F88B1FFE70A980068C0680A99896B6E
:103B200008800A99886B023088630A99C88F013827
:103B3000C88701200390FFE7FEF708FC0499401AAC
:103B40000E99884212D3FFE70E98013070B1FFE75B
:103B50000A99012081F85100FFE70A99002081F8B5
:103B60005000FFE703208DF82F00C0E098E782E0C7
:103B70000A98406828B1FFE7BDF81C0001280ED163
:103B8000FFE70A980168006B007808730A99086BD0
:103B9000013008630A99C88E0138C886FFE7FFE73D
:103BA0000A98C18E0120009039B9FFE70A98C08FAA
:103BB000002818BF01200090FFE70098C0070028E8
:103BC00058D0FFE70A98006880688007002818D559
:103BD000FFE70A98C08EA0B1FFE70398012810D133
:103BE000FFE70A980168006B007808730A99086B70
:103BF000013008630A99C88E0138C88600200390F6
:103C0000FFE70A9800688068C007A8B1FFE70A9834
:103C1000C08F88B1FFE70A980068C0680A99896B6D
:103C200008700A99886B013088630A99C88F013837
:103C3000C88701200390FFE7FEF788FB0499401A2C
:103C40000E99884204D3FFE70E98013018B9FFE7B8
:103C50000E9870B9FFE70A99012081F85100FFE73B
:103C60000A99002081F85000FFE703208DF82F000B
:103C70003DE095E7FFE70A980E99049A03F070F982
:103C800068B1FFE70A9920204865FFE70A990020FC
:103C900081F85000FFE701208DF82F0027E00A98F7
:103CA000806870B9FFE7FFE7002002900A9800687B
:103CB000C06802900A980068806802900298FFE746
:103CC000FFE70A99012081F85100FFE70A990020D7
:103CD00081F85000FFE70A98406D20B1FFE701200E
:103CE0008DF82F0003E000208DF82F00FFE79DF8EE
:103CF0002F000CB080BD000080B582B0019001980B
:103D000003F074FB02B080BD85B003900291FFE721
:103D1000039890F83C00012804D1FFE702208DF8B9
:103D200013007EE00399012081F83C00FFE7FFE7E4
:103D30000399022081F83D000398006840680190D3
:103D40000398006880680090019820F0700001904E
:103D50000298016801980843019001980399096845
:103D60004860039800680021C4F2010188423CD0F9
:103D7000FFE703980068B0F1804F36D0FFE7039863
:103D8000006840F20041C4F2000188422DD0FFE7F4
:103D90000398006840F60001C4F20001884224D074
:103DA000FFE70398006840F60041C4F20001884232
:103DB0001BD0FFE70398006840F20041C4F2010104
:103DC000884212D0FFE70398006844F20001C4F271
:103DD0000101884209D0FFE70398006841F600011D
:103DE000C4F2000188420ED1FFE7009820F0800065
:103DF0000090029841680098084300900098039949
:103E000009688860FFE70399012081F83D00FFE71A
:103E10000399002081F83C00FFE700208DF8130093
:103E2000FFE79DF8130005B07047000080B582B031
:103E30000090009820B9FFE701208DF807003FE0CF
:103E4000009890F83D0040B9FFE70099002081F804
:103E50003C00009800F038F8FFE70099022081F854
:103E60003D00009951F8040B03F05EFB009901201E
:103E700081F84600FFE70099012081F83E00009993
:103E800081F83F00009981F84000009981F84100D5
:103E9000FFE7FFE70099012081F84200009981F8CF
:103EA0004300009981F84400009981F84500FFE73C
:103EB0000099012081F83D0000208DF80700FFE700
:103EC0009DF8070002B080BD84B00390039800689D
:103ED00040F20041C4F20001884212D1FFE7FFE73F
:103EE0000020029043F64000C4F20200016841F055
:103EF00002010160006800F0020002900298FFE7F2
:103F000037E00398006840F60041C4F2000188429F
:103F100012D1FFE7FFE70020019043F64000C4F212
:103F20000200016841F008010160006800F008002B
:103F300001900198FFE71BE00398006844F200013C
:103F4000C4F20101884212D1FFE7FFE70020009090
:103F500043F64400C4F20200016841F4803101607C
:103F6000006800F4803000900098FFE7FFE7FFE76B
:103F7000FFE704B07047000080B586B0049003915D
:103F800000208DF80B00FFE7049890F83C00012812
:103F900004D1FFE702208DF81700ABE0049901205F
:103FA00081F83C00FFE7FFE70499022081F83D001B
:103FB0000498006880680190019820F077000190D3
:103FC000019820F47F400190019804990968886065
:103FD000039800680090002872D0FFE7009810282E
:103FE0006ED0FFE7009820286AD0FFE700983028BD
:103FF00066D0FFE70098402855D0FFE7009850288A
:1040000037D0FFE70098602840D0FFE7009870287D
:104010000BD0FFE70098B0F5805F05D0FFE7009870
:10402000B0F5005F16D052E055E004980068039B9D
:104030005A689968DB6803F04FFB04980068806851
:104040000190019840F07700019001980499096867
:10405000886040E004980068039B5A689968DB68B0
:1040600003F03AFB04980168886840F48040886057
:1040700031E004980068039A5168D26803F018FD93
:1040800004980068502103F041FB24E00498006884
:10409000039A5168D26803F033FD049800686021E8
:1040A00003F034FB17E004980068039A5168D26863
:1040B00003F0FEFC04980068402103F027FB0AE0AF
:1040C000049800680399096803F020FB03E00120CD
:1040D0008DF80B00FFE70499012081F83D00FFE710
:1040E0000499002081F83C00FFE79DF80B008DF853
:1040F0001700FFE79DF8170006B080BD80B586B0B9
:1041000004900391049820B9FFE701208DF817006F
:1041100088E0049890F83D0040B9FFE7049900203A
:1041200081F83C00049800F081F8FFE70499022030
:1041300081F83D0004980168886844F207029043C2
:104140008860049951F8040B03F0EEF904980068B4
:104150008068029004980068806901900498006863
:10416000006A009003980168029808430290019841
:1041700040F203318843019003998868896940EAD5
:104180000121019808430190019840F60C418843B1
:10419000019001984FF2F001884301900399C8689B
:1041A000C96940EA0121019808430190039908690F
:1041B000096A000140EA0131019808430190009822
:1041C00020F022000090009820F0880000900399D1
:1041D0004868496940EA0111009808430090029834
:1041E00004990968886001980499096888610098B1
:1041F0000499096808620499012081F8460004992D
:1042000081F83E00049981F83F00049981F842004A
:10421000049981F84300049981F83D0000208DF84D
:104220001700FFE79DF8170006B080BD80B590B07D
:104230000F9000200E900D900C900B900A900F980C
:104240000068B0F1804F5AD1FFE7FFE700200990E6
:1042500043F64000C4F20200016841F00101016030
:10426000006800F0010009900998FFE7FFE70020CF
:10427000089043F63000C4F20200016841F00101E9
:104280000160006800F0010008900898FFE7FFE770
:104290000020079043F63000C4F20200016841F0AC
:1042A00002010160006800F0020007900798FFE734
:1042B0004FF400400A90022001900B9000200290E1
:1042C0000C900D90012003900E900020C4F202008B
:1042D0000AA90491FDF746FE019B029A03980499EE
:1042E0004FF0080CCDF828C00B930C920D920E9055
:1042F00040F20040C4F20200FDF734FE3CE00F98AB
:10430000006840F60001C4F20001884233D1FFE7A3
:10431000FFE70020069043F64000C4F20200016867
:1043200041F004010160006800F004000690069866
:10433000FFE7FFE70020059043F63000C4F20200DB
:10434000016841F008010160006800F00800059074
:104350000598FFE74FF440500A9002200B9000218F
:104360000C910D910E9040F60040C4F202000AA993
:10437000FDF7F8FDFFE7FFE710B080BD80B58AB01C
:1043800009900020089007900690059004900998E5
:10439000006840F20041C4F20001884221D1FFE7E9
:1043A000FFE70020039043F63000C4F202000168EA
:1043B00041F002010160006800F0020003900398E0
:1043C000FFE7132004900220059000210691079139
:1043D000089040F20040C4F2020004A9FDF7C2FDBB
:1043E00055E00998006840F60041C4F20001884297
:1043F00020D1FFE7FFE70020029043F63000C4F22F
:104400000200016841F001010160006800F0010054
:1044100002900298FFE70C200490022005900021F2
:104420000691079108900020C4F2020004A9FDF74C
:1044300099FD2BE00998006844F20001C4F20101E3
:10444000884222D1FFE7FFE70020019043F63000C9
:10445000C4F20200016841F010010160006800F040
:10446000100001900198FFE7602004900220059061
:104470000020069007900320089041F20000C4F24B
:10448000020004A9FDF76EFDFFE7FFE7FFE70AB0B2
:1044900080BD000080B586B0049003910292002098
:1044A0008DF80700FFE7049890F83C00012804D13C
:1044B000FFE702208DF8170089E00499012081F8B8
:1044C0003C00FFE7FFE7029800900C2800F27080A4
:1044D0000099DFE801F0076D6D6D206D6D6D3A6D2F
:1044E0006D6D530004980068039903F025F9049852
:1044F0000168886940F0080088610498016888694B
:1045000020F00400886103980269049801688869B2
:104510001043886150E004980068039903F082F921
:1045200004980168886940F4006088610498016813
:10453000886920F4806088610398026904980168A2
:10454000886940EA0220886136E00498006803998F
:1045500003F0E2F904980168C86940F00800C861F6
:1045600004980168C86920F00400C86103980269D2
:1045700004980168C8691043C8611DE00498006888
:10458000039903F043FA04980168C86940F4006095
:10459000C86104980168C86920F48060C861039804
:1045A000026904980168C86940EA0220C86103E012
:1045B00001208DF80700FFE7FFE70499002081F84C
:1045C0003C00FFE79DF807008DF81700FFE79DF816
:1045D000170006B080BD000080B582B00090009842
:1045E00020B9FFE701208DF807003FE0009890F820
:1045F0003D0040B9FFE70099002081F83C00009899
:1046000000F038F8FFE70099022081F83D0000999A
:1046100051F8040B02F088FF0099012081F8460050
:10462000FFE70099012081F83E00009981F83F00E2
:10463000009981F84000009981F84100FFE7FFE709
:104640000099012081F84200009981F84300009907
:1046500081F84400009981F84500FFE700990120A6
:1046600081F83D0000208DF80700FFE79DF8070066
:1046700002B080BD81B0009001B0704780B582B0BB
:104680000090009820B9FFE701208DF8070040E076
:104690000098806908B1FFE700E0FFE7009890F814
:1046A000410040B9FFE70099002081F840000098E0
:1046B00000F034F8FFE70099242081F841000098C9
:1046C0000168C86820F40050C860009803F08CFAB4
:1046D00000980168086920F490400861009801681A
:1046E000486920F02A00486100980168C86840F4D1
:1046F0000050C860009900204864009A202182F888
:104700004110009A82F84210009948638DF8070022
:10471000FFE79DF8070002B080BD000080B590B0B3
:104720000F9000200E900D900C900B900A900F9817
:10473000006844F60041C4F20001884232D1FFE72C
:10474000FFE70020099043F64000C4F20200016830
:1047500041F400210160006800F4002009900998EC
:10476000FFE7FFE70020089043F63000C4F20200A4
:10477000016841F001010160006800F0010008904B
:104780000898FFE703200A9002210B9100210C9169
:104790000D9008200E900020C4F202000AA9FDF737
:1047A000E1FBF8E00F98006841F20001C4F201015A
:1047B000884234D1FFE7FFE70020079043F644002A
:1047C000C4F20200016841F010010160006800F0CD
:1047D000100007900798FFE7FFE70020069043F6D8
:1047E0003000C4F20200016841F00101016000687C
:1047F00000F0010006900698FFE74FF4C0600A90B1
:1048000002200B9000200C9003200D9007200E90AA
:104810000020C4F202000AA9FDF7A4FBBAE00F9839
:10482000006844F20041C4F20001884234D1FFE73D
:10483000FFE70020059043F64000C4F20200016843
:1048400041F400310160006800F4003005900598E3
:10485000FFE7FFE70020049043F63000C4F20200B7
:10486000016841F008010160006800F00800049050
:104870000498FFE760200A9002200B9000200C9023
:1048800003200D9007200E9040F60040C4F2020075
:104890000AA9FDF767FB7CE00F98006844F6000169
:1048A000C4F20001884235D1FFE7FFE70020039002
:1048B00043F64000C4F20200016841F48021016027
:1048C000006800F4802003900398FFE7FFE70020D2
:1048D000029043F63000C4F20200016841F0080182
:1048E0000160006800F0080002900298FFE74FF4B2
:1048F00040700A9002200B9000200C9003200D9035
:1049000007200E9040F60040C4F202000AA9FDF70D
:1049100029FB3DE00F98006841F20041C4F201011B
:10492000884234D1FFE7FFE70020019043F64400BE
:10493000C4F20200016841F020010160006800F04B
:10494000200001900198FFE7FFE70020009043F668
:104950003000C4F20200016841F004010160006807
:1049600000F0040000900098FFE7C0200A900220A9
:104970000B9000200C9003200D9008200E9040F624
:104980000000C4F202000AA9FDF7ECFAFFE7FFE716
:10499000FFE7FFE7FFE710B080BD000080B58AB0F9
:1049A00008900791ADF81A2005930020029008980E
:1049B00090F84100202840F08180FFE7079820B15F
:1049C000FFE7BDF81A0020B9FFE701208DF82700A6
:1049D00078E00899002048640899212081F8410076
:1049E000FDF7B4FC0290BDF81A0008998884BDF860
:1049F0001A000899C88408988068B0F5805F09D1CA
:104A0000FFE70898006928B9FFE70020049007989D
:104A1000039004E00798049000200390FFE7FFE76D
:104A20000898C08C78B3FFE70898029B05996A46FE
:104A300011608021002203F075F940B1FFE7089969
:104A4000202081F8410003208DF827003AE00498E7
:104A500058B9FFE7039800886FF35F200899096849
:104A6000486003980230039008E0049800780899A1
:104A700009684860049801300490FFE70899C88CE1
:104A80000138C884CCE70898029B05996A461160F2
:104A90004021002203F046F940B1FFE708992020A9
:104AA00081F8410003208DF827000BE008992020B1
:104AB00081F8410000208DF8270003E002208DF8E6
:104AC0002700FFE79DF827000AB080BDFFE7FEE75B
:104AD00080B582B00190FFE740F2C020C2F2000032
:104AE00040F29421C2F2000141F2BC02C2F2000283
:104AF000FBF728FE0A2005F029FAEDE780B58EB015
:104B0000ADF836000C910B92BDF8360000EE100A9D
:104B1000B8EE400A9FED3E1A80EE010A8DED0A0ABA
:104B20000C9890ED020A9DED0A1A20EE010A8DED17
:104B3000090A0C9890ED000A9DED0A1A20EE010A70
:104B40008DED080A0C9890ED010A9DED0A1A20EEF1
:104B5000010A8DED070A9DED091A0B9890ED020AE6
:104B600030EE010A80ED020A9DED080A8DED030A80
:104B70000B9890ED020A05F0EDFE8DED020A9DED19
:104B8000070A8DED010A0B9890ED020A05F03AFE36
:104B90009DED011A9DED022AB0EE403A9DED030A0B
:104BA00021EE031A20EE020A30EE011A0B9890ED66
:104BB000010A30EE010A80ED010A9DED080A8DED33
:104BC000060A0B9890ED020A05F01CFE8DED050A11
:104BD0009DED070A8DED040A0B9890ED020A05F091
:104BE000B9FE9DED041A9DED052AB0EE403A9DED0B
:104BF000060A21EE031A20EE020A30EE411A0B9843
:104C000090ED000A30EE010A80ED000A0EB080BD82
:104C100000007A4481B0009000990020C86000999B
:104C200008610099486101B0704700000000000071
:104C300080B58EB00D900C910B920B9800680A9085
:104C40000B98406809900D98006808900D9840688E
:104C500007900D98806806900D98C06805909DEDAE
:104C6000080A9DED071A30EE010A9DED061A30EE96
:104C7000010A9DED051A30EE010A10EE100A06F049
:104C800045FD41EC100B51EC100B9FED370B53EC35
:104C9000102B0193009206F0C9F841EC100B51EC77
:104CA000100B05F0DDFF0C9908609DED081A9DEDD5
:104CB000070A30EE411A9DED060A30EE010A9DED1D
:104CC000051A30EE410A10EE100A06F01FFD009A98
:104CD000019B41EC100B51EC100B06F0A7F841ECD6
:104CE000100B51EC100B05F0BBFF0C9948609DEDCB
:104CF000081A9DED070A30EE410A9DED061A30EEC6
:104D0000410A9DED051A30EE010A10EE100A06F078
:104D1000FDFC41EC100B8DED020B9DED0A0A9DEDA3
:104D2000091A30EE010A10EE100A06F0EFFC009AA4
:104D3000019B41EC100B51EC100B06F0FBFA9DEDC2
:104D4000021B41EC100B51EC110B53EC102B06F035
:104D50006DF841EC100B51EC100B05F081FF0C9934
:104D600088600EB080BD00BF000000000000104051
:104D700085B002AA009202460098049280ED010AD2
:104D8000C0ED000A8DF80710039804990860029896
:104D9000049948609DF8070004990872049900205E
:104DA000C860049908610499486105B07047000023
:104DB00086B00590049103920398006802900398CE
:104DC000406801900398007A0146009120B1FFE706
:104DD0000098012859D0B1E0059890ED002A90ED97
:104DE000011A90ED020A31EE421A9DED022A9DED64
:104DF000013A32EE032A20EE020A30EE010A04984C
:104E000080ED000A059890ED002A90ED010A90EDE2
:104E1000021A30EE020A9DED022A9DED013A32EEB1
:104E2000032A21EE021A30EE410A049880ED010AAD
:104E3000059890ED002A90ED010A90ED021A30EEEF
:104E4000420A9DED022A9DED013A32EE032A21EE3F
:104E5000021A30EE410A049880ED020A059890ED9E
:104E6000002A90ED011A90ED020A31EE021A9DED32
:104E7000022A9DED013A32EE032A20EE020A30EEBC
:104E8000010A049880ED030A59E0059890ED000AA4
:104E900090ED012A90ED021A30EE420A9DED022AB1
:104EA0009DED013A32EE032A21EE021A30EE410A5C
:104EB000049880ED000A059890ED001A90ED012A03
:104EC00090ED020A31EE021A9DED022A9DED013AA3
:104ED00032EE032A20EE020A30EE010A049880ED39
:104EE000010A059890ED000A90ED012A90ED021A52
:104EF00030EE020A9DED022A9DED013A32EE032AC0
:104F000021EE021A30EE410A049880ED020A05985B
:104F100090ED001A90ED012A90ED020A31EE421A4E
:104F20009DED022A9DED013A32EE032A20EE020A9F
:104F300030EE010A049880ED030A00E0FFE706B0B6
:104F40007047000080B582B0ADF80600ADF80410DF
:104F5000ADF80220ADF800302A2000F0CBFCBDF8FF
:104F6000060000F0AFFCBDF8020000F0ABFC2B2007
:104F700000F0C0FCBDF80400183080B200F0A2FCC4
:104F8000BDF80000183080B200F09CFC2C2000F02E
:104F9000B1FC02B080BD000080B582B0ADF8060063
:104FA000ADF80410ADF80220BDF80620BDF80430BD
:104FB00010461946FFF7C6FFBDF8020000F082FC5C
:104FC00002B080BD80B584B084460698ADF80EC0AE
:104FD000ADF80C10ADF80A20ADF80830ADF80600B9
:104FE000BDF80E00BDF80C10BDF80A20013ABDF85E
:104FF0000830013B92B29BB2FFF7A4FFBDF80C0052
:10500000ADF80400FFE7BDF80400BDF808108842C1
:105010001EDAFFE7BDF80E00ADF80200FFE7BDF8AD
:105020000200BDF80A1088420BDAFFE7BDF806005F
:1050300000F048FCFFE7BDF802000130ADF80200C7
:10504000EDE7FFE7BDF804000130ADF80400DAE752
:1050500004B080BD7047000080B592B0FFF7FAFF42
:1050600040F20040C4F2020000904FF480410191F0
:1050700000220D92FDF752F96420039004F066FFC0
:105080000098019901220292FDF748F9039804F073
:105090005DFF029A41F20000C4F202004FF4806109
:1050A000FDF73CF9039804F051FF112000F022FCB9
:1050B0007820119004F04AFFB12000F01BFC05207D
:1050C0000F9000F00DFC3C20079000F009FC0798C1
:1050D00000F006FCB22000F00DFC0F9800F000FC80
:1050E000079800F0FDFB079800F0FAFBB32000F0F2
:1050F00001FC0F9800F0F4FB079800F0F1FB079813
:1051000000F0EEFB0F9800F0EBFB079800F0E8FBD7
:10511000079800F0E5FBB42000F0ECFB032000F062
:10512000DFFBC02000F0E6FB0E20049000F0D8FB6F
:10513000049800F0D5FB042000F0D2FBC12000F061
:10514000D9FBC520069000F0CBFBC22000F0D2FBBB
:105150000D20089000F0C4FB0D9800F0C1FBC320A7
:1051600000F0C8FB8D20059000F0BAFB2A2000F06B
:10517000B7FBC42000F0BEFB059800F0B1FBEE20A9
:1051800000F0AEFB069800F0B5FB062000F0A8FB8F
:10519000362000F0AFFB119800F0A2FB3A2000F09F
:1051A000A9FB552000F09CFBE02000F0A3FB0B20A6
:1051B00000F096FB172000F093FB0A2000F090FB14
:1051C000089800F08DFB1A2000F08AFB1920099046
:1051D00000F086FB162000F083FB1D200A9000F0F3
:1051E0007FFB21200B9000F07BFB26200C9000F031
:1051F00077FB372000F074FB079800F071FB0D98E7
:1052000000F06EFB09200E9000F06AFB0F9800F092
:1052100067FB1020109000F063FBE12000F06AFBB8
:105220000C2000F05DFB099800F05AFB0E9800F08E
:1052300057FB089800F054FB1B2000F051FB099825
:1052400000F04EFB152000F04BFB0A9800F048FBE5
:105250000B9800F045FB0C9800F042FB392000F061
:105260003FFB3E2000F03CFB0D9800F039FB0E9810
:1052700000F036FB0F9800F033FB109800F030FB85
:10528000119804F063FE292000F034FB12B080BDB9
:10529000B0B588B094468E4604460E980D990C9A87
:1052A000ADF81E40ADF81CE08DF81BC0ADF818300D
:1052B000ADF816208DF815108DF81400002001901F
:1052C0008DF81000BDF81E00ADF80A009DF815001D
:1052D00040088DF812009DF81220D008012101EB42
:1052E000D2015207002A18BF08469DF815104843FE
:1052F000ADF80C009DF81B0020388DF81B00BDF8A0
:105300001E00BDF81C109DF812200244013A9DF8C1
:1053100015300B44013B92B29BB2FFF713FE01988C
:10532000ADF80E00FFE7BDF80E00BDF80C10884286
:1053300080F2C180FFE79DF815000C2810D1FFE72F
:105340009DF81B0000EB40014BF6C400C0F60000C6
:1053500000EB8100BDF80E10405C8DF813003EE0BC
:105360009DF8150010280ED1FFE79DF81B104BF695
:105370003850C0F6000000EB0110BDF80E10405C84
:105380008DF813002AE09DF81500182810D1FFE7CA
:105390009DF81B0000EB40014CF22830C0F60000E5
:1053A00000EB0110BDF80E10405C8DF8130014E006
:1053B0009DF8150020280ED1FFE79DF81B104DF237
:1053C000F840C0F6000000EB8110BDF80E10405C04
:1053D0008DF8130000E06EE0FFE7FFE7FFE7002035
:1053E0008DF81100FFE79DF8110007285CDCFFE74E
:1053F0009DF8140030BBFFE79DF813009DF81110D5
:10540000C840C00728B1FFE7BDF8180000F05AFAFD
:1054100004E0BDF8160000F055FAFFE79DF8100013
:1054200001308DF810009DF810209DF81210B2FB8D
:10543000F1F000FB112020B9FFE700208DF81000EB
:1054400032E02AE09DF813009DF81110C840C00713
:1054500048B1FFE7BDF81E00BDF81C10BDF81820CC
:10546000FFF79AFDFFE7BDF81E000130ADF81E0002
:10547000BDF81E00BDF80A10401A9DF812108842AF
:105480000AD1FFE7BDF80A00ADF81E00BDF81C0008
:105490000130ADF81C0007E0FFE7FFE79DF81100C1
:1054A00001308DF811009EE7FFE7BDF80E000130D6
:1054B000ADF80E0037E708B0B0BD0000B0B58AB057
:1054C0008C4686460F980E99ADF826E0ADF824C0BC
:1054D0008DED080A8DF81F20ADF81C30ADF81A10BC
:1054E0008DF819009DF8190040088DF816009DED03
:1054F000080A9FED451A20EE010ABDEEC00A10EE23
:10550000100AADF8140000208DF81800FFE79DF890
:1055100018009DF81F10884273DAFFE7BDF81400E9
:1055200004909DF81F109DF81800C0430844C1B2B4
:105530000A2003F049FB01460498B0FBF1F049F65C
:105540009A11C1F69911A0FB012101EB8101A0EB99
:1055500041008DF817009DF818009DF81F100239C2
:10556000884228D1FFE7BDF826209DF81F000238A9
:105570009DF8161010FB0120BDF82410BDF81C305A
:10558000BDF81A209DF819E0EC460024CCF808403C
:10559000CCF804E0CCF8002080B22E22FFF778FE91
:1055A0009DF8180001308DF818009DF81F0001309B
:1055B0008DF81F00FFE7BDF826209DF818009DF824
:1055C000161010FB0120BDF824109DF81720303272
:1055D000BDF81C30BDF81AC09DF81940EE460025F4
:1055E000CEF80850CEF80440CEF800C080B2D2B257
:1055F000FFF74EFEFFE79DF8180001308DF8180008
:1056000085E70AB0B0BD00BF0000C842B0B588B0A1
:1056100094468E4604460E980D990C9AADF81E409D
:10562000ADF81CE0CDF818C0ADF81630ADF8142078
:105630008DF813108DF81200FFE70698007818B364
:10564000FFE7BDF81E00BDF81C10069A1278BDF8E1
:105650001630BDF814C09DF813409DF81250EE4668
:10566000CEF80850CEF80440CEF800C0FFF710FE88
:105670009DF81310BDF81E0000EB5100ADF81E00A0
:10568000069801300690D8E708B0B0BDB0B594B028
:105690001390FFF7E1FC69464FF6FF7008600021A8
:1056A000A02250230846FFF78DFCFFE740F2C02000
:1056B000C2F20000049090ED000A69461025119591
:1056C0004D604FF6FF700D90086000240394142184
:1056D000059104220B924FF4784310932046FFF774
:1056E000EDFE05990D98109B6A4694605560106018
:1056F0004EF6B842C0F600020C9230200690FFF73A
:1057000085FFDDF810C005990B9A0D98109B9CED54
:10571000010AEC46CCF80450CCF800003A2007907F
:10572000FFF7CCFE0C9A0D98109B69468C604D607B
:1057300008606A200E9028210991FFF767FFDDF8C5
:1057400010C005990B9A0D98109B9CED020AEC462F
:10575000CCF80450CCF8000074200890FFF7AEFE9F
:1057600009990B9A0D98109B40F2942CC2F2000CF0
:10577000CDF828C09CED000AEC46CCF80450CCF8DB
:1057800000002046FFF79AFE069809990C9ADDF86A
:1057900034C0109BEE46CEF80840CEF80450CEF848
:1057A00000C0FFF733FF079809990B9ADDF834C062
:1057B000109BDDF828E09EED010AEE46CEF804507D
:1057C000CEF800C0FFF77AFE09990C9ADDF834C0D4
:1057D0000E98109BEE46CEF80840CEF80450CEF856
:1057E00000C0FFF713FF089809990B9ADDF834C041
:1057F000109BDDF828E09EED020AEE46CEF804503C
:10580000CEF800C0FFF75AFE0B9ADDF844C00D98A1
:10581000109B41F2BC01C2F2000191ED000A694601
:10582000C1F804C008600A203C210F91FFF746FE32
:105830000C9A0D980F99109BDDF844E0EC46CCF8DB
:105840000840CCF804E0CCF800003420FFF7DEFE7E
:10585000DDF844C00D980F99109B6A469460C2F819
:1058600004C010604EF6FB42C0F600023E20FFF777
:10587000CDFE0C9A0D980F99109BDDF844E0EC4694
:10588000CCF80840CCF804E0CCF80000642012907A
:10589000FFF7BCFE0D9A0E980F99109BDDF844E0BF
:1058A000EC46CCF80840CCF804E0CCF800204EF6EA
:1058B000E542C0F60002FFF7A9FE129804F046FB8D
:1058C000F4E6000080B582B0ADF806009DF8070050
:1058D00000F02AF89DF8060000F026F802B080BD1E
:1058E00080B582B08DF807009DF8070000F01CF825
:1058F00002B080BD80B584B08DF80F0040F200404A
:10590000C4F2020001904FF4805102910022FCF792
:1059100005FD9DF80F0000F007F80198029901229B
:10592000FCF7FCFC04B080BD80B582B08DF80700A8
:1059300040F60040C4F202004FF480610022009261
:10594000FCF7ECFC00988DF80600FFE79DF80600D8
:10595000072838DCFFE740F20040C4F202004FF4B1
:1059600000510022FCF7DAFC9DF807000006002831
:105970000AD5FFE740F20040C4F202004FF40041B4
:105980000122FCF7CBFC09E040F20040C4F2020027
:105990004FF400410022FCF7C1FCFFE740F2004059
:1059A000C4F202004FF400510122FCF7B7FC9DF84D
:1059B000070040008DF80700FFE79DF80600013062
:1059C0008DF80600C2E740F60040C4F202004FF432
:1059D00080610122FCF7A2FC02B080BD80B586B0D8
:1059E00000220092059204920392029240F2CC208F
:1059F000C2F20000019042F20001C4F20101016014
:105A00004FF48031416082600261027680F820208C
:105A1000C2620121C0F600718162C2600121C161D0
:105A200080F830204161FBF7A1FD18B1FFE7FBF7DB
:105A30008DFCFFE70A2002900120039000200490D3
:105A400040F2CC20C2F2000002A9FBF783FC18B19F
:105A5000FFE7FBF77BFCFFE706B080BD80B586B0B3
:105A600000220092059204920392029240F21430B6
:105A7000C2F20000019042F20011C4F20101016083
:105A80004FF48031416082600261027680F820200C
:105A9000C2620121C0F600718162C2600121C16150
:105AA00080F830204161FBF761FD18B1FFE7FBF79B
:105AB0004DFCFFE70A200290012003900020049093
:105AC00040F21430C2F2000002A9FBF743FC18B107
:105AD000FFE7FBF73BFCFFE706B080BD80B582B077
