:020000040800F2
:10000000C866002055020008114B0008F53B0008A7
:10001000014B0008F90500087962000800000000A3
:10002000000000000000000000000000E150000897
:10003000290D000800000000D14C0008895200087A
:100040006F0200086F0200086F0200086F020008CC
:100050006F0200086F0200086F0200086F020008BC
:100060006F0200086F0200086F0200086F020008AC
:100070006F0200086F0200086F0200086F0200089C
:100080006F0200086F0200086F0200086F0200088C
:100090006F0200086F0200086F0200086F0200087C
:1000A0006F0200086F0200086F0200086F0200086C
:1000B0006F0200086F0200086F0200086F0200085C
:1000C0006F0200086F0200086F0200086F0200084C
:1000D0006F0200086F0200086F0200086F0200083C
:1000E0006F0200086F0200086F0200086F0200082C
:1000F0006F0200086F0200086F0200086F0200081C
:100100006F0200086F0200086F0200086F0200080B
:100110006F0200086F0200086F0200086F020008FB
:100120006F0200086F0200086F0200086F020008EB
:100130006F0200086F0200086F0200086F020008DB
:100140006F0200086F0200086F0200086F020008CB
:100150006F0200086F0200086F0200086F020008BB
:100160006F0200086F0200086F0200086F020008AB
:100170006F0200086F0200086F0200080000000014
:100180006F0200086F02000800F002F800F052F859
:1001900014A696E8000CB244B344DA4501D100F04D
:1001A00049F8BAE80F000FA696E83000A5EB040561
:1001B00004EB0607AAEB0704A7F101074FEA1515A0
:1001C0004FEA3414A4F10104AC4201D300F032F838
:1001D00013F0010F18BFFB1A43F0010300F001F800
:1001E000DBE718476C8C00008C8C0000103A24BFB1
:1001F00078C878C1FAD8520724BF30C830C144BF8C
:1002000004680C6070470000704700000023002461
:1002100000250026103A28BF78C1FBD8520728BF16
:1002200030C148BF0B6070471FB508F0B6FD1FBD59
:1002300010B510BD00F0E5F81146FFF7F5FF06F028
:10024000FFF800F003F903B4FFF7F2FF03BC00F07E
:1002500007F900000948804709480047FEE7FEE724
:10026000FEE7FEE7FEE7FEE7FEE7FEE7FEE7FEE766
:1002700004480549054A064B704700005D530008D5
:1002800089010008C84E0020C8660020C85E002012
:10029000C85E002053EA020C00F069802DE9F04BA3
:1002A0004FF00006002B1FBFB3FA83F503FA05F4E5
:1002B00024FA05F65E4012BF1643B2FA82F502FA3E
:1002C00005F4C5F120051EBF22FA05FC44EA0C0422
:1002D000203556EA044C4FEA144418BF641C4FF012
:1002E00000084FF00009904271EB030C39D300294C
:1002F00019BFB1FA81F701FA07F6B0FA80F700FAF0
:1003000007F6C7F120071EBF20FA07FC46EA0C06D5
:100310002037B6FBF4FCA7EB0507103F07F01F0BD7
:10032000CBF120062CFA06F60CFA0BFB44BFB346C1
:100330000026202FA4BF5E464FF0000B5BEA060CA0
:1003400008BF4FF0010B19EB0B0948EB0608ABFB9C
:10035000027C06FB02CC0BFB03CCC01B71EB0C0137
:10036000C1E70B46024641464846BDE8F08B13B54F
:10037000084318BF4FF0FF300146AFF30080BDE8DF
:100380001C4070474FF0000200B513469446964655
:10039000203922BFA0E80C50A0E80C50B1F1200198
:1003A000BFF4F7AF090728BFA0E80C5048BF0CC046
:1003B0005DF804EB890028BF40F8042B08BF7047A4
:1003C00048BF20F8022B11F0804F18BF00F8012B16
:1003D000704770477047704710B500F00DF800681F
:1003E00010BD10B5044600F007F8046010BD000011
:1003F000004870472000002000487047200000207F
:1004000070477546FFF7F4FFAE4605006946534650
:1004100020F00700854618B020B5FFF729FFBDE89A
:1004200020404FF000064FF000074FF000084FF05B
:10043000000BAC46ACE8C009ACE8C009ACE8C009A8
:10044000ACE8C00921F007018D46704710B504469D
:10045000AFF300802046BDE81040FFF7F4BE000077
:1004600001491820ABBEFEE72600020082B00190D1
:1004700042F20030C4F2010000900099486820F474
:1004800040304860019842680099486810434860CD
:1004900001980168486820F48070486001980168FC
:1004A0000269486840EA022048600198016848688B
:1004B00020F04070486001980168826848681043E5
:1004C000486001980168886820F40060886001989D
:1004D0000168C2688868104388600198806A0121B9
:1004E000C0F60071884219D0FFE70198016888685A
:1004F00020F07060886001980168826A8868104303
:10050000886001980168886820F0405088600198F0
:100510000168C26A8868104388600CE0019801682D
:10052000886820F07060886001980168886820F011
:1005300040508860FFE701980168886820F0020059
:1005400088600198027E0168886840EA42008860FD
:10055000019890F82000C8B1FFE701980168486849
:1005600040F40060486001980168486820F46040E9
:10057000486001980168426A4EF20000CFF6FF70B1
:1005800000EB423248681043486006E00198016879
:10059000486820F400604860FFE701980168C86A75
:1005A00020F47000C86201980168C2690020CFF68B
:1005B000F07000EB0252C86A1043C86201980168EB
:1005C000886820F400708860019890F830200168F5
:1005D000886840EA4220886001980168886820F4B1
:1005E00080608860019801684269886840EA8220DA
:1005F000886002B070470000FFE7FEE780B58EB06C
:100600000D900C910B9200200A90FFE70A980328A6
:100610000CDCFFE70C980A9A50F822000D9941F87B
:100620002200FFE70A9801300A90EFE70B980D9936
:10063000C1F884010D980123019380F830300D99A1
:1006400040F62920C0F60000C1F888010D9946F255
:100650007D20C0F60000C1F88C0109930893079330
:100660000D983430099A032104919FED230A8DEDF2
:10067000050ADFED220ACDED020A9FED211A8DED6C
:10068000031A04F0F7FA019BDDED020A9DED031A4F
:1006900004999DED050A0D98A430089A04F0EAFA31
:1006A00004999DED050A0D9800F58A70079A0223BA
:1006B000DFED140A9FED141A04F0DCFA0D983130C6
:1006C00004F020FD00200690FFE70698032810DCC8
:1006D000FFE70D98069900EB8101002008610D9954
:1006E000069A01EB82010862FFE706980130069046
:1006F000EBE70EB080BD00BFCDCC4C3ECDCCCCBE28
:10070000CDCCCC3E9A9919BF9A99193F80B582B049
:100710000190ADF80210019901F12000D1F8842177
:1007200002F1240103F000FBBDF802000199D1F8A9
:10073000842102F124010C3203F05EFA0198D0F812
:1007400084110C3100F0ECF80198D0F884110C31D0
:1007500000F03AF80198D0F8882100F11001904794
:1007600002B080BD80B584B00390029101928DF8F3
:1007700003300398D0F88411029B18685A689B686C
:100780000B62CA6188610398D0F88411019B1868D4
:100790005A689B684B640A64C8639DF80300C007ED
:1007A00030B1FFE70398D0F8840103F0B1FAFFE716
:1007B0000399002081F830000398313004F0BAFC2E
:1007C0000398313004B080BD80B58AB0099008919B
:1007D000099890F83000002840F09C80FFE70998C5
:1007E000313004F097FC002840F09380FFE709982F
:1007F000D0F88401183007900998D0F884013C3073
:100800000690089890ED000A079890ED001A30EED7
:10081000410A10EE100A08F025FA41EC100B51ECD9
:10082000100B9FED3D0B52EC103BD20F62F3DF71CA
:1008300041EC100B8DED040B0698006808F012FADD
:100840009DED041B41EC100B51EC110B53EC102BE4
:1008500008F048FA00285BD1FFE7089890ED010AFC
:10086000079890ED011A30EE410A10EE100A08F0D8
:10087000F9F941EC100B51EC100B9FED270B52ECEA
:10088000103BD20F62F3DF7141EC100B8DED020BC8
:100890000698406808F0E6F99DED021B41EC100B4C
:1008A00051EC110B53EC102B08F01CFA80BBFFE746
:1008B000089890ED020A079890ED021A30EE410A6E
:1008C00010EE100A08F0CEF941EC100B51EC100BB1
:1008D0009FED110B52EC103BD20F62F3DF7141EC34
:1008E000100B8DED000B0698806808F0BBF99DEDAC
:1008F000001B41EC100B51EC110B53EC102B08F0CA
:10090000F1F928B9FFE70998313004F00BFCFFE753
:10091000FFE7FFE70AB080BD000000000000000014
:1009200080B58EB00D900C910D9890F83000014676
:10093000019140B1FFE70198012869D0FFE70198D4
:10094000022866D06EE00D98313004F0E3FB88B1E8
:10095000FFE70D99012081F8300000200B900A90EC
:1009600009900D9800F11001D0F8842109A803F036
:100970009BFA57E00D98D0F88401183008900D9834
:100980003430089991ED000A0C99D1ED000A05F078
:10099000F3FE0D98D0F8840190ED0C1A30EE010AA8
:1009A0008DED070A0D98A430089991ED010A0C9974
:1009B000D1ED010A05F0E0FE0D98D0F8840190ED2C
:1009C0000D1A30EE010A8DED060A0D9800F58A70B9
:1009D000089991ED020A0C99D1ED020A05F0CCFEBE
:1009E0000D98D0F8840190ED0E1A30EE010A8DEDCD
:1009F000050A0798029006980390059804900D98B0
:100A000000F11001D0F8842102A803F04DFA09E0AA
:100A100008E00D99D1F8842102F13000103103F083
:100A200043FAFFE70EB080BD80B584B00390029119
:100A300000200190FFE7019803280DDCFFE70298F2
:100A4000019A50F82200039951F822104862FFE7FA
:100A5000019801300190EEE703980068029991ED4A
:100A6000000A06F0B5FC03984068029991ED010A6E
:100A700006F0AEFC03988068029991ED020A06F038
:100A8000A7FC0398C068029991ED030A06F0A0FC48
:100A900004B080BD80B586B005AA82ED001A42ED93
:100AA000010A02ED020A02908DF807100298D0F8B0
:100AB00084110398049A059B8B634A6308639DF82D
:100AC0000700C00728B1FFE70299022081F8300033
:100AD0000CE00299012081F830000299D1F88421BC
:100AE00002F13000103103F0DFF9FFE706B080BDFE
:100AF00084B002908DED010A9DED010A029890EDFF
:100B0000001AB4EE410AF1EE10FA0BDBFFE79DED9F
:100B1000010A029890ED021AB4EE410AF1EE10FAC1
:100B200003DDFFE70020039028E09DED010A029815
:100B300090ED001A30EE410A8DED000A02989DED0D
:100B4000002A90ED064A90ED073A90ED081A90EDD4
:100B5000090A23EE023A33EE043A21EE021A21EE9C
:100B6000021A31EE031A20EE020A20EE020A20EEEB
:100B7000020A30EE010A8DED030AFFE79DED030A3C
:100B800004B0704780B58EB08DED0C1B8DED0A0B57
:100B90008DED083B8DED062B8DED045B8DED024B4D
:100BA00001909DED0A0B51EC100B07F0C9FC019967
:100BB00008609DED0C0B51EC100B07F0C1FC019986
:100BC00048609DED060B51EC100B07F0B9FC019944
:100BD00088609DED080B51EC100B07F0B1FC0199FA
:100BE000C8609DED020B51EC100B07F0A9FC0199B8
:100BF00008619DED040B51EC100B07F0A1FC01996D
:100C00004861019890ED001A90ED020A30EE410A19
:100C10008DED000A01994868886101990869C861E9
:100C2000019890ED012A90ED030A90ED043A90EDC1
:100C3000051A30EE420AB0EE082A20EE020A9DEDB7
:100C4000002A22EE024A80EE040A31EE011A31EE49
:100C5000031A81EE021A30EE410A80ED080A01986B
:100C600090ED010A90ED032A90ED041A90ED053AFB
:100C700030EE420A30EE000A9DED004A24EE042ACE
:100C800022EE044A80EE040A31EE031A81EE021AC3
:100C900030EE010A80ED090A0EB080BD84B00290EA
:100CA0008DED010A9DED010A029890ED001AB4EE57
:100CB000410AF1EE10FA0BDBFFE79DED010A029805
:100CC00090ED021AB4EE410AF1EE10FA03DDFFE7EF
:100CD0000020039024E09DED010A029890ED001A97
:100CE00030EE410A8DED000A029890ED073A90ED42
:100CF000081A90ED090A31EE011A9DED002A21EE45
:100D0000021A31EE031AB0EE083A20EE030A20EE82
:100D1000020A20EE020A30EE010A8DED030AFFE717
:100D20009DED030A04B070477047000072B6FFE7FC
:100D3000FEE7000085B00390029100200190FFE7DC
:100D4000039890F83C00012804D1FFE702208DF8B9
:100D50001300F7E00399012081F83C00FFE7FFE76B
:100D6000029800680A281CD3FFE70298008800EB6D
:100D70004000A0F11E01072000FA01F2039801686B
:100D8000C8689043C86002998868098801EB4101EE
:100D90001E3900FA01F203980168C8681043C86060
:100DA00018E00298008800EB4001072000FA01F2E9
:100DB0000398016808699043086102998868098866
:100DC00001EB410100FA01F2039801680869104340
:100DD0000861FFE70298406806281BD8FFE70298E1
:100DE000406800EB8000411F1F2000FA01F20398C9
:100DF0000168486B9043486302990888496801EB91
:100E00008101053900FA01F203980168486B10432B
:100E100048633DE0029840680C281CD8FFE7029820
:100E2000406800EB8000A0F123011F2000FA01F2CE
:100E300003980168086B9043086302990888496821
:100E400001EB8101233900FA01F203980168086B74
:100E5000104308631BE00298406800EB8000A0F19B
:100E600041011F2000FA01F203980168C86A90430B
:100E7000C86202990888496801EB8101413900FA8A
:100E800001F203980168C86A1043C862FFE7FFE7F0
:100E900042F20030C4F2010000900398006842F270
:100EA0000001C4F2010188420BD1FFE702980068FB
:100EB000122806D1FFE70099486840F48000486096
:100EC000FFE70398006842F20001C4F20101884282
:100ED0002ED1FFE702980068102805D0FFE702989E
:100EE0000068112824D1FFE70099486840F4000009
:100EF000486002980068102819D1FFE740F200000E
:100F0000C2F2000000684DF68361C4F21B31A0FB01
:100F10000110800C00EB800040000190FFE7019879
:100F200020B1FFE7019801380190F8E7FFE7FFE7FC
:100F3000FFE70399002081F83C00FFE700208DF8CF
:100F40001300FFE79DF8130005B0704780B584B02B
:100F5000029000208DF80700029820B9FFE70120D9
:100F60008DF80F0042E00298806A0121C0F60071FE
:100F7000884201D0FFE7FFE70298006C50B9FFE715
:100F8000029800F037F8029900204864029981F82D
:100F90003C00FFE70298006CC006002817D4FFE76A
:100FA0000298006C40F0020020F488500299086416
:100FB0000298FFF75BFA0299002048640298006CDF
:100FC00040F0010020F002000299086403E00120D3
:100FD0008DF80700FFE7FFE70299002081F83C0049
:100FE000FFE79DF807008DF80F00FFE79DF80F0061
:100FF00004B080BD80B58AB00990002008900790A9
:101000000690059004900998006842F20001C4F22D
:101010000101884230D1FFE7FFE70020039043F64B
:101020004400C4F20200016841F48071016000686C
:1010300000F4807003900398FFE7FFE70020029020
:1010400043F63000C4F20200016841F0040101607F
:10105000006800F0040002900298FFE73F2004902F
:10106000032005900020069040F60000C4F2020024
:1010700004A900F0FDF939E00998006842F2001176
:10108000C4F20101884230D1FFE7FFE70020019060
:1010900043F64400C4F20200016841F400710160AB
:1010A000006800F4007001900198FFE7FFE700205E
:1010B000009043F63000C4F20200016841F00401E0
:1010C0000160006800F0040000900098FFE73F20F6
:1010D0000490032005900020069040F60000C4F222
:1010E000020004A900F0C4F9FFE7FFE70AB080BDE1
:1010F00080B584B00290029820B9FFE701208DF8F6
:101100000F00E0E0029890F8200020B9FFE7029875
:1011100000F0DEF8FFE702980168086840F001007F
:10112000086000F099FB0190FFE7029800684068B2
:10113000C007A8B9FFE700F08FFB0199401A0B2800
:101140000DD3FFE70299486A40F4003048620299E3
:10115000052081F8200001208DF80F00B3E0E4E7BE
:1011600002980168086820F00200086000F074FB33
:101170000190FFE70298006840688007002815D5B5
:10118000FFE700F069FB0199401A0B280DD3FFE738
:101190000299486A40F4003048620299052081F8BB
:1011A000200001208DF80F008DE0E3E70298007E1B
:1011B000012807D1FFE702980168086840F0800025
:1011C000086006E002980168086820F08000086066
:1011D000FFE70298407E012807D1FFE702980168E7
:1011E000086840F04000086006E00298016808685E
:1011F00020F040000860FFE70298807E012807D1B8
:10120000FFE702980168086840F02000086006E0E7
:1012100002980168086820F020000860FFE7029843
:10122000C07E012807D1FFE702980168086820F016
:101230001000086006E002980168086840F010009D
:101240000860FFE70298007F012807D1FFE70298B6
:101250000168086840F00800086006E0029801682C
:10126000086820F008000860FFE70298407F012826
:1012700007D1FFE702980168086840F004000860A1
:1012800006E002980168086820F004000860FFE7A3
:10129000029B19685A689868D3F80CC040EA0C00A1
:1012A000D3F810C040EA0C005B691843013A1043C0
:1012B000C861029900204862029A012182F8201038
:1012C0008DF80F00FFE79DF80F0004B080BD00000F
:1012D00080B58CB00B9000200A9009900890079080
:1012E00006900B98006846F20041C4F20001884263
:1012F0003FD1FFE740F22420C2F200000168013133
:1013000001600068012812D1FFE7FFE70020059087
:1013100043F64000C4F20200016841F00071016030
:10132000006800F0007005900598FFE7FFE7FFE711
:101330000020049043F63000C4F20200016841F03E
:1013400008010160006800F0080004900498FFE7BD
:10135000032006900221079100210891099009209D
:101360000A9040F60040C4F2020006A900F080F89E
:101370005AE00B98006846F60001C4F2000188426A
:1013800051D1FFE7FFE70020039043F64000C4F28D
:101390000200016841F080610160006800F0806037
:1013A00003900398FFE740F22420C2F20000016896
:1013B000013101600068012812D1FFE7FFE700203A
:1013C000029043F64000C4F20200016841F000714F
:1013D0000160006800F0007002900298FFE7FFE7EC
:1013E000FFE70020019043F63000C4F202000168DC
:1013F00041F002010160006800F0020001900198D4
:10140000FFE760200690022007900020089003204C
:10141000099009200A9040F20040C4F2020006A997
:1014200000F026F8FFE7FFE70CB080BD80B584B080
:10143000039000F011FA0290039801900198013096
:1014400048B1FFE740F21400C2F2000001780198B1
:1014500008440190FFE7FFE700F0FEF90299401A07
:101460000199884201D2FFE7F6E704B080BD000091
:101470008EB00D900C9100200A90099008900B906E
:10148000FFE70B980F2800F2CC81FFE70B990120B2
:1014900088400A900C9800680A99084009900998B9
:1014A0000A99884240F0B881FFE70C98406800F044
:1014B0000300012807D0FFE70C98406800F0030004
:1014C00002282FD1FFE70D98806808900B98410003
:1014D000032000FA01F10898884308900C98C0682E
:1014E0000B99490000FA01F1089808430890089800
:1014F0000D9988600D98406808900B99012000FABA
:1015000001F10898884308900C984068C0F30010D7
:101510000B9900FA01F108980843089008980D9972
:101520004860FFE70C98406800F00300032818D0DB
:10153000FFE70D98C06808900B984100032000FA5F
:1015400001F10898884308900C9880680B9949002D
:1015500000FA01F108980843089008980D99C860AE
:10156000FFE70C98406800F00300022826D1FFE74F
:101570000D980B996FF0030202EA51010844006ACA
:1015800008900B9800F0070081000F2000FA01F18D
:101590000898884308900C9800690B9901F007019E
:1015A000890000FA01F108980843089008980D99FD
:1015B0000B9B02EA530211440862FFE70D98006892
:1015C00008900B984100032000FA01F10898884325
:1015D00008900C98406800F003000B99490000FA4D
:1015E00001F108980843089008980D9908600C9834
:1015F00080798007002800F00E81FFE7FFE70020D8
:10160000079043F64400C4F20200016841F48041AF
:101610000160006800F4804007900798FFE70B988E
:1016200020F0030043F60801C4F20101405808907D
:101630000B9800F0030081000F2000FA01F10898D8
:10164000884308900D980021C4F20201884203D11A
:10165000FFE7002006905EE00D9840F20041C4F2E2
:101660000201884203D1FFE70120059050E00D9868
:1016700040F60001C4F20201884203D1FFE70220D4
:10168000049042E00D9840F60041C4F20201884205
:1016900003D1FFE70320039034E00D9841F20001ED
:1016A000C4F20201884203D1FFE70420029026E041
:1016B0000D9841F20041C4F20201884203D1FFE7D4
:1016C0000520019018E00D9841F60001C4F20201D6
:1016D000884203D1FFE7062000900AE00D9941F609
:1016E0000042C4F202020820914208BF0720009085
:1016F000FFE700980190FFE701980290FFE702984A
:101700000390FFE703980490FFE704980590FFE734
:1017100005980690FFE70698C0B20B9901F0030107
:10172000890000FA01F108980843089008980B997D
:1017300021F0030143F60802C4F20102885043F687
:101740000840C4F20100006808900999089888438D
:1017500008900C988079C006002805D5FFE7099904
:10176000089808430890FFE7089843F60841C4F238
:101770000101086043F60C40C4F2010000680890C3
:1017800009990898884308900C9880798006002869
:1017900005D5FFE70999089808430890FFE70898DE
:1017A00043F60C41C4F20101086043F60440C4F260
:1017B00001000068089009990898884308900C98DF
:1017C00080798007002805D5FFE709990898084324
:1017D0000890FFE7089843F60441C4F2010108604D
:1017E00043F60040C4F20100006808900999089887
:1017F000884308900C988079C00728B1FFE70999C1
:10180000089808430890FFE7089843F60041C4F29F
:1018100001010860FFE7FFE7FFE70B9801300B903D
:101820002FE60EB07047000082B00190ADF80210B4
:101830008DF801209DF8010028B1FFE7BDF80200F6
:101840000199886105E0BDF80200000401998861F2
:10185000FFE702B07047000044F6C030C2F200005B
:101860000068704780B58EB00C900C9820B9FFE7E7
:1018700001208DF8370043E10C9890F83D0040B905
:10188000FFE70C99002081F83C000C9800F03CF92F
:10189000FFE70C99242081F83D000C980168086846
:1018A00020F0010008600C980168086840F40040CE
:1018B00008600C980168086820F40040086000F097
:1018C0006FFD0A900C98406848F2A061C0F20101D7
:1018D00088420BD8FFE70A9948F28042C0F21E0204
:1018E0000020914238BF012009900AE00A9940F691
:1018F0000012C0F23D020020914238BF0120099041
:10190000FFE70998012804D1FFE701208DF837008F
:10191000F6E00A984DF68361C4F21B31A0FB01107A
:10192000800C0B900C980068406820F03F000B99E9
:1019300008430C99096848600C980068006A20F018
:101940003F0008900C98406848F2A061C0F2010185
:10195000884204D8FFE70B98013007900EE00B98FF
:101960004FF49671484344F6D351C1F26201A0FB93
:101970000101012000EB91100790FFE708980799FB
:1019800008430C99096808620C980068C0694CF615
:10199000FF71884306900C98406848F2A061C0F23D
:1019A000010188421FD8FFE70A9801380C9949685D
:1019B0004900B0FBF1F001306FF31F30032803D86A
:1019C000FFE7042005900BE00A9801380C9949685C
:1019D0004900B0FBF1F001306FF31F300590FFE7D5
:1019E000059804904CE00C98806868B9FFE70A9865
:1019F00001380C99496801EB4101B0FBF1F001306D
:101A00006FF31F3003900DE00A9801380C99496874
:101A100019225143B0FBF1F00130042161F31F3072
:101A20000390FFE70398000518B9FFE70120029033
:101A300023E00C98806868B9FFE70A9801380C9990
:101A4000496801EB4101B0FBF1F001306FF31F3049
:101A500001900DE00A9801380C9949681922514308
:101A6000B0FBF1F00130042161F31F300190FFE77A
:101A7000019840F400400290FFE702980490FFE7CD
:101A80000698049908430C990968C8610C98006885
:101A9000006820F0C0000C9B1968DA691B6A1A43C1
:101AA000104308600C980068806848F2FF31884352
:101AB0000C9A1168D36812691A43104388600C9815
:101AC0000068C06820F0FF000C9B19685A699B6988
:101AD0001A431043C8600C980168086840F0010080
:101AE00008600C99002008640C9A202182F83D10AF
:101AF0000C9908630C9981F83E008DF83700FFE7D8
:101B00009DF837000EB080BD80B592B011900020D6
:101B100010900F900E900D900C901198006845F267
:101B20000041C4F20001884235D1FFE7FFE7002001
:101B30000B9043F63000C4F20200016841F002014C
:101B40000160006800F002000B900B98FFE74FF473
:101B5000C0700C9012200D9000200E9003200F906A
:101B60000420109040F20040C4F202000CA9FFF7DC
:101B70007FFCFFE700200A9043F64000C4F2020019
:101B8000016841F400110160006800F400100A903F
:101B90000A98FFE7A7E01198006845F60001C4F233
:101BA0000001884235D1FFE7FFE70020099043F6A6
:101BB0003000C4F20200016841F0020101600068D7
:101BC00000F0020009900998FFE74FF440600C9084
:101BD00012200D9000200E9003200F9004201090F2
:101BE00040F20040C4F202000CA9FFF741FCFFE7FD
:101BF0000020089043F64000C4F20200016841F45E
:101C000080010160006800F4800008900898FFE7F8
:101C100068E01198006845F60041C4F2000188426E
:101C20005FD1FFE7FFE70020079043F63000C4F2E2
:101C30000200016841F004010160006800F0040046
:101C400007900798FFE7FFE70020069043F6300073
:101C5000C4F20200016841F001010160006800F077
:101C6000010006900698FFE74FF400700C901220D8
:101C700000900D90002001900E90032002900F9094
:101C800004200390109040F60000C4F202000CA95A
:101C90000491FFF7EDFBDDF800C0019B029A039869
:101CA00004994FF4807ECDF830E0CDF834C00E9327
:101CB0000F9210900020C4F20200FFF7D9FBFFE75B
:101CC0000020059043F64000C4F20200016841F490
:101CD00000010160006800F4000005900598FFE72E
:101CE000FFE7FFE7FFE712B080BD000040F21400FD
:101CF000C2F20000027844F6C031C2F20001086866
:101D0000104408607047000080B543F60041C4F2FB
:101D10000201086840F400700860086840F48060C0
:101D20000860086840F480700860032000F086F8BE
:101D30000F2000F005F800F03BF8002080BD000007
:101D400080B582B0009040F20000C2F2000000684E
:101D500040F21401C2F200010A784FF47A71B1FB2B
:101D6000F2F1B0FBF1F001F05BF820B1FFE70120E8
:101D70008DF8070018E000980F280DD8FFE70099AC
:101D80004FF0FF30002200F03FF8009840F21801B9
:101D9000C2F20001086003E001208DF8070003E0B3
:101DA00000208DF80700FFE79DF8070002B080BD16
:101DB00080B582B0FFE70020019043F64400C4F2F2
:101DC0000200016841F480410160006800F4804035
:101DD00001900198FFE7FFE70020009043F64000E4
:101DE000C4F20200016841F080510160006800F017
:101DF000805000900098FFE76FF001000F21002253
:101E000000F002F802B080BD80B586B08DF81700F2
:101E1000049103920020029004F058FA02909DF978
:101E20001700019002980499039A02F073FE01468C
:101E3000019804F053FA06B080BD000080B582B06E
:101E40000190019804F06CFA02B080BD80B58EB0AC
:101E50000C900C9820B9FFE701208DF8370012E1B3
:101E60000C9800680B900C9890F8950440B9FFE727
:101E70000C99002081F894040C9800F009F9FFE710
:101E80000C99032081F895040B98B0F1A04F04D170
:101E9000FFE70C9900208871FFE70C98006804F0B8
:101EA000DFF80C9B1868197C8DF8241059689A6823
:101EB000DB680893079206910699079A089BDDF85C
:101EC00024C0EE46CEF800C003F0BEFE40B1FFE7EE
:101ED0000C99022081F8950401208DF83700D2E09A
:101EE0000C980068002104F045F940B1FFE70C9917
:101EF000022081F8950401208DF83700C3E000200E
:101F00008DF82B00FFE79DF82B000C99097988428A
:101F100041DAFFE70C989DF82B1001EBC10100EBB3
:101F20008101012048759DF82B000C9900EBC0023F
:101F300001EB820108759DF82B000C9900EBC002A3
:101F400001EB8201C8850C989DF82B1001EBC101B3
:101F500000EB8101002008760C999DF82B2002EB04
:101F6000C20201EB8201C8610C999DF82B2002EBA3
:101F7000C20201EB820108620C999DF82B2002EB52
:101F8000C20201EB82014862FFE79DF82B0001309D
:101F90008DF82B00B7E700208DF82B00FFE79DF8A8
:101FA0002B000C99097988423EDAFFE70C989DF8DE
:101FB0002B1001EBC10100EB8101002081F85502DB
:101FC0009DF82B100C9A01EBC10302EB830282F8FF
:101FD00054120C999DF82B2002EBC20201EB8201F6
:101FE00081F858020C999DF82B2002EBC20201EBFC
:101FF0008201C1F85C020C999DF82B2002EBC20211
:1020000001EB8201C1F860020C999DF82B2002EBD4
:10201000C20201EB8201C1F86402FFE79DF82B00C8
:1020200001308DF82B00BAE70C9B1868197C8DF8ED
:10203000141059689A68DB6804930392029102991C
:10204000039A049BDDF814C0EE46CEF800C003F0FE
:10205000B9FE40B1FFE70C99022081F895040120F8
:102060008DF837000FE00C990020019048740C990E
:10207000012081F895040C98006803F08DFE01980A
:102080008DF83700FFE79DF837000EB080BD0000E7
:1020900080B588B0079000200690059004900390CA
:1020A000029007980068B0F1A04F3ED1FFE7FFE72C
:1020B0000020019043F63000C4F20200016841F0B4
:1020C00001010160006800F0010001900198FFE744
:1020D0004FF4C0500290022003900020049003208F
:1020E00005900A2006900020C4F2020002A9FFF722
:1020F000BFF9FFE743F63401C4F20201086840F07B
:1021000080000860FFE70020009043F64400C4F21E
:102110000200016841F480410160006800F48040E1
:1021200000900098FFE7FFE7FFE708B080BD0000E0
:1021300080B584B002900191029820B9FFE7012098
:102140008DF80F0021E1019843F60041C4F202012D
:10215000096801F00701884212D9FFE7019943F6A7
:102160000040C4F202000170006800F0070001990D
:10217000884204D0FFE701208DF80F0005E1FFE75A
:1021800002980078800700282AD5FFE70298007897
:102190004007002809D5FFE743F60801C4F2020111
:1021A000086840F4E0500860FFE7029800780007F4
:1021B000002809D5FFE743F60801C4F202010868C8
:1021C00040F460400860FFE743F60801C4F20201F2
:1021D000086820F0F000029A926810430860FFE758
:1021E00002980078C00700286ED0FFE70298406888
:1021F000012811D1FFE743F60000C4F20200006895
:1022000000F400310020B0EB514F04D1FFE7012072
:102210008DF80F00B9E02CE002984068022805D044
:10222000FFE702984068032811D1FFE743F600005A
:10223000C4F20200006800F000710020B0EB516FA2
:1022400004D1FFE701208DF80F009EE010E043F677
:102250000000C4F20200006800F002010020B0EBB0
:10226000510F04D1FFE701208DF80F008DE0FFE74B
:10227000FFE743F60801C4F20201086820F00300FA
:10228000029A526810430860FFF7E6FA0090FFE7F1
:1022900043F60800C4F20200006800F00C00029946
:1022A0004968B0EB810F0ED0FFE7FFF7D5FA009930
:1022B000401A41F28931884204D3FFE703208DF8A8
:1022C0000F0062E0E4E7FFE7019843F60041C4F243
:1022D0000201096801F00701884212D2FFE7019963
:1022E00043F60040C4F202000170006800F00700ED
:1022F0000199884204D0FFE701208DF80F0044E0E7
:10230000FFE702980078400700280CD5FFE743F666
:102310000801C4F20201086820F4E050029AD26871
:1023200010430860FFE702980078000700280DD5E9
:10233000FFE743F60801C4F20201086820F4604098
:10234000029A126940EAC2000860FFE700F04CF808
:1023500043F60801C4F202010968C9B20A0948F645
:10236000FC51C0F60001895CC84040F20001C2F295
:102370000001086040F21800C2F200000068FFF798
:10238000DFFC00208DF80F00FFE79DF80F0004B080
:1023900080BD000040F20000C2F2000000687047FB
:1023A00080B5FFF7F7FF43F60801C4F202010968A0
:1023B000C1F3822248F60C61C0F60001895CC84076
:1023C00080BD000080B5FFF7E5FF43F60801C4F2C9
:1023D0000201096889B24A0B48F60C61C0F6000197
:1023E000895CC84080BD000080B586B000200590A3
:1023F00004900390029043F60800C4F202000068C3
:1024000000F00C000146019140B1FFE7019804285B
:102410000AD0FFE7019808280CD04FE042F20040B4
:10242000C0F2F40002904FE043F20060C0F26E1080
:10243000029049E043F60400C4F20200016801F092
:102440003F01059100684002002813D5FFE743F6DD
:102450000400C4F202000068C0F3881043F2006177
:10246000C0F26E11A0FB0101059A0023FDF712FFD7
:10247000049012E043F60400C4F202000068C0F3C6
:10248000881042F20041C0F2F401A0FB0101059A5C
:102490000023FDF7FFFE0490FFE743F60400C4F2BB
:1024A0000200006800F44031022000EBD1300390BC
:1024B00004980399B0FBF1F0029005E042F200406D
:1024C000C0F2F4000290FFE7029806B080BD000061
:1024D00080B586B00490049820B9FFE701208DF8FC
:1024E000170050E304980078C007002800F0A5808A
:1024F000FFE743F60800C4F20200006800F00C0099
:10250000042813D0FFE743F60800C4F20200006875
:1025100000F00C0008281ED1FFE743F60400C4F2C7
:10252000020000684002002815D5FFE743F60000CE
:10253000C4F20200006800F400310020B0EB514FFB
:1025400008D0FFE70498406820B9FFE701208DF824
:10255000170018E370E0FFE704984068B0F5803F8B
:1025600009D1FFE743F60001C4F20201086840F414
:102570008030086020E004984068B0F5A02F0DD1AD
:10258000FFE743F60001C4F20201086840F480202E
:102590000860086840F4803008600CE043F60001F1
:1025A000C4F20201086820F480300860086820F452
:1025B00080200860FFE7FFE7FFE704984068E8B184
:1025C000FFE7FFF749F90390FFE743F60000C4F285
:1025D0000200006800F400310020B0EB514F0CD134
:1025E000FFE7FFF739F90399401A652804D3FFE79D
:1025F00003208DF81700C6E2E7E71CE0FFF72CF98F
:102600000390FFE743F60000C4F20200006800F404
:1026100000310020B0EB514F0CD0FFE7FFF71CF961
:102620000399401A652804D3FFE703208DF81700AB
:10263000A9E2E7E7FFE7FFE7FFE7049800788007F4
:10264000002840F19680FFE743F60800C4F202003C
:10265000006810F00C0F13D0FFE743F60800C4F237
:102660000200006800F00C0008282CD1FFE743F6B8
:102670000400C4F2020000684002002823D4FFE7EF
:1026800043F60000C4F20200006800F002010020DE
:10269000B0EB510F09D0FFE70498C068012804D0BF
:1026A000FFE701208DF817006DE243F60001C4F248
:1026B0000201086820F0F800049A126940EAC2009A
:1026C0000860FFE754E00498C06870B3FFE700219A
:1026D000C4F2472101200860FFF7BEF80390FFE72E
:1026E00043F60000C4F20200006800F0020100207E
:1026F000B0EB510F0CD1FFE7FFF7AEF80399401A8A
:10270000032804D3FFE703208DF817003BE2E7E737
:1027100043F60001C4F20201086820F0F800049AB0
:10272000126940EAC200086021E00021C4F247219A
:1027300000200860FFF790F80390FFE743F60000E1
:10274000C4F20200006800F002010020B0EB510F5B
:102750000CD0FFE7FFF780F80399401A032804D351
:10276000FFE703208DF817000DE2E7E7FFE7FFE73B
:10277000FFE704980078000700284BD5FFE704988E
:10278000406918B3FFE740F68061C4F24721012099
:102790000860FFF761F80390FFE743F67400C4F2A6
:1027A0000200006800F002010020B0EB510F0CD1D4
:1027B000FFE7FFF751F80399401A032804D3FFE716
:1027C00003208DF81700DEE1E7E722E040F68061A4
:1027D000C4F2472100200860FFF73EF80390FFE7AE
:1027E00043F67400C4F20200006800F00201002009
:1027F000B0EB510F0CD0FFE7FFF72EF80399401A0A
:10280000032804D3FFE703208DF81700BBE1E7E7B7
:10281000FFE7FFE7049800784007002840F1CE80EA
:10282000FFE700208DF8070043F64000C4F20200E5
:102830000068C000002815D4FFE7FFE700200090E3
:1028400043F64000C4F20200016841F0805101608B
:10285000006800F0805000900098FFE701208DF89C
:102860000700FFE747F20000C4F200000068C0055F
:10287000002822D4FFE747F20001C4F200010868F3
:1028800040F480700860FEF7E7FF0390FFE747F22F
:102890000000C4F200000068C00500280CD4FFE767
:1028A000FEF7DAFF0399401A032804D3FFE7032059
:1028B0008DF8170067E1EAE7FFE7FFE70498806813
:1028C000012809D1FFE743F67001C4F2020108684C
:1028D00040F0010008601FE00498806805280DD1D1
:1028E000FFE743F67001C4F20201086840F00400FB
:1028F0000860086840F0010008600CE043F67001D1
:10290000C4F20201086820F001000860086820F0A5
:1029100004000860FFE7FFE7FFE704988068F8B16C
:10292000FFE7FEF799FF0390FFE743F67000C4F25C
:102930000200006800F002010020B0EB510F0ED140
:10294000FFE7FEF789FF0399401A41F28931884277
:1029500004D3FFE703208DF8170014E1E5E71EE03C
:10296000FEF77AFF0390FFE743F67000C4F202001F
:10297000006800F002010020B0EB510F0ED0FFE71D
:10298000FEF76AFF0399401A41F28931884204D365
:10299000FFE703208DF81700F5E0E5E7FFE79DF876
:1029A0000700012809D1FFE743F64001C4F2020104
:1029B000086820F080500860FFE7FFE7049880690E
:1029C000002800F0DC80FFE743F60800C4F20200B4
:1029D000006800F00C00082800F08580FFE70498EC
:1029E000806902285CD1FFE76021C4F24721002002
:1029F0000860FEF731FF0390FFE743F60000C4F2E2
:102A00000200006800F000710020B0EB516F0CD0A4
:102A1000FFE7FEF721FF0399401A032804D3FFE7DD
:102A200003208DF81700AEE0E7E70499C869D1F8F4
:102A300020C04B6A8A6A40EA0C0040EA8310D20345
:102A40004FF6FF739A43A2F580321043C96A40EAF9
:102A5000016043F60401C4F2020108606021C4F27F
:102A6000472101200860FEF7F7FE0390FFE743F6D9
:102A70000000C4F20200006800F000710020B0EB1A
:102A8000516F0CD1FFE7FEF7E7FE0399401A0328C8
:102A900004D3FFE703208DF8170074E0E7E721E097
:102AA0006021C4F2472100200860FEF7D5FE0390A4
:102AB000FFE743F60000C4F20200006800F0007176
:102AC0000020B0EB516F0CD0FFE7FEF7C5FE039975
:102AD000401A032804D3FFE703208DF8170052E0C3
:102AE000E7E7FFE74AE004988069012804D1FFE79F
:102AF00001208DF8170046E043F60400C4F20200FE
:102B00000068029004988069012831D0FFE702989C
:102B100000F480000499C969884229D1FFE702982E
:102B200000F03F000499096A884221D1FFE702982A
:102B300047F6C07108400499496AB0EB811F17D16C
:102B4000FFE7029800F440300499896AC9034FF600
:102B5000FF729143A1F58031884209D1FFE70298C5
:102B600000F070600499C96AB0EB016F04D0FFE710
:102B700001208DF8170006E0FFE7FFE7FFE70020E0
:102B80008DF81700FFE79DF8170006B080BD000024
:102B900080B584B00290029820B9FFE701208DF83B
:102BA0000F0072E00298406A60B9FFE7029840683F
:102BB000B0F5827F01D1FFE703E002990020C861F0
:102BC000FFE705E002990020086102994861FFE7EC
:102BD000029900208862029890F8510040B9FFE7FE
:102BE0000299002081F85000029800F053F8FFE7A6
:102BF0000299022081F8510002980168086820F0CB
:102C000040000860029A019211685068D2F808C02A
:102C1000D36800F482700CF4044C604403F4006345
:102C20001844136903F002031844536903F00103C5
:102C30001844936903F400731844D36903F038030C
:102C40001844136A03F080031843926A02F4005296
:102C500010430860029801688369426A042000EA10
:102C6000134002F010021044486002980168C869DD
:102C700020F40060C861029900204865029A012191
:102C800082F851108DF80F00FFE79DF80F0004B097
:102C900080BD000080B58CB00B9000200A90099098
:102CA0000890079006900B98006843F20001C4F268
:102CB0000101884233D1FFE7FFE70020059043F68A
:102CC0004400C4F20200016841F4805101600068D0
:102CD00000F4805005900598FFE7FFE7002004907E
:102CE00043F63000C4F20200016841F001010160C6
:102CF000006800F0010004900498FFE7E0200690CF
:102D000002200790002008900320099005200A90D7
:102D10000020C4F2020006A9FEF7AAFB7DE00B9892
:102D2000006843F60001C4F20001884235D1FFE794
:102D3000FFE70020039043F64000C4F20200016860
:102D400041F480410160006800F4804003900398E2
:102D5000FFE7FFE70020029043F63000C4F20200D4
:102D6000016841F002010160006800F00200029079
:102D70000298FFE74FF420400690022007900020C1
:102D800008900320099005200A9040F20040C4F208
:102D9000020006A9FEF76CFB3EE00B98006843F6C4
:102DA0000041C4F20001884235D1FFE7FFE700206F
:102DB000019043F64000C4F20200016841F4004172
:102DC0000160006800F4004001900198FFE7FFE710
:102DD0000020009043F63000C4F20200016841F088
:102DE00004010160006800F0040000900098FFE713
:102DF0004FF4E05006900220079000200890032036
:102E0000099006200A9040F60000C4F2020006A9CC
:102E1000FEF72EFBFFE7FFE7FFE70CB080BD0000E9
:102E200080B582B00190019802F004FA02B080BD32
:102E300085B003900291FFE7039890F83C000128C9
:102E400004D1FFE702208DF813007EE003990120F2
:102E500081F83C00FFE7FFE70399022081F83D007D
:102E600003980068406801900398006880680090AB
:102E7000019820F0700001900298016801980843C1
:102E8000019001980399096848600398006800213F
:102E9000C4F2010188423CD0FFE703980068B0F11A
:102EA000804F36D0FFE70398006840F20041C4F23B
:102EB000000188422DD0FFE70398006840F600012A
:102EC000C4F20001884224D0FFE70398006840F66E
:102ED0000041C4F2000188421BD0FFE7039800685C
:102EE00040F20041C4F20101884212D0FFE703988A
:102EF000006844F20001C4F20101884209D0FFE7F2
:102F00000398006841F60001C4F2000188420ED126
:102F1000FFE7009820F08000009002984168009838
:102F2000084300900098039909688860FFE70399B7
:102F3000012081F83D00FFE70399002081F83C0063
:102F4000FFE700208DF81300FFE79DF8130005B0A0
:102F50007047000080B582B00090009820B9FFE76C
:102F600001208DF807003FE0009890F83D0040B93F
:102F7000FFE70099002081F83C00009800F038F845
:102F8000FFE70099022081F83D00009951F8040BF9
:102F900002F0EEF90099012081F84600FFE7009960
:102FA000012081F83E00009981F83F00009981F8E6
:102FB0004000009981F84100FFE7FFE700990120F8
:102FC00081F84200009981F84300009981F844009B
:102FD000009981F84500FFE70099012081F83D0044
:102FE00000208DF80700FFE79DF8070002B080BDC4
:102FF00084B003900398006840F20041C4F20001DD
:10300000884212D1FFE7FFE70020029043F640001C
:10301000C4F20200016841F002010160006800F0A2
:10302000020002900298FFE737E00398006840F63C
:103030000041C4F20001884212D1FFE7FFE70020FF
:10304000019043F64000C4F20200016841F008011B
:103050000160006800F0080001900198FFE71BE0A4
:103060000398006844F20001C4F20101884212D1C1
:10307000FFE7FFE70020009043F64400C4F202009F
:10308000016841F480310160006800F480300090F4
:103090000098FFE7FFE7FFE7FFE704B07047000095
:1030A00080B586B00490039100208DF80B00FFE7F7
:1030B000049890F83C00012804D1FFE702208DF825
:1030C0001700ABE00499012081F83C00FFE7FFE71F
:1030D0000499022081F83D000498006880680190FE
:1030E000019820F077000190019820F47F40019032
:1030F0000198049909688860039800680090002886
:1031000072D0FFE7009810286ED0FFE700982028C3
:103110006AD0FFE70098302866D0FFE70098402883
:1031200055D0FFE70098502837D0FFE70098602877
:1031300040D0FFE7009870280BD0FFE70098B0F56B
:10314000805F05D0FFE70098B0F5005F16D052E031
:1031500055E004980068039B5A689968DB6802F0A0
:10316000DFF90498006880680190019840F07700CA
:103170000190019804990968886040E0049800680B
:10318000039B5A689968DB6802F0CAF904980168E1
:10319000886840F48040886031E004980068039AB1
:1031A0005168D26802F0A8FB04980068502102F030
:1031B000D1F924E004980068039A5168D26802F0BB
:1031C000C3FB04980068602102F0C4F917E004987A
:1031D0000068039A5168D26802F08EFB0498006878
:1031E000402102F0B7F90AE00498006803990968E1
:1031F00002F0B0F903E001208DF80B00FFE704991D
:10320000012081F83D00FFE70499002081F83C008F
:10321000FFE79DF80B008DF81700FFE79DF81700FA
:1032200006B080BD80B586B004900391049820B9A3
:10323000FFE701208DF8170088E0049890F83D0022
:1032400040B9FFE70499002081F83C00049800F0A1
:1032500081F8FFE70499022081F83D000498016895
:10326000886844F2070290438860049951F8040B7F
:1032700002F07EF804980068806802900498006864
:103280008069019004980068006A009003980168C2
:10329000029808430290019840F20331884301905C
:1032A00003998868896940EA0121019808430190DF
:1032B000019840F60C418843019001984FF2F001CB
:1032C000884301900399C868C96940EA01210198BF
:1032D0000843019003990869096A000140EA013135
:1032E000019808430190009820F022000090009877
:1032F00020F08800009003994868496940EA01116C
:103300000098084300900298049909688860019821
:103310000499096888610098049909680862049909
:10332000012081F84600049981F83E00049981F853
:103330003F00049981F84200049981F84300049900
:1033400081F83D0000208DF81700FFE79DF8170079
:1033500006B080BD80B590B00F9000200E900D900B
:103360000C900B900A900F980068B0F1804F5AD1E2
:10337000FFE7FFE70020099043F64000C4F2020097
:10338000016841F001010160006800F0010009904E
:103390000998FFE7FFE70020089043F63000C4F2E9
:1033A0000200016841F001010160006800F00100C5
:1033B00008900898FFE7FFE70020079043F63000E9
:1033C000C4F20200016841F002010160006800F0EF
:1033D000020007900798FFE74FF400400A90022090
:1033E00001900B90002002900C900D900120039012
:1033F0000E900020C4F202000AA90491FEF738F8EA
:10340000019B029A039804994FF0080CCDF828C04C
:103410000B930C920D920E9040F20040C4F2020009
:10342000FEF726F83CE00F98006840F60001C4F271
:103430000001884233D1FFE7FFE70020069043F602
:103440004000C4F20200016841F00401016000681C
:1034500000F0040006900698FFE7FFE700200590C3
:1034600043F63000C4F20200016841F00801016037
:10347000006800F0080005900598FFE74FF4405001
:103480000A9002200B9000210C910D910E9040F6B5
:103490000040C4F202000AA9FDF7EAFFFFE7FFE7D8
:1034A00010B080BD80B58AB00990002008900790C8
:1034B0000690059004900998006840F20041C4F21B
:1034C0000001884221D1FFE7FFE70020039043F687
:1034D0003000C4F20200016841F00201016000689E
:1034E00000F0020003900398FFE7132004900220ED
:1034F0000590002106910791089040F20040C4F227
:10350000020004A9FDF7B4FF55E00998006840F6F1
:103510000041C4F20001884220D1FFE7FFE700200C
:10352000029043F63000C4F20200016841F001014C
:103530000160006800F0010002900298FFE70C2093
:103540000490022005900021069107910890002028
:10355000C4F2020004A9FDF78BFF2BE00998006874
:1035600044F20001C4F20101884222D1FFE7FFE7E3
:103570000020019043F63000C4F20200016841F0DF
:1035800010010160006800F0100001900198FFE751
:1035900060200490022005900020069007900320F0
:1035A000089041F20000C4F2020004A9FDF760FF98
:1035B000FFE7FFE7FFE70AB080BD000080B586B0F7
:1035C00004900391029200208DF80700FFE7049811
:1035D00090F83C00012804D1FFE702208DF8170085
:1035E00089E00499012081F83C00FFE7FFE7029899
:1035F00000900C2800F270800099DFE801F0076D60
:103600006D6D206D6D6D3A6D6D6D530004980068A1
:10361000039901F0B5FF04980168886940F008003B
:10362000886104980168886920F004008861039823
:1036300002690498016888691043886150E0049821
:103640000068039902F012F804980168886940F450
:103650000060886104980168886920F4806088614E
:103660000398026904980168886940EA0220886129
:1036700036E004980068039902F072F80498016833
:10368000C86940F00800C86104980168C86920F062
:103690000400C8610398026904980168C86910436E
:1036A000C8611DE004980068039902F0D3F80498FB
:1036B0000168C86940F40060C86104980168C8697D
:1036C00020F48060C8610398026904980168C869A1
:1036D00040EA0220C86103E001208DF80700FFE7FF
:1036E000FFE70499002081F83C00FFE79DF8070000
:1036F0008DF81700FFE79DF8170006B080BD0000A9
:1037000080B582B00090009820B9FFE701208DF8C5
:1037100007003FE0009890F83D0040B9FFE70099AE
:10372000002081F83C00009800F038F8FFE700998D
:10373000022081F83D00009951F8040B01F018FEB9
:103740000099012081F84600FFE70099012081F8E7
:103750003E00009981F83F00009981F840000099EF
:1037600081F84100FFE7FFE70099012081F842005E
:10377000009981F84300009981F84400009981F88C
:103780004500FFE70099012081F83D0000208DF8F9
:103790000700FFE79DF8070002B080BD81B00090F0
:1037A00001B0704780B582B00090009820B9FFE763
:1037B00001208DF8070040E00098806908B1FFE71C
:1037C00000E0FFE7009890F8410040B9FFE700995A
:1037D000002081F84000009800F034F8FFE70099DD
:1037E000242081F8410000980168C86820F4005046
:1037F000C860009802F01CF900980168086920F47C
:103800009040086100980168486920F02A004861EA
:1038100000980168C86840F40050C8600099002012
:103820004864009A202182F84110009A82F84210E0
:10383000009948638DF80700FFE79DF8070002B084
:1038400080BD000080B590B00F9000200E900D90CC
:103850000C900B900A900F98006844F60041C4F257
:103860000001884232D1FFE7FFE70020099043F6CC
:103870004000C4F20200016841F4002101600068C8
:1038800000F4002009900998FFE7FFE70020089066
:1038900043F63000C4F20200016841F0010101600A
:1038A000006800F0010008900898FFE703200A90E4
:1038B00002210B9100210C910D9008200E90002008
:1038C000C4F202000AA9FDF7D3FDF8E00F980068E2
:1038D00041F20001C4F20101884234D1FFE7FFE761
:1038E0000020079043F64400C4F20200016841F052
:1038F00010010160006800F0100007900798FFE7D2
:10390000FFE70020069043F63000C4F20200016891
:1039100041F001010160006800F001000690069886
:10392000FFE74FF4C0600A9002200B9000200C903B
:1039300003200D9007200E900020C4F202000AA977
:10394000FDF796FDBAE00F98006844F20041C4F21A
:103950000001884234D1FFE7FFE70020059043F6DD
:103960004000C4F20200016841F4003101600068C7
:1039700000F4003005900598FFE7FFE70020049071
:1039800043F63000C4F20200016841F00801016012
:10399000006800F0080004900498FFE760200A9097
:1039A00002200B9000200C9003200D9007200E9019
:1039B00040F60040C4F202000AA9FDF759FD7CE080
:1039C0000F98006844F60001C4F20001884235D126
:1039D000FFE7FFE70020039043F64000C4F2020037
:1039E000016841F480210160006800F480200390A8
:1039F0000398FFE7FFE70020029043F63000C4F28F
:103A00000200016841F008010160006800F0080050
:103A100002900298FFE74FF440700A9002200B904A
:103A200000200C9003200D9007200E9040F60040DF
:103A3000C4F202000AA9FDF71BFD3DE00F980068E3
:103A400041F20041C4F20101884234D1FFE7FFE7AF
:103A50000020019043F64400C4F20200016841F0E6
:103A600020010160006800F0200001900198FFE74C
:103A7000FFE70020009043F63000C4F20200016826
:103A800041F004010160006800F00400009000981B
:103A9000FFE7C0200A9002200B9000200C9003202A
:103AA0000D9008200E9040F60000C4F202000AA912
:103AB000FDF7DEFCFFE7FFE7FFE7FFE7FFE710B0FA
:103AC00080BD000080B58AB008900791ADF81A203B
:103AD000059300200290089890F84100202840F0BB
:103AE0008180FFE7079820B1FFE7BDF81A0020B9F1
:103AF000FFE701208DF8270078E00899002048644E
:103B00000899212081F84100FDF7A6FE0290BDF83A
:103B10001A0008998884BDF81A000899C884089882
:103B20008068B0F5805F09D1FFE70898006928B97F
:103B3000FFE7002004900798039004E007980490A2
:103B400000200390FFE7FFE70898C08C78B3FFE7F9
:103B50000898029B05996A4611608021002202F0B4
:103B600005F840B1FFE70899202081F841000320C3
:103B70008DF827003AE0049858B9FFE703980088C9
:103B80006FF35F200899096848600398023003903A
:103B900008E00498007808990968486004980130A2
:103BA0000490FFE70899C88C0138C884CCE70898CE
:103BB000029B05996A4611604021002201F0D6FF60
:103BC00040B1FFE70899202081F8410003208DF8DB
:103BD00027000BE00899202081F8410000208DF893
:103BE000270003E002208DF82700FFE79DF827005B
:103BF0000AB080BDFFE7FEE780B58EB0ADF83600B5
:103C00000C910B92BDF8360000EE100AB8EE400A97
:103C10009FED3E1A80EE010A8DED0A0A0C9890ED98
:103C2000020A9DED0A1A20EE010A8DED090A0C9890
:103C300090ED000A9DED0A1A20EE010A8DED080AAA
:103C40000C9890ED010A9DED0A1A20EE010A8DED07
:103C5000070A9DED091A0B9890ED020A30EE010A51
:103C600080ED020A9DED080A8DED030A0B9890ED98
:103C7000020A04F0DFFA8DED020A9DED070A8DEDD0
:103C8000010A0B9890ED020A04F02CFA9DED011A3E
:103C90009DED022AB0EE403A9DED030A21EE031A93
:103CA00020EE020A30EE011A0B9890ED010A30EE78
:103CB000010A80ED010A9DED080A8DED060A0B98B8
:103CC00090ED020A04F00EFA8DED050A9DED070A4B
:103CD0008DED040A0B9890ED020A04F0ABFA9DED0D
:103CE000041A9DED052AB0EE403A9DED060A21EE3C
:103CF000031A20EE020A30EE411A0B9890ED000AEA
:103D000030EE010A80ED000A0EB080BD00007A445A
:103D100081B0009000990020C86000990861009966
:103D2000486101B07047000080B58EB00D900C91D5
:103D30000B920B9800680A900B98406809900D98B8
:103D4000006808900D98406807900D98806806906C
:103D50000D98C06805909DED080A9DED071A30EE9C
:103D6000010A9DED061A30EE010A9DED051A30EEAE
:103D7000010A10EE100A04F075FF41EC100B51EC33
:103D8000100B9FED370B53EC102B0193009204F0B6
:103D900015FC41EC100B51EC100B04F0D1FB0C990D
:103DA00008609DED081A9DED070A30EE411A9DED61
:103DB000060A30EE010A9DED051A30EE410A10EEBA
:103DC000100A04F04FFF009A019B41EC100B51ECDC
:103DD000100B04F0F3FB41EC100B51EC100B04F052
:103DE000AFFB0C9948609DED081A9DED070A30EE77
:103DF000410A9DED061A30EE410A9DED051A30EE9E
:103E0000010A10EE100A04F02DFF41EC100B8DEDAD
:103E1000020B9DED0A0A9DED091A30EE010A10EE23
:103E2000100A04F01FFF009A019B41EC100B51ECAB
:103E3000100B04F019FE9DED021B41EC100B51EC30
:103E4000110B53EC102B04F0B9FB41EC100B51ECAF
:103E5000100B04F075FB0C9988600EB080BD00BF9C
:103E6000000000000000104085B002AA0092024647
:103E70000098049280ED010AC0ED000A8DF8071049
:103E80000398049908600298049948609DF8070017
:103E90000499087204990020C86004990861049983
:103EA000486105B07047000086B005900491039208
:103EB0000398006802900398406801900398007A84
:103EC0000146009120B1FFE70098012859D0B1E0E8
:103ED000059890ED002A90ED011A90ED020A31EE5E
:103EE000421A9DED022A9DED013A32EE032A20EEA0
:103EF000020A30EE010A049880ED000A059890ED60
:103F0000002A90ED010A90ED021A30EE020A9DEDB2
:103F1000022A9DED013A32EE032A21EE021A30EE1A
:103F2000410A049880ED010A059890ED002A90ED71
:103F3000010A90ED021A30EE420A9DED022A9DED33
:103F4000013A32EE032A21EE021A30EE410A0498B9
:103F500080ED020A059890ED002A90ED011A90ED8F
:103F6000020A31EE021A9DED022A9DED013A32EE6F
:103F7000032A20EE020A30EE010A049880ED030ABB
:103F800059E0059890ED000A90ED012A90ED021A93
:103F900030EE420A9DED022A9DED013A32EE032AEF
:103FA00021EE021A30EE410A049880ED000A0598CD
:103FB00090ED001A90ED012A90ED020A31EE021AFE
:103FC0009DED022A9DED013A32EE032A20EE020A0F
:103FD00030EE010A049880ED010A059890ED000A80
:103FE00090ED012A90ED021A30EE020A9DED022AB0
:103FF0009DED013A32EE032A21EE021A30EE410A1B
:10400000049880ED020A059890ED001A90ED012ABF
:1040100090ED020A31EE421A9DED022A9DED013A21
:1040200032EE032A20EE020A30EE010A049880EDF7
:10403000030A00E0FFE706B07047000080B586B0D5
:1040400000220092059204920392029240F23020E4
:10405000C2F20000019042F20001C4F201010160CD
:104060004FF48031416082600261027680F8202046
:10407000C2620121C0F600718162C2600121C1618A
:1040800080F830204161FCF761FF18B1FFE7FCF7D1
:104090004DFEFFE70A2002900120039000200490CB
:1040A00040F23020C2F2000002A9FCF743FE18B132
:1040B000FFE7FCF73BFEFFE706B080BD80B586B0AA
:1040C00000220092059204920392029240F278201C
:1040D000C2F20000019042F20011C4F2010101603D
:1040E0004FF48031416082600261027680F82020C6
:1040F000C2620121C0F600718162C2600121C1610A
:1041000080F830204161FCF721FF18B1FFE7FCF790
:104110000DFEFFE70A20029001200390002004908A
:1041200040F27820C2F2000002A9FCF703FE18B1A9
:10413000FFE7FCF7FBFDFFE706B080BD80B582B06E
:1041400040F2C020C2F20000009046F20041C4F2EA
:104150000001016003214160002101918160C16083
:104160004FF4102202614FF4001242610176417651
:104170008176C17601774177FCF7BAFF18B1FFE786
:10418000FCF7D4FDFFE702B080BD000080B582B02F
:1041900040F2E820C2F20000009046F60001C4F2AE
:1041A0000001016003214160002101918160C16033
:1041B0004FF4102202614FF4001242610176417601
:1041C0008176C17601774177FCF792FF18B1FFE75E
:1041D000FCF7ACFDFFE702B080BD000010B588B071
:1041E00048F6E050C0F60000016842688368D0F8E5
:1041F0000CC0D0F810E044690694CDF814E0CDF876
:1042000010C00393029201918069079001A80021D8
:1042100002F05CFA40F22C21C2F20001086008B002
:1042200010BD000080B596B000201590149013903A
:1042300012901190FFE70020109043F63000C4F276
:104240000200016841F010010160006800F01000F8
:1042500010901098FFE7FFE700200F9043F6300022
:10426000C4F20200016841F080010160006800F0C2
:1042700080000F900F98FFE7FFE700200E9043F6B5
:104280003000C4F20200016841F0040101600068DE
:1042900000F004000E900E98FFE7FFE700200D905D
:1042A00043F63000C4F20200016841F001010160F0
:1042B000006800F001000D900D98FFE7FFE7002077
:1042C0000C9043F63000C4F20200016841F0020194
:1042D0000160006800F002000C900C98FFE7FFE717
:1042E00000200B9043F63000C4F20200016841F058
:1042F00008010160006800F008000B900B98FFE7D0
:104300000020C4F2020002901021019100220892C4
:10431000FDF78AFA089A41F20000C4F20200049004
:104320004FF480610391FDF77FFA089A40F2004054
:10433000C4F2020006904FF4A0410591FDF774FA13
:10434000089A40F60040C4F2020009904CF29041F5
:10435000FDF76AFA019A02980899119201220792D0
:1043600012921391149111A90A91FDF781F8DDF8C9
:104370000CC00498079B089A0A99CDF844C0129380
:1043800013921492FDF774F8DDF814C00698079B99
:10439000089A0A99CDF844C0129313921492FDF72B
:1043A00067F8079B089A09980A994FF4444CCDF88E
:1043B00044C0129313921492FDF75AF8089A099880
:1043C0000A990C2311934FF4881312931392FDF75B
:1043D0004FF8079B089A09980A994FF0900CCDF86E
:1043E00044C01293139202221492FDF741F816B0C2
:1043F00080BD000080B582B040F21030C2F20000F3
:10440000019045F20041C4F20001016048F2A06150
:10441000C0F20101416000218160C1604FF480421F
:10442000026141618161C1610162FDF71BFA18B14E
:10443000FFE7FCF77BFCFFE702B080BD80B582B0F0
:1044400040F26430C2F20000019045F60001C4F26F
:104450000001016048F2A061C0F201014160002149
:104460008160C1604FF48042026141618161C1613C
:104470000162FDF7F7F918B1FFE7FCF757FCFFE71A
:1044800002B080BD80B582B040F2B830C2F2000008
:10449000019045F60041C4F20001016048F2A061BC
:1044A000C0F20101416000218160C1604FF480428F
:1044B000026141618161C1610162FDF7D3F918B107
:1044C000FFE7FCF733FCFFE702B080BD80B582B0A8
:1044D00040F6F000C2F20000009043F20001C4F286
:1044E000010101604FF482714160002101918160FE
:1044F000C160016141614FF400728261C16101627A
:10450000416281620A21C162FEF742FB18B1FFE7F6
:10451000FCF70CFCFFE702B080BD000080B582B064
:1045200040F64810C2F20000019043F60001C4F2C8
:10453000000101604FF4827141604FF400418160DD
:104540000021C160016141614FF400728261C1616B
:104550000162416281620A21C162FEF719FB18B152
:10456000FFE7FCF7E3FBFFE702B080BD80B582B058
:1045700040F6A010C2F20000009043F60041C4F2E1
:10458000000101604FF4827141600021019181605E
:10459000C160016141614FF400728261C1610162D9
:1045A000416281620A21C162FEF7F2FA18B1FFE7A7
:1045B000FCF7BCFBFFE702B080BD000080B58EB009
:1045C00005A801902421FBF7DDFE0199002202924B
:1045D0000492039240F6F810C2F200004FF08043BC
:1045E0000360426082604FF0FF33C360026182610A
:1045F0000123059306920793089209920A920B935E
:104600000C920D92FEF70EFE18B1FFE7FCF78EFB41
:10461000FFE700200390049040F6F810C2F200007B
:1046200003A9FEF705FC18B1FFE7FCF77FFBFFE7E6
:104630000EB080BD80B58EB0002100910D910C911F
:104640000B910A91099108910791069105910491A6
:1046500003910291019140F64020C2F2000040F225
:104660000042C4F200020260416081604FF6FF72B6
:10467000C26001618161FEF76DFC18B1FFE7FCF7D4
:1046800055FBFFE74FF480500A9040F64020C2F2FD
:1046900000000AA9FEF704FD18B1FFE7FCF746FB8E
:1046A000FFE740F64020C2F20000FFF729F818B1FA
:1046B000FFE7FCF73BFBFFE700200890099040F67E
:1046C0004020C2F2000008A9FEF7B2FB18B1FFE7D4
:1046D000FCF72CFBFFE7602001900022029203927E
:1046E000059240F64020C2F2000001A9FEF766FFE5
:1046F00018B1FFE7FCF71AFBFFE740F64020C2F2D3
:10470000000001A90822FEF759FF18B1FFE7FCF7E6
:104710000DFBFFE740F64020C2F2000001A90C2289
:10472000FEF74CFF18B1FFE7FCF700FBFFE740F690
:104730004020C2F20000FEF7B5FE0EB080BD0000C2
:1047400080B58EB005A801902421FBF71BFE0199CE
:10475000002202920492039240F68820C2F20000E6
:1047600040F60003C4F200030360426082604FF62B
:10477000FF73C36002618261012305930692079370
:10478000089209920A920B930C920D92FEF74AFD41
:1047900018B1FFE7FCF7CAFAFFE700200390049086
:1047A00040F68820C2F2000003A9FEF741FB18B1D1
:1047B000FFE7FCF7BBFAFFE70EB080BD80B58EB017
:1047C000002100910D910C910B910A910991089192
:1047D000079106910591049103910291019140F690
:1047E000D020C2F2000040F60042C4F20002026093
:1047F000416081604FF0FF32C26001618161FEF76C
:10480000A9FB18B1FFE7FCF791FAFFE74FF48050DE
:104810000A9040F6D020C2F200000AA9FEF740FC40
:1048200018B1FFE7FCF782FAFFE740F6D020C2F2AA
:104830000000FEF765FF18B1FFE7FCF777FAFFE726
:1048400000200890099040F6D020C2F2000008A98C
:10485000FEF7EEFA18B1FFE7FCF768FAFFE7602011
:104860000190002002900390059040F6D020C2F203
:10487000000001A90822FEF7A1FE18B1FFE7FCF72E
:1048800055FAFFE740F6D020C2F2000001A90C2241
:10489000FEF794FE18B1FFE7FCF748FAFFE740F691
:1048A000D020C2F20000FEF7FDFD0EB080BD00007A
:1048B00080B58CB0002100910B910A91099108916B
:1048C000079106910591049103910291019140F69F
:1048D0001830C2F2000044F20002C4F20102026089
:1048E000416081604FF6FF72C26001618161FEF735
:1048F00031FB18B1FFE7FCF719FAFFE74FF48050DE
:10490000089040F61830C2F2000008A9FEF7C8FB74
:1049100018B1FFE7FCF70AFAFFE740F61830C2F2D9
:104920000000FEF7EDFE18B1FFE7FCF7FFF9FFE727
:1049300060200190002202920392059240F6183006
:10494000C2F2000001A9FEF739FE18B1FFE7FCF73B
:10495000EDF9FFE740F61830C2F2000001A9042289
:10496000FEF72CFE18B1FFE7FCF7E0F9FFE740F691
:104970001830C2F20000FEF795FD0CB080BD0000BB
:1049800080B582B040F63840C2F20000019044F693
:104990000041C4F2000101604FF4E13141600021A7
:1049A0008160C16001610C2242618161C161FEF7D9
:1049B000F9FE18B1FFE7FCF7B9F9FFE702B080BDD7
:1049C00080B582B040F66030C2F20000019041F242
:1049D0000001C4F2010101604FF4E13141600021A6
:1049E0008160C16001610C2242618161C161FEF799
:1049F000D9FE18B1FFE7FCF799F9FFE702B080BDD7
:104A000080B582B040F6A830C2F20000019044F2B6
:104A10000041C4F2000101604FF4E1314160002126
:104A20008160C16001610C2242618161C161FEF758
:104A3000B9FE18B1FFE7FCF779F9FFE702B080BDD6
:104A400080B582B040F6F030C2F20000019044F62A
:104A50000001C4F2000101604FF4E1314160002126
:104A60008160C16001610C2242618161C161FEF718
:104A700099FE18B1FFE7FCF759F9FFE702B080BDD6
:104A800080B582B040F68040C2F20000019041F251
:104A90000041C4F2010101604FF4E13141600021A5
:104AA0008160C16001610C2242618161C161FEF7D8
:104AB00079FE18B1FFE7FCF739F9FFE702B080BDD6
:104AC00080B582B040F20C40C2F2000001904FF07D
:104AD000A0410160042101710222C2710021817193
:104AE00042728172C17201738173C173FDF7AEF9B5
:104AF00018B1FFE7FCF71AF9FFE702B080BD00002C
:104B0000FFE7FEE782B00190009102B0704700001D
:104B1000FFE7FEE788B0079006910592079800F03E
:104B2000070004900498C0F10700052803D3FFE7AD
:104B30000420019004E00498C0F107000190FFE711
:104B40000198039004980430062803D8FFE700205A
:104B5000009003E0049803380090FFE7009802906B
:104B600006980399012202FA01F101390840029BDB
:104B7000984005999A40013A1140084308B070479F
:104B800080B584B0039003F0F7F8ADF80A00FFE7B2
:104B900003F0F2F8BDF80A10411AB1F1FF3018BF66
:104BA0000846ADF8080003F0E7F8ADF80A0040F257
:104BB0001420C2F2000001900068BDF80810FBF755
:104BC000A5FD01980068D0F88C21BDF80810904729
:104BD0000A2002F02BFEDBE780B582B0019003F0E3
:104BE000CBF8ADF80200FFE703F0C6F8BDF80210FD
:104BF000411AB1F1FF3018BF0846ADF8000003F0CC
:104C0000BBF8ADF8020040F6B850C2F200000068F0
:104C1000BDF8001000F008F9322002F007FEE3E7CB
:104C200080B584B00390FFE740F21420C2F2000088
:104C3000006840F21821C2F200010968009140F2B8
:104C40001C21C2F200010968019140F22021C2F248
:104C50000001096802919DED000ADDED010A9DED5C
:104C6000021A0121FBF716FF4FF4FA7002F0DEFD85
:104C7000DAE7000080B588B00790069105920493AA
:104C80008DED030ACDED020A8DED011A079946F666
:104C90004120C0F600008866079946F68120C0F6DC
:104CA0000000C8660798D0F868C00699059A049B6A
:104CB0009DED030ADDED020A9DED011AE04708B003
:104CC00080BD0000000000000000000000000000A7
:104CD000EFF30980BFF36F8F154B1A681EF0100FAA
:104CE00008BF20ED108A20E9F04F10602DE909007F
:104CF0004FF0500080F31188BFF34F8FBFF36F8FD9
:104D000002F03CFE4FF0000080F31188BDE809007E
:104D100019680868B0E8F04F1EF0100F08BFB0EC3B
:104D2000108A80F30988BFF36F8F704700BF00BF00
:104D3000BC0D002080B5ACB02B902A912B9800219F
:104D4000019101602B9881802B9A279128912991BC
:104D50002798289BDDF8A4C0C2F81CC0936150615D
:104D60002B98203023912291259124911F911E91FF
:104D7000219120911B911A911D911C919DED220B67
:104D80009DED241B9DED1E2B9DED203B9DED1A4BB3
:104D90009DED1C5BFBF7F6FE01992B9848301791AF
:104DA00016911991189113911291159114910F91D7
:104DB0000E91119110919DED160B9DED181B9DED1F
:104DC000122B9DED143B9DED0E4B9DED105BFBF703
:104DD000D9FE01992B9870300B910A910D910C918D
:104DE000079106910991089103910291059104910F
:104DF0009DED0A0B9DED0C1B9DED062B9DED083BDB
:104E00009DED024B9DED045BFBF7BCFE2A982B99B0
:104E1000C1F898002B989C3000F074F901982B99F8
:104E200081F89D002CB080BD80B594B01390ADF892
:104E30004A10BDF84A201399888810448880139836
:104E4000808800EE100AB8EE400A10EE100A03F057
:104E500009FF41EC100B9FED9E1B53EC112B51EC05
:104E6000100B03F0ABFB41EC100B51EC100B03F0FB
:104E700067FB119013989C3000F04CF9002840F02B
:104E80002581FFE7139890F89D000146089120B115
:104E9000FFE70898012835D016E1139820309DEDE2
:104EA000110AFBF7FBFE8DED0E0A139848309DEDBD
:104EB000110AFBF7F3FE8DED0F0A139870309DED8C
:104EC000110AFBF7EBFE8DED100A1398D0F898004D
:104ED0009DED0E0ADDED0F0A9DED101A0121FBF785
:104EE000D9FD9DED110A139890ED001AB4EE410A18
:104EF000F1EE10FA05DBFFE713989C3000F012F991
:104F0000FFE7E2E09DED110A139890ED001AB4EE70
:104F1000410AF1EE10FA06DDFFE7139890ED000A62
:104F20008DED070A04E09DED110A8DED070AFFE7FC
:104F30009DED070A8DED110A139820309DED110AA1
:104F4000FBF7D6FD139890ED021A30EE010A8DEDB5
:104F50000B0A139848309DED110AFBF7C9FD139811
:104F600090ED031A30EE010A8DED0C0A13987030A3
:104F70009DED110AFBF7BCFD139890ED041A30EE7D
:104F8000010A8DED0D0A1398D0F89800D0F884111D
:104F900001F13C020BA90023FBF7E4FB1398D0F8C6
:104FA0009800D0F884013C300A901398D0F898000B
:104FB000D0F884010C300990139890ED050A0998F7
:104FC00090ED001A30EE410A10EE100A03F04AFE8E
:104FD00041EC100B51EC100B9FED3F0B52EC103BD2
:104FE000D20F62F3DF7141EC100B8DED040B0A98C8
:104FF000006803F037FE9DED041B41EC100B51ECF3
:10500000110B53EC102B03F06DFE00285BD1FFE772
:10501000139890ED060A099890ED011A30EE410AB6
:1050200010EE100A03F01EFE41EC100B51EC100BB9
:105030009FED290B52EC103BD20F62F3DF7141EC74
:10504000100B8DED020B0A98406803F00BFE9DEDEE
:10505000021B41EC100B51EC110B53EC102B03F025
:1050600041FE80BBFFE7139890ED070A099890ED89
:10507000021A30EE410A10EE100A03F0F3FD41EC83
:10508000100B51EC100B9FED140B52EC103BD20F98
:1050900062F3DF7141EC100B8DED000B0A98806814
:1050A00003F0E0FD9DED001B41EC100B51EC110BEA
:1050B00053EC102B03F016FE28B9FFE713989C3031
:1050C00000F030F8FFE700E0FFE7FFE714B080BD35
:1050D0000000000000408F400000000000000000C1
:1050E000074B19680868B0E8F04F80F30988BFF3F0
:1050F0006F8F4FF0000080F31188704700BF00BF32
:10510000BC0D002081B0009000990020087001B013
:105110007047000081B000900098007800F0010016
:1051200001B0704781B0009000990120087001B073
:105130007047000081B0009000990020087001B015
:105140007047000080B582B00190FFE7012001F0B8
:10515000A3FAFBE782B001908DF803109DF80300DD
:10516000019908700199FF204870019966208870A4
:1051700001996B20C870042002B0704710B583B04D
:105180008C46864606980599CDF808E08DF807C04C
:105190008DF80620ADF804308DF803108DF802006C
:1051A0009DF80700029908700299F62048709DF852
:1051B0000600029988709DF805000299C8709DF854
:1051C0000400029908719DF80300029948719DF846
:1051D000020000F001000299887102996B20C871E9
:1051E000082003B010BD000080B586B08446089842
:1051F000CDF814C0049103928DF80B308DED010AA7
:105200008DF8030004980599086003980599486390
:105210009DF80B00059981F8380001980599C8633D
:105220009DF80300059900F0010081F8400006B0E8
:1052300080BD000080B582B0009000980138B0F1C8
:10524000807F03D3FFE70120019019E00098013827
:105250004EF21401CEF2000108604FF0FF300F2132
:1052600001F03CF84EF21801CEF200010020086077
:105270004EF21002CEF20002072111600190FFE70A
:10528000019802B080BD000080B5FCF72FFD02F050
:1052900057FD012803D0FFE702F07CFCFFE780BD4B
:1052A00080B594B008A83021FBF76CF80020079077
:1052B0000690059004900390FFE70020029043F6CB
:1052C0004000C4F20200016841F0805101600068B2
:1052D00000F0805002900298FFE7FFE70020019065
:1052E00047F20000C4F20000016841F4804101600F
:1052F000006800F4804001900198FFE701200890C9
:105300004FF48030099002200E904FF480010F91ED
:105310000C211091A821119112900720139008A838
:10532000FDF7D6F818B1FFE7FBF700FDFFE70F2008
:10533000039002200490002005904FF4A0500690A6
:105340004FF48050079003A80521FCF7F1FE18B137
:10535000FFE7FBF7EBFCFFE714B080BD4EF688518A
:10536000CEF20001086840F4700008607047000049
:1053700083B0029001910298006800900298002189
:10538000C4F20101884225D0FFE70298B0F1804FB6
:1053900020D0FFE7029840F20041C4F200018842A9
:1053A00018D0FFE7029840F60001C4F200018842DD
:1053B00010D0FFE7029840F60041C4F20001884295
:1053C00008D0FFE7029840F20041C4F20101884290
:1053D0000AD1FFE7009820F0700000900198416822
:1053E000009808430090FFE702980021C4F20101F1
:1053F000884255D0FFE70298B0F1804F50D0FFE7C8
:10540000029840F20041C4F20001884248D0FFE710
:10541000029840F60001C4F20001884240D0FFE744
:10542000029840F60041C4F20001884238D0FFE7FC
:10543000029840F20041C4F20101884230D0FFE7F7
:10544000029844F20001C4F20101884228D0FFE72B
:10545000029844F20041C4F20101884220D0FFE7E3
:10546000029844F60001C4F20101884218D0FFE717
:10547000029841F60001C4F20001884210D0FFE713
:10548000029841F60041C4F20001884208D0FFE7CB
:10549000029842F20001C4F2000188420AD1FFE7FB
:1054A000009820F4407000900198C168009808436B
:1054B0000090FFE7009820F08000019949690843B7
:1054C0000090009802990860019880680299C8626B
:1054D000019800680299886202980021C4F20101D3
:1054E000884208D0FFE7029840F20041C4F201016F
:1054F000884205D1FFE70198006902990863FFE738
:1055000002990120486102980069C00730B1FFE7A5
:105510000299086920F001000861FFE703B07047B5
:1055200085B00490039102920193049880680090E2
:10553000009820F47F40009003980299019A41EA74
:105540000221014300980843009000980499886064
:1055500005B0704783B00290019102988068009076
:10556000009820F07000009001980099084340F0E6
:105570000700009000980299886003B0704700000F
:1055800085B0049003910498006A01900499086A18
:1055900020F0010008620498406800900498806937
:1055A0000290029820F070000290029820F0030010
:1055B000029003980168029808430290019820F035
:1055C00002000190039881680198084301900498B3
:1055D0000021C4F20101884208D0FFE7049840F29C
:1055E0000041C4F2010188420ED1FFE7019820F08A
:1055F000080001900398C168019808430190019840
:1056000020F004000190FFE704980021C4F201019A
:10561000884208D0FFE7049840F20041C4F201013B
:10562000884213D1FFE7009820F480700090009822
:1056300020F400700090039841690098084300909E
:1056400003988169009808430090FFE70098049947
:1056500048600298049988610398406804994863F7
:1056600001980499086205B07047000085B0049065
:1056700003910498006A01900499086A20F01000D0
:10568000086204984068009004988069029002982B
:1056900020F4E0400290029820F4407002900398B9
:1056A0000168029840EA01200290019820F0200051
:1056B000019003988168019840EA011001900498D4
:1056C0000021C4F20101884208D0FFE7049840F2AB
:1056D0000041C4F2010188420FD1FFE7019820F098
:1056E000800001900398C168019840EA0110019080
:1056F000019820F040000190FFE704980021C4F2D7
:105700000101884208D0FFE7049840F20041C4F24A
:105710000101884215D1FFE7009820F480600090D5
:10572000009820F40060009003984169009840EAD6
:105730008100009003988169009840EA8100009000
:10574000FFE70098049948600298049988610398DB
:1057500040680499886301980499086205B070470D
:1057600085B0049003910498006A01900499086A36
:1057700020F4807008620498406800900498C06922
:105780000290029820F070000290029820F003002E
:10579000029003980168029808430290019820F44F
:1057A0000070019003988168019840EA01200190FF
:1057B00004980021C4F20101884208D0FFE7049850
:1057C00040F20041C4F2010188420FD1FFE7019885
:1057D00020F4006001900398C168019840EA01201C
:1057E0000190019820F480600190FFE70498002167
:1057F000C4F20101884208D0FFE7049840F200415A
:10580000C4F20101884215D1FFE7009820F48050CE
:105810000090009820F4005000900398416900988F
:1058200040EA0110009003988169009840EA011055
:105830000090FFE700980499486002980499C861B5
:10584000039840680499C86301980499086205B0F8
:105850007047000085B0049003910498006A01909D
:105860000499086A20F48050086204984068009007
:105870000498C0690290029820F4E04002900298D7
:1058800020F44070029003980168029840EA0120D9
:105890000290019820F400500190039881680198CB
:1058A00040EA0130019004980021C4F201018842CD
:1058B00008D0FFE7049840F20041C4F20101884299
:1058C0000BD1FFE7009820F48040009003984169D5
:1058D000009840EA81100090FFE700980499486022
:1058E00002980499C8610398406804990864019873
:1058F0000499086205B0704785B004900391029244
:105900000498006A00900499086A20F00100086277
:10591000049880690190019820F0F00001900299AC
:10592000019840EA01100190009820F00A000090D0
:1059300003990098084300900198049988610098A1
:105940000499086205B0704785B0049003910292F3
:105950000498006A00900499086A20F01000086218
:10596000049880690190019820F470400190029998
:10597000019840EA01300190009820F0A0000090CA
:105980000399009840EA01100090019804998861F9
:1059900000980499086205B07047000084B0039035
:1059A000FFE7FFE70398006850E8030F20F49070CA
:1059B0000290FFE702990398026842E8031000286A
:1059C000F0D1FFE7FFE7FFE7FFE70398006850E843
:1059D000050F20F001000190FFE70199039802688C
:1059E00042E805100028F0D1FFE7FFE70398006BBD
:1059F000012814D1FFE7FFE7FFE70398006850E8AC
:105A0000030F20F010000090FFE700990398026850
:105A100042E803100028F0D1FFE7FFE7FFE7039912
:105A2000202081F8420003990020086304B07047E9
:105A300080B586B0059005980068006920F4405054
:105A4000059A1168D26810430861059988680B6946
:105A50004A69C969184310430843049005980068CF
:105A6000C06849F20C6188430499084305990968A4
:105A7000C86005980068406920F44070059A116874
:105A80009269104348610598006841F20001C4F230
:105A90000101884209D0FFE70598006841F2004102
:105AA000C4F20101884204D1FFE7FCF78BFC0390AC
:105AB00003E0FCF775FC0390FFE70598C069B0F5BB
:105AC000004F29D1FFE703981921A0FB0101059A96
:105AD0001368029353685A00DB0FFAF7DBFB029955
